{
  "address": "0x31439508016D1f6560FD4709c27542d9898C0Fc4",
  "abi": [
    {
      "inputs": [],
      "name": "SSR__initGuardians__underflow",
      "type": "error"
    },
    {
      "inputs": [],
      "name": "SSR__initRecoveryOwners__underflow",
      "type": "error"
    },
    {
      "inputs": [],
      "name": "SSR__onlyWallet__notWallet",
      "type": "error"
    },
    {
      "inputs": [],
      "name": "SSR__removeGuardian__incorrectPreviousGuardian",
      "type": "error"
    },
    {
      "inputs": [],
      "name": "SSR__removeGuardian__invalidAddress",
      "type": "error"
    },
    {
      "inputs": [],
      "name": "SSR__removeGuardian__underflow",
      "type": "error"
    },
    {
      "inputs": [],
      "name": "SSR__removeRecoveryOwner__incorrectPreviousRecoveryOwner",
      "type": "error"
    },
    {
      "inputs": [],
      "name": "SSR__removeRecoveryOwner__invalidAddress",
      "type": "error"
    },
    {
      "inputs": [],
      "name": "SSR__removeRecoveryOwner__underflow",
      "type": "error"
    },
    {
      "inputs": [],
      "name": "SSR__swapGuardian__invalidOldGuardian",
      "type": "error"
    },
    {
      "inputs": [],
      "name": "SSR__swapGuardian__invalidPrevGuardian",
      "type": "error"
    },
    {
      "inputs": [],
      "name": "SSR__swapRecoveryOwner__invalidOldRecoveryOwner",
      "type": "error"
    },
    {
      "inputs": [],
      "name": "SSR__swapRecoveryOwner__invalidPrevRecoveryOwner",
      "type": "error"
    },
    {
      "inputs": [],
      "name": "SSR__verifyNewRecoveryOwnerOrGuardian__invalidAddress",
      "type": "error"
    },
    {
      "inputs": [],
      "name": "Utils__returnSigner__invalidContractSignature",
      "type": "error"
    },
    {
      "inputs": [],
      "name": "Utils__returnSigner__invalidSignature",
      "type": "error"
    },
    {
      "inputs": [
        {
          "internalType": "address",
          "name": "wallet",
          "type": "address"
        },
        {
          "internalType": "address",
          "name": "newGuardian",
          "type": "address"
        }
      ],
      "name": "addGuardian",
      "outputs": [],
      "stateMutability": "nonpayable",
      "type": "function"
    },
    {
      "inputs": [
        {
          "internalType": "address",
          "name": "wallet",
          "type": "address"
        },
        {
          "internalType": "address",
          "name": "newRecoveryOwner",
          "type": "address"
        }
      ],
      "name": "addRecoveryOwner",
      "outputs": [],
      "stateMutability": "nonpayable",
      "type": "function"
    },
    {
      "inputs": [],
      "name": "domainSeparator",
      "outputs": [
        {
          "internalType": "bytes32",
          "name": "",
          "type": "bytes32"
        }
      ],
      "stateMutability": "view",
      "type": "function"
    },
    {
      "inputs": [],
      "name": "getChainId",
      "outputs": [
        {
          "internalType": "uint256",
          "name": "chainId",
          "type": "uint256"
        }
      ],
      "stateMutability": "view",
      "type": "function"
    },
    {
      "inputs": [
        {
          "internalType": "address",
          "name": "wallet",
          "type": "address"
        }
      ],
      "name": "getGuardians",
      "outputs": [
        {
          "internalType": "address[]",
          "name": "",
          "type": "address[]"
        }
      ],
      "stateMutability": "view",
      "type": "function"
    },
    {
      "inputs": [
        {
          "internalType": "address",
          "name": "wallet",
          "type": "address"
        }
      ],
      "name": "getRecoveryOwners",
      "outputs": [
        {
          "internalType": "address[]",
          "name": "",
          "type": "address[]"
        }
      ],
      "stateMutability": "view",
      "type": "function"
    },
    {
      "inputs": [
        {
          "internalType": "address",
          "name": "wallet",
          "type": "address"
        }
      ],
      "name": "getWalletTimeLock",
      "outputs": [
        {
          "internalType": "uint256",
          "name": "",
          "type": "uint256"
        }
      ],
      "stateMutability": "view",
      "type": "function"
    },
    {
      "inputs": [
        {
          "internalType": "address[]",
          "name": "_guardians",
          "type": "address[]"
        },
        {
          "internalType": "address[]",
          "name": "_recoveryOwners",
          "type": "address[]"
        }
      ],
      "name": "initSSR",
      "outputs": [],
      "stateMutability": "nonpayable",
      "type": "function"
    },
    {
      "inputs": [
        {
          "internalType": "address",
          "name": "wallet",
          "type": "address"
        },
        {
          "internalType": "address",
          "name": "guardian",
          "type": "address"
        }
      ],
      "name": "isGuardian",
      "outputs": [
        {
          "internalType": "bool",
          "name": "",
          "type": "bool"
        }
      ],
      "stateMutability": "view",
      "type": "function"
    },
    {
      "inputs": [
        {
          "internalType": "address",
          "name": "wallet",
          "type": "address"
        },
        {
          "internalType": "bytes",
          "name": "callData",
          "type": "bytes"
        },
        {
          "internalType": "uint256",
          "name": "maxFeePerGas",
          "type": "uint256"
        },
        {
          "internalType": "uint256",
          "name": "maxPriorityFeePerGas",
          "type": "uint256"
        },
        {
          "internalType": "uint256",
          "name": "gasLimit",
          "type": "uint256"
        },
        {
          "internalType": "address",
          "name": "relayer",
          "type": "address"
        },
        {
          "internalType": "bytes",
          "name": "signatures",
          "type": "bytes"
        }
      ],
      "name": "lock",
      "outputs": [],
      "stateMutability": "nonpayable",
      "type": "function"
    },
    {
      "inputs": [
        {
          "internalType": "address",
          "name": "wallet",
          "type": "address"
        },
        {
          "internalType": "bytes",
          "name": "callData",
          "type": "bytes"
        },
        {
          "internalType": "uint256",
          "name": "walletNonce",
          "type": "uint256"
        },
        {
          "internalType": "uint256",
          "name": "maxFeePerGas",
          "type": "uint256"
        },
        {
          "internalType": "uint256",
          "name": "maxPriorityFeePerGas",
          "type": "uint256"
        },
        {
          "internalType": "uint256",
          "name": "gasLimit",
          "type": "uint256"
        }
      ],
      "name": "operationHash",
      "outputs": [
        {
          "internalType": "bytes32",
          "name": "",
          "type": "bytes32"
        }
      ],
      "stateMutability": "view",
      "type": "function"
    },
    {
      "inputs": [
        {
          "internalType": "address",
          "name": "wallet",
          "type": "address"
        },
        {
          "internalType": "bytes",
          "name": "callData",
          "type": "bytes"
        },
        {
          "internalType": "uint256",
          "name": "maxFeePerGas",
          "type": "uint256"
        },
        {
          "internalType": "uint256",
          "name": "maxPriorityFeePerGas",
          "type": "uint256"
        },
        {
          "internalType": "uint256",
          "name": "gasLimit",
          "type": "uint256"
        },
        {
          "internalType": "address",
          "name": "relayer",
          "type": "address"
        },
        {
          "internalType": "bytes",
          "name": "signatures",
          "type": "bytes"
        }
      ],
      "name": "recover",
      "outputs": [],
      "stateMutability": "nonpayable",
      "type": "function"
    },
    {
      "inputs": [
        {
          "internalType": "address",
          "name": "wallet",
          "type": "address"
        },
        {
          "internalType": "address",
          "name": "prevGuardian",
          "type": "address"
        },
        {
          "internalType": "address",
          "name": "guardianToRemove",
          "type": "address"
        }
      ],
      "name": "removeGuardian",
      "outputs": [],
      "stateMutability": "nonpayable",
      "type": "function"
    },
    {
      "inputs": [
        {
          "internalType": "address",
          "name": "wallet",
          "type": "address"
        },
        {
          "internalType": "address",
          "name": "prevRecoveryOwner",
          "type": "address"
        },
        {
          "internalType": "address",
          "name": "recoveryOwnerToRemove",
          "type": "address"
        }
      ],
      "name": "removeRecoveryOwner",
      "outputs": [],
      "stateMutability": "nonpayable",
      "type": "function"
    },
    {
      "inputs": [
        {
          "internalType": "address",
          "name": "wallet",
          "type": "address"
        },
        {
          "internalType": "address",
          "name": "prevGuardian",
          "type": "address"
        },
        {
          "internalType": "address",
          "name": "newGuardian",
          "type": "address"
        },
        {
          "internalType": "address",
          "name": "oldGuardian",
          "type": "address"
        }
      ],
      "name": "swapGuardian",
      "outputs": [],
      "stateMutability": "nonpayable",
      "type": "function"
    },
    {
      "inputs": [
        {
          "internalType": "address",
          "name": "wallet",
          "type": "address"
        },
        {
          "internalType": "address",
          "name": "prevRecoveryOwner",
          "type": "address"
        },
        {
          "internalType": "address",
          "name": "newRecoveryOwner",
          "type": "address"
        },
        {
          "internalType": "address",
          "name": "oldRecoveryOwner",
          "type": "address"
        }
      ],
      "name": "swapRecoveryOwner",
      "outputs": [],
      "stateMutability": "nonpayable",
      "type": "function"
    },
    {
      "inputs": [
        {
          "internalType": "address",
          "name": "wallet",
          "type": "address"
        },
        {
          "internalType": "bytes",
          "name": "callData",
          "type": "bytes"
        },
        {
          "internalType": "uint256",
          "name": "maxFeePerGas",
          "type": "uint256"
        },
        {
          "internalType": "uint256",
          "name": "maxPriorityFeePerGas",
          "type": "uint256"
        },
        {
          "internalType": "uint256",
          "name": "gasLimit",
          "type": "uint256"
        },
        {
          "internalType": "address",
          "name": "relayer",
          "type": "address"
        },
        {
          "internalType": "bytes",
          "name": "signatures",
          "type": "bytes"
        }
      ],
      "name": "unlock",
      "outputs": [],
      "stateMutability": "nonpayable",
      "type": "function"
    }
  ],
  "transactionHash": "0x9b6203d6deadb3418be9d4416da9f5f177385e9face92f7a2997e4b77bdc121d",
  "args": [],
  "numDeployments": 1,
  "solcInputHash": "de78a7bd8420c51032966958e96a675c",
  "bytecode": "0x608060405234801561001057600080fd5b5061201d806100206000396000f3fe608060405234801561001057600080fd5b506004361061011b5760003560e01c80635ceb579b116100b2578063e5017d7c11610081578063f612c55411610066578063f612c55414610261578063f698da2514610274578063fc193368146102ce57600080fd5b8063e5017d7c1461022e578063f18858ab1461024e57600080fd5b80635ceb579b146101d2578063a60bd649146101e5578063c6845210146101f8578063d4ee97341461020b57600080fd5b80633b7db2a8116100ee5780633b7db2a8146101705780633c9735ca146101835780633e0eb5971461019657806353185ea3146101bf57600080fd5b8063201573be1461012057806327d86511146101355780632979bc6c146101485780633408e4701461015b575b600080fd5b61013361012e366004611a08565b6102e1565b005b610133610143366004611ac3565b6103ef565b610133610156366004611ac3565b610606565b465b6040519081526020015b60405180910390f35b61015d61017e366004611be2565b61087f565b610133610191366004611ac3565b6108a4565b61015d6101a4366004611c5a565b6001600160a01b031660009081526020819052604090205490565b6101336101cd366004611cbc565b610b81565b6101336101e0366004611d28565b610b9f565b6101336101f3366004611a08565b610cdb565b610133610206366004611d73565b610de9565b61021e610219366004611d73565b610e83565b6040519015158152602001610167565b61024161023c366004611c5a565b610ecc565b6040516101679190611dac565b61024161025c366004611c5a565b610fca565b61013361026f366004611d73565b6110bf565b61015d60007f47e79534a245952e8b16893a336b85a3d9ea9fa8c573f3d803afb92a794692184660408051602081019390935282015230606082015260800160405160208183030381529060405280519060200120905090565b6101336102dc366004611d28565b611158565b83336001600160a01b0382161461030b57604051632507a10360e21b815260040160405180910390fd5b6103158584611295565b6001600160a01b038581166000908152600360209081526040808320888516845290915290205481169083161461035f57604051632e3f629360e01b815260040160405180910390fd5b6000196001600160a01b0383160161038a57604051631e07136760e11b815260040160405180910390fd5b506001600160a01b03938416600090815260036020908152604080832093871680845293909152808220805494871680845282842080549689166001600160a01b03199788161790559590961682528120805484169094179093559091528154169055565b6000886001600160a01b031663affed0e06040518163ffffffff1660e01b8152600401602060405180830381865afa15801561042f573d6000803e3d6000fd5b505050506040513d601f19601f820116820180604052508101906104539190611df9565b905060006104668a8a8a858b8b8b611443565b80516020909101209050637c1e845d60e11b610482898b611e12565b6001600160e01b031916146104de5760405162461bcd60e51b815260206004820152601360248201527f73686f756c64206265207468652073616d65210000000000000000000000000060448201526064015b60405180910390fd5b60006104ec828560006115a4565b6001600160a01b038c8116600090815260036020908152604080832084861684529091529020549192501661052057600080fd5b600061052e838660016115a4565b6001600160a01b038d8116600090815260046020908152604080832084861684529091529020549192501661056257600080fd5b426000808e6001600160a01b03166001600160a01b03168152602001908152602001600020819055508b6001600160a01b03166323d43c168d60008e8e8e8e8e8e6040518963ffffffff1660e01b81526004016105c6989796959493929190611e42565b600060405180830381600087803b1580156105e057600080fd5b505af11580156105f4573d6000803e3d6000fd5b50505050505050505050505050505050565b6000886001600160a01b031663affed0e06040518163ffffffff1660e01b8152600401602060405180830381865afa158015610646573d6000803e3d6000fd5b505050506040513d601f19601f8201168201806040525081019061066a9190611df9565b9050600061067d8a8a8a858b8b8b611443565b8051602090910120905063a6f9dae160e01b610699898b611e12565b6001600160e01b031916146106f05760405162461bcd60e51b815260206004820152601760248201527f73686f756c64206265206368616e6765206f776e65722e00000000000000000060448201526064016104d5565b60006106fe828560006115a4565b6001600160a01b038c8116600090815260036020908152604080832084861684529091529020549192501661073257600080fd5b6000610740838660016115a4565b6001600160a01b038d811660009081526004602090815260408083208486168452909152902054919250166107a55760405162461bcd60e51b815260206004820152600b60248201526a3737b81039b4b3b732b91960a91b60448201526064016104d5565b6001600160a01b038c1660009081526020819052604090205442906107cd9062093a80611ec0565b1061081a5760405162461bcd60e51b815260206004820152600e60248201527f696e636f72726563742074696d6500000000000000000000000000000000000060448201526064016104d5565b60008060008e6001600160a01b03166001600160a01b03168152602001908152602001600020819055508b6001600160a01b03166323d43c168d60008e8e8e8e8e8e6040518963ffffffff1660e01b81526004016105c6989796959493929190611e42565b600061089088888888888888611443565b805190602001209050979650505050505050565b6000886001600160a01b031663affed0e06040518163ffffffff1660e01b8152600401602060405180830381865afa1580156108e4573d6000803e3d6000fd5b505050506040513d601f19601f820116820180604052508101906109089190611df9565b9050600061091b8a8a8a858b8b8b611443565b8051602090910120905063a69df4b560e01b610937898b611e12565b6001600160e01b0319161461098e5760405162461bcd60e51b815260206004820152601360248201527f73686f756c64206265207468652073616d65210000000000000000000000000060448201526064016104d5565b60008a6001600160a01b0316638da5cb5b6040518163ffffffff1660e01b8152600401602060405180830381865afa1580156109ce573d6000803e3d6000fd5b505050506040513d601f19601f820116820180604052508101906109f29190611ed8565b90506001600160a01b038116610a0757600080fd5b6000610a15838660006115a4565b9050816001600160a01b0316816001600160a01b031614610a3557600080fd5b6000610a43848760016115a4565b6001600160a01b038e81166000908152600460209081526040808320848616845290915290205491925016151580610aa157506001600160a01b038d8116600090815260036020908152604080832085851684529091529020541615155b610adb5760405162461bcd60e51b815260206004820152600b60248201526a3737b81039b4b3b732b91960a91b60448201526064016104d5565b60008060008f6001600160a01b03166001600160a01b03168152602001908152602001600020819055508c6001600160a01b03166323d43c168e60008f8f8f8f8f8f6040518963ffffffff1660e01b8152600401610b40989796959493929190611e42565b600060405180830381600087803b158015610b5a57600080fd5b505af1158015610b6e573d6000803e3d6000fd5b5050505050505050505050505050505050565b33610b8d8186866117fc565b610b988184846118f6565b5050505050565b82336001600160a01b03821614610bc957604051632507a10360e21b815260040160405180910390fd5b6001600160a01b03841660009081526001602052604090205460021115610c035760405163dfc8891760e01b815260040160405180910390fd5b6000196001600160a01b03831601610c2e5760405163213cf76760e21b815260040160405180910390fd5b6001600160a01b0384811660009081526003602090815260408083208785168452909152902054811690831614610c785760405163763de2e960e11b815260040160405180910390fd5b506001600160a01b0392831660008181526003602090815260408083209487168352938152838220805495871683528483208054969097166001600160a01b03199687161790965585549094169094558352600190915290208054600019019055565b83336001600160a01b03821614610d0557604051632507a10360e21b815260040160405180910390fd5b610d0f8584611295565b6001600160a01b0385811660009081526004602090815260408083208885168452909152902054811690831614610d59576040516371331bbf60e11b815260040160405180910390fd5b6000196001600160a01b03831601610d84576040516337d7d27160e11b815260040160405180910390fd5b506001600160a01b03938416600090815260046020908152604080832093871680845293909152808220805494871680845282842080549689166001600160a01b03199788161790559590961682528120805484169094179093559091528154169055565b81336001600160a01b03821614610e1357604051632507a10360e21b815260040160405180910390fd5b610e1d8383611295565b506001600160a01b039182166000818152600460209081526040808320600180855290835281842080549688168086528386208054989099166001600160a01b031998891617909855805490961690961790945591815260029091522080549091019055565b6001600160a01b038281166000908152600460209081526040808320858516845290915281205490911615801590610ec557506001600160a01b038216600114155b9392505050565b6001600160a01b0381166000908152600160205260408120546060919067ffffffffffffffff811115610f0157610f01611aad565b604051908082528060200260200182016040528015610f2a578160200160208202803683370190505b506001600160a01b038085166000908152600360209081526040808320600184529091528120549293509116905b6001600160a01b038216600114610fc15781838281518110610f7c57610f7c611ef5565b6001600160a01b039283166020918202929092018101919091528682166000908152600382526040808220958416825294909152929092205490911690600101610f58565b50909392505050565b6001600160a01b0381166000908152600260205260408120546060919067ffffffffffffffff811115610fff57610fff611aad565b604051908082528060200260200182016040528015611028578160200160208202803683370190505b506001600160a01b038085166000908152600460209081526040808320600184529091528120549293509116905b6001600160a01b038216600114610fc1578183828151811061107a5761107a611ef5565b6001600160a01b039283166020918202929092018101919091528682166000908152600482526040808220958416825294909152929092205490911690600101611056565b81336001600160a01b038216146110e957604051632507a10360e21b815260040160405180910390fd5b6110f38383611295565b506001600160a01b039182166000818152600360209081526040808320600180855290835281842080549688168086528386208054989099166001600160a01b0319988916179098558054909616909617909455918152908390522080549091019055565b82336001600160a01b0382161461118257604051632507a10360e21b815260040160405180910390fd5b6001600160a01b03841660009081526002602081905260409091205410156111bd5760405163342a2dc560e21b815260040160405180910390fd5b6000196001600160a01b038316016111e8576040516302f412b360e21b815260040160405180910390fd5b6001600160a01b03848116600090815260046020908152604080832087851684529091529020548116908316146112325760405163475347b160e11b815260040160405180910390fd5b506001600160a01b0392831660008181526004602090815260408083209487168352938152838220805495871683528483208054969097166001600160a01b03199687161790965585549094169094558352600290915290208054600019019055565b6000826001600160a01b0316638da5cb5b6040518163ffffffff1660e01b8152600401602060405180830381865afa1580156112d5573d6000803e3d6000fd5b505050506040513d601f19601f820116820180604052508101906112f99190611ed8565b90506001600160a01b0382163b15611397576040516301ffc9a760e01b8152630b135d3f60e11b60048201526001600160a01b038316906301ffc9a790602401602060405180830381865afa158015611356573d6000803e3d6000fd5b505050506040513d601f19601f8201168201806040525081019061137a9190611f0b565b61139757604051633da224f960e11b815260040160405180910390fd5b6001600160a01b03821615806113be5750806001600160a01b0316826001600160a01b0316145b806113ef57506001600160a01b03838116600090815260046020908152604080832086851684529091529020541615155b8061142057506001600160a01b03838116600090815260036020908152604080832086851684529091529020541615155b1561143e57604051633da224f960e11b815260040160405180910390fd5b505050565b606060007fc40b8dc0d755f1e39d88989f5d7007e3569df60482f4eb6c7eaeb3cbcbf6eab3898989604051611479929190611f2d565b6040805191829003822060208301949094526001600160a01b039092169181019190915260608101919091526080810187905260a0810186905260c0810185905260e081018490526101000160408051601f1981840301815291905280516020909101209050601960f81b600160f81b61154360007f47e79534a245952e8b16893a336b85a3d9ea9fa8c573f3d803afb92a794692184660408051602081019390935282015230606082015260800160405160208183030381529060405280519060200120905090565b6040517fff000000000000000000000000000000000000000000000000000000000000009384166020820152929091166021830152602282015260428101829052606201604051602081830303815290604052915050979650505050505050565b6000806000806115ce86866041020160208101516040820151606090920151909260009190911a90565b9194509250905060ff81166000036116a657604051630b135d3f60e11b81529293508392868301602001906001600160a01b03851690631626ba7e9061161a908b908590600401611f3d565b602060405180830381865afa158015611637573d6000803e3d6000fd5b505050506040513d601f19601f8201168201806040525081019061165b9190611f9a565b7bffffffffffffffffffffffffffffffffffffffffffffffffffffffff1916631626ba7e60e01b146116a0576040516340aec60f60e11b815260040160405180910390fd5b506117cb565b601e8160ff16111561176b576040517f19457468657265756d205369676e6564204d6573736167653a0a3332000000006020820152603c8101889052600190605c016040516020818303038152906040528051906020012060048361170b9190611fc4565b6040805160008152602081018083529390935260ff90911690820152606081018590526080810184905260a0016020604051602081039080840390855afa15801561175a573d6000803e3d6000fd5b5050506020604051035193506117cb565b60408051600081526020810180835289905260ff831691810191909152606081018490526080810183905260019060a0016020604051602081039080840390855afa1580156117be573d6000803e3d6000fd5b5050506020604051035193505b6001600160a01b0384166117f25760405163b9bf1d7d60e01b815260040160405180910390fd5b5050509392505050565b80600181101561181f57604051630d2aa0bf60e11b815260040160405180910390fd5b60016000805b838110156118a75785858281811061183f5761183f611ef5565b90506020020160208101906118549190611c5a565b6001600160a01b03888116600090815260046020908152604080832097841683529690529490942080546001600160a01b0319169482169490941790935582915061189f8783611295565b600101611825565b50506001600160a01b03948516600081815260046020908152604080832094909816825292835286812080546001600160a01b0319166001179055908152600290915293909320929092555050565b806001811015611919576040516354f4eccd60e11b815260040160405180910390fd5b60016000805b838110156119a15785858281811061193957611939611ef5565b905060200201602081019061194e9190611c5a565b6001600160a01b03888116600090815260036020908152604080832097841683529690529490942080546001600160a01b031916948216949094179093558291506119998783611295565b60010161191f565b50506001600160a01b03948516600081815260036020908152604080832094909816825292835286812080546001600160a01b0319166001908117909155918152915293909320929092555050565b6001600160a01b0381168114611a0557600080fd5b50565b60008060008060808587031215611a1e57600080fd5b8435611a29816119f0565b93506020850135611a39816119f0565b92506040850135611a49816119f0565b91506060850135611a59816119f0565b939692955090935050565b60008083601f840112611a7657600080fd5b50813567ffffffffffffffff811115611a8e57600080fd5b602083019150836020828501011115611aa657600080fd5b9250929050565b634e487b7160e01b600052604160045260246000fd5b60008060008060008060008060e0898b031215611adf57600080fd5b8835611aea816119f0565b9750602089013567ffffffffffffffff80821115611b0757600080fd5b611b138c838d01611a64565b909950975060408b0135965060608b0135955060808b0135945060a08b01359150611b3d826119f0565b90925060c08a01359080821115611b5357600080fd5b818b0191508b601f830112611b6757600080fd5b813581811115611b7957611b79611aad565b604051601f8201601f19908116603f01168101908382118183101715611ba157611ba1611aad565b816040528281528e6020848701011115611bba57600080fd5b8260208601602083013760006020848301015280955050505050509295985092959890939650565b600080600080600080600060c0888a031215611bfd57600080fd5b8735611c08816119f0565b9650602088013567ffffffffffffffff811115611c2457600080fd5b611c308a828b01611a64565b989b909a509798604081013598606082013598506080820135975060a09091013595509350505050565b600060208284031215611c6c57600080fd5b8135610ec5816119f0565b60008083601f840112611c8957600080fd5b50813567ffffffffffffffff811115611ca157600080fd5b6020830191508360208260051b8501011115611aa657600080fd5b60008060008060408587031215611cd257600080fd5b843567ffffffffffffffff80821115611cea57600080fd5b611cf688838901611c77565b90965094506020870135915080821115611d0f57600080fd5b50611d1c87828801611c77565b95989497509550505050565b600080600060608486031215611d3d57600080fd5b8335611d48816119f0565b92506020840135611d58816119f0565b91506040840135611d68816119f0565b809150509250925092565b60008060408385031215611d8657600080fd5b8235611d91816119f0565b91506020830135611da1816119f0565b809150509250929050565b6020808252825182820181905260009190848201906040850190845b81811015611ded5783516001600160a01b031683529284019291840191600101611dc8565b50909695505050505050565b600060208284031215611e0b57600080fd5b5051919050565b6001600160e01b03198135818116916004851015611e3a5780818660040360031b1b83161692505b505092915050565b60006001600160a01b03808b16835289602084015260e060408401528760e0840152610100888a828601376000848a01820152606084019790975260808301959095525060a081019290925290911660c0820152601f909201601f1916909101019392505050565b634e487b7160e01b600052601160045260246000fd5b60008219821115611ed357611ed3611eaa565b500190565b600060208284031215611eea57600080fd5b8151610ec5816119f0565b634e487b7160e01b600052603260045260246000fd5b600060208284031215611f1d57600080fd5b81518015158114610ec557600080fd5b8183823760009101908152919050565b82815260006020604081840152835180604085015260005b81811015611f7157858101830151858201606001528201611f55565b81811115611f83576000606083870101525b50601f01601f191692909201606001949350505050565b600060208284031215611fac57600080fd5b81516001600160e01b031981168114610ec557600080fd5b600060ff821660ff841680821015611fde57611fde611eaa565b9003939250505056fea26469706673582212203e48666c3a6a88e7661f4d6a7d338f0a34193592b1f1a6f3ba9cef1edb3bd7a064736f6c634300080f0033",
  "devdoc": {
    "errors": {
      "SSR__removeGuardian__underflow()": [
        {
          "details": "removeGuardian() custom errors."
        }
      ],
      "SSR__removeRecoveryOwner__underflow()": [
        {
          "details": "removeRecoveryOwner() custom errors."
        }
      ],
      "SSR__swapGuardian__invalidPrevGuardian()": [
        {
          "details": "swapGuardian() custom errors."
        }
      ],
      "SSR__swapRecoveryOwner__invalidPrevRecoveryOwner()": [
        {
          "details": "swapRecoveryOwner() custom errors."
        }
      ]
    },
    "kind": "dev",
    "methods": {
      "getChainId()": {
        "details": "Returns the chain id of this."
      },
      "initSSR(address[],address[])": {
        "details": "Inits the module."
      },
      "lock(address,bytes,uint256,uint256,uint256,address,bytes)": {
        "details": "Locks the target wallet. Can only be called by the recovery owner + guardian."
      },
      "unlock(address,bytes,uint256,uint256,uint256,address,bytes)": {
        "details": "Unlocks the target wallet."
      }
    },
    "stateVariables": {
      "POINTER": {
        "details": "POINTER to create a mapping link list."
      },
      "timeLock": {
        "details": "timeLock keeps track of the recovery time delay. It gets set to 'block.timestamp' when 'lock' is triggered."
      }
    },
    "version": 1
  },
  "userdoc": {
    "kind": "user",
    "methods": {
      "initSSR(address[],address[])": {
        "notice": "The target wallet is the 'msg.sender'."
      },
      "unlock(address,bytes,uint256,uint256,uint256,address,bytes)": {
        "notice": "Can only be called with the signature of the wallet's owner + recovery owner or  owner + guardian."
      }
    },
    "version": 1
  },
  "storageLayout": {
    "storage": [
      {
        "astId": 3109,
        "contract": "contracts/modules/laser-modules/LaserModuleSSR.sol:LaserModuleSSR",
        "label": "timeLock",
        "offset": 0,
        "slot": "0",
        "type": "t_mapping(t_address,t_uint256)"
      },
      {
        "astId": 3113,
        "contract": "contracts/modules/laser-modules/LaserModuleSSR.sol:LaserModuleSSR",
        "label": "recoveryOwnerCount",
        "offset": 0,
        "slot": "1",
        "type": "t_mapping(t_address,t_uint256)"
      },
      {
        "astId": 3117,
        "contract": "contracts/modules/laser-modules/LaserModuleSSR.sol:LaserModuleSSR",
        "label": "guardianCount",
        "offset": 0,
        "slot": "2",
        "type": "t_mapping(t_address,t_uint256)"
      },
      {
        "astId": 3123,
        "contract": "contracts/modules/laser-modules/LaserModuleSSR.sol:LaserModuleSSR",
        "label": "recoveryOwners",
        "offset": 0,
        "slot": "3",
        "type": "t_mapping(t_address,t_mapping(t_address,t_address))"
      },
      {
        "astId": 3129,
        "contract": "contracts/modules/laser-modules/LaserModuleSSR.sol:LaserModuleSSR",
        "label": "guardians",
        "offset": 0,
        "slot": "4",
        "type": "t_mapping(t_address,t_mapping(t_address,t_address))"
      }
    ],
    "types": {
      "t_address": {
        "encoding": "inplace",
        "label": "address",
        "numberOfBytes": "20"
      },
      "t_mapping(t_address,t_address)": {
        "encoding": "mapping",
        "key": "t_address",
        "label": "mapping(address => address)",
        "numberOfBytes": "32",
        "value": "t_address"
      },
      "t_mapping(t_address,t_mapping(t_address,t_address))": {
        "encoding": "mapping",
        "key": "t_address",
        "label": "mapping(address => mapping(address => address))",
        "numberOfBytes": "32",
        "value": "t_mapping(t_address,t_address)"
      },
      "t_mapping(t_address,t_uint256)": {
        "encoding": "mapping",
        "key": "t_address",
        "label": "mapping(address => uint256)",
        "numberOfBytes": "32",
        "value": "t_uint256"
      },
      "t_uint256": {
        "encoding": "inplace",
        "label": "uint256",
        "numberOfBytes": "32"
      }
    }
  }
}