{
  "address": "0x76a868De18A30e51431f0c8Dfe8Af80EfaFBE0dA",
  "abi": [
    {
      "inputs": [
        {
          "internalType": "address",
          "name": "wallet",
          "type": "address"
        },
        {
          "internalType": "address",
          "name": "SSRModule",
          "type": "address"
        }
      ],
      "name": "getWalletState",
      "outputs": [
        {
          "internalType": "address",
          "name": "owner",
          "type": "address"
        },
        {
          "internalType": "address",
          "name": "singleton",
          "type": "address"
        },
        {
          "internalType": "bool",
          "name": "isLocked",
          "type": "bool"
        },
        {
          "internalType": "address[]",
          "name": "guardians",
          "type": "address[]"
        },
        {
          "internalType": "address[]",
          "name": "recoveryOwners",
          "type": "address[]"
        },
        {
          "internalType": "uint256",
          "name": "nonce",
          "type": "uint256"
        },
        {
          "internalType": "uint256",
          "name": "balance",
          "type": "uint256"
        },
        {
          "internalType": "uint256",
          "name": "timeLock",
          "type": "uint256"
        }
      ],
      "stateMutability": "view",
      "type": "function"
    }
  ],
  "transactionHash": "0x767301b33de0ce3dd82b5d33b93614e7cdaf5802d8158fc8e7c95f9dae7964bd",
  "args": [],
  "numDeployments": 1,
  "solcInputHash": "de78a7bd8420c51032966958e96a675c",
  "bytecode": "0x608060405234801561001057600080fd5b506105ec806100206000396000f3fe608060405234801561001057600080fd5b506004361061002b5760003560e01c80631ca1f41b14610030575b600080fd5b61004361003e366004610385565b610060565b604051610057989796959493929190610402565b60405180910390f35b60008060006060806000806000808a905060008a9050816001600160a01b0316638da5cb5b6040518163ffffffff1660e01b8152600401602060405180830381865afa1580156100b4573d6000803e3d6000fd5b505050506040513d601f19601f820116820180604052508101906100d8919061047c565b9950816001600160a01b031663b62654fb6040518163ffffffff1660e01b8152600401602060405180830381865afa158015610118573d6000803e3d6000fd5b505050506040513d601f19601f8201168201806040525081019061013c919061047c565b9850816001600160a01b031663a4e2d6346040518163ffffffff1660e01b8152600401602060405180830381865afa15801561017c573d6000803e3d6000fd5b505050506040513d601f19601f820116820180604052508101906101a091906104a0565b60405163f18858ab60e01b81526001600160a01b038e811660048301529199509082169063f18858ab90602401600060405180830381865afa1580156101ea573d6000803e3d6000fd5b505050506040513d6000823e601f3d908101601f1916820160405261021291908101906104d8565b6040516339405f5f60e21b81526001600160a01b038e811660048301529198509082169063e5017d7c90602401600060405180830381865afa15801561025c573d6000803e3d6000fd5b505050506040513d6000823e601f3d908101601f1916820160405261028491908101906104d8565b9550816001600160a01b031663affed0e06040518163ffffffff1660e01b8152600401602060405180830381865afa1580156102c4573d6000803e3d6000fd5b505050506040513d601f19601f820116820180604052508101906102e8919061059d565b604051633e0eb59760e01b81526001600160a01b038e8116600483018190529297509131955090821690633e0eb59790602401602060405180830381865afa158015610338573d6000803e3d6000fd5b505050506040513d601f19601f8201168201806040525081019061035c919061059d565b925050509295985092959890939650565b6001600160a01b038116811461038257600080fd5b50565b6000806040838503121561039857600080fd5b82356103a38161036d565b915060208301356103b38161036d565b809150509250929050565b600081518084526020808501945080840160005b838110156103f75781516001600160a01b0316875295820195908201906001016103d2565b509495945050505050565b60006101006001600160a01b03808c168452808b166020850152508815156040840152806060840152610437818401896103be565b9050828103608084015261044b81886103be565b60a0840196909652505060c081019290925260e09091015295945050505050565b80516104778161036d565b919050565b60006020828403121561048e57600080fd5b81516104998161036d565b9392505050565b6000602082840312156104b257600080fd5b8151801515811461049957600080fd5b634e487b7160e01b600052604160045260246000fd5b600060208083850312156104eb57600080fd5b825167ffffffffffffffff8082111561050357600080fd5b818501915085601f83011261051757600080fd5b815181811115610529576105296104c2565b8060051b604051601f19603f8301168101818110858211171561054e5761054e6104c2565b60405291825284820192508381018501918883111561056c57600080fd5b938501935b82851015610591576105828561046c565b84529385019392850192610571565b98975050505050505050565b6000602082840312156105af57600080fd5b505191905056fea2646970667358221220b83e87d403ae12663554c43418877836e652455f5cf5a776d4574b4b1b3addcd64736f6c634300080f0033",
  "devdoc": {
    "kind": "dev",
    "methods": {
      "getWalletState(address,address)": {
        "details": "Returns the wallet state + SSR module."
      }
    },
    "title": "LaserHelper - Helper contract that outputs multiple results in a single call.",
    "version": 1
  },
  "userdoc": {
    "kind": "user",
    "methods": {},
    "version": 1
  },
  "storageLayout": {
    "storage": [],
    "types": null
  }
}