{
    "_format": "hh-sol-artifact-1",
    "contractName": "LaserWallet",
    "sourceName": "contracts/LaserWallet.sol",
    "abi": [
        {
            "inputs": [],
            "stateMutability": "nonpayable",
            "type": "constructor"
        },
        {
            "inputs": [],
            "name": "LW__exec__failure",
            "type": "error"
        },
        {
            "inputs": [],
            "name": "LW__isValidSignature__invalidSigner",
            "type": "error"
        },
        {
            "inputs": [],
            "name": "LW__validateUserOp__invalidNonce",
            "type": "error"
        },
        {
            "inputs": [],
            "name": "Owner__changeOwner__invalidOwnerAddress",
            "type": "error"
        },
        {
            "inputs": [],
            "name": "Owner__changeRecoveryOwner__invalidRecoveryOwnerAddress",
            "type": "error"
        },
        {
            "inputs": [],
            "name": "Owner__initOwner__invalidOwnerAddress",
            "type": "error"
        },
        {
            "inputs": [],
            "name": "Owner__initOwner__invalidRecoveryOwnerAddress",
            "type": "error"
        },
        {
            "inputs": [],
            "name": "Owner__initOwner__walletInitialized",
            "type": "error"
        },
        {
            "inputs": [],
            "name": "SSR__access__guardiansBlocked",
            "type": "error"
        },
        {
            "inputs": [],
            "name": "SSR__access__walletLocked",
            "type": "error"
        },
        {
            "inputs": [],
            "name": "SSR__addGuardian__invalidAddress",
            "type": "error"
        },
        {
            "inputs": [],
            "name": "SSR__initGuardians__invalidAddress",
            "type": "error"
        },
        {
            "inputs": [],
            "name": "SSR__initGuardians__zeroGuardians",
            "type": "error"
        },
        {
            "inputs": [],
            "name": "SSR__removeGuardian__incorrectPreviousGuardian",
            "type": "error"
        },
        {
            "inputs": [],
            "name": "SSR__removeGuardian__invalidAddress",
            "type": "error"
        },
        {
            "inputs": [],
            "name": "SSR__removeGuardian__underflow",
            "type": "error"
        },
        {
            "inputs": [],
            "name": "SSR__verifyGuardian__invalidSignature",
            "type": "error"
        },
        {
            "inputs": [],
            "name": "SSR__verifyGurdian__notGuardian",
            "type": "error"
        },
        {
            "inputs": [],
            "name": "SSR__verifyOwnerAndGuardian__invalidSignature",
            "type": "error"
        },
        {
            "inputs": [],
            "name": "SSR__verifyOwnerAndGuardian__notGuardian",
            "type": "error"
        },
        {
            "inputs": [],
            "name": "SSR__verifyOwnerAndGuardian__notOwner",
            "type": "error"
        },
        {
            "inputs": [],
            "name": "SSR__verifyOwnerAndRecoveryOwner__invalidSignature",
            "type": "error"
        },
        {
            "inputs": [],
            "name": "SSR__verifyOwnerAndRecoveryOwner__notOwner",
            "type": "error"
        },
        {
            "inputs": [],
            "name": "SSR__verifyOwnerAndRecoveryOwner__notRecoveryOwner",
            "type": "error"
        },
        {
            "inputs": [],
            "name": "SSR__verifyOwner__invalidSignature",
            "type": "error"
        },
        {
            "inputs": [],
            "name": "SSR__verifyOwner__notOwner",
            "type": "error"
        },
        {
            "inputs": [],
            "name": "SSR__verifyRecoveryOwnerAndGurdian__invalidSignature",
            "type": "error"
        },
        {
            "inputs": [],
            "name": "SSR__verifyRecoveryOwnerAndGurdian__notGuardian",
            "type": "error"
        },
        {
            "inputs": [],
            "name": "SSR__verifyRecoveryOwnerAndGurdian__notRecoveryOwner",
            "type": "error"
        },
        {
            "inputs": [],
            "name": "SelfAuthorized__notWallet",
            "type": "error"
        },
        {
            "inputs": [],
            "name": "Singleton__upgradeSingleton__incorrectAddress",
            "type": "error"
        },
        {
            "inputs": [],
            "name": "Singleton__upgradeSingleton__notLaser",
            "type": "error"
        },
        {
            "inputs": [],
            "name": "Utils__InvalidSignature",
            "type": "error"
        },
        {
            "anonymous": false,
            "inputs": [
                {
                    "indexed": false,
                    "internalType": "address",
                    "name": "removedGuardian",
                    "type": "address"
                }
            ],
            "name": "GuardianRemoved",
            "type": "event"
        },
        {
            "anonymous": false,
            "inputs": [
                {
                    "indexed": false,
                    "internalType": "address",
                    "name": "newGuardian",
                    "type": "address"
                }
            ],
            "name": "NewGuardian",
            "type": "event"
        },
        {
            "anonymous": false,
            "inputs": [
                {
                    "indexed": false,
                    "internalType": "address",
                    "name": "recoveryOwner",
                    "type": "address"
                }
            ],
            "name": "NewRecoveryOwner",
            "type": "event"
        },
        {
            "anonymous": false,
            "inputs": [
                {
                    "indexed": false,
                    "internalType": "address",
                    "name": "newOwner",
                    "type": "address"
                }
            ],
            "name": "OwnerChanged",
            "type": "event"
        },
        {
            "anonymous": false,
            "inputs": [
                {
                    "indexed": true,
                    "internalType": "address",
                    "name": "sender",
                    "type": "address"
                },
                {
                    "indexed": false,
                    "internalType": "uint256",
                    "name": "amount",
                    "type": "uint256"
                }
            ],
            "name": "Received",
            "type": "event"
        },
        {
            "anonymous": false,
            "inputs": [],
            "name": "RecoveryUnlocked",
            "type": "event"
        },
        {
            "anonymous": false,
            "inputs": [
                {
                    "indexed": false,
                    "internalType": "address",
                    "name": "owner",
                    "type": "address"
                },
                {
                    "indexed": false,
                    "internalType": "address",
                    "name": "recoveryOwner",
                    "type": "address"
                },
                {
                    "indexed": false,
                    "internalType": "address[]",
                    "name": "guardians",
                    "type": "address[]"
                }
            ],
            "name": "Setup",
            "type": "event"
        },
        {
            "anonymous": false,
            "inputs": [
                {
                    "indexed": true,
                    "internalType": "address",
                    "name": "newSingleton",
                    "type": "address"
                }
            ],
            "name": "SingletonChanged",
            "type": "event"
        },
        {
            "anonymous": false,
            "inputs": [
                {
                    "indexed": false,
                    "internalType": "address",
                    "name": "to",
                    "type": "address"
                },
                {
                    "indexed": false,
                    "internalType": "uint256",
                    "name": "value",
                    "type": "uint256"
                },
                {
                    "indexed": false,
                    "internalType": "bytes4",
                    "name": "funcSelector",
                    "type": "bytes4"
                }
            ],
            "name": "Success",
            "type": "event"
        },
        {
            "anonymous": false,
            "inputs": [],
            "name": "WalletLocked",
            "type": "event"
        },
        {
            "anonymous": false,
            "inputs": [
                {
                    "indexed": false,
                    "internalType": "address",
                    "name": "newOwner",
                    "type": "address"
                },
                {
                    "indexed": false,
                    "internalType": "address",
                    "name": "newRecoveryOwner",
                    "type": "address"
                }
            ],
            "name": "WalletRecovered",
            "type": "event"
        },
        {
            "anonymous": false,
            "inputs": [],
            "name": "WalletUnlocked",
            "type": "event"
        },
        {
            "inputs": [],
            "name": "VERSION",
            "outputs": [
                {
                    "internalType": "string",
                    "name": "",
                    "type": "string"
                }
            ],
            "stateMutability": "view",
            "type": "function"
        },
        {
            "inputs": [
                {
                    "internalType": "address",
                    "name": "newGuardian",
                    "type": "address"
                }
            ],
            "name": "addGuardian",
            "outputs": [],
            "stateMutability": "nonpayable",
            "type": "function"
        },
        {
            "inputs": [
                {
                    "internalType": "address",
                    "name": "newOwner",
                    "type": "address"
                }
            ],
            "name": "changeOwner",
            "outputs": [],
            "stateMutability": "nonpayable",
            "type": "function"
        },
        {
            "inputs": [
                {
                    "internalType": "address",
                    "name": "newRecoveryOwner",
                    "type": "address"
                }
            ],
            "name": "changeRecoveryOwner",
            "outputs": [],
            "stateMutability": "nonpayable",
            "type": "function"
        },
        {
            "inputs": [],
            "name": "domainSeparator",
            "outputs": [
                {
                    "internalType": "bytes32",
                    "name": "",
                    "type": "bytes32"
                }
            ],
            "stateMutability": "view",
            "type": "function"
        },
        {
            "inputs": [
                {
                    "internalType": "address",
                    "name": "to",
                    "type": "address"
                },
                {
                    "internalType": "uint256",
                    "name": "value",
                    "type": "uint256"
                },
                {
                    "internalType": "bytes",
                    "name": "callData",
                    "type": "bytes"
                },
                {
                    "internalType": "uint256",
                    "name": "_nonce",
                    "type": "uint256"
                },
                {
                    "internalType": "uint256",
                    "name": "maxFeePerGas",
                    "type": "uint256"
                },
                {
                    "internalType": "uint256",
                    "name": "maxPriorityFeePerGas",
                    "type": "uint256"
                },
                {
                    "internalType": "uint256",
                    "name": "gasTip",
                    "type": "uint256"
                },
                {
                    "internalType": "bytes",
                    "name": "signatures",
                    "type": "bytes"
                }
            ],
            "name": "exec",
            "outputs": [],
            "stateMutability": "nonpayable",
            "type": "function"
        },
        {
            "inputs": [],
            "name": "getChainId",
            "outputs": [
                {
                    "internalType": "uint256",
                    "name": "chainId",
                    "type": "uint256"
                }
            ],
            "stateMutability": "view",
            "type": "function"
        },
        {
            "inputs": [],
            "name": "getGuardians",
            "outputs": [
                {
                    "internalType": "address[]",
                    "name": "",
                    "type": "address[]"
                }
            ],
            "stateMutability": "view",
            "type": "function"
        },
        {
            "inputs": [],
            "name": "guardiansBlocked",
            "outputs": [
                {
                    "internalType": "bool",
                    "name": "",
                    "type": "bool"
                }
            ],
            "stateMutability": "view",
            "type": "function"
        },
        {
            "inputs": [
                {
                    "internalType": "address",
                    "name": "_owner",
                    "type": "address"
                },
                {
                    "internalType": "address",
                    "name": "_recoveryOwner",
                    "type": "address"
                },
                {
                    "internalType": "address[]",
                    "name": "_guardians",
                    "type": "address[]"
                }
            ],
            "name": "init",
            "outputs": [],
            "stateMutability": "nonpayable",
            "type": "function"
        },
        {
            "inputs": [
                {
                    "internalType": "address",
                    "name": "guardian",
                    "type": "address"
                }
            ],
            "name": "isGuardian",
            "outputs": [
                {
                    "internalType": "bool",
                    "name": "",
                    "type": "bool"
                }
            ],
            "stateMutability": "view",
            "type": "function"
        },
        {
            "inputs": [],
            "name": "isLocked",
            "outputs": [
                {
                    "internalType": "bool",
                    "name": "",
                    "type": "bool"
                }
            ],
            "stateMutability": "view",
            "type": "function"
        },
        {
            "inputs": [
                {
                    "internalType": "bytes32",
                    "name": "hash",
                    "type": "bytes32"
                },
                {
                    "internalType": "bytes",
                    "name": "signature",
                    "type": "bytes"
                }
            ],
            "name": "isValidSignature",
            "outputs": [
                {
                    "internalType": "bytes4",
                    "name": "",
                    "type": "bytes4"
                }
            ],
            "stateMutability": "view",
            "type": "function"
        },
        {
            "inputs": [],
            "name": "lock",
            "outputs": [],
            "stateMutability": "nonpayable",
            "type": "function"
        },
        {
            "inputs": [],
            "name": "nonce",
            "outputs": [
                {
                    "internalType": "uint256",
                    "name": "",
                    "type": "uint256"
                }
            ],
            "stateMutability": "view",
            "type": "function"
        },
        {
            "inputs": [
                {
                    "internalType": "address",
                    "name": "",
                    "type": "address"
                },
                {
                    "internalType": "address",
                    "name": "",
                    "type": "address"
                },
                {
                    "internalType": "uint256[]",
                    "name": "",
                    "type": "uint256[]"
                },
                {
                    "internalType": "uint256[]",
                    "name": "",
                    "type": "uint256[]"
                },
                {
                    "internalType": "bytes",
                    "name": "",
                    "type": "bytes"
                }
            ],
            "name": "onERC1155BatchReceived",
            "outputs": [
                {
                    "internalType": "bytes4",
                    "name": "result",
                    "type": "bytes4"
                }
            ],
            "stateMutability": "pure",
            "type": "function"
        },
        {
            "inputs": [
                {
                    "internalType": "address",
                    "name": "",
                    "type": "address"
                },
                {
                    "internalType": "address",
                    "name": "",
                    "type": "address"
                },
                {
                    "internalType": "uint256",
                    "name": "",
                    "type": "uint256"
                },
                {
                    "internalType": "uint256",
                    "name": "",
                    "type": "uint256"
                },
                {
                    "internalType": "bytes",
                    "name": "",
                    "type": "bytes"
                }
            ],
            "name": "onERC1155Received",
            "outputs": [
                {
                    "internalType": "bytes4",
                    "name": "",
                    "type": "bytes4"
                }
            ],
            "stateMutability": "pure",
            "type": "function"
        },
        {
            "inputs": [
                {
                    "internalType": "address",
                    "name": "",
                    "type": "address"
                },
                {
                    "internalType": "address",
                    "name": "",
                    "type": "address"
                },
                {
                    "internalType": "uint256",
                    "name": "",
                    "type": "uint256"
                },
                {
                    "internalType": "bytes",
                    "name": "",
                    "type": "bytes"
                }
            ],
            "name": "onERC721Received",
            "outputs": [
                {
                    "internalType": "bytes4",
                    "name": "",
                    "type": "bytes4"
                }
            ],
            "stateMutability": "pure",
            "type": "function"
        },
        {
            "inputs": [
                {
                    "internalType": "address",
                    "name": "to",
                    "type": "address"
                },
                {
                    "internalType": "uint256",
                    "name": "value",
                    "type": "uint256"
                },
                {
                    "internalType": "bytes",
                    "name": "callData",
                    "type": "bytes"
                },
                {
                    "internalType": "uint256",
                    "name": "_nonce",
                    "type": "uint256"
                },
                {
                    "internalType": "uint256",
                    "name": "maxFeePerGas",
                    "type": "uint256"
                },
                {
                    "internalType": "uint256",
                    "name": "maxPriorityFeePerGas",
                    "type": "uint256"
                },
                {
                    "internalType": "uint256",
                    "name": "gasTip",
                    "type": "uint256"
                }
            ],
            "name": "operationHash",
            "outputs": [
                {
                    "internalType": "bytes32",
                    "name": "",
                    "type": "bytes32"
                }
            ],
            "stateMutability": "view",
            "type": "function"
        },
        {
            "inputs": [],
            "name": "owner",
            "outputs": [
                {
                    "internalType": "address",
                    "name": "",
                    "type": "address"
                }
            ],
            "stateMutability": "view",
            "type": "function"
        },
        {
            "inputs": [
                {
                    "internalType": "address",
                    "name": "newOwner",
                    "type": "address"
                },
                {
                    "internalType": "address",
                    "name": "newRecoveryOwner",
                    "type": "address"
                }
            ],
            "name": "recover",
            "outputs": [],
            "stateMutability": "nonpayable",
            "type": "function"
        },
        {
            "inputs": [],
            "name": "recoveryOwner",
            "outputs": [
                {
                    "internalType": "address",
                    "name": "",
                    "type": "address"
                }
            ],
            "stateMutability": "view",
            "type": "function"
        },
        {
            "inputs": [],
            "name": "recoveryUnlock",
            "outputs": [],
            "stateMutability": "nonpayable",
            "type": "function"
        },
        {
            "inputs": [
                {
                    "internalType": "address",
                    "name": "prevGuardian",
                    "type": "address"
                },
                {
                    "internalType": "address",
                    "name": "guardianToRemove",
                    "type": "address"
                }
            ],
            "name": "removeGuardian",
            "outputs": [],
            "stateMutability": "nonpayable",
            "type": "function"
        },
        {
            "inputs": [
                {
                    "internalType": "bytes32",
                    "name": "dataHash",
                    "type": "bytes32"
                },
                {
                    "internalType": "bytes32",
                    "name": "r",
                    "type": "bytes32"
                },
                {
                    "internalType": "bytes32",
                    "name": "s",
                    "type": "bytes32"
                },
                {
                    "internalType": "uint8",
                    "name": "v",
                    "type": "uint8"
                }
            ],
            "name": "returnSigner",
            "outputs": [
                {
                    "internalType": "address",
                    "name": "signer",
                    "type": "address"
                }
            ],
            "stateMutability": "pure",
            "type": "function"
        },
        {
            "inputs": [
                {
                    "internalType": "address",
                    "name": "to",
                    "type": "address"
                },
                {
                    "internalType": "uint256",
                    "name": "value",
                    "type": "uint256"
                },
                {
                    "internalType": "bytes",
                    "name": "callData",
                    "type": "bytes"
                },
                {
                    "internalType": "uint256",
                    "name": "_nonce",
                    "type": "uint256"
                },
                {
                    "internalType": "uint256",
                    "name": "maxFeePerGas",
                    "type": "uint256"
                },
                {
                    "internalType": "uint256",
                    "name": "maxPriorityFeePerGas",
                    "type": "uint256"
                },
                {
                    "internalType": "uint256",
                    "name": "gasTip",
                    "type": "uint256"
                },
                {
                    "internalType": "bytes",
                    "name": "signatures",
                    "type": "bytes"
                }
            ],
            "name": "simulateTransaction",
            "outputs": [
                {
                    "internalType": "uint256",
                    "name": "totalGas",
                    "type": "uint256"
                }
            ],
            "stateMutability": "nonpayable",
            "type": "function"
        },
        {
            "inputs": [],
            "name": "singleton",
            "outputs": [
                {
                    "internalType": "address",
                    "name": "",
                    "type": "address"
                }
            ],
            "stateMutability": "view",
            "type": "function"
        },
        {
            "inputs": [
                {
                    "internalType": "bytes",
                    "name": "signature",
                    "type": "bytes"
                },
                {
                    "internalType": "uint256",
                    "name": "pos",
                    "type": "uint256"
                }
            ],
            "name": "splitSigs",
            "outputs": [
                {
                    "internalType": "bytes32",
                    "name": "r",
                    "type": "bytes32"
                },
                {
                    "internalType": "bytes32",
                    "name": "s",
                    "type": "bytes32"
                },
                {
                    "internalType": "uint8",
                    "name": "v",
                    "type": "uint8"
                }
            ],
            "stateMutability": "pure",
            "type": "function"
        },
        {
            "inputs": [
                {
                    "internalType": "bytes4",
                    "name": "_interfaceId",
                    "type": "bytes4"
                }
            ],
            "name": "supportsInterface",
            "outputs": [
                {
                    "internalType": "bool",
                    "name": "",
                    "type": "bool"
                }
            ],
            "stateMutability": "pure",
            "type": "function"
        },
        {
            "inputs": [
                {
                    "internalType": "address",
                    "name": "",
                    "type": "address"
                },
                {
                    "internalType": "address",
                    "name": "",
                    "type": "address"
                },
                {
                    "internalType": "address",
                    "name": "",
                    "type": "address"
                },
                {
                    "internalType": "uint256",
                    "name": "",
                    "type": "uint256"
                },
                {
                    "internalType": "bytes",
                    "name": "",
                    "type": "bytes"
                },
                {
                    "internalType": "bytes",
                    "name": "",
                    "type": "bytes"
                }
            ],
            "name": "tokensReceived",
            "outputs": [],
            "stateMutability": "pure",
            "type": "function"
        },
        {
            "inputs": [],
            "name": "unlock",
            "outputs": [],
            "stateMutability": "nonpayable",
            "type": "function"
        },
        {
            "inputs": [],
            "name": "unlockGuardians",
            "outputs": [],
            "stateMutability": "nonpayable",
            "type": "function"
        },
        {
            "inputs": [
                {
                    "internalType": "address",
                    "name": "_singleton",
                    "type": "address"
                }
            ],
            "name": "upgradeSingleton",
            "outputs": [],
            "stateMutability": "nonpayable",
            "type": "function"
        },
        {
            "stateMutability": "payable",
            "type": "receive"
        }
    ],
    "bytecode": "0x608060405234801561001057600080fd5b50600180546001600160a01b03191630179055612d28806100326000396000f3fe6080604052600436106102015760003560e01c80639466df011161011d578063b62654fb116100b0578063f23a6e611161007f578063f698da2511610064578063f698da2514610680578063f83d08ba146106e7578063ffa1ad74146106fc57600080fd5b8063f23a6e6114610633578063f2f8243d1461066057600080fd5b8063b62654fb146105af578063bc197c81146105cf578063c6922723146105fe578063c8a725361461061357600080fd5b8063a526d83b116100ec578063a526d83b14610544578063a69df4b514610564578063a6f9dae114610579578063affed0e01461059957600080fd5b80639466df011461049d578063956ccd76146104b25780639b27a90e1461050a578063a4e2d6341461052a57600080fd5b80633408e470116101955780636760fd59116101645780636760fd59146104065780638583c7c014610425578063880893001461045d5780638da5cb5b1461047d57600080fd5b80633408e470146103935780634589fd16146103a6578063648bf774146103c6578063670d046e146103e657600080fd5b806310e88892116101d157806310e88892146102e0578063150b7a02146103005780631626ba7e1461034557806333987ac01461036557600080fd5b806223de291461024257806301ffc9a7146102695780630665f04b1461029e5780630c68ba21146102c057600080fd5b3661023d5760405134815233907f88a5966d370b9919b20f3e2c13ff65706f196a4e32cc2c12bf57088f885258749060200160405180910390a2005b600080fd5b34801561024e57600080fd5b5061026761025d366004612449565b5050505050505050565b005b34801561027557600080fd5b5061028961028436600461250a565b610752565b60405190151581526020015b60405180910390f35b3480156102aa57600080fd5b506102b36107f5565b6040516102959190612527565b3480156102cc57600080fd5b506102896102db366004612574565b6108eb565b3480156102ec57600080fd5b506102676102fb366004612574565b610923565b34801561030c57600080fd5b5061032c61031b36600461258f565b630a85bd0160e11b95945050505050565b6040516001600160e01b03199091168152602001610295565b34801561035157600080fd5b5061032c6103603660046126a1565b610a51565b34801561037157600080fd5b506103856103803660046126e8565b610ad1565b604051908152602001610295565b34801561039f57600080fd5b5046610385565b3480156103b257600080fd5b506102676103c13660046127e1565b610ca8565b3480156103d257600080fd5b506102676103e1366004612842565b610d0d565b3480156103f257600080fd5b50610385610401366004612875565b610da6565b34801561041257600080fd5b5060045461028990610100900460ff1681565b34801561043157600080fd5b50600254610445906001600160a01b031681565b6040516001600160a01b039091168152602001610295565b34801561046957600080fd5b506104456104783660046128f2565b610dcd565b34801561048957600080fd5b50600154610445906001600160a01b031681565b3480156104a957600080fd5b50610267610f23565b3480156104be57600080fd5b506104ec6104cd366004612939565b6041020160208101516040820151606090920151909260009190911a90565b60408051938452602084019290925260ff1690820152606001610295565b34801561051657600080fd5b50610267610525366004612842565b610f7d565b34801561053657600080fd5b506004546102899060ff1681565b34801561055057600080fd5b5061026761055f366004612574565b6110b3565b34801561057057600080fd5b50610267611274565b34801561058557600080fd5b50610267610594366004612574565b6112c9565b3480156105a557600080fd5b5061038560065481565b3480156105bb57600080fd5b50600054610445906001600160a01b031681565b3480156105db57600080fd5b5061032c6105ea36600461297e565b63bc197c8160e01b98975050505050505050565b34801561060a57600080fd5b50610267611374565b34801561061f57600080fd5b5061026761062e3660046126e8565b6113a1565b34801561063f57600080fd5b5061032c61064e366004612a18565b63f23a6e6160e01b9695505050505050565b34801561066c57600080fd5b5061026761067b366004612574565b6114c3565b34801561068c57600080fd5b5061038560007f47e79534a245952e8b16893a336b85a3d9ea9fa8c573f3d803afb92a794692184660408051602081019390935282015230606082015260800160405160208183030381529060405280519060200120905090565b3480156106f357600080fd5b50610267611571565b34801561070857600080fd5b506107456040518060400160405280600581526020017f312e302e3000000000000000000000000000000000000000000000000000000081525081565b6040516102959190612add565b60006301ffc9a760e01b6001600160e01b0319831614806107835750630b135d3f60e11b6001600160e01b03198316145b8061079e5750636cdb3d1360e11b6001600160e01b03198316145b806107b95750630271189760e51b6001600160e01b03198316145b806107d4575063ae029e0b60e01b6001600160e01b03198316145b806107ef5750630a85bd0160e11b6001600160e01b03198316145b92915050565b6060600060035467ffffffffffffffff811115610814576108146125fe565b60405190808252806020026020018201604052801561083d578160200160208202803683370190505b506001600090815260056020527f1471eb6eb2c5e789fc3de43f8ce62938c7d1836ec861730447e2ada8fd81017b549192506001600160a01b03909116905b6001600160a01b0382166001146108e357818382815181106108a0576108a0612af0565b6001600160a01b039283166020918202929092018101919091529281166000908152600590935260409092205490911690806108db81612b1c565b91505061087c565b509092915050565b60006001600160a01b0382166001148015906107ef5750506001600160a01b0390811660009081526005602052604090205416151590565b333014610943576040516307583a2960e41b815260040160405180910390fd5b6001600160a01b03811630141561096d576040516332125e8360e11b815260040160405180910390fd5b6040516301ffc9a760e01b815263ae029e0b60e01b60048201526001600160a01b038216906301ffc9a79060240160206040518083038186803b1580156109b357600080fd5b505afa1580156109c7573d6000803e3d6000fd5b505050506040513d601f19601f820116820180604052508101906109eb9190612b37565b610a0857604051637b66762360e11b815260040160405180910390fd5b600080546001600160a01b0319166001600160a01b038316908117825560405190917fad04cda32d7774350bace4bdca605ed7431195e8c78235e484626b2785de816d91a25b50565b6020810151604082015160608301516000929190831a83610a7487858585610dcd565b6001549091506001600160a01b03808316911614610aa557604051633a1c7d3960e21b815260040160405180910390fd5b507f1626ba7e356f5979dd355a3d2bfb43e80420a480c3b854edce286a82d74968699695505050505050565b6000805a600680549192508991906000610aea83612b1c565b9190505514610b0c57604051631f2f5fab60e31b815260040160405180910390fd5b610b1e8c8c8c8c8c8c8c8c8c8c6115c9565b6000610b618d8d8d8d8080601f0160208091040260200160405190810160405280939291908181526020018383808284376000920191909152505050505a61161c565b905080610b81576040516386bdccb560e01b815260040160405180910390fd5b6000610b8d8989611634565b905060005a610b9c9085612b59565b9050600082610bab8a84612b70565b610bb59190612b88565b9050610bf0338260005b6040519080825280601f01601f191660200182016040528015610be9576020820181803683370190505b505a61161c565b935083610c10576040516386bdccb560e01b815260040160405180910390fd5b5a610c1b9086612b59565b95503315610c955760405162461bcd60e51b815260206004820152602b60248201527f4d7573742062652063616c6c6564206f66662d636861696e2066726f6d20616460448201527f6472657373207a65726f2e000000000000000000000000000000000000000000606482015260840160405180910390fd5b50505050509a9950505050505050505050565b610cb2848461165f565b610cbc82826116c1565b6001546040517ff66ff1e2a2f010ec96ffd0b1a23ee26e3d249cc32059f0bbca9f170798e9a99191610cff916001600160a01b0390911690869086908690612ba7565b60405180910390a150505050565b333014610d2d576040516307583a2960e41b815260040160405180910390fd5b610d3782826118c4565b600180546001600160a01b038481166001600160a01b03199283168117909355600280549185169190921681179091556040805192835260208301919091527fced95d270303f50b4373064f4148282a32dd521235b73c351f0955a594941a3091015b60405180910390a15050565b6000610db88989898989898989611942565b80519060200120905098975050505050505050565b6000601e8260ff161115610e94576040517f19457468657265756d205369676e6564204d6573736167653a0a3332000000006020820152603c8101869052600190605c0160405160208183030381529060405280519060200120600484610e349190612c0d565b6040805160008152602081018083529390935260ff90911690820152606081018690526080810185905260a0016020604051602081039080840390855afa158015610e83573d6000803e3d6000fd5b505050602060405103519050610ef4565b60408051600081526020810180835287905260ff841691810191909152606081018590526080810184905260019060a0016020604051602081039080840390855afa158015610ee7573d6000803e3d6000fd5b5050506020604051035190505b6001600160a01b038116610f1b57604051634aef5ea760e01b815260040160405180910390fd5b949350505050565b333014610f43576040516307583a2960e41b815260040160405180910390fd5b6004805461ffff19166101001790556040517f0d581a543b8a5c64309ffed1e0e9a522b78d6c160dc57cc4cb7f78f9a14d5e3490600090a1565b333014610f9d576040516307583a2960e41b815260040160405180910390fd5b6001600160a01b03811660011415610fc8576040516302f412b360e21b815260040160405180910390fd5b6001600160a01b038281166000908152600560205260409020548116908216146110055760405163475347b160e11b815260040160405180910390fd5b6001806003546110159190612b59565b10156110345760405163342a2dc560e21b815260040160405180910390fd5b6001600160a01b038181166000818152600560209081526040808320805488871685528285208054919097166001600160a01b0319918216179096559284905282549094169091556003805460001901905591519081527fb8107d0c6b40be480ce3172ee66ba6d64b71f6b1685a851340036e6e2e3e3c529101610d9a565b3330146110d3576040516307583a2960e41b815260040160405180910390fd5b6001600160a01b03811615806110f657506001546001600160a01b038281169116145b8061111a57506001600160a01b038181166000908152600560205260409020541615155b1561113857604051632ce028d960e21b815260040160405180910390fd5b6040516301ffc9a760e01b8152630b135d3f60e11b60048201526001600160a01b038216906301ffc9a79060240160206040518083038186803b15801561117e57600080fd5b505afa158015611192573d6000803e3d6000fd5b505050506040513d601f19601f820116820180604052508101906111b69190612b37565b6111d357604051632ce028d960e21b815260040160405180910390fd5b600560209081527f1471eb6eb2c5e789fc3de43f8ce62938c7d1836ec861730447e2ada8fd81017b80546001600160a01b03848116600081815260408082208054949095166001600160a01b03199485161790945560019081905284549092168117909355600380549091019055519081527fb6182387b7ea948602a7e04e662a27ce251dc3dd014eacaed10dce36b41bf1a591015b60405180910390a150565b333014611294576040516307583a2960e41b815260040160405180910390fd5b6004805460ff191690556040517f63fc9aecb05834d2330c4dad03b320242fa9e8a10eb80cd31518efa9ed781b8690600090a1565b3330146112e9576040516307583a2960e41b815260040160405180910390fd5b6001600160a01b0381163b15158061130857506001600160a01b038116155b1561132657604051633927dba760e01b815260040160405180910390fd5b600180546001600160a01b0319166001600160a01b0383169081179091556040519081527fa2ea9883a321a3e97b8266c2b078bfeec6d50c711ed71f874a90d500ae2eaf3690602001611269565b333014611394576040516307583a2960e41b815260040160405180910390fd5b6004805461ff0019169055565b60005a6006805491925088919060006113b983612b1c565b91905055146113db57604051631f2f5fab60e31b815260040160405180910390fd5b6113ed8b8b8b8b8b8b8b8b8b8b6115c9565b60006114308c8c8c8c8080601f0160208091040260200160405190810160405280939291908181526020018383808284376000920191909152505050505a61161c565b905080611450576040516386bdccb560e01b815260040160405180910390fd5b600061145c8888611634565b905060005a61146b9085612b59565b905060008261147a8984612b70565b6114849190612b88565b905061149233826000610bbf565b9350836114b2576040516386bdccb560e01b815260040160405180910390fd5b505050505050505050505050505050565b3330146114e3576040516307583a2960e41b815260040160405180910390fd5b600280546001600160a01b0319166001600160a01b0383169081179091553b15158061151657506001600160a01b038116155b156115345760405163ae5864f560e01b815260040160405180910390fd5b6002546040516001600160a01b0390911681527f24b755696b711f89e9f520613bc428ad6a76ea9e0ea8ce1bcbc4a49d7117e7d490602001611269565b333014611591576040516307583a2960e41b815260040160405180910390fd5b6004805460ff191660011790556040517fd550ed24c5d3906c5831b36940c8eb789771469024f7963da735aaf15c59b9a290600090a1565b60006115db8b8b8b8b8b8b8b8b611942565b8051602082012090915060006115f18a8c612c30565b905060006115fe82611aab565b905061160c81848888611b8b565b5050505050505050505050505050565b6000806000845160208601878987f195945050505050565b6000818314156116455750816107ef565b611658836116534885612b70565b611cee565b9392505050565b6001546001600160a01b03161561168957604051632dfc004f60e21b815260040160405180910390fd5b61169382826118c4565b600180546001600160a01b039384166001600160a01b03199182161790915560028054929093169116179055565b8060018110156116e45760405163bfa963cb60e01b815260040160405180910390fd5b600160005b8281101561189457600085858381811061170557611705612af0565b905060200201602081019061171a9190612574565b6001549091506001600160a01b038083169116148061174057506001600160a01b038116155b8061175457506001600160a01b0381166001145b806117705750826001600160a01b0316816001600160a01b0316145b8061179457506001600160a01b038181166000908152600560205260409020541615155b156117b257604051630d34ec4760e31b815260040160405180910390fd5b6001600160a01b0381163b1561185d576040516301ffc9a760e01b8152630b135d3f60e11b60048201526001600160a01b038216906301ffc9a79060240160206040518083038186803b15801561180857600080fd5b505afa15801561181c573d6000803e3d6000fd5b505050506040513d601f19601f820116820180604052508101906118409190612b37565b61185d57604051630d34ec4760e31b815260040160405180910390fd5b6001600160a01b03928316600090815260056020526040902080546001600160a01b031916938216939093179092556001016116e9565b506001600160a01b0316600090815260056020526040902080546001600160a01b03191660011790556003555050565b6001600160a01b0382163b1515806118e357506001600160a01b038216155b156119015760405163087099bd60e01b815260040160405180910390fd5b6001600160a01b0381163b15158061192057506001600160a01b038116155b1561193e57604051630208bf3960e01b815260040160405180910390fd5b5050565b606060007f081520cc7f67e2df61abfbaac02e9006db593e29a7f9d4c4752c6a2ef25502fd8a8a8a8a604051611979929190612c60565b6040805191829003822060208301959095526001600160a01b03909316928101929092526060820152608081019190915260a0810187905260c0810186905260e0810185905261010081018490526101200160408051601f1981840301815291905280516020909101209050601960f81b600160f81b611a4960007f47e79534a245952e8b16893a336b85a3d9ea9fa8c573f3d803afb92a794692184660408051602081019390935282015230606082015260800160405160208183030381529060405280519060200120905090565b6040517fff00000000000000000000000000000000000000000000000000000000000000938416602082015292909116602183015260228201526042810182905260620160405160208183030381529060405291505098975050505050505050565b60006001600160e01b03198216637c1e845d60e11b1415611af757600454610100900460ff1615611aef5760405163c525f01160e01b815260040160405180910390fd5b506001919050565b6001600160e01b0319821663a69df4b560e01b1415611b1857506002919050565b6001600160e01b03198216639466df0160e01b1415611b3957506004919050565b6001600160e01b03198216631922fddd60e21b1415611b5a57506003919050565b60045460ff1615611b7e576040516319786ced60e01b815260040160405180910390fd5b506000919050565b919050565b6000846004811115611b9f57611b9f612c70565b1415611bea57611be58383838080601f016020809104026020016040519081016040528093929190818152602001838380828437600092019190915250611d0492505050565b611ce8565b6001846004811115611bfe57611bfe612c70565b1415611c4457611be58383838080601f016020809104026020016040519081016040528093929190818152602001838380828437600092019190915250611d8992505050565b6002846004811115611c5857611c58612c70565b1415611c6957611be5838383611f1d565b6003846004811115611c7d57611c7d612c70565b1415611c8e57611be583838361211e565b6004846004811115611ca257611ca2612c70565b141561023d57611be58383838080601f01602080910402602001604051908101604052809392919081815260200183838082843760009201919091525061231592505050565b50505050565b6000818310611cfd5781611658565b5090919050565b6000806000604184511015611d2c576040516337546a5b60e21b815260040160405180910390fd5b505050602081015160408201516060830151600090811a90611d5086858585610dcd565b6001549091506001600160a01b03808316911614611d815760405163a70b95ff60e01b815260040160405180910390fd5b505050505050565b600080600080604185511015611db2576040516337546a5b60e21b815260040160405180910390fd5b60208501516040860151606087015160001a919550935091506000611dd987868686610dcd565b6001600160a01b038082166000908152600560205260409020549192501615611e055760019150611ef6565b6000611e0f6107f5565b905060005b600354811015611ef3576000828281518110611e3257611e32612af0565b602002602001015190506000816001600160a01b03163b1115611eea57604051630b135d3f60e11b81526001600160a01b03821690631626ba7e90611e7d908d908d90600401612c86565b60206040518083038186803b158015611e9557600080fd5b505afa158015611ea9573d6000803e3d6000fd5b505050506040513d601f19601f82011682018060405250810190611ecd9190612c9f565b6001600160e01b031916631626ba7e60e01b1415611eea57600194505b50600101611e14565b50505b81611f1457604051634c18cb5f60e01b815260040160405180910390fd5b50505050505050565b600080806082841015611f435760405163224068db60e11b815260040160405180910390fd5b611f8285858080601f016020809104026020016040519081016040528093929190818152602001838380828437600092018290525092506104cd915050565b919450925090506000611f9787858585610dcd565b6001549091506001600160a01b03808316911614611fc85760405163e4c802a160e01b815260040160405180910390fd5b600080611fd789878787610dcd565b6001600160a01b038082166000908152600560205260409020549193501615612002575060016120f5565b600061200c6107f5565b905060005b6003548110156120f257600082828151811061202f5761202f612af0565b602002602001015190506000816001600160a01b03163b11156120e957604051630b135d3f60e11b81526001600160a01b03821690631626ba7e9061207c908f908f908f90600401612cbc565b60206040518083038186803b15801561209457600080fd5b505afa1580156120a8573d6000803e3d6000fd5b505050506040513d601f19601f820116820180604052508101906120cc9190612c9f565b6001600160e01b031916631626ba7e60e01b14156120e957600193505b50600101612011565b50505b8061211357604051633906141760e11b815260040160405180910390fd5b505050505050505050565b60008080608284101561214457604051637c261f3560e11b815260040160405180910390fd5b61218385858080601f016020809104026020016040519081016040528093929190818152602001838380828437600092018290525092506104cd915050565b91945092509050600061219887858585610dcd565b6002549091506001600160a01b038083169116146121c957604051636c957d7960e01b815260040160405180910390fd5b6000806121d889878787610dcd565b6001600160a01b03808216600090815260056020526040902054919250161561220457600191506122f7565b600061220e6107f5565b905060005b6003548110156122f457600082828151811061223157612231612af0565b602002602001015190506000816001600160a01b03163b11156122eb57604051630b135d3f60e11b81526001600160a01b03821690631626ba7e9061227e908f908f908f90600401612cbc565b60206040518083038186803b15801561229657600080fd5b505afa1580156122aa573d6000803e3d6000fd5b505050506040513d601f19601f820116820180604052508101906122ce9190612c9f565b6001600160e01b031916631626ba7e60e01b14156122eb57600194505b50600101612213565b50505b8161211357604051633554384b60e21b815260040160405180910390fd5b6000806000835160821461233c5760405163d02a7fa960e01b815260040160405180910390fd5b505050602081015160408201516060830151600090811a9061236086858585610dcd565b6001549091506001600160a01b0380831691161461239157604051633c8877db60e01b815260040160405180910390fd5b6061850151608186015160a187015160001a9195509350915060006123b887868686610dcd565b6002549091506001600160a01b03808316911614611f14576040516366cc772b60e01b815260040160405180910390fd5b80356001600160a01b0381168114611b8657600080fd5b60008083601f84011261241257600080fd5b50813567ffffffffffffffff81111561242a57600080fd5b60208301915083602082850101111561244257600080fd5b9250929050565b60008060008060008060008060c0898b03121561246557600080fd5b61246e896123e9565b975061247c60208a016123e9565b965061248a60408a016123e9565b955060608901359450608089013567ffffffffffffffff808211156124ae57600080fd5b6124ba8c838d01612400565b909650945060a08b01359150808211156124d357600080fd5b506124e08b828c01612400565b999c989b5096995094979396929594505050565b6001600160e01b031981168114610a4e57600080fd5b60006020828403121561251c57600080fd5b8135611658816124f4565b6020808252825182820181905260009190848201906040850190845b818110156125685783516001600160a01b031683529284019291840191600101612543565b50909695505050505050565b60006020828403121561258657600080fd5b611658826123e9565b6000806000806000608086880312156125a757600080fd5b6125b0866123e9565b94506125be602087016123e9565b935060408601359250606086013567ffffffffffffffff8111156125e157600080fd5b6125ed88828901612400565b969995985093965092949392505050565b634e487b7160e01b600052604160045260246000fd5b600082601f83011261262557600080fd5b813567ffffffffffffffff80821115612640576126406125fe565b604051601f8301601f19908116603f01168101908282118183101715612668576126686125fe565b8160405283815286602085880101111561268157600080fd5b836020870160208301376000602085830101528094505050505092915050565b600080604083850312156126b457600080fd5b82359150602083013567ffffffffffffffff8111156126d257600080fd5b6126de85828601612614565b9150509250929050565b6000806000806000806000806000806101008b8d03121561270857600080fd5b6127118b6123e9565b995060208b0135985060408b013567ffffffffffffffff8082111561273557600080fd5b6127418e838f01612400565b909a50985060608d0135975060808d0135965060a08d0135955060c08d0135945060e08d013591508082111561277657600080fd5b506127838d828e01612400565b915080935050809150509295989b9194979a5092959850565b60008083601f8401126127ae57600080fd5b50813567ffffffffffffffff8111156127c657600080fd5b6020830191508360208260051b850101111561244257600080fd5b600080600080606085870312156127f757600080fd5b612800856123e9565b935061280e602086016123e9565b9250604085013567ffffffffffffffff81111561282a57600080fd5b6128368782880161279c565b95989497509550505050565b6000806040838503121561285557600080fd5b61285e836123e9565b915061286c602084016123e9565b90509250929050565b60008060008060008060008060e0898b03121561289157600080fd5b61289a896123e9565b975060208901359650604089013567ffffffffffffffff8111156128bd57600080fd5b6128c98b828c01612400565b999c989b50996060810135986080820135985060a0820135975060c09091013595509350505050565b6000806000806080858703121561290857600080fd5b843593506020850135925060408501359150606085013560ff8116811461292e57600080fd5b939692955090935050565b6000806040838503121561294c57600080fd5b823567ffffffffffffffff81111561296357600080fd5b61296f85828601612614565b95602094909401359450505050565b60008060008060008060008060a0898b03121561299a57600080fd5b6129a3896123e9565b97506129b160208a016123e9565b9650604089013567ffffffffffffffff808211156129ce57600080fd5b6129da8c838d0161279c565b909850965060608b01359150808211156129f357600080fd5b6129ff8c838d0161279c565b909650945060808b01359150808211156124d357600080fd5b60008060008060008060a08789031215612a3157600080fd5b612a3a876123e9565b9550612a48602088016123e9565b94506040870135935060608701359250608087013567ffffffffffffffff811115612a7257600080fd5b612a7e89828a01612400565b979a9699509497509295939492505050565b6000815180845260005b81811015612ab657602081850181015186830182015201612a9a565b81811115612ac8576000602083870101525b50601f01601f19169290920160200192915050565b6020815260006116586020830184612a90565b634e487b7160e01b600052603260045260246000fd5b634e487b7160e01b600052601160045260246000fd5b6000600019821415612b3057612b30612b06565b5060010190565b600060208284031215612b4957600080fd5b8151801515811461165857600080fd5b600082821015612b6b57612b6b612b06565b500390565b60008219821115612b8357612b83612b06565b500190565b6000816000190483118215151615612ba257612ba2612b06565b500290565b6000606082016001600160a01b038088168452602081881681860152606060408601528286845260808601905087935060005b87811015612bff5783612bec866123e9565b1682529382019390820190600101612bda565b509998505050505050505050565b600060ff821660ff841680821015612c2757612c27612b06565b90039392505050565b6001600160e01b03198135818116916004851015612c585780818660040360031b1b83161692505b505092915050565b8183823760009101908152919050565b634e487b7160e01b600052602160045260246000fd5b828152604060208201526000610f1b6040830184612a90565b600060208284031215612cb157600080fd5b8151611658816124f4565b83815260406020820152816040820152818360608301376000818301606090810191909152601f909201601f191601019291505056fea2646970667358221220496b66a2a66d5f06f716c8ca8080c13f6c6bfc96af145890d6c6208d7b4b2c2c64736f6c63430008090033",
    "linkReferences": {},
    "deployedLinkReferences": {}
}