{
    "_format": "hh-sol-artifact-1",
    "contractName": "LaserWallet",
    "sourceName": "contracts/LaserWallet.sol",
    "abi": [
        {
            "inputs": [],
            "stateMutability": "nonpayable",
            "type": "constructor"
        },
        {
            "inputs": [],
            "name": "AA__changeEntryPoint__invalidEntryPoint",
            "type": "error"
        },
        {
            "inputs": [],
            "name": "AA__initEntryPoint__invalidEntryPoint",
            "type": "error"
        },
        {
            "inputs": [],
            "name": "AA__initEntryPoint__invalidSignature",
            "type": "error"
        },
        {
            "inputs": [],
            "name": "AA__withdrawDeposit__insufficientBalance",
            "type": "error"
        },
        {
            "inputs": [],
            "name": "LW__exec__failure",
            "type": "error"
        },
        {
            "inputs": [],
            "name": "LW__isValidSignature__invalidSigner",
            "type": "error"
        },
        {
            "inputs": [],
            "name": "LW__notEntryPoint",
            "type": "error"
        },
        {
            "inputs": [],
            "name": "LW__validateUserOp__invalidNonce",
            "type": "error"
        },
        {
            "inputs": [],
            "name": "Owner__changeOwner__invalidOwnerAddress",
            "type": "error"
        },
        {
            "inputs": [],
            "name": "Owner__changeRecoveryOwner__invalidRecoveryOwnerAddress",
            "type": "error"
        },
        {
            "inputs": [],
            "name": "Owner__initOwner__invalidOwnerAddress",
            "type": "error"
        },
        {
            "inputs": [],
            "name": "Owner__initOwner__invalidRecoveryOwnerAddress",
            "type": "error"
        },
        {
            "inputs": [],
            "name": "Owner__initOwner__walletInitialized",
            "type": "error"
        },
        {
            "inputs": [],
            "name": "SSR__access__guardiansBlocked",
            "type": "error"
        },
        {
            "inputs": [],
            "name": "SSR__access__walletLocked",
            "type": "error"
        },
        {
            "inputs": [],
            "name": "SSR__addGuardian__invalidAddress",
            "type": "error"
        },
        {
            "inputs": [],
            "name": "SSR__initGuardians__invalidAddress",
            "type": "error"
        },
        {
            "inputs": [],
            "name": "SSR__initGuardians__zeroGuardians",
            "type": "error"
        },
        {
            "inputs": [],
            "name": "SSR__removeGuardian__incorrectPreviousGuardian",
            "type": "error"
        },
        {
            "inputs": [],
            "name": "SSR__removeGuardian__invalidAddress",
            "type": "error"
        },
        {
            "inputs": [],
            "name": "SSR__removeGuardian__underflow",
            "type": "error"
        },
        {
            "inputs": [],
            "name": "SSR__verifyGuardian__invalidSignature",
            "type": "error"
        },
        {
            "inputs": [],
            "name": "SSR__verifyGurdian__notGuardian",
            "type": "error"
        },
        {
            "inputs": [],
            "name": "SSR__verifyOwnerAndGuardian__invalidSignature",
            "type": "error"
        },
        {
            "inputs": [],
            "name": "SSR__verifyOwnerAndGuardian__notGuardian",
            "type": "error"
        },
        {
            "inputs": [],
            "name": "SSR__verifyOwnerAndGuardian__notOwner",
            "type": "error"
        },
        {
            "inputs": [],
            "name": "SSR__verifyOwnerAndRecoveryOwner__invalidSignature",
            "type": "error"
        },
        {
            "inputs": [],
            "name": "SSR__verifyOwnerAndRecoveryOwner__notOwner",
            "type": "error"
        },
        {
            "inputs": [],
            "name": "SSR__verifyOwnerAndRecoveryOwner__notRecoveryOwner",
            "type": "error"
        },
        {
            "inputs": [],
            "name": "SSR__verifyOwner__invalidSignature",
            "type": "error"
        },
        {
            "inputs": [],
            "name": "SSR__verifyOwner__notOwner",
            "type": "error"
        },
        {
            "inputs": [],
            "name": "SSR__verifyRecoveryOwnerAndGurdian__invalidSignature",
            "type": "error"
        },
        {
            "inputs": [],
            "name": "SSR__verifyRecoveryOwnerAndGurdian__notGuardian",
            "type": "error"
        },
        {
            "inputs": [],
            "name": "SSR__verifyRecoveryOwnerAndGurdian__notRecoveryOwner",
            "type": "error"
        },
        {
            "inputs": [],
            "name": "SelfAuthorized__notWallet",
            "type": "error"
        },
        {
            "inputs": [],
            "name": "Singleton__upgradeSingleton__incorrectAddress",
            "type": "error"
        },
        {
            "inputs": [],
            "name": "Singleton__upgradeSingleton__notLaser",
            "type": "error"
        },
        {
            "inputs": [],
            "name": "Utils__InvalidSignature",
            "type": "error"
        },
        {
            "anonymous": false,
            "inputs": [
                {
                    "indexed": false,
                    "internalType": "address",
                    "name": "newEntrypoint",
                    "type": "address"
                }
            ],
            "name": "EntryPointChanged",
            "type": "event"
        },
        {
            "anonymous": false,
            "inputs": [
                {
                    "indexed": false,
                    "internalType": "address",
                    "name": "removedGuardian",
                    "type": "address"
                }
            ],
            "name": "GuardianRemoved",
            "type": "event"
        },
        {
            "anonymous": false,
            "inputs": [
                {
                    "indexed": false,
                    "internalType": "address",
                    "name": "newGuardian",
                    "type": "address"
                }
            ],
            "name": "NewGuardian",
            "type": "event"
        },
        {
            "anonymous": false,
            "inputs": [
                {
                    "indexed": false,
                    "internalType": "address",
                    "name": "recoveryOwner",
                    "type": "address"
                }
            ],
            "name": "NewRecoveryOwner",
            "type": "event"
        },
        {
            "anonymous": false,
            "inputs": [
                {
                    "indexed": false,
                    "internalType": "address",
                    "name": "newOwner",
                    "type": "address"
                }
            ],
            "name": "OwnerChanged",
            "type": "event"
        },
        {
            "anonymous": false,
            "inputs": [
                {
                    "indexed": true,
                    "internalType": "address",
                    "name": "sender",
                    "type": "address"
                },
                {
                    "indexed": false,
                    "internalType": "uint256",
                    "name": "amount",
                    "type": "uint256"
                }
            ],
            "name": "Received",
            "type": "event"
        },
        {
            "anonymous": false,
            "inputs": [],
            "name": "RecoveryUnlocked",
            "type": "event"
        },
        {
            "anonymous": false,
            "inputs": [
                {
                    "indexed": false,
                    "internalType": "address",
                    "name": "owner",
                    "type": "address"
                },
                {
                    "indexed": false,
                    "internalType": "address[]",
                    "name": "guardians",
                    "type": "address[]"
                },
                {
                    "indexed": false,
                    "internalType": "address",
                    "name": "entryPoint",
                    "type": "address"
                }
            ],
            "name": "Setup",
            "type": "event"
        },
        {
            "anonymous": false,
            "inputs": [
                {
                    "indexed": true,
                    "internalType": "address",
                    "name": "newSingleton",
                    "type": "address"
                }
            ],
            "name": "SingletonChanged",
            "type": "event"
        },
        {
            "anonymous": false,
            "inputs": [
                {
                    "indexed": false,
                    "internalType": "address",
                    "name": "to",
                    "type": "address"
                },
                {
                    "indexed": false,
                    "internalType": "uint256",
                    "name": "value",
                    "type": "uint256"
                },
                {
                    "indexed": false,
                    "internalType": "bytes4",
                    "name": "funcSelector",
                    "type": "bytes4"
                }
            ],
            "name": "Success",
            "type": "event"
        },
        {
            "anonymous": false,
            "inputs": [],
            "name": "WalletLocked",
            "type": "event"
        },
        {
            "anonymous": false,
            "inputs": [
                {
                    "indexed": false,
                    "internalType": "address",
                    "name": "newOwner",
                    "type": "address"
                },
                {
                    "indexed": false,
                    "internalType": "address",
                    "name": "newRecoveryOwner",
                    "type": "address"
                }
            ],
            "name": "WalletRecovered",
            "type": "event"
        },
        {
            "anonymous": false,
            "inputs": [],
            "name": "WalletUnlocked",
            "type": "event"
        },
        {
            "inputs": [],
            "name": "VERSION",
            "outputs": [
                {
                    "internalType": "string",
                    "name": "",
                    "type": "string"
                }
            ],
            "stateMutability": "view",
            "type": "function"
        },
        {
            "inputs": [
                {
                    "internalType": "address",
                    "name": "newGuardian",
                    "type": "address"
                }
            ],
            "name": "addGuardian",
            "outputs": [],
            "stateMutability": "nonpayable",
            "type": "function"
        },
        {
            "inputs": [
                {
                    "internalType": "address",
                    "name": "newEntryPoint",
                    "type": "address"
                }
            ],
            "name": "changeEntryPoint",
            "outputs": [],
            "stateMutability": "nonpayable",
            "type": "function"
        },
        {
            "inputs": [
                {
                    "internalType": "address",
                    "name": "newOwner",
                    "type": "address"
                }
            ],
            "name": "changeOwner",
            "outputs": [],
            "stateMutability": "nonpayable",
            "type": "function"
        },
        {
            "inputs": [
                {
                    "internalType": "address",
                    "name": "newRecoveryOwner",
                    "type": "address"
                }
            ],
            "name": "changeRecoveryOwner",
            "outputs": [],
            "stateMutability": "nonpayable",
            "type": "function"
        },
        {
            "inputs": [],
            "name": "domainSeparator",
            "outputs": [
                {
                    "internalType": "bytes32",
                    "name": "",
                    "type": "bytes32"
                }
            ],
            "stateMutability": "view",
            "type": "function"
        },
        {
            "inputs": [],
            "name": "entryPoint",
            "outputs": [
                {
                    "internalType": "address",
                    "name": "",
                    "type": "address"
                }
            ],
            "stateMutability": "view",
            "type": "function"
        },
        {
            "inputs": [
                {
                    "internalType": "address",
                    "name": "to",
                    "type": "address"
                },
                {
                    "internalType": "uint256",
                    "name": "value",
                    "type": "uint256"
                },
                {
                    "internalType": "bytes",
                    "name": "data",
                    "type": "bytes"
                }
            ],
            "name": "exec",
            "outputs": [],
            "stateMutability": "nonpayable",
            "type": "function"
        },
        {
            "inputs": [],
            "name": "getChainId",
            "outputs": [
                {
                    "internalType": "uint256",
                    "name": "chainId",
                    "type": "uint256"
                }
            ],
            "stateMutability": "view",
            "type": "function"
        },
        {
            "inputs": [],
            "name": "getGuardians",
            "outputs": [
                {
                    "internalType": "address[]",
                    "name": "",
                    "type": "address[]"
                }
            ],
            "stateMutability": "view",
            "type": "function"
        },
        {
            "inputs": [],
            "name": "guardiansBlocked",
            "outputs": [
                {
                    "internalType": "bool",
                    "name": "",
                    "type": "bool"
                }
            ],
            "stateMutability": "view",
            "type": "function"
        },
        {
            "inputs": [
                {
                    "internalType": "address",
                    "name": "_owner",
                    "type": "address"
                },
                {
                    "internalType": "address",
                    "name": "_recoveryOwner",
                    "type": "address"
                },
                {
                    "internalType": "address[]",
                    "name": "_guardians",
                    "type": "address[]"
                },
                {
                    "internalType": "address",
                    "name": "_entryPoint",
                    "type": "address"
                }
            ],
            "name": "init",
            "outputs": [],
            "stateMutability": "nonpayable",
            "type": "function"
        },
        {
            "inputs": [
                {
                    "internalType": "address",
                    "name": "guardian",
                    "type": "address"
                }
            ],
            "name": "isGuardian",
            "outputs": [
                {
                    "internalType": "bool",
                    "name": "",
                    "type": "bool"
                }
            ],
            "stateMutability": "view",
            "type": "function"
        },
        {
            "inputs": [],
            "name": "isLocked",
            "outputs": [
                {
                    "internalType": "bool",
                    "name": "",
                    "type": "bool"
                }
            ],
            "stateMutability": "view",
            "type": "function"
        },
        {
            "inputs": [
                {
                    "internalType": "bytes32",
                    "name": "hash",
                    "type": "bytes32"
                },
                {
                    "internalType": "bytes",
                    "name": "signature",
                    "type": "bytes"
                }
            ],
            "name": "isValidSignature",
            "outputs": [
                {
                    "internalType": "bytes4",
                    "name": "",
                    "type": "bytes4"
                }
            ],
            "stateMutability": "view",
            "type": "function"
        },
        {
            "inputs": [],
            "name": "lock",
            "outputs": [],
            "stateMutability": "nonpayable",
            "type": "function"
        },
        {
            "inputs": [],
            "name": "nonce",
            "outputs": [
                {
                    "internalType": "uint256",
                    "name": "",
                    "type": "uint256"
                }
            ],
            "stateMutability": "view",
            "type": "function"
        },
        {
            "inputs": [
                {
                    "internalType": "address",
                    "name": "",
                    "type": "address"
                },
                {
                    "internalType": "address",
                    "name": "",
                    "type": "address"
                },
                {
                    "internalType": "uint256[]",
                    "name": "",
                    "type": "uint256[]"
                },
                {
                    "internalType": "uint256[]",
                    "name": "",
                    "type": "uint256[]"
                },
                {
                    "internalType": "bytes",
                    "name": "",
                    "type": "bytes"
                }
            ],
            "name": "onERC1155BatchReceived",
            "outputs": [
                {
                    "internalType": "bytes4",
                    "name": "result",
                    "type": "bytes4"
                }
            ],
            "stateMutability": "pure",
            "type": "function"
        },
        {
            "inputs": [
                {
                    "internalType": "address",
                    "name": "",
                    "type": "address"
                },
                {
                    "internalType": "address",
                    "name": "",
                    "type": "address"
                },
                {
                    "internalType": "uint256",
                    "name": "",
                    "type": "uint256"
                },
                {
                    "internalType": "uint256",
                    "name": "",
                    "type": "uint256"
                },
                {
                    "internalType": "bytes",
                    "name": "",
                    "type": "bytes"
                }
            ],
            "name": "onERC1155Received",
            "outputs": [
                {
                    "internalType": "bytes4",
                    "name": "",
                    "type": "bytes4"
                }
            ],
            "stateMutability": "pure",
            "type": "function"
        },
        {
            "inputs": [
                {
                    "internalType": "address",
                    "name": "",
                    "type": "address"
                },
                {
                    "internalType": "address",
                    "name": "",
                    "type": "address"
                },
                {
                    "internalType": "uint256",
                    "name": "",
                    "type": "uint256"
                },
                {
                    "internalType": "bytes",
                    "name": "",
                    "type": "bytes"
                }
            ],
            "name": "onERC721Received",
            "outputs": [
                {
                    "internalType": "bytes4",
                    "name": "",
                    "type": "bytes4"
                }
            ],
            "stateMutability": "pure",
            "type": "function"
        },
        {
            "inputs": [],
            "name": "owner",
            "outputs": [
                {
                    "internalType": "address",
                    "name": "",
                    "type": "address"
                }
            ],
            "stateMutability": "view",
            "type": "function"
        },
        {
            "inputs": [
                {
                    "internalType": "address",
                    "name": "newOwner",
                    "type": "address"
                },
                {
                    "internalType": "address",
                    "name": "newRecoveryOwner",
                    "type": "address"
                }
            ],
            "name": "recover",
            "outputs": [],
            "stateMutability": "nonpayable",
            "type": "function"
        },
        {
            "inputs": [],
            "name": "recoveryOwner",
            "outputs": [
                {
                    "internalType": "address",
                    "name": "",
                    "type": "address"
                }
            ],
            "stateMutability": "view",
            "type": "function"
        },
        {
            "inputs": [],
            "name": "recoveryUnlock",
            "outputs": [],
            "stateMutability": "nonpayable",
            "type": "function"
        },
        {
            "inputs": [
                {
                    "internalType": "address",
                    "name": "prevGuardian",
                    "type": "address"
                },
                {
                    "internalType": "address",
                    "name": "guardianToRemove",
                    "type": "address"
                }
            ],
            "name": "removeGuardian",
            "outputs": [],
            "stateMutability": "nonpayable",
            "type": "function"
        },
        {
            "inputs": [
                {
                    "internalType": "bytes32",
                    "name": "dataHash",
                    "type": "bytes32"
                },
                {
                    "internalType": "bytes32",
                    "name": "r",
                    "type": "bytes32"
                },
                {
                    "internalType": "bytes32",
                    "name": "s",
                    "type": "bytes32"
                },
                {
                    "internalType": "uint8",
                    "name": "v",
                    "type": "uint8"
                }
            ],
            "name": "returnSigner",
            "outputs": [
                {
                    "internalType": "address",
                    "name": "signer",
                    "type": "address"
                }
            ],
            "stateMutability": "pure",
            "type": "function"
        },
        {
            "inputs": [
                {
                    "internalType": "address",
                    "name": "to",
                    "type": "address"
                },
                {
                    "internalType": "uint256",
                    "name": "value",
                    "type": "uint256"
                },
                {
                    "internalType": "bytes",
                    "name": "data",
                    "type": "bytes"
                }
            ],
            "name": "simulateTransaction",
            "outputs": [
                {
                    "internalType": "uint256",
                    "name": "gasUsed",
                    "type": "uint256"
                }
            ],
            "stateMutability": "nonpayable",
            "type": "function"
        },
        {
            "inputs": [],
            "name": "singleton",
            "outputs": [
                {
                    "internalType": "address",
                    "name": "",
                    "type": "address"
                }
            ],
            "stateMutability": "view",
            "type": "function"
        },
        {
            "inputs": [
                {
                    "internalType": "bytes",
                    "name": "signature",
                    "type": "bytes"
                },
                {
                    "internalType": "uint256",
                    "name": "pos",
                    "type": "uint256"
                }
            ],
            "name": "splitSigs",
            "outputs": [
                {
                    "internalType": "bytes32",
                    "name": "r",
                    "type": "bytes32"
                },
                {
                    "internalType": "bytes32",
                    "name": "s",
                    "type": "bytes32"
                },
                {
                    "internalType": "uint8",
                    "name": "v",
                    "type": "uint8"
                }
            ],
            "stateMutability": "pure",
            "type": "function"
        },
        {
            "inputs": [
                {
                    "internalType": "bytes4",
                    "name": "_interfaceId",
                    "type": "bytes4"
                }
            ],
            "name": "supportsInterface",
            "outputs": [
                {
                    "internalType": "bool",
                    "name": "",
                    "type": "bool"
                }
            ],
            "stateMutability": "pure",
            "type": "function"
        },
        {
            "inputs": [
                {
                    "internalType": "address",
                    "name": "",
                    "type": "address"
                },
                {
                    "internalType": "address",
                    "name": "",
                    "type": "address"
                },
                {
                    "internalType": "address",
                    "name": "",
                    "type": "address"
                },
                {
                    "internalType": "uint256",
                    "name": "",
                    "type": "uint256"
                },
                {
                    "internalType": "bytes",
                    "name": "",
                    "type": "bytes"
                },
                {
                    "internalType": "bytes",
                    "name": "",
                    "type": "bytes"
                }
            ],
            "name": "tokensReceived",
            "outputs": [],
            "stateMutability": "pure",
            "type": "function"
        },
        {
            "inputs": [],
            "name": "unlock",
            "outputs": [],
            "stateMutability": "nonpayable",
            "type": "function"
        },
        {
            "inputs": [],
            "name": "unlockGuardians",
            "outputs": [],
            "stateMutability": "nonpayable",
            "type": "function"
        },
        {
            "inputs": [
                {
                    "internalType": "address",
                    "name": "_singleton",
                    "type": "address"
                }
            ],
            "name": "upgradeSingleton",
            "outputs": [],
            "stateMutability": "nonpayable",
            "type": "function"
        },
        {
            "inputs": [
                {
                    "components": [
                        {
                            "internalType": "address",
                            "name": "sender",
                            "type": "address"
                        },
                        {
                            "internalType": "uint256",
                            "name": "nonce",
                            "type": "uint256"
                        },
                        {
                            "internalType": "bytes",
                            "name": "initCode",
                            "type": "bytes"
                        },
                        {
                            "internalType": "bytes",
                            "name": "callData",
                            "type": "bytes"
                        },
                        {
                            "internalType": "uint256",
                            "name": "callGas",
                            "type": "uint256"
                        },
                        {
                            "internalType": "uint256",
                            "name": "verificationGas",
                            "type": "uint256"
                        },
                        {
                            "internalType": "uint256",
                            "name": "preVerificationGas",
                            "type": "uint256"
                        },
                        {
                            "internalType": "uint256",
                            "name": "maxFeePerGas",
                            "type": "uint256"
                        },
                        {
                            "internalType": "uint256",
                            "name": "maxPriorityFeePerGas",
                            "type": "uint256"
                        },
                        {
                            "internalType": "address",
                            "name": "paymaster",
                            "type": "address"
                        },
                        {
                            "internalType": "bytes",
                            "name": "paymasterData",
                            "type": "bytes"
                        },
                        {
                            "internalType": "bytes",
                            "name": "signature",
                            "type": "bytes"
                        }
                    ],
                    "internalType": "struct UserOperation",
                    "name": "userOp",
                    "type": "tuple"
                }
            ],
            "name": "userOperationHash",
            "outputs": [
                {
                    "internalType": "bytes32",
                    "name": "",
                    "type": "bytes32"
                }
            ],
            "stateMutability": "view",
            "type": "function"
        },
        {
            "inputs": [
                {
                    "components": [
                        {
                            "internalType": "address",
                            "name": "sender",
                            "type": "address"
                        },
                        {
                            "internalType": "uint256",
                            "name": "nonce",
                            "type": "uint256"
                        },
                        {
                            "internalType": "bytes",
                            "name": "initCode",
                            "type": "bytes"
                        },
                        {
                            "internalType": "bytes",
                            "name": "callData",
                            "type": "bytes"
                        },
                        {
                            "internalType": "uint256",
                            "name": "callGas",
                            "type": "uint256"
                        },
                        {
                            "internalType": "uint256",
                            "name": "verificationGas",
                            "type": "uint256"
                        },
                        {
                            "internalType": "uint256",
                            "name": "preVerificationGas",
                            "type": "uint256"
                        },
                        {
                            "internalType": "uint256",
                            "name": "maxFeePerGas",
                            "type": "uint256"
                        },
                        {
                            "internalType": "uint256",
                            "name": "maxPriorityFeePerGas",
                            "type": "uint256"
                        },
                        {
                            "internalType": "address",
                            "name": "paymaster",
                            "type": "address"
                        },
                        {
                            "internalType": "bytes",
                            "name": "paymasterData",
                            "type": "bytes"
                        },
                        {
                            "internalType": "bytes",
                            "name": "signature",
                            "type": "bytes"
                        }
                    ],
                    "internalType": "struct UserOperation",
                    "name": "userOp",
                    "type": "tuple"
                },
                {
                    "internalType": "bytes32",
                    "name": "",
                    "type": "bytes32"
                },
                {
                    "internalType": "uint256",
                    "name": "_requiredPrefund",
                    "type": "uint256"
                }
            ],
            "name": "validateUserOp",
            "outputs": [],
            "stateMutability": "nonpayable",
            "type": "function"
        },
        {
            "inputs": [
                {
                    "internalType": "uint256",
                    "name": "amount",
                    "type": "uint256"
                }
            ],
            "name": "withdrawDeposit",
            "outputs": [],
            "stateMutability": "nonpayable",
            "type": "function"
        },
        {
            "stateMutability": "payable",
            "type": "receive"
        }
    ],
    "bytecode": "0x608060405234801561001057600080fd5b50600280546001600160a01b0319163017905561305a806100326000396000f3fe60806040526004361061026d5760003560e01c80639466df0111610153578063b0d691fe116100cb578063f2f8243d1161007f578063f83d08ba11610064578063f83d08ba146107b3578063fcbac1f4146107c8578063ffa1ad74146107e857600080fd5b8063f2f8243d1461072c578063f698da251461074c57600080fd5b8063bc197c81116100b0578063bc197c81146106bb578063c6922723146106ea578063f23a6e61146106ff57600080fd5b8063b0d691fe1461067b578063b62654fb1461069b57600080fd5b8063a526d83b11610122578063a6f9dae111610107578063a6f9dae114610625578063a9cc1c6214610645578063affed0e01461066557600080fd5b8063a526d83b146105f0578063a69df4b51461061057600080fd5b80639466df0114610549578063956ccd761461055e5780639b27a90e146105b6578063a4e2d634146105d657600080fd5b806333289a46116101e65780636760fd59116101b55780638583c7c01161019a5780638583c7c0146104d157806388089300146105095780638da5cb5b1461052957600080fd5b80636760fd59146104925780638579a63a146104b157600080fd5b806333289a461461041f5780633408e4701461043f5780634b02488f14610452578063648bf7741461047257600080fd5b80630c68ba211161023d578063150b7a0211610222578063150b7a021461038c5780631626ba7e146103d157806328b7ca8d146103f157600080fd5b80630c68ba211461034c57806310e888921461036c57600080fd5b806223de29146102ae57806301ffc9a7146102d55780630565bb671461030a5780630665f04b1461032a57600080fd5b366102a95760405134815233907f88a5966d370b9919b20f3e2c13ff65706f196a4e32cc2c12bf57088f885258749060200160405180910390a2005b600080fd5b3480156102ba57600080fd5b506102d36102c93660046126fc565b5050505050505050565b005b3480156102e157600080fd5b506102f56102f03660046127bd565b61083e565b60405190151581526020015b60405180910390f35b34801561031657600080fd5b506102d3610325366004612884565b6108e1565b34801561033657600080fd5b5061033f61099f565b60405161030191906128db565b34801561035857600080fd5b506102f5610367366004612928565b610a95565b34801561037857600080fd5b506102d3610387366004612928565b610acd565b34801561039857600080fd5b506103b86103a7366004612943565b630a85bd0160e11b95945050505050565b6040516001600160e01b03199091168152602001610301565b3480156103dd57600080fd5b506103b86103ec3660046129b2565b610beb565b3480156103fd57600080fd5b5061041161040c366004612a12565b610c6b565b604051908152602001610301565b34801561042b57600080fd5b506102d361043a366004612a47565b610cdc565b34801561044b57600080fd5b5046610411565b34801561045e57600080fd5b506102d361046d366004612928565b610dee565b34801561047e57600080fd5b506102d361048d366004612a60565b610eb8565b34801561049e57600080fd5b506005546102f590610100900460ff1681565b3480156104bd57600080fd5b506104116104cc366004612884565b610f51565b3480156104dd57600080fd5b506003546104f1906001600160a01b031681565b6040516001600160a01b039091168152602001610301565b34801561051557600080fd5b506104f1610524366004612a93565b611043565b34801561053557600080fd5b506002546104f1906001600160a01b031681565b34801561055557600080fd5b506102d3611199565b34801561056a57600080fd5b50610598610579366004612ada565b6041020160208101516040820151606090920151909260009190911a90565b60408051938452602084019290925260ff1690820152606001610301565b3480156105c257600080fd5b506102d36105d1366004612a60565b6111f3565b3480156105e257600080fd5b506005546102f59060ff1681565b3480156105fc57600080fd5b506102d361060b366004612928565b611329565b34801561061c57600080fd5b506102d36114d4565b34801561063157600080fd5b506102d3610640366004612928565b611529565b34801561065157600080fd5b506102d3610660366004612b64565b6115d4565b34801561067157600080fd5b5061041160075481565b34801561068757600080fd5b506001546104f1906001600160a01b031681565b3480156106a757600080fd5b506000546104f1906001600160a01b031681565b3480156106c757600080fd5b506103b86106d6366004612bda565b63bc197c8160e01b98975050505050505050565b3480156106f657600080fd5b506102d3611646565b34801561070b57600080fd5b506103b861071a366004612c74565b63f23a6e6160e01b9695505050505050565b34801561073857600080fd5b506102d3610747366004612928565b611673565b34801561075857600080fd5b5061041160007f47e79534a245952e8b16893a336b85a3d9ea9fa8c573f3d803afb92a794692184660408051602081019390935282015230606082015260800160405160208183030381529060405280519060200120905090565b3480156107bf57600080fd5b506102d3611721565b3480156107d457600080fd5b506102d36107e3366004612cec565b611779565b3480156107f457600080fd5b506108316040518060400160405280600581526020017f312e302e3000000000000000000000000000000000000000000000000000000081525081565b6040516103019190612d87565b60006301ffc9a760e01b6001600160e01b03198316148061086f5750630b135d3f60e11b6001600160e01b03198316145b8061088a5750636cdb3d1360e11b6001600160e01b03198316145b806108a55750630271189760e51b6001600160e01b03198316145b806108c0575063ae029e0b60e01b6001600160e01b03198316145b806108db5750630a85bd0160e11b6001600160e01b03198316145b92915050565b6001546001600160a01b0316331461090c57604051634a84853360e11b815260040160405180910390fd5b600061091a8484845a6118a7565b90508061093a576040516386bdccb560e01b815260040160405180910390fd5b7f6366738429880a1d7ade4222ee84f9446066cb5948c6060cc93b10a836c68108848461096685612d9a565b604080516001600160a01b03909416845260208401929092526001600160e01b0319169082015260600160405180910390a15b50505050565b6060600060045467ffffffffffffffff8111156109be576109be6127e1565b6040519080825280602002602001820160405280156109e7578160200160208202803683370190505b506001600090815260066020527f3e5fec24aa4dc4e5aee2e025e51e1392c72a2500577559fae9665c6d52bd6a31549192506001600160a01b03909116905b6001600160a01b038216600114610a8d5781838281518110610a4a57610a4a612dd1565b6001600160a01b03928316602091820292909201810191909152928116600090815260069093526040909220549091169080610a8581612dfd565b915050610a26565b509092915050565b60006001600160a01b0382166001148015906108db5750506001600160a01b0390811660009081526006602052604090205416151590565b333014610aed576040516307583a2960e41b815260040160405180910390fd5b306001600160a01b03821603610b16576040516332125e8360e11b815260040160405180910390fd5b6040516301ffc9a760e01b815263ae029e0b60e01b60048201526001600160a01b038216906301ffc9a790602401602060405180830381865afa158015610b61573d6000803e3d6000fd5b505050506040513d601f19601f82011682018060405250810190610b859190612e16565b610ba257604051637b66762360e11b815260040160405180910390fd5b600080546001600160a01b0319166001600160a01b038316908117825560405190917fad04cda32d7774350bace4bdca605ed7431195e8c78235e484626b2785de816d91a25b50565b6020810151604082015160608301516000929190831a83610c0e87858585611043565b6002549091506001600160a01b03808316911614610c3f57604051633a1c7d3960e21b815260040160405180910390fd5b507f1626ba7e356f5979dd355a3d2bfb43e80420a480c3b854edce286a82d74968699695505050505050565b6000610cce610c7d6020840184612928565b6020840135610c8f6060860186612e38565b608087013560a088013560c089013560e08a01356101008b0135610cbb6101408d016101208e01612928565b610cc96101408e018e612e38565b6118bf565b805190602001209050919050565b333014610cfc576040516307583a2960e41b815260040160405180910390fd5b6001546040516370a0823160e01b815230600482015282916001600160a01b0316906370a0823190602401602060405180830381865afa158015610d44573d6000803e3d6000fd5b505050506040513d601f19601f82011682018060405250810190610d689190612e7f565b1015610d8757604051630137f17760e11b815260040160405180910390fd5b60015460405163040b850f60e31b8152306004820152602481018390526001600160a01b039091169063205c287890604401600060405180830381600087803b158015610dd357600080fd5b505af1158015610de7573d6000803e3d6000fd5b5050505050565b333014610e0e576040516307583a2960e41b815260040160405180910390fd5b6001600160a01b0381163b1580610e2d57506001600160a01b03811630145b80610e4557506001546001600160a01b038281169116145b15610e6357604051634704771960e11b815260040160405180910390fd5b600180546001600160a01b0319166001600160a01b0383169081179091556040519081527f94fe20369eda1036391e68ebc6af4965f710ae7bc0cb1c315895c028149582d2906020015b60405180910390a150565b333014610ed8576040516307583a2960e41b815260040160405180910390fd5b610ee28282611a60565b600280546001600160a01b038481166001600160a01b03199283168117909355600380549185169190921681179091556040805192835260208301919091527fced95d270303f50b4373064f4148282a32dd521235b73c351f0955a594941a3091015b60405180910390a15050565b6000805a90506000610f658686865a6118a7565b905080610fb95760405162461bcd60e51b815260206004820152601060248201527f457865637574696f6e206661696c65640000000000000000000000000000000060448201526064015b60405180910390fd5b5a610fc49083612e98565b9250331561103a5760405162461bcd60e51b815260206004820152602b60248201527f4d7573742062652063616c6c6564206f66662d636861696e2066726f6d20616460448201527f6472657373207a65726f2e0000000000000000000000000000000000000000006064820152608401610fb0565b50509392505050565b6000601e8260ff16111561110a576040517f19457468657265756d205369676e6564204d6573736167653a0a3332000000006020820152603c8101869052600190605c01604051602081830303815290604052805190602001206004846110aa9190612eaf565b6040805160008152602081018083529390935260ff90911690820152606081018690526080810185905260a0016020604051602081039080840390855afa1580156110f9573d6000803e3d6000fd5b50505060206040510351905061116a565b60408051600081526020810180835287905260ff841691810191909152606081018590526080810184905260019060a0016020604051602081039080840390855afa15801561115d573d6000803e3d6000fd5b5050506020604051035190505b6001600160a01b03811661119157604051634aef5ea760e01b815260040160405180910390fd5b949350505050565b3330146111b9576040516307583a2960e41b815260040160405180910390fd5b6005805461ffff19166101001790556040517f0d581a543b8a5c64309ffed1e0e9a522b78d6c160dc57cc4cb7f78f9a14d5e3490600090a1565b333014611213576040516307583a2960e41b815260040160405180910390fd5b6000196001600160a01b0382160161123e576040516302f412b360e21b815260040160405180910390fd5b6001600160a01b0382811660009081526006602052604090205481169082161461127b5760405163475347b160e11b815260040160405180910390fd5b60018060045461128b9190612e98565b10156112aa5760405163342a2dc560e21b815260040160405180910390fd5b6001600160a01b038181166000818152600660209081526040808320805488871685528285208054919097166001600160a01b0319918216179096559284905282549094169091556004805460001901905591519081527fb8107d0c6b40be480ce3172ee66ba6d64b71f6b1685a851340036e6e2e3e3c529101610f45565b333014611349576040516307583a2960e41b815260040160405180910390fd5b6001600160a01b038116158061136c57506002546001600160a01b038281169116145b8061139057506001600160a01b038181166000908152600660205260409020541615155b156113ae57604051632ce028d960e21b815260040160405180910390fd5b6040516301ffc9a760e01b8152630b135d3f60e11b60048201526001600160a01b038216906301ffc9a790602401602060405180830381865afa1580156113f9573d6000803e3d6000fd5b505050506040513d601f19601f8201168201806040525081019061141d9190612e16565b61143a57604051632ce028d960e21b815260040160405180910390fd5b600660209081527f3e5fec24aa4dc4e5aee2e025e51e1392c72a2500577559fae9665c6d52bd6a3180546001600160a01b03848116600081815260408082208054949095166001600160a01b03199485161790945560019081905284549092168117909355600480549091019055519081527fb6182387b7ea948602a7e04e662a27ce251dc3dd014eacaed10dce36b41bf1a59101610ead565b3330146114f4576040516307583a2960e41b815260040160405180910390fd5b6005805460ff191690556040517f63fc9aecb05834d2330c4dad03b320242fa9e8a10eb80cd31518efa9ed781b8690600090a1565b333014611549576040516307583a2960e41b815260040160405180910390fd5b6001600160a01b0381163b15158061156857506001600160a01b038116155b1561158657604051633927dba760e01b815260040160405180910390fd5b600280546001600160a01b0319166001600160a01b0383169081179091556040519081527fa2ea9883a321a3e97b8266c2b078bfeec6d50c711ed71f874a90d500ae2eaf3690602001610ead565b6115de8585611ade565b6115e88383611b40565b6115f181611d34565b6002546001546040517f37c1a68ddf221fa26f7d1eabbc08593647556eb85e57067e7046038e14def14f92611637926001600160a01b0391821692889288921690612ed2565b60405180910390a15050505050565b333014611666576040516307583a2960e41b815260040160405180910390fd5b6005805461ff0019169055565b333014611693576040516307583a2960e41b815260040160405180910390fd5b600380546001600160a01b0319166001600160a01b0383169081179091553b1515806116c657506001600160a01b038116155b156116e45760405163ae5864f560e01b815260040160405180910390fd5b6003546040516001600160a01b0390911681527f24b755696b711f89e9f520613bc428ad6a76ea9e0ea8ce1bcbc4a49d7117e7d490602001610ead565b333014611741576040516307583a2960e41b815260040160405180910390fd5b6005805460ff191660011790556040517fd550ed24c5d3906c5831b36940c8eb789771469024f7963da735aaf15c59b9a290600090a1565b6001546001600160a01b031633146117a457604051634a84853360e11b815260040160405180910390fd5b6007805460208501359160006117b983612dfd565b91905055146117db57604051631f2f5fab60e31b815260040160405180910390fd5b600061183e6117ed6020860186612928565b60208601356117ff6060880188612e38565b88608001358960a001358a60c001358b60e001358c61010001358d61012001602081019061182d9190612928565b8e806101400190610cc99190612e38565b8051602082012090915060006118576060870187612e38565b611865916084908290612f38565b61186e91612f62565b9050600061187b82611d93565b905061189581846118906101608b018b612e38565b611e6f565b61189e85611fc7565b50505050505050565b6000806000845160208601878987f195945050505050565b606060007fc1856f49e02553b0bbe30f9cfe3ff8c70046e43053f0515ced3799f6c96f94b28e8e8e8e6040516118f6929190612f92565b60405180910390208d8d8d8d8d8d8d8d604051611914929190612f92565b60408051918290038220602083019c909c526001600160a01b039a8b16908201526060810198909852608088019690965260a087019490945260c086019290925260e08501526101008401526101208301529091166101408201526101608101919091526101800160408051601f1981840301815291905280516020909101209050601960f81b600160f81b6119fa60007f47e79534a245952e8b16893a336b85a3d9ea9fa8c573f3d803afb92a794692184660408051602081019390935282015230606082015260800160405160208183030381529060405280519060200120905090565b6040517fff0000000000000000000000000000000000000000000000000000000000000093841660208201529290911660218301526022820152604281018290526062016040516020818303038152906040529150509c9b505050505050505050505050565b6001600160a01b0382163b151580611a7f57506001600160a01b038216155b15611a9d5760405163087099bd60e01b815260040160405180910390fd5b6001600160a01b0381163b151580611abc57506001600160a01b038116155b15611ada57604051630208bf3960e01b815260040160405180910390fd5b5050565b6002546001600160a01b031615611b0857604051632dfc004f60e21b815260040160405180910390fd5b611b128282611a60565b600280546001600160a01b039384166001600160a01b03199182161790915560038054929093169116179055565b806001811015611b635760405163bfa963cb60e01b815260040160405180910390fd5b600160005b82811015611d04576000858583818110611b8457611b84612dd1565b9050602002016020810190611b999190612928565b6002549091506001600160a01b0380831691161480611bbf57506001600160a01b038116155b80611bd357506001600160a01b0381166001145b80611bef5750826001600160a01b0316816001600160a01b0316145b80611c1357506001600160a01b038181166000908152600660205260409020541615155b15611c3157604051630d34ec4760e31b815260040160405180910390fd5b6001600160a01b0381163b15611ccd576040516301ffc9a760e01b8152630b135d3f60e11b60048201526001600160a01b038216906301ffc9a790602401602060405180830381865afa158015611c8c573d6000803e3d6000fd5b505050506040513d601f19601f82011682018060405250810190611cb09190612e16565b611ccd57604051630d34ec4760e31b815260040160405180910390fd5b6001600160a01b03928316600090815260066020526040902080546001600160a01b03191693821693909317909255600101611b68565b506001600160a01b0316600090815260066020526040902080546001600160a01b03191660011790556004555050565b6001600160a01b0381163b1580611d5357506001600160a01b03811630145b15611d7157604051631f12099d60e21b815260040160405180910390fd5b600180546001600160a01b0319166001600160a01b0392909216919091179055565b60006303e17ba360e11b6001600160e01b0319831601611dde57600554610100900460ff1615611dd65760405163c525f01160e01b815260040160405180910390fd5b506001919050565b6359620b4b60e01b6001600160e01b0319831601611dfe57506002919050565b636b9920ff60e01b6001600160e01b0319831601611e1e57506004919050565b6326dd022360e21b6001600160e01b0319831601611e3e57506003919050565b60055460ff1615611e62576040516319786ced60e01b815260040160405180910390fd5b506000919050565b919050565b6000846004811115611e8357611e83612fa2565b03611ecd57611ec88383838080601f016020809104026020016040519081016040528093929190818152602001838380828437600092019190915250611ff092505050565b610999565b6001846004811115611ee157611ee1612fa2565b03611f2657611ec88383838080601f01602080910402602001604051908101604052809392919081815260200183838082843760009201919091525061207592505050565b6002846004811115611f3a57611f3a612fa2565b03611f4a57611ec88383836121f0565b6003846004811115611f5e57611f5e612fa2565b03611f6e57611ec88383836123e1565b6004846004811115611f8257611f82612fa2565b036102a957611ec88383838080601f0160208091040260200160405190810160405280939291908181526020018383808284376000920191909152506125c892505050565b8015610be85760408051600080825260208201909252611feb90339084905a6118a7565b505050565b6000806000604184511015612018576040516337546a5b60e21b815260040160405180910390fd5b505050602081015160408201516060830151600090811a9061203c86858585611043565b6002549091506001600160a01b0380831691161461206d5760405163a70b95ff60e01b815260040160405180910390fd5b505050505050565b60008060008060418551101561209e576040516337546a5b60e21b815260040160405180910390fd5b60208501516040860151606087015160001a9195509350915060006120c587868686611043565b6001600160a01b0380821660009081526006602052604090205491925016156120f157600191506121d2565b60006120fb61099f565b905060005b6004548110156121cf57600082828151811061211e5761211e612dd1565b602002602001015190506000816001600160a01b03163b11156121c657604051630b135d3f60e11b81526001600160a01b03821690631626ba7e90612169908d908d90600401612fb8565b602060405180830381865afa158015612186573d6000803e3d6000fd5b505050506040513d601f19601f820116820180604052508101906121aa9190612fd1565b6001600160e01b031916630b135d3f60e11b036121c657600194505b50600101612100565b50505b8161189e57604051634c18cb5f60e01b815260040160405180910390fd5b6000808060828410156122165760405163224068db60e11b815260040160405180910390fd5b61225585858080601f01602080910402602001604051908101604052809392919081815260200183838082843760009201829052509250610579915050565b91945092509050600061226a87858585611043565b6002549091506001600160a01b0380831691161461229b5760405163e4c802a160e01b815260040160405180910390fd5b6000806122aa89878787611043565b6001600160a01b0380821660009081526006602052604090205491935016156122d5575060016123b8565b60006122df61099f565b905060005b6004548110156123b557600082828151811061230257612302612dd1565b602002602001015190506000816001600160a01b03163b11156123ac57604051630b135d3f60e11b81526001600160a01b03821690631626ba7e9061234f908f908f908f90600401612fee565b602060405180830381865afa15801561236c573d6000803e3d6000fd5b505050506040513d601f19601f820116820180604052508101906123909190612fd1565b6001600160e01b031916630b135d3f60e11b036123ac57600193505b506001016122e4565b50505b806123d657604051633906141760e11b815260040160405180910390fd5b505050505050505050565b60008080608284101561240757604051637c261f3560e11b815260040160405180910390fd5b61244685858080601f01602080910402602001604051908101604052809392919081815260200183838082843760009201829052509250610579915050565b91945092509050600061245b87858585611043565b6003549091506001600160a01b0380831691161461248c57604051636c957d7960e01b815260040160405180910390fd5b60008061249b89878787611043565b6001600160a01b0380821660009081526006602052604090205491925016156124c757600191506125aa565b60006124d161099f565b905060005b6004548110156125a75760008282815181106124f4576124f4612dd1565b602002602001015190506000816001600160a01b03163b111561259e57604051630b135d3f60e11b81526001600160a01b03821690631626ba7e90612541908f908f908f90600401612fee565b602060405180830381865afa15801561255e573d6000803e3d6000fd5b505050506040513d601f19601f820116820180604052508101906125829190612fd1565b6001600160e01b031916630b135d3f60e11b0361259e57600194505b506001016124d6565b50505b816123d657604051633554384b60e21b815260040160405180910390fd5b600080600083516082146125ef5760405163d02a7fa960e01b815260040160405180910390fd5b505050602081015160408201516060830151600090811a9061261386858585611043565b6002549091506001600160a01b0380831691161461264457604051633c8877db60e01b815260040160405180910390fd5b6061850151608186015160a187015160001a91955093509150600061266b87868686611043565b6003549091506001600160a01b0380831691161461189e576040516366cc772b60e01b815260040160405180910390fd5b80356001600160a01b0381168114611e6a57600080fd5b60008083601f8401126126c557600080fd5b50813567ffffffffffffffff8111156126dd57600080fd5b6020830191508360208285010111156126f557600080fd5b9250929050565b60008060008060008060008060c0898b03121561271857600080fd5b6127218961269c565b975061272f60208a0161269c565b965061273d60408a0161269c565b955060608901359450608089013567ffffffffffffffff8082111561276157600080fd5b61276d8c838d016126b3565b909650945060a08b013591508082111561278657600080fd5b506127938b828c016126b3565b999c989b5096995094979396929594505050565b6001600160e01b031981168114610be857600080fd5b6000602082840312156127cf57600080fd5b81356127da816127a7565b9392505050565b634e487b7160e01b600052604160045260246000fd5b600082601f83011261280857600080fd5b813567ffffffffffffffff80821115612823576128236127e1565b604051601f8301601f19908116603f0116810190828211818310171561284b5761284b6127e1565b8160405283815286602085880101111561286457600080fd5b836020870160208301376000602085830101528094505050505092915050565b60008060006060848603121561289957600080fd5b6128a28461269c565b925060208401359150604084013567ffffffffffffffff8111156128c557600080fd5b6128d1868287016127f7565b9150509250925092565b6020808252825182820181905260009190848201906040850190845b8181101561291c5783516001600160a01b0316835292840192918401916001016128f7565b50909695505050505050565b60006020828403121561293a57600080fd5b6127da8261269c565b60008060008060006080868803121561295b57600080fd5b6129648661269c565b94506129726020870161269c565b935060408601359250606086013567ffffffffffffffff81111561299557600080fd5b6129a1888289016126b3565b969995985093965092949392505050565b600080604083850312156129c557600080fd5b82359150602083013567ffffffffffffffff8111156129e357600080fd5b6129ef858286016127f7565b9150509250929050565b60006101808284031215612a0c57600080fd5b50919050565b600060208284031215612a2457600080fd5b813567ffffffffffffffff811115612a3b57600080fd5b611191848285016129f9565b600060208284031215612a5957600080fd5b5035919050565b60008060408385031215612a7357600080fd5b612a7c8361269c565b9150612a8a6020840161269c565b90509250929050565b60008060008060808587031215612aa957600080fd5b843593506020850135925060408501359150606085013560ff81168114612acf57600080fd5b939692955090935050565b60008060408385031215612aed57600080fd5b823567ffffffffffffffff811115612b0457600080fd5b612b10858286016127f7565b95602094909401359450505050565b60008083601f840112612b3157600080fd5b50813567ffffffffffffffff811115612b4957600080fd5b6020830191508360208260051b85010111156126f557600080fd5b600080600080600060808688031215612b7c57600080fd5b612b858661269c565b9450612b936020870161269c565b9350604086013567ffffffffffffffff811115612baf57600080fd5b612bbb88828901612b1f565b9094509250612bce90506060870161269c565b90509295509295909350565b60008060008060008060008060a0898b031215612bf657600080fd5b612bff8961269c565b9750612c0d60208a0161269c565b9650604089013567ffffffffffffffff80821115612c2a57600080fd5b612c368c838d01612b1f565b909850965060608b0135915080821115612c4f57600080fd5b612c5b8c838d01612b1f565b909650945060808b013591508082111561278657600080fd5b60008060008060008060a08789031215612c8d57600080fd5b612c968761269c565b9550612ca46020880161269c565b94506040870135935060608701359250608087013567ffffffffffffffff811115612cce57600080fd5b612cda89828a016126b3565b979a9699509497509295939492505050565b600080600060608486031215612d0157600080fd5b833567ffffffffffffffff811115612d1857600080fd5b612d24868287016129f9565b9660208601359650604090950135949350505050565b6000815180845260005b81811015612d6057602081850181015186830182015201612d44565b81811115612d72576000602083870101525b50601f01601f19169290920160200192915050565b6020815260006127da6020830184612d3a565b805160208201516001600160e01b03198082169291906004831015612dc95780818460040360031b1b83161693505b505050919050565b634e487b7160e01b600052603260045260246000fd5b634e487b7160e01b600052601160045260246000fd5b600060018201612e0f57612e0f612de7565b5060010190565b600060208284031215612e2857600080fd5b815180151581146127da57600080fd5b6000808335601e19843603018112612e4f57600080fd5b83018035915067ffffffffffffffff821115612e6a57600080fd5b6020019150368190038213156126f557600080fd5b600060208284031215612e9157600080fd5b5051919050565b600082821015612eaa57612eaa612de7565b500390565b600060ff821660ff841680821015612ec957612ec9612de7565b90039392505050565b6001600160a01b03858116825260606020808401829052908301859052600091869160808501845b88811015612f1f5783612f0c8661269c565b1682529382019390820190600101612efa565b5080945050508085166040850152505095945050505050565b60008085851115612f4857600080fd5b83861115612f5557600080fd5b5050820193919092039150565b6001600160e01b03198135818116916004851015612f8a5780818660040360031b1b83161692505b505092915050565b8183823760009101908152919050565b634e487b7160e01b600052602160045260246000fd5b8281526040602082015260006111916040830184612d3a565b600060208284031215612fe357600080fd5b81516127da816127a7565b83815260406020820152816040820152818360608301376000818301606090810191909152601f909201601f191601019291505056fea2646970667358221220224f6fb725228015f57895ae91cb48179735c1ba4d28267e177f151a5f957c6464736f6c634300080e0033",
    "linkReferences": {},
    "deployedLinkReferences": {}
}