{
    "_format": "hh-sol-artifact-1",
    "contractName": "LaserWallet",
    "sourceName": "contracts/LaserWallet.sol",
    "abi": [
        {
            "inputs": [],
            "stateMutability": "nonpayable",
            "type": "constructor"
        },
        {
            "inputs": [],
            "name": "AA__changeEntryPoint__invalidEntryPoint",
            "type": "error"
        },
        {
            "inputs": [],
            "name": "AA__initEntryPoint__invalidEntryPoint",
            "type": "error"
        },
        {
            "inputs": [],
            "name": "AA__initEntryPoint__invalidSignature",
            "type": "error"
        },
        {
            "inputs": [],
            "name": "AA__withdrawDeposit__insufficientBalance",
            "type": "error"
        },
        {
            "inputs": [],
            "name": "LW__exec__failure",
            "type": "error"
        },
        {
            "inputs": [],
            "name": "LW__isValidSignature__invalidSigner",
            "type": "error"
        },
        {
            "inputs": [],
            "name": "LW__notEntryPoint",
            "type": "error"
        },
        {
            "inputs": [],
            "name": "LW__validateUserOp__invalidNonce",
            "type": "error"
        },
        {
            "inputs": [],
            "name": "Owner__changeOwner__invalidOwnerAddress",
            "type": "error"
        },
        {
            "inputs": [],
            "name": "Owner__initOwner__invalidOwnerAddress",
            "type": "error"
        },
        {
            "inputs": [],
            "name": "Owner__initOwner__invalidRecoveryOwnerAddress",
            "type": "error"
        },
        {
            "inputs": [],
            "name": "Owner__initOwner__walletInitialized",
            "type": "error"
        },
        {
            "inputs": [],
            "name": "SSR__access__guardiansBlocked",
            "type": "error"
        },
        {
            "inputs": [],
            "name": "SSR__access__walletLocked",
            "type": "error"
        },
        {
            "inputs": [],
            "name": "SSR__addGuardian__invalidAddress",
            "type": "error"
        },
        {
            "inputs": [],
            "name": "SSR__initGuardians__invalidAddress",
            "type": "error"
        },
        {
            "inputs": [],
            "name": "SSR__initGuardians__zeroGuardians",
            "type": "error"
        },
        {
            "inputs": [],
            "name": "SSR__removeGuardian__incorrectPreviousGuardian",
            "type": "error"
        },
        {
            "inputs": [],
            "name": "SSR__removeGuardian__invalidAddress",
            "type": "error"
        },
        {
            "inputs": [],
            "name": "SSR__removeGuardian__underflow",
            "type": "error"
        },
        {
            "inputs": [],
            "name": "SSR__verifyGuardian__invalidSignature",
            "type": "error"
        },
        {
            "inputs": [],
            "name": "SSR__verifyGurdian__notGuardian",
            "type": "error"
        },
        {
            "inputs": [],
            "name": "SSR__verifyOwnerAndGuardian__invalidSignature",
            "type": "error"
        },
        {
            "inputs": [],
            "name": "SSR__verifyOwnerAndGuardian__notGuardian",
            "type": "error"
        },
        {
            "inputs": [],
            "name": "SSR__verifyOwnerAndGuardian__notOwner",
            "type": "error"
        },
        {
            "inputs": [],
            "name": "SSR__verifyOwnerAndRecoveryOwner__invalidSignature",
            "type": "error"
        },
        {
            "inputs": [],
            "name": "SSR__verifyOwnerAndRecoveryOwner__notOwner",
            "type": "error"
        },
        {
            "inputs": [],
            "name": "SSR__verifyOwnerAndRecoveryOwner__notRecoveryOwner",
            "type": "error"
        },
        {
            "inputs": [],
            "name": "SSR__verifyOwner__invalidSignature",
            "type": "error"
        },
        {
            "inputs": [],
            "name": "SSR__verifyOwner__notOwner",
            "type": "error"
        },
        {
            "inputs": [],
            "name": "SSR__verifyRecoveryOwnerAndGurdian__invalidSignature",
            "type": "error"
        },
        {
            "inputs": [],
            "name": "SSR__verifyRecoveryOwnerAndGurdian__notGuardian",
            "type": "error"
        },
        {
            "inputs": [],
            "name": "SSR__verifyRecoveryOwnerAndGurdian__notRecoveryOwner",
            "type": "error"
        },
        {
            "inputs": [],
            "name": "SelfAuthorized__notWallet",
            "type": "error"
        },
        {
            "inputs": [],
            "name": "Singleton__upgradeSingleton__incorrectAddress",
            "type": "error"
        },
        {
            "inputs": [],
            "name": "Singleton__upgradeSingleton__notLaser",
            "type": "error"
        },
        {
            "inputs": [],
            "name": "Utils__InvalidSignature",
            "type": "error"
        },
        {
            "anonymous": false,
            "inputs": [
                {
                    "indexed": false,
                    "internalType": "address",
                    "name": "newEntrypoint",
                    "type": "address"
                }
            ],
            "name": "EntryPointChanged",
            "type": "event"
        },
        {
            "anonymous": false,
            "inputs": [
                {
                    "indexed": false,
                    "internalType": "address",
                    "name": "removedGuardian",
                    "type": "address"
                }
            ],
            "name": "GuardianRemoved",
            "type": "event"
        },
        {
            "anonymous": false,
            "inputs": [
                {
                    "indexed": false,
                    "internalType": "address",
                    "name": "newGuardian",
                    "type": "address"
                }
            ],
            "name": "NewGuardian",
            "type": "event"
        },
        {
            "anonymous": false,
            "inputs": [
                {
                    "indexed": false,
                    "internalType": "address",
                    "name": "recoveryOwner",
                    "type": "address"
                }
            ],
            "name": "NewRecoveryOwner",
            "type": "event"
        },
        {
            "anonymous": false,
            "inputs": [
                {
                    "indexed": false,
                    "internalType": "address",
                    "name": "newOwner",
                    "type": "address"
                }
            ],
            "name": "OwnerChanged",
            "type": "event"
        },
        {
            "anonymous": false,
            "inputs": [
                {
                    "indexed": true,
                    "internalType": "address",
                    "name": "sender",
                    "type": "address"
                },
                {
                    "indexed": false,
                    "internalType": "uint256",
                    "name": "amount",
                    "type": "uint256"
                }
            ],
            "name": "Received",
            "type": "event"
        },
        {
            "anonymous": false,
            "inputs": [],
            "name": "RecoveryUnlocked",
            "type": "event"
        },
        {
            "anonymous": false,
            "inputs": [
                {
                    "indexed": false,
                    "internalType": "address",
                    "name": "owner",
                    "type": "address"
                },
                {
                    "indexed": false,
                    "internalType": "address[]",
                    "name": "guardians",
                    "type": "address[]"
                },
                {
                    "indexed": false,
                    "internalType": "address",
                    "name": "entryPoint",
                    "type": "address"
                }
            ],
            "name": "Setup",
            "type": "event"
        },
        {
            "anonymous": false,
            "inputs": [
                {
                    "indexed": true,
                    "internalType": "address",
                    "name": "newSingleton",
                    "type": "address"
                }
            ],
            "name": "SingletonChanged",
            "type": "event"
        },
        {
            "anonymous": false,
            "inputs": [
                {
                    "indexed": false,
                    "internalType": "address",
                    "name": "to",
                    "type": "address"
                },
                {
                    "indexed": false,
                    "internalType": "uint256",
                    "name": "value",
                    "type": "uint256"
                },
                {
                    "indexed": false,
                    "internalType": "bytes4",
                    "name": "funcSelector",
                    "type": "bytes4"
                }
            ],
            "name": "Success",
            "type": "event"
        },
        {
            "anonymous": false,
            "inputs": [],
            "name": "WalletLocked",
            "type": "event"
        },
        {
            "anonymous": false,
            "inputs": [
                {
                    "indexed": false,
                    "internalType": "address",
                    "name": "newOwner",
                    "type": "address"
                },
                {
                    "indexed": false,
                    "internalType": "address",
                    "name": "newRecoveryOwner",
                    "type": "address"
                }
            ],
            "name": "WalletRecovered",
            "type": "event"
        },
        {
            "anonymous": false,
            "inputs": [],
            "name": "WalletUnlocked",
            "type": "event"
        },
        {
            "inputs": [],
            "name": "VERSION",
            "outputs": [
                {
                    "internalType": "string",
                    "name": "",
                    "type": "string"
                }
            ],
            "stateMutability": "view",
            "type": "function"
        },
        {
            "inputs": [
                {
                    "internalType": "address",
                    "name": "newGuardian",
                    "type": "address"
                }
            ],
            "name": "addGuardian",
            "outputs": [],
            "stateMutability": "nonpayable",
            "type": "function"
        },
        {
            "inputs": [
                {
                    "internalType": "address",
                    "name": "newEntryPoint",
                    "type": "address"
                }
            ],
            "name": "changeEntryPoint",
            "outputs": [],
            "stateMutability": "nonpayable",
            "type": "function"
        },
        {
            "inputs": [
                {
                    "internalType": "address",
                    "name": "newOwner",
                    "type": "address"
                }
            ],
            "name": "changeOwner",
            "outputs": [],
            "stateMutability": "nonpayable",
            "type": "function"
        },
        {
            "inputs": [
                {
                    "internalType": "address",
                    "name": "newRecoveryOwner",
                    "type": "address"
                }
            ],
            "name": "changeRecoveryOwner",
            "outputs": [],
            "stateMutability": "nonpayable",
            "type": "function"
        },
        {
            "inputs": [],
            "name": "domainSeparator",
            "outputs": [
                {
                    "internalType": "bytes32",
                    "name": "",
                    "type": "bytes32"
                }
            ],
            "stateMutability": "view",
            "type": "function"
        },
        {
            "inputs": [],
            "name": "entryPoint",
            "outputs": [
                {
                    "internalType": "address",
                    "name": "",
                    "type": "address"
                }
            ],
            "stateMutability": "view",
            "type": "function"
        },
        {
            "inputs": [
                {
                    "internalType": "address",
                    "name": "to",
                    "type": "address"
                },
                {
                    "internalType": "uint256",
                    "name": "value",
                    "type": "uint256"
                },
                {
                    "internalType": "bytes",
                    "name": "data",
                    "type": "bytes"
                }
            ],
            "name": "exec",
            "outputs": [],
            "stateMutability": "nonpayable",
            "type": "function"
        },
        {
            "inputs": [],
            "name": "getChainId",
            "outputs": [
                {
                    "internalType": "uint256",
                    "name": "chainId",
                    "type": "uint256"
                }
            ],
            "stateMutability": "view",
            "type": "function"
        },
        {
            "inputs": [],
            "name": "getGuardians",
            "outputs": [
                {
                    "internalType": "address[]",
                    "name": "",
                    "type": "address[]"
                }
            ],
            "stateMutability": "view",
            "type": "function"
        },
        {
            "inputs": [],
            "name": "guardiansBlocked",
            "outputs": [
                {
                    "internalType": "bool",
                    "name": "",
                    "type": "bool"
                }
            ],
            "stateMutability": "view",
            "type": "function"
        },
        {
            "inputs": [
                {
                    "internalType": "address",
                    "name": "_owner",
                    "type": "address"
                },
                {
                    "internalType": "address",
                    "name": "_recoveryOwner",
                    "type": "address"
                },
                {
                    "internalType": "address[]",
                    "name": "_guardians",
                    "type": "address[]"
                },
                {
                    "internalType": "address",
                    "name": "_entryPoint",
                    "type": "address"
                }
            ],
            "name": "init",
            "outputs": [],
            "stateMutability": "nonpayable",
            "type": "function"
        },
        {
            "inputs": [
                {
                    "internalType": "address",
                    "name": "guardian",
                    "type": "address"
                }
            ],
            "name": "isGuardian",
            "outputs": [
                {
                    "internalType": "bool",
                    "name": "",
                    "type": "bool"
                }
            ],
            "stateMutability": "view",
            "type": "function"
        },
        {
            "inputs": [],
            "name": "isLocked",
            "outputs": [
                {
                    "internalType": "bool",
                    "name": "",
                    "type": "bool"
                }
            ],
            "stateMutability": "view",
            "type": "function"
        },
        {
            "inputs": [
                {
                    "internalType": "bytes32",
                    "name": "hash",
                    "type": "bytes32"
                },
                {
                    "internalType": "bytes",
                    "name": "signature",
                    "type": "bytes"
                }
            ],
            "name": "isValidSignature",
            "outputs": [
                {
                    "internalType": "bytes4",
                    "name": "",
                    "type": "bytes4"
                }
            ],
            "stateMutability": "view",
            "type": "function"
        },
        {
            "inputs": [],
            "name": "lock",
            "outputs": [],
            "stateMutability": "nonpayable",
            "type": "function"
        },
        {
            "inputs": [],
            "name": "nonce",
            "outputs": [
                {
                    "internalType": "uint256",
                    "name": "",
                    "type": "uint256"
                }
            ],
            "stateMutability": "view",
            "type": "function"
        },
        {
            "inputs": [
                {
                    "internalType": "address",
                    "name": "",
                    "type": "address"
                },
                {
                    "internalType": "address",
                    "name": "",
                    "type": "address"
                },
                {
                    "internalType": "uint256[]",
                    "name": "",
                    "type": "uint256[]"
                },
                {
                    "internalType": "uint256[]",
                    "name": "",
                    "type": "uint256[]"
                },
                {
                    "internalType": "bytes",
                    "name": "",
                    "type": "bytes"
                }
            ],
            "name": "onERC1155BatchReceived",
            "outputs": [
                {
                    "internalType": "bytes4",
                    "name": "result",
                    "type": "bytes4"
                }
            ],
            "stateMutability": "pure",
            "type": "function"
        },
        {
            "inputs": [
                {
                    "internalType": "address",
                    "name": "",
                    "type": "address"
                },
                {
                    "internalType": "address",
                    "name": "",
                    "type": "address"
                },
                {
                    "internalType": "uint256",
                    "name": "",
                    "type": "uint256"
                },
                {
                    "internalType": "uint256",
                    "name": "",
                    "type": "uint256"
                },
                {
                    "internalType": "bytes",
                    "name": "",
                    "type": "bytes"
                }
            ],
            "name": "onERC1155Received",
            "outputs": [
                {
                    "internalType": "bytes4",
                    "name": "",
                    "type": "bytes4"
                }
            ],
            "stateMutability": "pure",
            "type": "function"
        },
        {
            "inputs": [
                {
                    "internalType": "address",
                    "name": "",
                    "type": "address"
                },
                {
                    "internalType": "address",
                    "name": "",
                    "type": "address"
                },
                {
                    "internalType": "uint256",
                    "name": "",
                    "type": "uint256"
                },
                {
                    "internalType": "bytes",
                    "name": "",
                    "type": "bytes"
                }
            ],
            "name": "onERC721Received",
            "outputs": [
                {
                    "internalType": "bytes4",
                    "name": "",
                    "type": "bytes4"
                }
            ],
            "stateMutability": "pure",
            "type": "function"
        },
        {
            "inputs": [],
            "name": "owner",
            "outputs": [
                {
                    "internalType": "address",
                    "name": "",
                    "type": "address"
                }
            ],
            "stateMutability": "view",
            "type": "function"
        },
        {
            "inputs": [
                {
                    "internalType": "address",
                    "name": "newOwner",
                    "type": "address"
                },
                {
                    "internalType": "address",
                    "name": "newRecoveryOwner",
                    "type": "address"
                }
            ],
            "name": "recover",
            "outputs": [],
            "stateMutability": "nonpayable",
            "type": "function"
        },
        {
            "inputs": [],
            "name": "recoveryOwner",
            "outputs": [
                {
                    "internalType": "address",
                    "name": "",
                    "type": "address"
                }
            ],
            "stateMutability": "view",
            "type": "function"
        },
        {
            "inputs": [],
            "name": "recoveryUnlock",
            "outputs": [],
            "stateMutability": "nonpayable",
            "type": "function"
        },
        {
            "inputs": [
                {
                    "internalType": "address",
                    "name": "prevGuardian",
                    "type": "address"
                },
                {
                    "internalType": "address",
                    "name": "guardianToRemove",
                    "type": "address"
                }
            ],
            "name": "removeGuardian",
            "outputs": [],
            "stateMutability": "nonpayable",
            "type": "function"
        },
        {
            "inputs": [
                {
                    "internalType": "bytes32",
                    "name": "dataHash",
                    "type": "bytes32"
                },
                {
                    "internalType": "bytes32",
                    "name": "r",
                    "type": "bytes32"
                },
                {
                    "internalType": "bytes32",
                    "name": "s",
                    "type": "bytes32"
                },
                {
                    "internalType": "uint8",
                    "name": "v",
                    "type": "uint8"
                }
            ],
            "name": "returnSigner",
            "outputs": [
                {
                    "internalType": "address",
                    "name": "signer",
                    "type": "address"
                }
            ],
            "stateMutability": "pure",
            "type": "function"
        },
        {
            "inputs": [],
            "name": "singleton",
            "outputs": [
                {
                    "internalType": "address",
                    "name": "",
                    "type": "address"
                }
            ],
            "stateMutability": "view",
            "type": "function"
        },
        {
            "inputs": [
                {
                    "internalType": "bytes",
                    "name": "signature",
                    "type": "bytes"
                },
                {
                    "internalType": "uint256",
                    "name": "pos",
                    "type": "uint256"
                }
            ],
            "name": "splitSigs",
            "outputs": [
                {
                    "internalType": "bytes32",
                    "name": "r",
                    "type": "bytes32"
                },
                {
                    "internalType": "bytes32",
                    "name": "s",
                    "type": "bytes32"
                },
                {
                    "internalType": "uint8",
                    "name": "v",
                    "type": "uint8"
                }
            ],
            "stateMutability": "pure",
            "type": "function"
        },
        {
            "inputs": [
                {
                    "internalType": "bytes4",
                    "name": "_interfaceId",
                    "type": "bytes4"
                }
            ],
            "name": "supportsInterface",
            "outputs": [
                {
                    "internalType": "bool",
                    "name": "",
                    "type": "bool"
                }
            ],
            "stateMutability": "pure",
            "type": "function"
        },
        {
            "inputs": [
                {
                    "internalType": "address",
                    "name": "",
                    "type": "address"
                },
                {
                    "internalType": "address",
                    "name": "",
                    "type": "address"
                },
                {
                    "internalType": "address",
                    "name": "",
                    "type": "address"
                },
                {
                    "internalType": "uint256",
                    "name": "",
                    "type": "uint256"
                },
                {
                    "internalType": "bytes",
                    "name": "",
                    "type": "bytes"
                },
                {
                    "internalType": "bytes",
                    "name": "",
                    "type": "bytes"
                }
            ],
            "name": "tokensReceived",
            "outputs": [],
            "stateMutability": "pure",
            "type": "function"
        },
        {
            "inputs": [],
            "name": "unlock",
            "outputs": [],
            "stateMutability": "nonpayable",
            "type": "function"
        },
        {
            "inputs": [],
            "name": "unlockGuardians",
            "outputs": [],
            "stateMutability": "nonpayable",
            "type": "function"
        },
        {
            "inputs": [
                {
                    "internalType": "address",
                    "name": "_singleton",
                    "type": "address"
                }
            ],
            "name": "upgradeSingleton",
            "outputs": [],
            "stateMutability": "nonpayable",
            "type": "function"
        },
        {
            "inputs": [
                {
                    "components": [
                        {
                            "internalType": "address",
                            "name": "sender",
                            "type": "address"
                        },
                        {
                            "internalType": "uint256",
                            "name": "nonce",
                            "type": "uint256"
                        },
                        {
                            "internalType": "bytes",
                            "name": "initCode",
                            "type": "bytes"
                        },
                        {
                            "internalType": "bytes",
                            "name": "callData",
                            "type": "bytes"
                        },
                        {
                            "internalType": "uint256",
                            "name": "callGas",
                            "type": "uint256"
                        },
                        {
                            "internalType": "uint256",
                            "name": "verificationGas",
                            "type": "uint256"
                        },
                        {
                            "internalType": "uint256",
                            "name": "preVerificationGas",
                            "type": "uint256"
                        },
                        {
                            "internalType": "uint256",
                            "name": "maxFeePerGas",
                            "type": "uint256"
                        },
                        {
                            "internalType": "uint256",
                            "name": "maxPriorityFeePerGas",
                            "type": "uint256"
                        },
                        {
                            "internalType": "address",
                            "name": "paymaster",
                            "type": "address"
                        },
                        {
                            "internalType": "bytes",
                            "name": "paymasterData",
                            "type": "bytes"
                        },
                        {
                            "internalType": "bytes",
                            "name": "signature",
                            "type": "bytes"
                        }
                    ],
                    "internalType": "struct UserOperation",
                    "name": "userOp",
                    "type": "tuple"
                }
            ],
            "name": "userOperationHash",
            "outputs": [
                {
                    "internalType": "bytes32",
                    "name": "",
                    "type": "bytes32"
                }
            ],
            "stateMutability": "view",
            "type": "function"
        },
        {
            "inputs": [
                {
                    "components": [
                        {
                            "internalType": "address",
                            "name": "sender",
                            "type": "address"
                        },
                        {
                            "internalType": "uint256",
                            "name": "nonce",
                            "type": "uint256"
                        },
                        {
                            "internalType": "bytes",
                            "name": "initCode",
                            "type": "bytes"
                        },
                        {
                            "internalType": "bytes",
                            "name": "callData",
                            "type": "bytes"
                        },
                        {
                            "internalType": "uint256",
                            "name": "callGas",
                            "type": "uint256"
                        },
                        {
                            "internalType": "uint256",
                            "name": "verificationGas",
                            "type": "uint256"
                        },
                        {
                            "internalType": "uint256",
                            "name": "preVerificationGas",
                            "type": "uint256"
                        },
                        {
                            "internalType": "uint256",
                            "name": "maxFeePerGas",
                            "type": "uint256"
                        },
                        {
                            "internalType": "uint256",
                            "name": "maxPriorityFeePerGas",
                            "type": "uint256"
                        },
                        {
                            "internalType": "address",
                            "name": "paymaster",
                            "type": "address"
                        },
                        {
                            "internalType": "bytes",
                            "name": "paymasterData",
                            "type": "bytes"
                        },
                        {
                            "internalType": "bytes",
                            "name": "signature",
                            "type": "bytes"
                        }
                    ],
                    "internalType": "struct UserOperation",
                    "name": "userOp",
                    "type": "tuple"
                },
                {
                    "internalType": "bytes32",
                    "name": "",
                    "type": "bytes32"
                },
                {
                    "internalType": "uint256",
                    "name": "_requiredPrefund",
                    "type": "uint256"
                }
            ],
            "name": "validateUserOp",
            "outputs": [],
            "stateMutability": "nonpayable",
            "type": "function"
        },
        {
            "inputs": [
                {
                    "internalType": "uint256",
                    "name": "amount",
                    "type": "uint256"
                }
            ],
            "name": "withdrawDeposit",
            "outputs": [],
            "stateMutability": "nonpayable",
            "type": "function"
        },
        {
            "stateMutability": "payable",
            "type": "receive"
        }
    ],
    "bytecode": "0x608060405234801561001057600080fd5b50600280546001600160a01b03191630179055612e0e806100326000396000f3fe6080604052600436106102525760003560e01c8063956ccd7611610138578063b62654fb116100b0578063f2f8243d1161007f578063f83d08ba11610064578063f83d08ba14610778578063fcbac1f41461078d578063ffa1ad74146107ad57600080fd5b8063f2f8243d146106f1578063f698da251461071157600080fd5b8063b62654fb14610660578063bc197c8114610680578063c6922723146106af578063f23a6e61146106c457600080fd5b8063a69df4b511610107578063a9cc1c62116100ec578063a9cc1c621461060a578063affed0e01461062a578063b0d691fe1461064057600080fd5b8063a69df4b5146105d5578063a6f9dae1146105ea57600080fd5b8063956ccd76146105235780639b27a90e1461057b578063a4e2d6341461059b578063a526d83b146105b557600080fd5b806333289a46116101cb5780636760fd591161019a578063880893001161017f57806388089300146104ce5780638da5cb5b146104ee5780639466df011461050e57600080fd5b80636760fd59146104775780638583c7c01461049657600080fd5b806333289a46146104045780633408e470146104245780634b02488f14610437578063648bf7741461045757600080fd5b80630c68ba2111610222578063150b7a0211610207578063150b7a02146103715780631626ba7e146103b657806328b7ca8d146103d657600080fd5b80630c68ba211461033157806310e888921461035157600080fd5b806223de291461029357806301ffc9a7146102ba5780630565bb67146102ef5780630665f04b1461030f57600080fd5b3661028e5760405134815233907f88a5966d370b9919b20f3e2c13ff65706f196a4e32cc2c12bf57088f885258749060200160405180910390a2005b600080fd5b34801561029f57600080fd5b506102b86102ae3660046124b0565b5050505050505050565b005b3480156102c657600080fd5b506102da6102d5366004612571565b610803565b60405190151581526020015b60405180910390f35b3480156102fb57600080fd5b506102b861030a366004612638565b61088b565b34801561031b57600080fd5b50610324610949565b6040516102e6919061268f565b34801561033d57600080fd5b506102da61034c3660046126dc565b610a3f565b34801561035d57600080fd5b506102b861036c3660046126dc565b610a77565b34801561037d57600080fd5b5061039d61038c3660046126f7565b630a85bd0160e11b95945050505050565b6040516001600160e01b031990911681526020016102e6565b3480156103c257600080fd5b5061039d6103d1366004612766565b610b95565b3480156103e257600080fd5b506103f66103f13660046127c6565b610c15565b6040519081526020016102e6565b34801561041057600080fd5b506102b861041f3660046127fb565b610c86565b34801561043057600080fd5b50466103f6565b34801561044357600080fd5b506102b86104523660046126dc565b610d98565b34801561046357600080fd5b506102b8610472366004612814565b610e62565b34801561048357600080fd5b506005546102da90610100900460ff1681565b3480156104a257600080fd5b506003546104b6906001600160a01b031681565b6040516001600160a01b0390911681526020016102e6565b3480156104da57600080fd5b506104b66104e9366004612847565b610efb565b3480156104fa57600080fd5b506002546104b6906001600160a01b031681565b34801561051a57600080fd5b506102b8611051565b34801561052f57600080fd5b5061055d61053e36600461288e565b6041020160208101516040820151606090920151909260009190911a90565b60408051938452602084019290925260ff16908201526060016102e6565b34801561058757600080fd5b506102b8610596366004612814565b6110ab565b3480156105a757600080fd5b506005546102da9060ff1681565b3480156105c157600080fd5b506102b86105d03660046126dc565b6111f3565b3480156105e157600080fd5b506102b8611339565b3480156105f657600080fd5b506102b86106053660046126dc565b61138e565b34801561061657600080fd5b506102b8610625366004612918565b611451565b34801561063657600080fd5b506103f660075481565b34801561064c57600080fd5b506001546104b6906001600160a01b031681565b34801561066c57600080fd5b506000546104b6906001600160a01b031681565b34801561068c57600080fd5b5061039d61069b36600461298e565b63bc197c8160e01b98975050505050505050565b3480156106bb57600080fd5b506102b86114c3565b3480156106d057600080fd5b5061039d6106df366004612a28565b63f23a6e6160e01b9695505050505050565b3480156106fd57600080fd5b506102b861070c3660046126dc565b6114f0565b34801561071d57600080fd5b506103f660007f47e79534a245952e8b16893a336b85a3d9ea9fa8c573f3d803afb92a794692184660408051602081019390935282015230606082015260800160405160208183030381529060405280519060200120905090565b34801561078457600080fd5b506102b861155e565b34801561079957600080fd5b506102b86107a8366004612aa0565b6115b6565b3480156107b957600080fd5b506107f66040518060400160405280600581526020017f312e302e3000000000000000000000000000000000000000000000000000000081525081565b6040516102e69190612b3b565b60006301ffc9a760e01b6001600160e01b0319831614806108345750636cdb3d1360e11b6001600160e01b03198316145b8061084f5750630271189760e51b6001600160e01b03198316145b8061086a575063ae029e0b60e01b6001600160e01b03198316145b806108855750630a85bd0160e11b6001600160e01b03198316145b92915050565b6001546001600160a01b031633146108b657604051634a84853360e11b815260040160405180910390fd5b60006108c48484845a6116e4565b9050806108e4576040516386bdccb560e01b815260040160405180910390fd5b7f6366738429880a1d7ade4222ee84f9446066cb5948c6060cc93b10a836c68108848461091085612b4e565b604080516001600160a01b03909416845260208401929092526001600160e01b0319169082015260600160405180910390a15b50505050565b6060600060045467ffffffffffffffff81111561096857610968612595565b604051908082528060200260200182016040528015610991578160200160208202803683370190505b506001600090815260066020527f3e5fec24aa4dc4e5aee2e025e51e1392c72a2500577559fae9665c6d52bd6a31549192506001600160a01b03909116905b6001600160a01b038216600114610a3757818382815181106109f4576109f4612b85565b6001600160a01b03928316602091820292909201810191909152928116600090815260069093526040909220549091169080610a2f81612bb1565b9150506109d0565b509092915050565b60006001600160a01b0382166001148015906108855750506001600160a01b0390811660009081526006602052604090205416151590565b333014610a97576040516307583a2960e41b815260040160405180910390fd5b306001600160a01b03821603610ac0576040516332125e8360e11b815260040160405180910390fd5b6040516301ffc9a760e01b815263ae029e0b60e01b60048201526001600160a01b038216906301ffc9a790602401602060405180830381865afa158015610b0b573d6000803e3d6000fd5b505050506040513d601f19601f82011682018060405250810190610b2f9190612bca565b610b4c57604051637b66762360e11b815260040160405180910390fd5b600080546001600160a01b0319166001600160a01b038316908117825560405190917fad04cda32d7774350bace4bdca605ed7431195e8c78235e484626b2785de816d91a25b50565b6020810151604082015160608301516000929190831a83610bb887858585610efb565b6002549091506001600160a01b03808316911614610be957604051633a1c7d3960e21b815260040160405180910390fd5b507f1626ba7e356f5979dd355a3d2bfb43e80420a480c3b854edce286a82d74968699695505050505050565b6000610c78610c2760208401846126dc565b6020840135610c396060860186612bec565b608087013560a088013560c089013560e08a01356101008b0135610c656101408d016101208e016126dc565b610c736101408e018e612bec565b6116fc565b805190602001209050919050565b333014610ca6576040516307583a2960e41b815260040160405180910390fd5b6001546040516370a0823160e01b815230600482015282916001600160a01b0316906370a0823190602401602060405180830381865afa158015610cee573d6000803e3d6000fd5b505050506040513d601f19601f82011682018060405250810190610d129190612c33565b1015610d3157604051630137f17760e11b815260040160405180910390fd5b60015460405163040b850f60e31b8152306004820152602481018390526001600160a01b039091169063205c287890604401600060405180830381600087803b158015610d7d57600080fd5b505af1158015610d91573d6000803e3d6000fd5b5050505050565b333014610db8576040516307583a2960e41b815260040160405180910390fd5b6001600160a01b0381163b1580610dd757506001600160a01b03811630145b80610def57506001546001600160a01b038281169116145b15610e0d57604051634704771960e11b815260040160405180910390fd5b600180546001600160a01b0319166001600160a01b0383169081179091556040519081527f94fe20369eda1036391e68ebc6af4965f710ae7bc0cb1c315895c028149582d2906020015b60405180910390a150565b333014610e82576040516307583a2960e41b815260040160405180910390fd5b610e8c828261189d565b600280546001600160a01b038481166001600160a01b03199283168117909355600380549185169190921681179091556040805192835260208301919091527fced95d270303f50b4373064f4148282a32dd521235b73c351f0955a594941a3091015b60405180910390a15050565b6000601e8260ff161115610fc2576040517f19457468657265756d205369676e6564204d6573736167653a0a3332000000006020820152603c8101869052600190605c0160405160208183030381529060405280519060200120600484610f629190612c4c565b6040805160008152602081018083529390935260ff90911690820152606081018690526080810185905260a0016020604051602081039080840390855afa158015610fb1573d6000803e3d6000fd5b505050602060405103519050611022565b60408051600081526020810180835287905260ff841691810191909152606081018590526080810184905260019060a0016020604051602081039080840390855afa158015611015573d6000803e3d6000fd5b5050506020604051035190505b6001600160a01b03811661104957604051634aef5ea760e01b815260040160405180910390fd5b949350505050565b333014611071576040516307583a2960e41b815260040160405180910390fd5b6005805461ffff19166101001790556040517f0d581a543b8a5c64309ffed1e0e9a522b78d6c160dc57cc4cb7f78f9a14d5e3490600090a1565b3330146110cb576040516307583a2960e41b815260040160405180910390fd5b6001600160a01b03811615806110ea57506001600160a01b0381166001145b15611108576040516302f412b360e21b815260040160405180910390fd5b6001600160a01b038281166000908152600660205260409020548116908216146111455760405163475347b160e11b815260040160405180910390fd5b6001806004546111559190612c6f565b10156111745760405163342a2dc560e21b815260040160405180910390fd5b6001600160a01b038181166000818152600660209081526040808320805488871685528285208054919097166001600160a01b0319918216179096559284905282549094169091556004805460001901905591519081527fb8107d0c6b40be480ce3172ee66ba6d64b71f6b1685a851340036e6e2e3e3c529101610eef565b333014611213576040516307583a2960e41b815260040160405180910390fd5b6001600160a01b038116158061123257506001600160a01b0381166001145b8061124557506001600160a01b03811630145b8061125d57506002546001600160a01b038281169116145b8061128157506001600160a01b038181166000908152600660205260409020541615155b1561129f57604051632ce028d960e21b815260040160405180910390fd5b600660209081527f3e5fec24aa4dc4e5aee2e025e51e1392c72a2500577559fae9665c6d52bd6a3180546001600160a01b03848116600081815260408082208054949095166001600160a01b03199485161790945560019081905284549092168117909355600480549091019055519081527fb6182387b7ea948602a7e04e662a27ce251dc3dd014eacaed10dce36b41bf1a59101610e57565b333014611359576040516307583a2960e41b815260040160405180910390fd5b6005805460ff191690556040517f63fc9aecb05834d2330c4dad03b320242fa9e8a10eb80cd31518efa9ed781b8690600090a1565b3330146113ae576040516307583a2960e41b815260040160405180910390fd5b6002546001600160a01b03828116911614806113d357506001600160a01b0381163b15155b806113e557506001600160a01b038116155b1561140357604051633927dba760e01b815260040160405180910390fd5b600280546001600160a01b0319166001600160a01b0383169081179091556040519081527fa2ea9883a321a3e97b8266c2b078bfeec6d50c711ed71f874a90d500ae2eaf3690602001610e57565b61145b858561191b565b611465838361197d565b61146e81611ae8565b6002546001546040517f37c1a68ddf221fa26f7d1eabbc08593647556eb85e57067e7046038e14def14f926114b4926001600160a01b0391821692889288921690612c86565b60405180910390a15050505050565b3330146114e3576040516307583a2960e41b815260040160405180910390fd5b6005805461ff0019169055565b333014611510576040516307583a2960e41b815260040160405180910390fd5b600380546001600160a01b0319166001600160a01b0383169081179091556040519081527f24b755696b711f89e9f520613bc428ad6a76ea9e0ea8ce1bcbc4a49d7117e7d490602001610e57565b33301461157e576040516307583a2960e41b815260040160405180910390fd5b6005805460ff191660011790556040517fd550ed24c5d3906c5831b36940c8eb789771469024f7963da735aaf15c59b9a290600090a1565b6001546001600160a01b031633146115e157604051634a84853360e11b815260040160405180910390fd5b6007805460208501359160006115f683612bb1565b919050551461161857604051631f2f5fab60e31b815260040160405180910390fd5b600061167b61162a60208601866126dc565b602086013561163c6060880188612bec565b88608001358960a001358a60c001358b60e001358c61010001358d61012001602081019061166a91906126dc565b8e806101400190610c739190612bec565b8051602082012090915060006116946060870187612bec565b6116a2916084908290612cec565b6116ab91612d16565b905060006116b882611b47565b90506116d281846116cd6101608b018b612bec565b611c23565b6116db85611d7b565b50505050505050565b6000806000845160208601878987f195945050505050565b606060007fc1856f49e02553b0bbe30f9cfe3ff8c70046e43053f0515ced3799f6c96f94b28e8e8e8e604051611733929190612d46565b60405180910390208d8d8d8d8d8d8d8d604051611751929190612d46565b60408051918290038220602083019c909c526001600160a01b039a8b16908201526060810198909852608088019690965260a087019490945260c086019290925260e08501526101008401526101208301529091166101408201526101608101919091526101800160408051601f1981840301815291905280516020909101209050601960f81b600160f81b61183760007f47e79534a245952e8b16893a336b85a3d9ea9fa8c573f3d803afb92a794692184660408051602081019390935282015230606082015260800160405160208183030381529060405280519060200120905090565b6040517fff0000000000000000000000000000000000000000000000000000000000000093841660208201529290911660218301526022820152604281018290526062016040516020818303038152906040529150509c9b505050505050505050505050565b6001600160a01b0382163b1515806118bc57506001600160a01b038216155b156118da5760405163087099bd60e01b815260040160405180910390fd5b6001600160a01b0381163b1515806118f957506001600160a01b038116155b1561191757604051630208bf3960e01b815260040160405180910390fd5b5050565b6002546001600160a01b03161561194557604051632dfc004f60e21b815260040160405180910390fd5b61194f828261189d565b600280546001600160a01b039384166001600160a01b03199182161790915560038054929093169116179055565b8060018110156119a05760405163bfa963cb60e01b815260040160405180910390fd5b600160005b82811015611ab85760008585838181106119c1576119c1612b85565b90506020020160208101906119d691906126dc565b6002549091506001600160a01b03808316911614806119fc57506001600160a01b038116155b80611a1057506001600160a01b0381166001145b80611a2357506001600160a01b03811630145b80611a3f5750826001600160a01b0316816001600160a01b0316145b80611a6357506001600160a01b038181166000908152600660205260409020541615155b15611a8157604051630d34ec4760e31b815260040160405180910390fd5b6001600160a01b03928316600090815260066020526040902080546001600160a01b031916938216939093179092556001016119a5565b506001600160a01b0316600090815260066020526040902080546001600160a01b03191660011790556004555050565b6001600160a01b0381163b1580611b0757506001600160a01b03811630145b15611b2557604051631f12099d60e21b815260040160405180910390fd5b600180546001600160a01b0319166001600160a01b0392909216919091179055565b60006303e17ba360e11b6001600160e01b0319831601611b9257600554610100900460ff1615611b8a5760405163c525f01160e01b815260040160405180910390fd5b506001919050565b6359620b4b60e01b6001600160e01b0319831601611bb257506002919050565b636b9920ff60e01b6001600160e01b0319831601611bd257506004919050565b6326dd022360e21b6001600160e01b0319831601611bf257506003919050565b60055460ff1615611c16576040516319786ced60e01b815260040160405180910390fd5b506000919050565b919050565b6000846004811115611c3757611c37612d56565b03611c8157611c7c8383838080601f016020809104026020016040519081016040528093929190818152602001838380828437600092019190915250611da492505050565b610943565b6001846004811115611c9557611c95612d56565b03611cda57611c7c8383838080601f016020809104026020016040519081016040528093929190818152602001838380828437600092019190915250611e2992505050565b6002846004811115611cee57611cee612d56565b03611cfe57611c7c838383611fa4565b6003846004811115611d1257611d12612d56565b03611d2257611c7c838383612195565b6004846004811115611d3657611d36612d56565b0361028e57611c7c8383838080601f01602080910402602001604051908101604052809392919081815260200183838082843760009201919091525061237c92505050565b8015610b925760408051600080825260208201909252611d9f90339084905a6116e4565b505050565b6000806000604184511015611dcc576040516337546a5b60e21b815260040160405180910390fd5b505050602081015160408201516060830151600090811a90611df086858585610efb565b6002549091506001600160a01b03808316911614611e215760405163a70b95ff60e01b815260040160405180910390fd5b505050505050565b600080600080604185511015611e52576040516337546a5b60e21b815260040160405180910390fd5b60208501516040860151606087015160001a919550935091506000611e7987868686610efb565b6001600160a01b038082166000908152600660205260409020549192501615611ea55760019150611f86565b6000611eaf610949565b905060005b600454811015611f83576000828281518110611ed257611ed2612b85565b602002602001015190506000816001600160a01b03163b1115611f7a57604051630b135d3f60e11b81526001600160a01b03821690631626ba7e90611f1d908d908d90600401612d6c565b602060405180830381865afa158015611f3a573d6000803e3d6000fd5b505050506040513d601f19601f82011682018060405250810190611f5e9190612d85565b6001600160e01b031916630b135d3f60e11b03611f7a57600194505b50600101611eb4565b50505b816116db57604051634c18cb5f60e01b815260040160405180910390fd5b600080806082841015611fca5760405163224068db60e11b815260040160405180910390fd5b61200985858080601f0160208091040260200160405190810160405280939291908181526020018383808284376000920182905250925061053e915050565b91945092509050600061201e87858585610efb565b6002549091506001600160a01b0380831691161461204f5760405163e4c802a160e01b815260040160405180910390fd5b60008061205e89878787610efb565b6001600160a01b0380821660009081526006602052604090205491935016156120895750600161216c565b6000612093610949565b905060005b6004548110156121695760008282815181106120b6576120b6612b85565b602002602001015190506000816001600160a01b03163b111561216057604051630b135d3f60e11b81526001600160a01b03821690631626ba7e90612103908f908f908f90600401612da2565b602060405180830381865afa158015612120573d6000803e3d6000fd5b505050506040513d601f19601f820116820180604052508101906121449190612d85565b6001600160e01b031916630b135d3f60e11b0361216057600193505b50600101612098565b50505b8061218a57604051633906141760e11b815260040160405180910390fd5b505050505050505050565b6000808060828410156121bb57604051637c261f3560e11b815260040160405180910390fd5b6121fa85858080601f0160208091040260200160405190810160405280939291908181526020018383808284376000920182905250925061053e915050565b91945092509050600061220f87858585610efb565b6003549091506001600160a01b0380831691161461224057604051636c957d7960e01b815260040160405180910390fd5b60008061224f89878787610efb565b6001600160a01b03808216600090815260066020526040902054919250161561227b576001915061235e565b6000612285610949565b905060005b60045481101561235b5760008282815181106122a8576122a8612b85565b602002602001015190506000816001600160a01b03163b111561235257604051630b135d3f60e11b81526001600160a01b03821690631626ba7e906122f5908f908f908f90600401612da2565b602060405180830381865afa158015612312573d6000803e3d6000fd5b505050506040513d601f19601f820116820180604052508101906123369190612d85565b6001600160e01b031916630b135d3f60e11b0361235257600194505b5060010161228a565b50505b8161218a57604051633554384b60e21b815260040160405180910390fd5b600080600083516082146123a35760405163d02a7fa960e01b815260040160405180910390fd5b505050602081015160408201516060830151600090811a906123c786858585610efb565b6002549091506001600160a01b038083169116146123f857604051633c8877db60e01b815260040160405180910390fd5b6061850151608186015160a187015160001a91955093509150600061241f87868686610efb565b6003549091506001600160a01b038083169116146116db576040516366cc772b60e01b815260040160405180910390fd5b80356001600160a01b0381168114611c1e57600080fd5b60008083601f84011261247957600080fd5b50813567ffffffffffffffff81111561249157600080fd5b6020830191508360208285010111156124a957600080fd5b9250929050565b60008060008060008060008060c0898b0312156124cc57600080fd5b6124d589612450565b97506124e360208a01612450565b96506124f160408a01612450565b955060608901359450608089013567ffffffffffffffff8082111561251557600080fd5b6125218c838d01612467565b909650945060a08b013591508082111561253a57600080fd5b506125478b828c01612467565b999c989b5096995094979396929594505050565b6001600160e01b031981168114610b9257600080fd5b60006020828403121561258357600080fd5b813561258e8161255b565b9392505050565b634e487b7160e01b600052604160045260246000fd5b600082601f8301126125bc57600080fd5b813567ffffffffffffffff808211156125d7576125d7612595565b604051601f8301601f19908116603f011681019082821181831017156125ff576125ff612595565b8160405283815286602085880101111561261857600080fd5b836020870160208301376000602085830101528094505050505092915050565b60008060006060848603121561264d57600080fd5b61265684612450565b925060208401359150604084013567ffffffffffffffff81111561267957600080fd5b612685868287016125ab565b9150509250925092565b6020808252825182820181905260009190848201906040850190845b818110156126d05783516001600160a01b0316835292840192918401916001016126ab565b50909695505050505050565b6000602082840312156126ee57600080fd5b61258e82612450565b60008060008060006080868803121561270f57600080fd5b61271886612450565b945061272660208701612450565b935060408601359250606086013567ffffffffffffffff81111561274957600080fd5b61275588828901612467565b969995985093965092949392505050565b6000806040838503121561277957600080fd5b82359150602083013567ffffffffffffffff81111561279757600080fd5b6127a3858286016125ab565b9150509250929050565b600061018082840312156127c057600080fd5b50919050565b6000602082840312156127d857600080fd5b813567ffffffffffffffff8111156127ef57600080fd5b611049848285016127ad565b60006020828403121561280d57600080fd5b5035919050565b6000806040838503121561282757600080fd5b61283083612450565b915061283e60208401612450565b90509250929050565b6000806000806080858703121561285d57600080fd5b843593506020850135925060408501359150606085013560ff8116811461288357600080fd5b939692955090935050565b600080604083850312156128a157600080fd5b823567ffffffffffffffff8111156128b857600080fd5b6128c4858286016125ab565b95602094909401359450505050565b60008083601f8401126128e557600080fd5b50813567ffffffffffffffff8111156128fd57600080fd5b6020830191508360208260051b85010111156124a957600080fd5b60008060008060006080868803121561293057600080fd5b61293986612450565b945061294760208701612450565b9350604086013567ffffffffffffffff81111561296357600080fd5b61296f888289016128d3565b9094509250612982905060608701612450565b90509295509295909350565b60008060008060008060008060a0898b0312156129aa57600080fd5b6129b389612450565b97506129c160208a01612450565b9650604089013567ffffffffffffffff808211156129de57600080fd5b6129ea8c838d016128d3565b909850965060608b0135915080821115612a0357600080fd5b612a0f8c838d016128d3565b909650945060808b013591508082111561253a57600080fd5b60008060008060008060a08789031215612a4157600080fd5b612a4a87612450565b9550612a5860208801612450565b94506040870135935060608701359250608087013567ffffffffffffffff811115612a8257600080fd5b612a8e89828a01612467565b979a9699509497509295939492505050565b600080600060608486031215612ab557600080fd5b833567ffffffffffffffff811115612acc57600080fd5b612ad8868287016127ad565b9660208601359650604090950135949350505050565b6000815180845260005b81811015612b1457602081850181015186830182015201612af8565b81811115612b26576000602083870101525b50601f01601f19169290920160200192915050565b60208152600061258e6020830184612aee565b805160208201516001600160e01b03198082169291906004831015612b7d5780818460040360031b1b83161693505b505050919050565b634e487b7160e01b600052603260045260246000fd5b634e487b7160e01b600052601160045260246000fd5b600060018201612bc357612bc3612b9b565b5060010190565b600060208284031215612bdc57600080fd5b8151801515811461258e57600080fd5b6000808335601e19843603018112612c0357600080fd5b83018035915067ffffffffffffffff821115612c1e57600080fd5b6020019150368190038213156124a957600080fd5b600060208284031215612c4557600080fd5b5051919050565b600060ff821660ff841680821015612c6657612c66612b9b565b90039392505050565b600082821015612c8157612c81612b9b565b500390565b6001600160a01b03858116825260606020808401829052908301859052600091869160808501845b88811015612cd35783612cc086612450565b1682529382019390820190600101612cae565b5080945050508085166040850152505095945050505050565b60008085851115612cfc57600080fd5b83861115612d0957600080fd5b5050820193919092039150565b6001600160e01b03198135818116916004851015612d3e5780818660040360031b1b83161692505b505092915050565b8183823760009101908152919050565b634e487b7160e01b600052602160045260246000fd5b8281526040602082015260006110496040830184612aee565b600060208284031215612d9757600080fd5b815161258e8161255b565b83815260406020820152816040820152818360608301376000818301606090810191909152601f909201601f191601019291505056fea2646970667358221220614e826be078b50abb7320989cef97f7de7acfe9789b938a5973834983d43d8464736f6c634300080e0033",
    "linkReferences": {},
    "deployedLinkReferences": {}
}