{
    "_format": "hh-sol-artifact-1",
    "contractName": "LaserWallet",
    "sourceName": "contracts/LaserWallet.sol",
    "abi": [
        {
            "inputs": [],
            "stateMutability": "nonpayable",
            "type": "constructor"
        },
        {
            "inputs": [],
            "name": "AA__InsufficientWithdrawBalance",
            "type": "error"
        },
        {
            "inputs": [],
            "name": "AA__InvalidEntryPoint",
            "type": "error"
        },
        {
            "inputs": [],
            "name": "Guardian__AlreadyApproved",
            "type": "error"
        },
        {
            "inputs": [],
            "name": "Guardian__GuardiansUnderflow",
            "type": "error"
        },
        {
            "inputs": [],
            "name": "Guardian__IncorrectPreviousGuardian",
            "type": "error"
        },
        {
            "inputs": [],
            "name": "Guardian__InvalidGuardianAddress",
            "type": "error"
        },
        {
            "inputs": [],
            "name": "Guardian__NoGuardians",
            "type": "error"
        },
        {
            "inputs": [],
            "name": "Guardian__NotGuardian",
            "type": "error"
        },
        {
            "inputs": [],
            "name": "Guardian__WalletIsLocked",
            "type": "error"
        },
        {
            "inputs": [],
            "name": "Guardian__WalletIsNotLocked",
            "type": "error"
        },
        {
            "inputs": [],
            "name": "Guardian__ZeroGuardians",
            "type": "error"
        },
        {
            "inputs": [],
            "name": "LW_NotEntryPoint",
            "type": "error"
        },
        {
            "inputs": [],
            "name": "LW__Emergency__InvalidCaller",
            "type": "error"
        },
        {
            "inputs": [],
            "name": "LW__GuardianNotAllowed",
            "type": "error"
        },
        {
            "inputs": [],
            "name": "LW__InvalidCall",
            "type": "error"
        },
        {
            "inputs": [],
            "name": "LW__InvalidCallData",
            "type": "error"
        },
        {
            "inputs": [],
            "name": "LW__InvalidNonce",
            "type": "error"
        },
        {
            "inputs": [],
            "name": "LW__InvalidSignature",
            "type": "error"
        },
        {
            "inputs": [],
            "name": "LW__InvalidSigner__NotOwner",
            "type": "error"
        },
        {
            "inputs": [],
            "name": "LW__NotGuardian",
            "type": "error"
        },
        {
            "inputs": [],
            "name": "LW__NotGuardianCall",
            "type": "error"
        },
        {
            "inputs": [],
            "name": "LW__OnlyEntryPointOrGuardian",
            "type": "error"
        },
        {
            "inputs": [],
            "name": "LW__OnlyEntryPointOrOwner",
            "type": "error"
        },
        {
            "inputs": [],
            "name": "LW__OwnerNotAllowed",
            "type": "error"
        },
        {
            "inputs": [],
            "name": "LW__WalletLocked",
            "type": "error"
        },
        {
            "inputs": [],
            "name": "Owner__InvalidOwnerAddress",
            "type": "error"
        },
        {
            "inputs": [],
            "name": "Owner__WalletInitialized",
            "type": "error"
        },
        {
            "inputs": [],
            "name": "SelfAuthorized__OnlyCallableFromWallet",
            "type": "error"
        },
        {
            "inputs": [],
            "name": "Singleton__DoesNotSupportInterface",
            "type": "error"
        },
        {
            "inputs": [],
            "name": "Singleton__IncorrectSingletonAddress",
            "type": "error"
        },
        {
            "inputs": [],
            "name": "Utils__InvalidSignature",
            "type": "error"
        },
        {
            "anonymous": false,
            "inputs": [
                {
                    "indexed": true,
                    "internalType": "bytes32",
                    "name": "approvedHash",
                    "type": "bytes32"
                },
                {
                    "indexed": true,
                    "internalType": "address",
                    "name": "owner",
                    "type": "address"
                }
            ],
            "name": "ApproveHash",
            "type": "event"
        },
        {
            "anonymous": false,
            "inputs": [
                {
                    "indexed": false,
                    "internalType": "address",
                    "name": "entryPoint",
                    "type": "address"
                }
            ],
            "name": "EntryPointChanged",
            "type": "event"
        },
        {
            "anonymous": false,
            "inputs": [
                {
                    "indexed": false,
                    "internalType": "address",
                    "name": "to",
                    "type": "address"
                },
                {
                    "indexed": false,
                    "internalType": "uint256",
                    "name": "value",
                    "type": "uint256"
                },
                {
                    "indexed": false,
                    "internalType": "bytes",
                    "name": "data",
                    "type": "bytes"
                }
            ],
            "name": "ExecutionSuccess",
            "type": "event"
        },
        {
            "anonymous": false,
            "inputs": [
                {
                    "indexed": false,
                    "internalType": "address",
                    "name": "removedGuardian",
                    "type": "address"
                }
            ],
            "name": "GuardianRemoved",
            "type": "event"
        },
        {
            "anonymous": false,
            "inputs": [
                {
                    "indexed": false,
                    "internalType": "address",
                    "name": "newGuardian",
                    "type": "address"
                }
            ],
            "name": "NewGuardian",
            "type": "event"
        },
        {
            "anonymous": false,
            "inputs": [
                {
                    "indexed": false,
                    "internalType": "address",
                    "name": "recoveryOwner",
                    "type": "address"
                }
            ],
            "name": "NewRecoveryOwner",
            "type": "event"
        },
        {
            "anonymous": false,
            "inputs": [
                {
                    "indexed": false,
                    "internalType": "address",
                    "name": "newOwner",
                    "type": "address"
                }
            ],
            "name": "OwnerChanged",
            "type": "event"
        },
        {
            "anonymous": false,
            "inputs": [
                {
                    "indexed": true,
                    "internalType": "address",
                    "name": "sender",
                    "type": "address"
                },
                {
                    "indexed": false,
                    "internalType": "uint256",
                    "name": "amount",
                    "type": "uint256"
                }
            ],
            "name": "Received",
            "type": "event"
        },
        {
            "anonymous": false,
            "inputs": [
                {
                    "indexed": false,
                    "internalType": "address",
                    "name": "owner",
                    "type": "address"
                },
                {
                    "indexed": false,
                    "internalType": "address[]",
                    "name": "guardians",
                    "type": "address[]"
                },
                {
                    "indexed": false,
                    "internalType": "address",
                    "name": "entryPoint",
                    "type": "address"
                }
            ],
            "name": "Setup",
            "type": "event"
        },
        {
            "anonymous": false,
            "inputs": [
                {
                    "indexed": true,
                    "internalType": "bytes32",
                    "name": "msgHash",
                    "type": "bytes32"
                }
            ],
            "name": "SignMsg",
            "type": "event"
        },
        {
            "anonymous": false,
            "inputs": [
                {
                    "indexed": false,
                    "internalType": "address",
                    "name": "_singleton",
                    "type": "address"
                }
            ],
            "name": "SingletonChanged",
            "type": "event"
        },
        {
            "anonymous": false,
            "inputs": [
                {
                    "indexed": false,
                    "internalType": "address",
                    "name": "owner",
                    "type": "address"
                },
                {
                    "indexed": false,
                    "internalType": "address",
                    "name": "recoveryOwner",
                    "type": "address"
                }
            ],
            "name": "SuccesfullRecovery",
            "type": "event"
        },
        {
            "anonymous": false,
            "inputs": [],
            "name": "WalletLocked",
            "type": "event"
        },
        {
            "anonymous": false,
            "inputs": [],
            "name": "WalletUnlocked",
            "type": "event"
        },
        {
            "inputs": [],
            "name": "VERSION",
            "outputs": [
                {
                    "internalType": "string",
                    "name": "",
                    "type": "string"
                }
            ],
            "stateMutability": "view",
            "type": "function"
        },
        {
            "inputs": [
                {
                    "internalType": "bytes4",
                    "name": "funcSelector",
                    "type": "bytes4"
                }
            ],
            "name": "access",
            "outputs": [
                {
                    "internalType": "enum SSR.Access",
                    "name": "",
                    "type": "uint8"
                }
            ],
            "stateMutability": "pure",
            "type": "function"
        },
        {
            "inputs": [
                {
                    "internalType": "address",
                    "name": "newGuardian",
                    "type": "address"
                }
            ],
            "name": "addGuardian",
            "outputs": [],
            "stateMutability": "nonpayable",
            "type": "function"
        },
        {
            "inputs": [
                {
                    "internalType": "address",
                    "name": "_entryPoint",
                    "type": "address"
                }
            ],
            "name": "changeEntryPoint",
            "outputs": [],
            "stateMutability": "nonpayable",
            "type": "function"
        },
        {
            "inputs": [
                {
                    "internalType": "address",
                    "name": "newOwner",
                    "type": "address"
                }
            ],
            "name": "changeOwner",
            "outputs": [],
            "stateMutability": "nonpayable",
            "type": "function"
        },
        {
            "inputs": [
                {
                    "internalType": "address",
                    "name": "newRecoveryOwner",
                    "type": "address"
                }
            ],
            "name": "changeRecoveryOwner",
            "outputs": [],
            "stateMutability": "nonpayable",
            "type": "function"
        },
        {
            "inputs": [],
            "name": "domainSeparator",
            "outputs": [
                {
                    "internalType": "bytes32",
                    "name": "",
                    "type": "bytes32"
                }
            ],
            "stateMutability": "view",
            "type": "function"
        },
        {
            "inputs": [
                {
                    "internalType": "address",
                    "name": "to",
                    "type": "address"
                },
                {
                    "internalType": "uint256",
                    "name": "value",
                    "type": "uint256"
                },
                {
                    "internalType": "bytes",
                    "name": "data",
                    "type": "bytes"
                }
            ],
            "name": "emergencyCall",
            "outputs": [],
            "stateMutability": "nonpayable",
            "type": "function"
        },
        {
            "inputs": [],
            "name": "entryPoint",
            "outputs": [
                {
                    "internalType": "address",
                    "name": "",
                    "type": "address"
                }
            ],
            "stateMutability": "view",
            "type": "function"
        },
        {
            "inputs": [
                {
                    "internalType": "address",
                    "name": "to",
                    "type": "address"
                },
                {
                    "internalType": "uint256",
                    "name": "value",
                    "type": "uint256"
                },
                {
                    "internalType": "bytes",
                    "name": "data",
                    "type": "bytes"
                }
            ],
            "name": "exec",
            "outputs": [],
            "stateMutability": "nonpayable",
            "type": "function"
        },
        {
            "inputs": [],
            "name": "getChainId",
            "outputs": [
                {
                    "internalType": "uint256",
                    "name": "chainId",
                    "type": "uint256"
                }
            ],
            "stateMutability": "view",
            "type": "function"
        },
        {
            "inputs": [],
            "name": "getGuardians",
            "outputs": [
                {
                    "internalType": "address[]",
                    "name": "",
                    "type": "address[]"
                }
            ],
            "stateMutability": "view",
            "type": "function"
        },
        {
            "inputs": [
                {
                    "internalType": "bytes",
                    "name": "data",
                    "type": "bytes"
                }
            ],
            "name": "guardianCall",
            "outputs": [],
            "stateMutability": "nonpayable",
            "type": "function"
        },
        {
            "inputs": [],
            "name": "guardianCount",
            "outputs": [
                {
                    "internalType": "uint256",
                    "name": "",
                    "type": "uint256"
                }
            ],
            "stateMutability": "view",
            "type": "function"
        },
        {
            "inputs": [
                {
                    "internalType": "address",
                    "name": "_owner",
                    "type": "address"
                },
                {
                    "internalType": "address[]",
                    "name": "_guardians",
                    "type": "address[]"
                },
                {
                    "internalType": "address",
                    "name": "_entryPoint",
                    "type": "address"
                }
            ],
            "name": "init",
            "outputs": [],
            "stateMutability": "nonpayable",
            "type": "function"
        },
        {
            "inputs": [
                {
                    "internalType": "address",
                    "name": "guardian",
                    "type": "address"
                }
            ],
            "name": "isGuardian",
            "outputs": [
                {
                    "internalType": "bool",
                    "name": "",
                    "type": "bool"
                }
            ],
            "stateMutability": "view",
            "type": "function"
        },
        {
            "inputs": [],
            "name": "isLocked",
            "outputs": [
                {
                    "internalType": "bool",
                    "name": "",
                    "type": "bool"
                }
            ],
            "stateMutability": "view",
            "type": "function"
        },
        {
            "inputs": [
                {
                    "internalType": "bytes32",
                    "name": "hash",
                    "type": "bytes32"
                },
                {
                    "internalType": "bytes",
                    "name": "signature",
                    "type": "bytes"
                }
            ],
            "name": "isValidSignature",
            "outputs": [
                {
                    "internalType": "bytes4",
                    "name": "",
                    "type": "bytes4"
                }
            ],
            "stateMutability": "view",
            "type": "function"
        },
        {
            "inputs": [],
            "name": "lock",
            "outputs": [],
            "stateMutability": "nonpayable",
            "type": "function"
        },
        {
            "inputs": [
                {
                    "components": [
                        {
                            "internalType": "address",
                            "name": "to",
                            "type": "address"
                        },
                        {
                            "internalType": "uint256",
                            "name": "value",
                            "type": "uint256"
                        },
                        {
                            "internalType": "bytes",
                            "name": "data",
                            "type": "bytes"
                        }
                    ],
                    "internalType": "struct LaserWallet.Transaction[]",
                    "name": "transactions",
                    "type": "tuple[]"
                }
            ],
            "name": "multiCall",
            "outputs": [],
            "stateMutability": "nonpayable",
            "type": "function"
        },
        {
            "inputs": [],
            "name": "nonce",
            "outputs": [
                {
                    "internalType": "uint256",
                    "name": "",
                    "type": "uint256"
                }
            ],
            "stateMutability": "view",
            "type": "function"
        },
        {
            "inputs": [
                {
                    "internalType": "address",
                    "name": "",
                    "type": "address"
                },
                {
                    "internalType": "address",
                    "name": "",
                    "type": "address"
                },
                {
                    "internalType": "uint256[]",
                    "name": "",
                    "type": "uint256[]"
                },
                {
                    "internalType": "uint256[]",
                    "name": "",
                    "type": "uint256[]"
                },
                {
                    "internalType": "bytes",
                    "name": "",
                    "type": "bytes"
                }
            ],
            "name": "onERC1155BatchReceived",
            "outputs": [
                {
                    "internalType": "bytes4",
                    "name": "result",
                    "type": "bytes4"
                }
            ],
            "stateMutability": "pure",
            "type": "function"
        },
        {
            "inputs": [
                {
                    "internalType": "address",
                    "name": "",
                    "type": "address"
                },
                {
                    "internalType": "address",
                    "name": "",
                    "type": "address"
                },
                {
                    "internalType": "uint256",
                    "name": "",
                    "type": "uint256"
                },
                {
                    "internalType": "uint256",
                    "name": "",
                    "type": "uint256"
                },
                {
                    "internalType": "bytes",
                    "name": "",
                    "type": "bytes"
                }
            ],
            "name": "onERC1155Received",
            "outputs": [
                {
                    "internalType": "bytes4",
                    "name": "",
                    "type": "bytes4"
                }
            ],
            "stateMutability": "pure",
            "type": "function"
        },
        {
            "inputs": [
                {
                    "internalType": "address",
                    "name": "",
                    "type": "address"
                },
                {
                    "internalType": "address",
                    "name": "",
                    "type": "address"
                },
                {
                    "internalType": "uint256",
                    "name": "",
                    "type": "uint256"
                },
                {
                    "internalType": "bytes",
                    "name": "",
                    "type": "bytes"
                }
            ],
            "name": "onERC721Received",
            "outputs": [
                {
                    "internalType": "bytes4",
                    "name": "",
                    "type": "bytes4"
                }
            ],
            "stateMutability": "pure",
            "type": "function"
        },
        {
            "inputs": [],
            "name": "owner",
            "outputs": [
                {
                    "internalType": "address",
                    "name": "",
                    "type": "address"
                }
            ],
            "stateMutability": "view",
            "type": "function"
        },
        {
            "inputs": [
                {
                    "internalType": "address",
                    "name": "newOwner",
                    "type": "address"
                },
                {
                    "internalType": "address",
                    "name": "newRecoveryOwner",
                    "type": "address"
                }
            ],
            "name": "recover",
            "outputs": [],
            "stateMutability": "nonpayable",
            "type": "function"
        },
        {
            "inputs": [],
            "name": "recoveryOwner",
            "outputs": [
                {
                    "internalType": "address",
                    "name": "",
                    "type": "address"
                }
            ],
            "stateMutability": "view",
            "type": "function"
        },
        {
            "inputs": [
                {
                    "internalType": "address",
                    "name": "prevGuardian",
                    "type": "address"
                },
                {
                    "internalType": "address",
                    "name": "guardianToRemove",
                    "type": "address"
                }
            ],
            "name": "removeGuardian",
            "outputs": [],
            "stateMutability": "nonpayable",
            "type": "function"
        },
        {
            "inputs": [
                {
                    "internalType": "bytes32",
                    "name": "dataHash",
                    "type": "bytes32"
                },
                {
                    "internalType": "bytes",
                    "name": "signature",
                    "type": "bytes"
                }
            ],
            "name": "returnSigner",
            "outputs": [
                {
                    "internalType": "address",
                    "name": "signer",
                    "type": "address"
                }
            ],
            "stateMutability": "pure",
            "type": "function"
        },
        {
            "inputs": [],
            "name": "singleton",
            "outputs": [
                {
                    "internalType": "address",
                    "name": "",
                    "type": "address"
                }
            ],
            "stateMutability": "view",
            "type": "function"
        },
        {
            "inputs": [
                {
                    "internalType": "bytes",
                    "name": "signature",
                    "type": "bytes"
                }
            ],
            "name": "splitSig",
            "outputs": [
                {
                    "internalType": "bytes32",
                    "name": "r",
                    "type": "bytes32"
                },
                {
                    "internalType": "bytes32",
                    "name": "s",
                    "type": "bytes32"
                },
                {
                    "internalType": "uint8",
                    "name": "v",
                    "type": "uint8"
                }
            ],
            "stateMutability": "pure",
            "type": "function"
        },
        {
            "inputs": [
                {
                    "internalType": "bytes4",
                    "name": "_interfaceId",
                    "type": "bytes4"
                }
            ],
            "name": "supportsInterface",
            "outputs": [
                {
                    "internalType": "bool",
                    "name": "",
                    "type": "bool"
                }
            ],
            "stateMutability": "pure",
            "type": "function"
        },
        {
            "inputs": [
                {
                    "internalType": "address",
                    "name": "",
                    "type": "address"
                },
                {
                    "internalType": "address",
                    "name": "",
                    "type": "address"
                },
                {
                    "internalType": "address",
                    "name": "",
                    "type": "address"
                },
                {
                    "internalType": "uint256",
                    "name": "",
                    "type": "uint256"
                },
                {
                    "internalType": "bytes",
                    "name": "",
                    "type": "bytes"
                },
                {
                    "internalType": "bytes",
                    "name": "",
                    "type": "bytes"
                }
            ],
            "name": "tokensReceived",
            "outputs": [],
            "stateMutability": "pure",
            "type": "function"
        },
        {
            "inputs": [],
            "name": "unlock",
            "outputs": [],
            "stateMutability": "nonpayable",
            "type": "function"
        },
        {
            "inputs": [
                {
                    "internalType": "address",
                    "name": "_singleton",
                    "type": "address"
                }
            ],
            "name": "upgradeSingleton",
            "outputs": [],
            "stateMutability": "nonpayable",
            "type": "function"
        },
        {
            "inputs": [
                {
                    "components": [
                        {
                            "internalType": "address",
                            "name": "sender",
                            "type": "address"
                        },
                        {
                            "internalType": "uint256",
                            "name": "nonce",
                            "type": "uint256"
                        },
                        {
                            "internalType": "bytes",
                            "name": "initCode",
                            "type": "bytes"
                        },
                        {
                            "internalType": "bytes",
                            "name": "callData",
                            "type": "bytes"
                        },
                        {
                            "internalType": "uint256",
                            "name": "callGas",
                            "type": "uint256"
                        },
                        {
                            "internalType": "uint256",
                            "name": "verificationGas",
                            "type": "uint256"
                        },
                        {
                            "internalType": "uint256",
                            "name": "preVerificationGas",
                            "type": "uint256"
                        },
                        {
                            "internalType": "uint256",
                            "name": "maxFeePerGas",
                            "type": "uint256"
                        },
                        {
                            "internalType": "uint256",
                            "name": "maxPriorityFeePerGas",
                            "type": "uint256"
                        },
                        {
                            "internalType": "address",
                            "name": "paymaster",
                            "type": "address"
                        },
                        {
                            "internalType": "bytes",
                            "name": "paymasterData",
                            "type": "bytes"
                        },
                        {
                            "internalType": "bytes",
                            "name": "signature",
                            "type": "bytes"
                        }
                    ],
                    "internalType": "struct UserOperation",
                    "name": "userOp",
                    "type": "tuple"
                }
            ],
            "name": "userOperationHash",
            "outputs": [
                {
                    "internalType": "bytes32",
                    "name": "",
                    "type": "bytes32"
                }
            ],
            "stateMutability": "view",
            "type": "function"
        },
        {
            "inputs": [
                {
                    "components": [
                        {
                            "internalType": "address",
                            "name": "sender",
                            "type": "address"
                        },
                        {
                            "internalType": "uint256",
                            "name": "nonce",
                            "type": "uint256"
                        },
                        {
                            "internalType": "bytes",
                            "name": "initCode",
                            "type": "bytes"
                        },
                        {
                            "internalType": "bytes",
                            "name": "callData",
                            "type": "bytes"
                        },
                        {
                            "internalType": "uint256",
                            "name": "callGas",
                            "type": "uint256"
                        },
                        {
                            "internalType": "uint256",
                            "name": "verificationGas",
                            "type": "uint256"
                        },
                        {
                            "internalType": "uint256",
                            "name": "preVerificationGas",
                            "type": "uint256"
                        },
                        {
                            "internalType": "uint256",
                            "name": "maxFeePerGas",
                            "type": "uint256"
                        },
                        {
                            "internalType": "uint256",
                            "name": "maxPriorityFeePerGas",
                            "type": "uint256"
                        },
                        {
                            "internalType": "address",
                            "name": "paymaster",
                            "type": "address"
                        },
                        {
                            "internalType": "bytes",
                            "name": "paymasterData",
                            "type": "bytes"
                        },
                        {
                            "internalType": "bytes",
                            "name": "signature",
                            "type": "bytes"
                        }
                    ],
                    "internalType": "struct UserOperation",
                    "name": "userOp",
                    "type": "tuple"
                },
                {
                    "internalType": "bytes32",
                    "name": "",
                    "type": "bytes32"
                },
                {
                    "internalType": "uint256",
                    "name": "_requiredPrefund",
                    "type": "uint256"
                }
            ],
            "name": "validateUserOp",
            "outputs": [],
            "stateMutability": "nonpayable",
            "type": "function"
        },
        {
            "inputs": [
                {
                    "internalType": "uint256",
                    "name": "amount",
                    "type": "uint256"
                }
            ],
            "name": "withdrawDeposit",
            "outputs": [],
            "stateMutability": "nonpayable",
            "type": "function"
        },
        {
            "stateMutability": "payable",
            "type": "receive"
        }
    ],
    "bytecode": "0x608060405234801561001057600080fd5b50600280546001600160a01b031916301790556129b9806100326000396000f3fe6080604052600436106102885760003560e01c80638da5cb5b11610153578063bc197c81116100cb578063f698da251161007f578063fbb01bd311610064578063fbb01bd3146107ec578063fcbac1f414610819578063ffa1ad741461083957600080fd5b8063f698da2514610770578063f83d08ba146107d757600080fd5b8063e7c0a6cc116100b0578063e7c0a6cc14610703578063f23a6e6114610723578063f2f8243d1461075057600080fd5b8063bc197c81146106b4578063d6cf3781146106e357600080fd5b8063a69df4b511610122578063affed0e011610107578063affed0e01461065e578063b0d691fe14610674578063b62654fb1461069457600080fd5b8063a69df4b514610629578063a6f9dae11461063e57600080fd5b80638da5cb5b146105af5780639b27a90e146105cf578063a4e2d634146105ef578063a526d83b1461060957600080fd5b8063248b17011161020157806354387ad7116101b55780636082bc9b1161019a5780636082bc9b14610537578063648bf774146105575780638583c7c01461057757600080fd5b806354387ad7146104cd5780635db1bc88146104e357600080fd5b806333289a46116101e657806333289a461461047a5780633408e4701461049a5780634b02488f146104ad57600080fd5b8063248b17011461042c57806328b7ca8d1461044c57600080fd5b80630c68ba2111610258578063150b7a021161023d578063150b7a02146103a75780631626ba7e146103ec5780631e89f1f31461040c57600080fd5b80630c68ba211461036757806310e888921461038757600080fd5b806223de29146102c957806301ffc9a7146102f05780630565bb67146103255780630665f04b1461034557600080fd5b366102c45760405134815233907f88a5966d370b9919b20f3e2c13ff65706f196a4e32cc2c12bf57088f885258749060200160405180910390a2005b600080fd5b3480156102d557600080fd5b506102ee6102e43660046120db565b5050505050505050565b005b3480156102fc57600080fd5b5061031061030b366004612186565b61088f565b60405190151581526020015b60405180910390f35b34801561033157600080fd5b506102ee61034036600461225a565b610917565b34801561035157600080fd5b5061035a610990565b60405161031c91906122b1565b34801561037357600080fd5b506103106103823660046122fe565b610aa9565b34801561039357600080fd5b506102ee6103a23660046122fe565b610ae1565b3480156103b357600080fd5b506103d36103c2366004612319565b630a85bd0160e11b95945050505050565b6040516001600160e01b0319909116815260200161031c565b3480156103f857600080fd5b506103d3610407366004612388565b610bfb565b34801561041857600080fd5b506102ee61042736600461225a565b610c62565b34801561043857600080fd5b506102ee610447366004612414565b610d49565b34801561045857600080fd5b5061046c61046736600461246f565b610ea7565b60405190815260200161031c565b34801561048657600080fd5b506102ee6104953660046124ac565b610f18565b3480156104a657600080fd5b504661046c565b3480156104b957600080fd5b506102ee6104c83660046122fe565b61102a565b3480156104d957600080fd5b5061046c60045481565b3480156104ef57600080fd5b506105196104fe3660046124c5565b60208101516040820151606090920151909260009190911a90565b60408051938452602084019290925260ff169082015260600161031c565b34801561054357600080fd5b506102ee6105523660046124fa565b6110ed565b34801561056357600080fd5b506102ee61057236600461255f565b61115d565b34801561058357600080fd5b50600354610597906001600160a01b031681565b6040516001600160a01b03909116815260200161031c565b3480156105bb57600080fd5b50600254610597906001600160a01b031681565b3480156105db57600080fd5b506102ee6105ea36600461255f565b61120f565b3480156105fb57600080fd5b506005546103109060ff1681565b34801561061557600080fd5b506102ee6106243660046122fe565b611357565b34801561063557600080fd5b506102ee611539565b34801561064a57600080fd5b506102ee6106593660046122fe565b611588565b34801561066a57600080fd5b5061046c60075481565b34801561068057600080fd5b50600154610597906001600160a01b031681565b3480156106a057600080fd5b50600054610597906001600160a01b031681565b3480156106c057600080fd5b506103d36106cf366004612592565b63bc197c8160e01b98975050505050505050565b3480156106ef57600080fd5b506102ee6106fe3660046124c5565b61164b565b34801561070f57600080fd5b5061059761071e366004612388565b6116c3565b34801561072f57600080fd5b506103d361073e36600461262c565b63f23a6e6160e01b9695505050505050565b34801561075c57600080fd5b506102ee61076b3660046122fe565b61182b565b34801561077c57600080fd5b5061046c60007f47e79534a245952e8b16893a336b85a3d9ea9fa8c573f3d803afb92a794692184660408051602081019390935282015230606082015260800160405160208183030381529060405280519060200120905090565b3480156107e357600080fd5b506102ee611899565b3480156107f857600080fd5b5061080c610807366004612186565b611915565b60405161031c91906126ba565b34801561082557600080fd5b506102ee6108343660046126e2565b611964565b34801561084557600080fd5b506108826040518060400160405280600581526020017f312e302e3000000000000000000000000000000000000000000000000000000081525081565b60405161031c9190612730565b60006301ffc9a760e01b6001600160e01b0319831614806108c05750636cdb3d1360e11b6001600160e01b03198316145b806108db5750630271189760e51b6001600160e01b03198316145b806108f6575063ae029e0b60e01b6001600160e01b03198316145b806109115750630a85bd0160e11b6001600160e01b03198316145b92915050565b6001546001600160a01b0316331461094257604051630c1c0ab360e11b815260040160405180910390fd5b600061095061080783612785565b6002811115610961576109616126a4565b1461097f576040516395d1b28560e01b815260040160405180910390fd5b61098b8383835a611ba2565b505050565b60606004546000036109b5576040516306792c5d60e31b815260040160405180910390fd5b600060045467ffffffffffffffff8111156109d2576109d26121b7565b6040519080825280602002602001820160405280156109fb578160200160208202803683370190505b506001600090815260066020527f3e5fec24aa4dc4e5aee2e025e51e1392c72a2500577559fae9665c6d52bd6a31549192506001600160a01b03909116905b6001600160a01b038216600114610aa15781838281518110610a5e57610a5e6127bc565b6001600160a01b03928316602091820292909201810191909152928116600090815260069093526040909220549091169080610a99816127e8565b915050610a3a565b509092915050565b60006001600160a01b0382166001148015906109115750506001600160a01b0390811660009081526006602052604090205416151590565b333014610b01576040516319b5d28560e11b815260040160405180910390fd5b306001600160a01b03821603610b2a576040516333dd190160e21b815260040160405180910390fd5b6040516301ffc9a760e01b815263ae029e0b60e01b60048201526001600160a01b038216906301ffc9a790602401602060405180830381865afa158015610b75573d6000803e3d6000fd5b505050506040513d601f19601f82011682018060405250810190610b999190612801565b610bb6576040516318482ef160e01b815260040160405180910390fd5b60008190556040516001600160a01b03821681527fad04cda32d7774350bace4bdca605ed7431195e8c78235e484626b2785de816d906020015b60405180910390a150565b600080610c0884846116c3565b6002549091506001600160a01b03808316911614610c3957604051630fa4e72f60e41b815260040160405180910390fd5b507f1626ba7e356f5979dd355a3d2bfb43e80420a480c3b854edce286a82d74968699392505050565b6000610c7061080783612785565b9050600760008154610c81906127e8565b909155506002546001600160a01b03163303610cda576000816002811115610cab57610cab6126a4565b14610cc9576040516395d1b28560e01b815260040160405180910390fd5b610cd58484845a611ba2565b610d43565b336000908152600660205260409020546001600160a01b031615610d2a576001816002811115610d0c57610d0c6126a4565b14610cc95760405163c288661b60e01b815260040160405180910390fd5b604051639f443f3160e01b815260040160405180910390fd5b50505050565b6001546001600160a01b03163314610d7457604051630c1c0ab360e11b815260040160405180910390fd5b8060005b81811015610d43576000848483818110610d9457610d946127bc565b9050602002810190610da69190612823565b610db49060208101906122fe565b90506000858584818110610dca57610dca6127bc565b9050602002810190610ddc9190612823565b6020013590506000868685818110610df657610df66127bc565b9050602002810190610e089190612823565b610e16906040810190612843565b8080601f0160208091040260200160405190810160405280939291908181526020018383808284376000920182905250939450610e5292505050565b610e5e61080783612785565b6002811115610e6f57610e6f6126a4565b14610e8d576040516395d1b28560e01b815260040160405180910390fd5b610e998383835a611ba2565b836001019350505050610d78565b6000610f0a610eb960208401846122fe565b6020840135610ecb6060860186612843565b608087013560a088013560c089013560e08a01356101008b0135610ef76101408d016101208e016122fe565b610f056101408e018e612843565b611bbd565b805190602001209050919050565b333014610f38576040516319b5d28560e11b815260040160405180910390fd5b6001546040516370a0823160e01b815230600482015282916001600160a01b0316906370a0823190602401602060405180830381865afa158015610f80573d6000803e3d6000fd5b505050506040513d601f19601f82011682018060405250810190610fa4919061288a565b1015610fc357604051634095861360e11b815260040160405180910390fd5b60015460405163040b850f60e31b8152306004820152602481018390526001600160a01b039091169063205c287890604401600060405180830381600087803b15801561100f57600080fd5b505af1158015611023573d6000803e3d6000fd5b5050505050565b33301461104a576040516319b5d28560e11b815260040160405180910390fd5b6001600160a01b0381163b158061106957506001600160a01b03811630145b8061108157506001546001600160a01b038281169116145b1561109f576040516361511d9d60e01b815260040160405180910390fd5b600180546001600160a01b0319166001600160a01b0383169081179091556040519081527f94fe20369eda1036391e68ebc6af4965f710ae7bc0cb1c315895c028149582d290602001610bf0565b6110f684611d5e565b6111008383611de7565b61110981611fee565b6002546001546040517f37c1a68ddf221fa26f7d1eabbc08593647556eb85e57067e7046038e14def14f9261114f926001600160a01b03918216928892889216906128a3565b60405180910390a150505050565b33301461117d576040516319b5d28560e11b815260040160405180910390fd5b60055460ff166111a05760405163014bd22160e61b815260040160405180910390fd5b600280546001600160a01b038481166001600160a01b03199283168117909355600380549185169190921681179091556040805192835260208301919091527f64c7ed5b8ae5e1784efb410562fe6ee0501abeb55d985482ea2e4dd489d72f0a91015b60405180910390a15050565b33301461122f576040516319b5d28560e11b815260040160405180910390fd5b6001600160a01b038116158061124e57506001600160a01b0381166001145b1561126c57604051630a7a69f760e01b815260040160405180910390fd5b6001600160a01b038281166000908152600660205260409020548116908216146112a9576040516307e16f8d60e31b815260040160405180910390fd5b6001806004546112b99190612909565b10156112d85760405163fdc3bf8f60e01b815260040160405180910390fd5b6001600160a01b038181166000818152600660209081526040808320805488871685528285208054919097166001600160a01b0319918216179096559284905282549094169091556004805460001901905591519081527fb8107d0c6b40be480ce3172ee66ba6d64b71f6b1685a851340036e6e2e3e3c529101611203565b333014611377576040516319b5d28560e11b815260040160405180910390fd5b6001600160a01b038116158061139657506001600160a01b0381166001145b806113a957506001600160a01b03811630145b806113c157506002546001600160a01b038281169116145b806113e557506001600160a01b038181166000908152600660205260409020541615155b1561140357604051630a7a69f760e01b815260040160405180910390fd5b6001600160a01b0381163b1561149f576040516301ffc9a760e01b815263ae029e0b60e01b60048201526001600160a01b038216906301ffc9a790602401602060405180830381865afa15801561145e573d6000803e3d6000fd5b505050506040513d601f19601f820116820180604052508101906114829190612801565b61149f57604051630a7a69f760e01b815260040160405180910390fd5b600660209081527f3e5fec24aa4dc4e5aee2e025e51e1392c72a2500577559fae9665c6d52bd6a3180546001600160a01b03848116600081815260408082208054949095166001600160a01b03199485161790945560019081905284549092168117909355600480549091019055519081527fb6182387b7ea948602a7e04e662a27ce251dc3dd014eacaed10dce36b41bf1a59101610bf0565b333014611559576040516319b5d28560e11b815260040160405180910390fd5b60055460ff1661157c5760405163014bd22160e61b815260040160405180910390fd5b6005805460ff19169055565b3330146115a8576040516319b5d28560e11b815260040160405180910390fd5b6002546001600160a01b03828116911614806115cd57506001600160a01b0381163b15155b806115df57506001600160a01b038116155b156115fd57604051632f10857f60e01b815260040160405180910390fd5b600280546001600160a01b0319166001600160a01b0383169081179091556040519081527fa2ea9883a321a3e97b8266c2b078bfeec6d50c711ed71f874a90d500ae2eaf3690602001610bf0565b6001546001600160a01b0316331461167657604051630c1c0ab360e11b815260040160405180910390fd5b600161168461080783612785565b6002811115611695576116956126a4565b146116b35760405163c288661b60e01b815260040160405180910390fd5b6116c0306000835a611ba2565b50565b6020810151604082015160608301516000929190831a601e81111561179b576040517f19457468657265756d205369676e6564204d6573736167653a0a3332000000006020820152603c8101879052600190605c016040516020818303038152906040528051906020012060048361173b9190612920565b6040805160008152602081018083529390935260ff90911690820152606081018590526080810184905260a0016020604051602081039080840390855afa15801561178a573d6000803e3d6000fd5b5050506020604051035193506117fb565b60408051600081526020810180835288905260ff831691810191909152606081018490526080810183905260019060a0016020604051602081039080840390855afa1580156117ee573d6000803e3d6000fd5b5050506020604051035193505b6001600160a01b03841661182257604051634aef5ea760e01b815260040160405180910390fd5b50505092915050565b33301461184b576040516319b5d28560e11b815260040160405180910390fd5b600380546001600160a01b0319166001600160a01b0383169081179091556040519081527f24b755696b711f89e9f520613bc428ad6a76ea9e0ea8ce1bcbc4a49d7117e7d490602001610bf0565b3330146118b9576040516319b5d28560e11b815260040160405180910390fd5b60055460ff16156118dd5760405163ac03bc7560e01b815260040160405180910390fd5b6005805460ff191660011790556040517fd550ed24c5d3906c5831b36940c8eb789771469024f7963da735aaf15c59b9a290600090a1565b60006303e17ba360e11b6001600160e01b031983160161193757506001919050565b6326dd022360e21b6001600160e01b031983160161195757506002919050565b506000919050565b919050565b6001546001600160a01b0316331461198f57604051630c1c0ab360e11b815260040160405180910390fd5b6007805460208501359160006119a4836127e8565b91905055146119c657604051631aa6654560e11b815260040160405180910390fd5b6000611a296119d860208601866122fe565b60208601356119ea6060880188612843565b88608001358960a001358a60c001358b60e001358c61010001358d610120016020810190611a1891906122fe565b8e806101400190610f059190612843565b805160208201209091506000611a8182611a47610160890189612843565b8080601f0160208091040260200160405190810160405280939291908181526020018383808284376000920191909152506116c392505050565b90506000611a926060880188612843565b611a9b91612943565b90506001600160e01b03198116630565bb6760e01b1480611acc57506001600160e01b0319811663248b170160e01b145b15611b28576002546001600160a01b03838116911614611aff576040516317253edd60e01b815260040160405180910390fd5b60055460ff1615611b235760405163738d3a4d60e01b815260040160405180910390fd5b611b90565b632930c87f60e01b6001600160e01b0319821601611b78576001600160a01b0382811660009081526006602052604090205416611b23576040516389663adf60e01b815260040160405180910390fd5b60405162a70d1760e51b815260040160405180910390fd5b611b9985612030565b50505050505050565b6000806000845160208601878987f1905080611023573d6000fd5b606060007fc1856f49e02553b0bbe30f9cfe3ff8c70046e43053f0515ced3799f6c96f94b28e8e8e8e604051611bf4929190612973565b60405180910390208d8d8d8d8d8d8d8d604051611c12929190612973565b60408051918290038220602083019c909c526001600160a01b039a8b16908201526060810198909852608088019690965260a087019490945260c086019290925260e08501526101008401526101208301529091166101408201526101608101919091526101800160408051601f1981840301815291905280516020909101209050601960f81b600160f81b611cf860007f47e79534a245952e8b16893a336b85a3d9ea9fa8c573f3d803afb92a794692184660408051602081019390935282015230606082015260800160405160208183030381529060405280519060200120905090565b6040517fff0000000000000000000000000000000000000000000000000000000000000093841660208201529290911660218301526022820152604281018290526062016040516020818303038152906040529150509c9b505050505050505050505050565b6002546001600160a01b031615611d885760405163931dc3b560e01b815260040160405180910390fd5b6001600160a01b0381163b151580611da757506001600160a01b038116155b15611dc557604051632f10857f60e01b815260040160405180910390fd5b600280546001600160a01b0319166001600160a01b0392909216919091179055565b806001811015611e0a576040516303296b9160e11b815260040160405180910390fd5b600160005b82811015611fbe576000858583818110611e2b57611e2b6127bc565b9050602002016020810190611e4091906122fe565b6002549091506001600160a01b0380831691161480611e6657506001600160a01b038116155b80611e7a57506001600160a01b0381166001145b80611e8d57506001600160a01b03811630145b80611ea95750826001600160a01b0316816001600160a01b0316145b80611ecd57506001600160a01b038181166000908152600660205260409020541615155b15611eeb57604051630a7a69f760e01b815260040160405180910390fd5b6001600160a01b0381163b15611f87576040516301ffc9a760e01b815263ae029e0b60e01b60048201526001600160a01b038216906301ffc9a790602401602060405180830381865afa158015611f46573d6000803e3d6000fd5b505050506040513d601f19601f82011682018060405250810190611f6a9190612801565b611f8757604051630a7a69f760e01b815260040160405180910390fd5b6001600160a01b03928316600090815260066020526040902080546001600160a01b03191693821693909317909255600101611e0f565b506001600160a01b0316600090815260066020526040902080546001600160a01b03191660011790556004555050565b6001600160a01b0381163b158061200d57506001600160a01b03811630145b1561202b576040516361511d9d60e01b815260040160405180910390fd5b600155565b80156116c057600033825a6040519091906000818181858888f193505050503d8060008114611023576040519150601f19603f3d011682016040523d82523d6000602084013e611023565b80356001600160a01b038116811461195f57600080fd5b60008083601f8401126120a457600080fd5b50813567ffffffffffffffff8111156120bc57600080fd5b6020830191508360208285010111156120d457600080fd5b9250929050565b60008060008060008060008060c0898b0312156120f757600080fd5b6121008961207b565b975061210e60208a0161207b565b965061211c60408a0161207b565b955060608901359450608089013567ffffffffffffffff8082111561214057600080fd5b61214c8c838d01612092565b909650945060a08b013591508082111561216557600080fd5b506121728b828c01612092565b999c989b5096995094979396929594505050565b60006020828403121561219857600080fd5b81356001600160e01b0319811681146121b057600080fd5b9392505050565b634e487b7160e01b600052604160045260246000fd5b600082601f8301126121de57600080fd5b813567ffffffffffffffff808211156121f9576121f96121b7565b604051601f8301601f19908116603f01168101908282118183101715612221576122216121b7565b8160405283815286602085880101111561223a57600080fd5b836020870160208301376000602085830101528094505050505092915050565b60008060006060848603121561226f57600080fd5b6122788461207b565b925060208401359150604084013567ffffffffffffffff81111561229b57600080fd5b6122a7868287016121cd565b9150509250925092565b6020808252825182820181905260009190848201906040850190845b818110156122f25783516001600160a01b0316835292840192918401916001016122cd565b50909695505050505050565b60006020828403121561231057600080fd5b6121b08261207b565b60008060008060006080868803121561233157600080fd5b61233a8661207b565b94506123486020870161207b565b935060408601359250606086013567ffffffffffffffff81111561236b57600080fd5b61237788828901612092565b969995985093965092949392505050565b6000806040838503121561239b57600080fd5b82359150602083013567ffffffffffffffff8111156123b957600080fd5b6123c5858286016121cd565b9150509250929050565b60008083601f8401126123e157600080fd5b50813567ffffffffffffffff8111156123f957600080fd5b6020830191508360208260051b85010111156120d457600080fd5b6000806020838503121561242757600080fd5b823567ffffffffffffffff81111561243e57600080fd5b61244a858286016123cf565b90969095509350505050565b6000610180828403121561246957600080fd5b50919050565b60006020828403121561248157600080fd5b813567ffffffffffffffff81111561249857600080fd5b6124a484828501612456565b949350505050565b6000602082840312156124be57600080fd5b5035919050565b6000602082840312156124d757600080fd5b813567ffffffffffffffff8111156124ee57600080fd5b6124a4848285016121cd565b6000806000806060858703121561251057600080fd5b6125198561207b565b9350602085013567ffffffffffffffff81111561253557600080fd5b612541878288016123cf565b909450925061255490506040860161207b565b905092959194509250565b6000806040838503121561257257600080fd5b61257b8361207b565b91506125896020840161207b565b90509250929050565b60008060008060008060008060a0898b0312156125ae57600080fd5b6125b78961207b565b97506125c560208a0161207b565b9650604089013567ffffffffffffffff808211156125e257600080fd5b6125ee8c838d016123cf565b909850965060608b013591508082111561260757600080fd5b6126138c838d016123cf565b909650945060808b013591508082111561216557600080fd5b60008060008060008060a0878903121561264557600080fd5b61264e8761207b565b955061265c6020880161207b565b94506040870135935060608701359250608087013567ffffffffffffffff81111561268657600080fd5b61269289828a01612092565b979a9699509497509295939492505050565b634e487b7160e01b600052602160045260246000fd5b60208101600383106126dc57634e487b7160e01b600052602160045260246000fd5b91905290565b6000806000606084860312156126f757600080fd5b833567ffffffffffffffff81111561270e57600080fd5b61271a86828701612456565b9660208601359650604090950135949350505050565b600060208083528351808285015260005b8181101561275d57858101830151858201604001528201612741565b8181111561276f576000604083870101525b50601f01601f1916929092016040019392505050565b805160208201516001600160e01b031980821692919060048310156127b45780818460040360031b1b83161693505b505050919050565b634e487b7160e01b600052603260045260246000fd5b634e487b7160e01b600052601160045260246000fd5b6000600182016127fa576127fa6127d2565b5060010190565b60006020828403121561281357600080fd5b815180151581146121b057600080fd5b60008235605e1983360301811261283957600080fd5b9190910192915050565b6000808335601e1984360301811261285a57600080fd5b83018035915067ffffffffffffffff82111561287557600080fd5b6020019150368190038213156120d457600080fd5b60006020828403121561289c57600080fd5b5051919050565b6001600160a01b03858116825260606020808401829052908301859052600091869160808501845b888110156128f057836128dd8661207b565b16825293820193908201906001016128cb565b5080945050508085166040850152505095945050505050565b60008282101561291b5761291b6127d2565b500390565b600060ff821660ff84168082101561293a5761293a6127d2565b90039392505050565b6001600160e01b0319813581811691600485101561296b5780818660040360031b1b83161692505b505092915050565b818382376000910190815291905056fea2646970667358221220812267fa99c66570f66b802713763706999cfa0d4202e6a8602937fb99869d4d64736f6c634300080e0033",
    "linkReferences": {},
    "deployedLinkReferences": {}
}