{
  "address": "0xd43004a7Cc11C6916CcAa3F66A828257931b7d97",
  "abi": [
    {
      "inputs": [
        {
          "internalType": "address",
          "name": "laserWallet",
          "type": "address"
        },
        {
          "internalType": "address",
          "name": "SSRModule",
          "type": "address"
        }
      ],
      "name": "getWalletState",
      "outputs": [
        {
          "internalType": "address",
          "name": "owner",
          "type": "address"
        },
        {
          "internalType": "address",
          "name": "singleton",
          "type": "address"
        },
        {
          "internalType": "bool",
          "name": "isLocked",
          "type": "bool"
        },
        {
          "internalType": "address[]",
          "name": "guardians",
          "type": "address[]"
        },
        {
          "internalType": "address[]",
          "name": "recoveryOwners",
          "type": "address[]"
        },
        {
          "internalType": "uint256",
          "name": "nonce",
          "type": "uint256"
        },
        {
          "internalType": "uint256",
          "name": "balance",
          "type": "uint256"
        }
      ],
      "stateMutability": "view",
      "type": "function"
    },
    {
      "inputs": [
        {
          "internalType": "address",
          "name": "to",
          "type": "address"
        },
        {
          "internalType": "bytes",
          "name": "callData",
          "type": "bytes"
        },
        {
          "internalType": "uint256",
          "name": "value",
          "type": "uint256"
        },
        {
          "internalType": "uint256",
          "name": "gasLimit",
          "type": "uint256"
        }
      ],
      "name": "simulateTransaction",
      "outputs": [
        {
          "internalType": "uint256",
          "name": "totalGas",
          "type": "uint256"
        }
      ],
      "stateMutability": "nonpayable",
      "type": "function"
    }
  ],
  "transactionHash": "0x2d60c846ff13ebb6e7641776dd8885e948e53d45f1ff5af508efbc683839eccc",
  "args": [],
  "numDeployments": 1,
  "solcInputHash": "d5dcfe2f9768a1785a3df26f5d517eb4",
  "bytecode": "0x608060405234801561001057600080fd5b506107b9806100206000396000f3fe608060405234801561001057600080fd5b50600436106100365760003560e01c80631ca1f41b1461003b578063ff46e9b61461006a575b600080fd5b61004e610049366004610496565b61008b565b6040516100619796959493929190610513565b60405180910390f35b61007d610078366004610570565b61032f565b604051908152602001610061565b600080600060608060008060008990506000899050816001600160a01b0316638da5cb5b6040518163ffffffff1660e01b8152600401602060405180830381865afa1580156100de573d6000803e3d6000fd5b505050506040513d601f19601f820116820180604052508101906101029190610614565b9850816001600160a01b031663b62654fb6040518163ffffffff1660e01b8152600401602060405180830381865afa158015610142573d6000803e3d6000fd5b505050506040513d601f19601f820116820180604052508101906101669190610614565b9750816001600160a01b031663a4e2d6346040518163ffffffff1660e01b8152600401602060405180830381865afa1580156101a6573d6000803e3d6000fd5b505050506040513d601f19601f820116820180604052508101906101ca9190610638565b60405163f18858ab60e01b81526001600160a01b038d811660048301529198509082169063f18858ab90602401600060405180830381865afa158015610214573d6000803e3d6000fd5b505050506040513d6000823e601f3d908101601f1916820160405261023c9190810190610670565b6040516339405f5f60e21b81526001600160a01b038d811660048301529197509082169063e5017d7c90602401600060405180830381865afa158015610286573d6000803e3d6000fd5b505050506040513d6000823e601f3d908101601f191682016040526102ae9190810190610670565b9450816001600160a01b031663affed0e06040518163ffffffff1660e01b8152600401602060405180830381865afa1580156102ee573d6000803e3d6000fd5b505050506040513d601f19601f820116820180604052508101906103129190610735565b93508a6001600160a01b0316319250505092959891949750929550565b60005a61033c908361074e565b90506000866001600160a01b031684878760405161035b929190610773565b60006040518083038185875af1925050503d8060008114610398576040519150601f19603f3d011682016040523d82523d6000602084013e61039d565b606091505b50509050806103f35760405162461bcd60e51b815260206004820152601660248201527f6d61696e20657865637574696f6e206661696c65642e0000000000000000000060448201526064015b60405180910390fd5b5a6103fe908361074e565b915033156104745760405162461bcd60e51b815260206004820152602b60248201527f4d7573742062652063616c6c6564206f66662d636861696e2066726f6d20616460448201527f6472657373207a65726f2e00000000000000000000000000000000000000000060648201526084016103ea565b5095945050505050565b6001600160a01b038116811461049357600080fd5b50565b600080604083850312156104a957600080fd5b82356104b48161047e565b915060208301356104c48161047e565b809150509250929050565b600081518084526020808501945080840160005b838110156105085781516001600160a01b0316875295820195908201906001016104e3565b509495945050505050565b60006001600160a01b03808a168352808916602084015250861515604083015260e0606083015261054760e08301876104cf565b828103608084015261055981876104cf565b60a0840195909552505060c0015295945050505050565b60008060008060006080868803121561058857600080fd5b85356105938161047e565b9450602086013567ffffffffffffffff808211156105b057600080fd5b818801915088601f8301126105c457600080fd5b8135818111156105d357600080fd5b8960208285010111156105e557600080fd5b9699602092909201985095966040810135965060600135945092505050565b805161060f8161047e565b919050565b60006020828403121561062657600080fd5b81516106318161047e565b9392505050565b60006020828403121561064a57600080fd5b8151801515811461063157600080fd5b634e487b7160e01b600052604160045260246000fd5b6000602080838503121561068357600080fd5b825167ffffffffffffffff8082111561069b57600080fd5b818501915085601f8301126106af57600080fd5b8151818111156106c1576106c161065a565b8060051b604051601f19603f830116810181811085821117156106e6576106e661065a565b60405291825284820192508381018501918883111561070457600080fd5b938501935b828510156107295761071a85610604565b84529385019392850192610709565b98975050505050505050565b60006020828403121561074757600080fd5b5051919050565b60008282101561076e57634e487b7160e01b600052601160045260246000fd5b500390565b818382376000910190815291905056fea26469706673582212209267d44fcbabfa05a1d6068bd2ac566ef7ad96c63c77222e946d2632d7a0e80564736f6c634300080f0033",
  "devdoc": {
    "kind": "dev",
    "methods": {
      "getWalletState(address,address)": {
        "details": "Returns the wallet state + SSR module."
      }
    },
    "title": "LaserHelper - Helper contract that outputs multiple results in a single call.",
    "version": 1
  },
  "userdoc": {
    "kind": "user",
    "methods": {},
    "version": 1
  },
  "storageLayout": {
    "storage": [],
    "types": null
  }
}