{
  "address": "0x301597E30c0083A8F4d6c0456AAD38FA60E69920",
  "abi": [
    {
      "inputs": [
        {
          "internalType": "address",
          "name": "_singleton",
          "type": "address"
        }
      ],
      "stateMutability": "nonpayable",
      "type": "constructor"
    },
    {
      "inputs": [],
      "name": "LaserFactory__constructor__invalidSingleton",
      "type": "error"
    },
    {
      "inputs": [],
      "name": "LaserFactory__create2Failed",
      "type": "error"
    },
    {
      "anonymous": false,
      "inputs": [
        {
          "indexed": false,
          "internalType": "address",
          "name": "proxy",
          "type": "address"
        }
      ],
      "name": "ProxyCreation",
      "type": "event"
    },
    {
      "inputs": [
        {
          "internalType": "address",
          "name": "owner",
          "type": "address"
        },
        {
          "internalType": "uint256",
          "name": "maxFeePerGas",
          "type": "uint256"
        },
        {
          "internalType": "uint256",
          "name": "maxPriorityFeePerGas",
          "type": "uint256"
        },
        {
          "internalType": "uint256",
          "name": "gasLimit",
          "type": "uint256"
        },
        {
          "internalType": "address",
          "name": "relayer",
          "type": "address"
        },
        {
          "internalType": "address",
          "name": "laserModule",
          "type": "address"
        },
        {
          "internalType": "bytes",
          "name": "laserModuleData",
          "type": "bytes"
        },
        {
          "internalType": "uint256",
          "name": "saltNumber",
          "type": "uint256"
        },
        {
          "internalType": "bytes",
          "name": "ownerSignature",
          "type": "bytes"
        }
      ],
      "name": "deployProxyAndRefund",
      "outputs": [
        {
          "internalType": "contract LaserProxy",
          "name": "proxy",
          "type": "address"
        }
      ],
      "stateMutability": "nonpayable",
      "type": "function"
    },
    {
      "inputs": [
        {
          "internalType": "address",
          "name": "owner",
          "type": "address"
        },
        {
          "internalType": "address",
          "name": "laserModule",
          "type": "address"
        },
        {
          "internalType": "bytes",
          "name": "laserModuleData",
          "type": "bytes"
        },
        {
          "internalType": "uint256",
          "name": "saltNumber",
          "type": "uint256"
        }
      ],
      "name": "preComputeAddress",
      "outputs": [
        {
          "internalType": "address",
          "name": "",
          "type": "address"
        }
      ],
      "stateMutability": "view",
      "type": "function"
    },
    {
      "inputs": [],
      "name": "proxyCreationCode",
      "outputs": [
        {
          "internalType": "bytes",
          "name": "",
          "type": "bytes"
        }
      ],
      "stateMutability": "pure",
      "type": "function"
    },
    {
      "inputs": [],
      "name": "proxyRuntimeCode",
      "outputs": [
        {
          "internalType": "bytes",
          "name": "",
          "type": "bytes"
        }
      ],
      "stateMutability": "pure",
      "type": "function"
    },
    {
      "inputs": [],
      "name": "singleton",
      "outputs": [
        {
          "internalType": "address",
          "name": "",
          "type": "address"
        }
      ],
      "stateMutability": "view",
      "type": "function"
    }
  ],
  "transactionHash": "0xafea362c2147686220bdc956b839e20fc293d4a7b6bd1a454125122d7655dbbd",
  "args": [
    "0xc811faBA15608F4daBDaAbdd84625177e5D02f8a"
  ],
  "numDeployments": 1,
  "solcInputHash": "7a95abf8dc66cc4df84eb6056d0aa0f7",
  "bytecode": "0x60a060405234801561001057600080fd5b506040516109e93803806109e983398101604081905261002f916100cc565b6040516301ffc9a760e01b815263ae029e0b60e01b60048201526001600160a01b038216906301ffc9a790602401602060405180830381865afa15801561007a573d6000803e3d6000fd5b505050506040513d601f19601f8201168201806040525081019061009e91906100fc565b6100bb5760405163019126e960e41b815260040160405180910390fd5b6001600160a01b031660805261011e565b6000602082840312156100de57600080fd5b81516001600160a01b03811681146100f557600080fd5b9392505050565b60006020828403121561010e57600080fd5b815180151581146100f557600080fd5b6080516108a36101466000396000818160c201528181610133015261036b01526108a36000f3fe608060405234801561001057600080fd5b50600436106100675760003560e01c8063addacc0f11610050578063addacc0f146100b5578063b62654fb146100bd578063de12e921146100e457600080fd5b806353e5d9351461006c57806363b8ee321461008a575b600080fd5b6100746100f7565b6040516100819190610427565b60405180910390f35b61009d6100983660046104bf565b610121565b6040516001600160a01b039091168152602001610081565b61007461020c565b61009d7f000000000000000000000000000000000000000000000000000000000000000081565b61009d6100f2366004610528565b61021e565b606060405180602001610109906103de565b601f1982820381018352601f90910116604052919050565b60008061012c6100f7565b90506000817f00000000000000000000000000000000000000000000000000000000000000006001600160a01b031660405160200161016c9291906105f8565b6040516020818303038152906040529050600061018c89898989896102f8565b8251602093840120604080517fff00000000000000000000000000000000000000000000000000000000000000818701523060601b6bffffffffffffffffffffffff191660218201526035810193909352605580840192909252805180840390920182526075909201909152805192019190912098975050505050505050565b606060405180602001610109906103eb565b60008061022e8d898989896102f8565b905061023981610334565b9150816001600160a01b031663ec8876108e8e8e8e8e8e8e8e8d8d6040518b63ffffffff1660e01b81526004016102799a99989796959493929190610643565b600060405180830381600087803b15801561029357600080fd5b505af11580156102a7573d6000803e3d6000fd5b50506040516001600160a01b03851681527fa38789425dbeee0239e16ff2d2567e31720127fbc6430758c1a4efc6aef29f809250602001905060405180910390a1509b9a5050505050505050505050565b600085858585856040516020016103139594939291906106b1565b60405160208183030381529060405280519060200120905095945050505050565b60008060405180602001610347906103de565b601f1982820381018352601f90910116604081905261039491906001600160a01b037f000000000000000000000000000000000000000000000000000000000000000016906020016105f8565b6040516020818303038152906040529050828151826020016000f591506001600160a01b0382166103d857604051634f8528bf60e01b815260040160405180910390fd5b50919050565b610108806106f083390190565b6076806107f883390190565b60005b838110156104125781810151838201526020016103fa565b83811115610421576000848401525b50505050565b60208152600082518060208401526104468160408501602087016103f7565b601f01601f19169190910160400192915050565b80356001600160a01b038116811461047157600080fd5b919050565b60008083601f84011261048857600080fd5b50813567ffffffffffffffff8111156104a057600080fd5b6020830191508360208285010111156104b857600080fd5b9250929050565b6000806000806000608086880312156104d757600080fd5b6104e08661045a565b94506104ee6020870161045a565b9350604086013567ffffffffffffffff81111561050a57600080fd5b61051688828901610476565b96999598509660600135949350505050565b60008060008060008060008060008060006101208c8e03121561054a57600080fd5b6105538c61045a565b9a5060208c0135995060408c0135985060608c0135975061057660808d0161045a565b965061058460a08d0161045a565b955067ffffffffffffffff8060c08e013511156105a057600080fd5b6105b08e60c08f01358f01610476565b909650945060e08d013593506101008d01358110156105ce57600080fd5b506105e08d6101008e01358e01610476565b81935080925050509295989b509295989b9093969950565b6000835161060a8184602088016103f7565b9190910191825250602001919050565b81835281816020850137506000828201602090810191909152601f909101601f19169091010190565b60006101006001600160a01b03808e1684528c60208501528b60408501528a6060850152808a16608085015280891660a0850152508060c084015261068b818401878961061a565b905082810360e08401526106a081858761061a565b9d9c50505050505050505050505050565b60006bffffffffffffffffffffffff19808860601b168352808760601b1660148401525083856028840137506028920191820152604801939250505056fe608060405234801561001057600080fd5b5060405161010838038061010883398101604081905261002f91610054565b600080546001600160a01b0319166001600160a01b0392909216919091179055610084565b60006020828403121561006657600080fd5b81516001600160a01b038116811461007d57600080fd5b9392505050565b6076806100926000396000f3fe60806040526000805473ffffffffffffffffffffffffffffffffffffffff169036908037600080366000845af43d6000803e80603a573d6000fd5b503d6000f3fea2646970667358221220da00b4df3634dded7cfbe6ef42f91b55e7193b2af12ac3948faf000c2329b1c764736f6c634300080f003360806040526000805473ffffffffffffffffffffffffffffffffffffffff169036908037600080366000845af43d6000803e80603a573d6000fd5b503d6000f3fea2646970667358221220da00b4df3634dded7cfbe6ef42f91b55e7193b2af12ac3948faf000c2329b1c764736f6c634300080f0033a2646970667358221220fbea9252cabaa5bb2688bb73cb5bf89635a5154ef1c37b78af61eedb3a1ecbe264736f6c634300080f0033",
  "devdoc": {
    "errors": {
      "LaserFactory__constructor__invalidSingleton()": [
        {
          "details": "constructor() custom error."
        }
      ],
      "LaserFactory__create2Failed()": [
        {
          "details": "createProxyWithCreate2() custom error."
        }
      ]
    },
    "kind": "dev",
    "methods": {
      "constructor": {
        "params": {
          "_singleton": "Master copy of the proxy."
        }
      },
      "deployProxyAndRefund(address,uint256,uint256,uint256,address,address,bytes,uint256,bytes)": {
        "details": "Creates a new proxy with create 2, initializes the wallet and refunds the relayer (if gas limit is greater than 0).",
        "params": {
          "gasLimit": "The transaction's gas limit. It needs to be the same as the actual transaction gas limit.",
          "maxFeePerGas": "Maximum amount that the user is willing to pay for a unit of gas.",
          "maxPriorityFeePerGas": "Miner's tip.",
          "ownerSignature": "The signatures of the transaction.",
          "relayer": "Address that forwards the transaction so it abstracts away the gas costs."
        }
      },
      "preComputeAddress(address,address,bytes,uint256)": {
        "details": "Precomputes the address of a proxy that is created through 'create2'."
      },
      "proxyCreationCode()": {
        "details": "Allows to retrieve the creation code used for the Proxy deployment. With this it is easily possible to calculate predicted address."
      },
      "proxyRuntimeCode()": {
        "details": "Allows to retrieve the runtime code of a deployed Proxy. This can be used to check that the expected Proxy was deployed."
      }
    },
    "title": "LaserFactory - Factory for creating new Laser proxies and helper methods.",
    "version": 1
  },
  "userdoc": {
    "kind": "user",
    "methods": {
      "deployProxyAndRefund(address,uint256,uint256,uint256,address,address,bytes,uint256,bytes)": {
        "notice": "If 'gasLimit' does not match the actual gas limit of the transaction, the relayer can incur losses. It is the relayer's responsability to make sure that they are the same, the user does not get affected if a mistake is made. We prefer to prioritize the user's safety (not overpay) over the relayer."
      }
    },
    "version": 1
  },
  "storageLayout": {
    "storage": [],
    "types": null
  }
}