{
  "address": "0x9fE46736679d2D9a65F0992F2272dE9f3c7fa6e0",
  "abi": [
    {
      "inputs": [],
      "name": "SSR__initGuardians__underflow",
      "type": "error"
    },
    {
      "inputs": [],
      "name": "SSR__initRecoveryOwners__underflow",
      "type": "error"
    },
    {
      "inputs": [],
      "name": "SSR__onlyWallet__notWallet",
      "type": "error"
    },
    {
      "inputs": [],
      "name": "SSR__removeGuardian__incorrectPreviousGuardian",
      "type": "error"
    },
    {
      "inputs": [],
      "name": "SSR__removeGuardian__invalidAddress",
      "type": "error"
    },
    {
      "inputs": [],
      "name": "SSR__removeGuardian__underflow",
      "type": "error"
    },
    {
      "inputs": [],
      "name": "SSR__removeRecoveryOwner__incorrectPreviousRecoveryOwner",
      "type": "error"
    },
    {
      "inputs": [],
      "name": "SSR__removeRecoveryOwner__invalidAddress",
      "type": "error"
    },
    {
      "inputs": [],
      "name": "SSR__removeRecoveryOwner__underflow",
      "type": "error"
    },
    {
      "inputs": [],
      "name": "SSR__swapGuardian__invalidOldGuardian",
      "type": "error"
    },
    {
      "inputs": [],
      "name": "SSR__swapGuardian__invalidPrevGuardian",
      "type": "error"
    },
    {
      "inputs": [],
      "name": "SSR__swapRecoveryOwner__invalidOldRecoveryOwner",
      "type": "error"
    },
    {
      "inputs": [],
      "name": "SSR__swapRecoveryOwner__invalidPrevRecoveryOwner",
      "type": "error"
    },
    {
      "inputs": [],
      "name": "SSR__verifyNewRecoveryOwnerOrGuardian__invalidAddress",
      "type": "error"
    },
    {
      "inputs": [],
      "name": "Utils__returnSigner__invalidContractSignature",
      "type": "error"
    },
    {
      "inputs": [],
      "name": "Utils__returnSigner__invalidSignature",
      "type": "error"
    },
    {
      "inputs": [],
      "name": "VERSION",
      "outputs": [
        {
          "internalType": "string",
          "name": "",
          "type": "string"
        }
      ],
      "stateMutability": "view",
      "type": "function"
    },
    {
      "inputs": [
        {
          "internalType": "address",
          "name": "wallet",
          "type": "address"
        },
        {
          "internalType": "address",
          "name": "newGuardian",
          "type": "address"
        }
      ],
      "name": "addGuardian",
      "outputs": [],
      "stateMutability": "nonpayable",
      "type": "function"
    },
    {
      "inputs": [
        {
          "internalType": "address",
          "name": "wallet",
          "type": "address"
        },
        {
          "internalType": "address",
          "name": "newRecoveryOwner",
          "type": "address"
        }
      ],
      "name": "addRecoveryOwner",
      "outputs": [],
      "stateMutability": "nonpayable",
      "type": "function"
    },
    {
      "inputs": [],
      "name": "domainSeparator",
      "outputs": [
        {
          "internalType": "bytes32",
          "name": "",
          "type": "bytes32"
        }
      ],
      "stateMutability": "view",
      "type": "function"
    },
    {
      "inputs": [],
      "name": "getChainId",
      "outputs": [
        {
          "internalType": "uint256",
          "name": "chainId",
          "type": "uint256"
        }
      ],
      "stateMutability": "view",
      "type": "function"
    },
    {
      "inputs": [
        {
          "internalType": "address",
          "name": "wallet",
          "type": "address"
        }
      ],
      "name": "getGuardians",
      "outputs": [
        {
          "internalType": "address[]",
          "name": "",
          "type": "address[]"
        }
      ],
      "stateMutability": "view",
      "type": "function"
    },
    {
      "inputs": [
        {
          "internalType": "address",
          "name": "wallet",
          "type": "address"
        }
      ],
      "name": "getRecoveryOwners",
      "outputs": [
        {
          "internalType": "address[]",
          "name": "",
          "type": "address[]"
        }
      ],
      "stateMutability": "view",
      "type": "function"
    },
    {
      "inputs": [
        {
          "internalType": "address[]",
          "name": "_guardians",
          "type": "address[]"
        },
        {
          "internalType": "address[]",
          "name": "_recoveryOwners",
          "type": "address[]"
        }
      ],
      "name": "initSSR",
      "outputs": [],
      "stateMutability": "nonpayable",
      "type": "function"
    },
    {
      "inputs": [
        {
          "internalType": "address",
          "name": "to",
          "type": "address"
        },
        {
          "internalType": "uint256",
          "name": "value",
          "type": "uint256"
        },
        {
          "internalType": "bytes",
          "name": "callData",
          "type": "bytes"
        },
        {
          "internalType": "uint256",
          "name": "_nonce",
          "type": "uint256"
        },
        {
          "internalType": "uint256",
          "name": "maxFeePerGas",
          "type": "uint256"
        },
        {
          "internalType": "uint256",
          "name": "maxPriorityFeePerGas",
          "type": "uint256"
        },
        {
          "internalType": "uint256",
          "name": "gasLimit",
          "type": "uint256"
        }
      ],
      "name": "operationHash",
      "outputs": [
        {
          "internalType": "bytes32",
          "name": "",
          "type": "bytes32"
        }
      ],
      "stateMutability": "view",
      "type": "function"
    },
    {
      "inputs": [
        {
          "internalType": "address",
          "name": "wallet",
          "type": "address"
        },
        {
          "internalType": "address",
          "name": "prevGuardian",
          "type": "address"
        },
        {
          "internalType": "address",
          "name": "guardianToRemove",
          "type": "address"
        }
      ],
      "name": "removeGuardian",
      "outputs": [],
      "stateMutability": "nonpayable",
      "type": "function"
    },
    {
      "inputs": [
        {
          "internalType": "address",
          "name": "wallet",
          "type": "address"
        },
        {
          "internalType": "address",
          "name": "prevRecoveryOwner",
          "type": "address"
        },
        {
          "internalType": "address",
          "name": "recoveryOwnerToRemove",
          "type": "address"
        }
      ],
      "name": "removeRecoveryOwner",
      "outputs": [],
      "stateMutability": "nonpayable",
      "type": "function"
    },
    {
      "inputs": [
        {
          "internalType": "address",
          "name": "wallet",
          "type": "address"
        },
        {
          "internalType": "address",
          "name": "prevGuardian",
          "type": "address"
        },
        {
          "internalType": "address",
          "name": "newGuardian",
          "type": "address"
        },
        {
          "internalType": "address",
          "name": "oldGuardian",
          "type": "address"
        }
      ],
      "name": "swapGuardian",
      "outputs": [],
      "stateMutability": "nonpayable",
      "type": "function"
    },
    {
      "inputs": [
        {
          "internalType": "address",
          "name": "wallet",
          "type": "address"
        },
        {
          "internalType": "address",
          "name": "prevRecoveryOwner",
          "type": "address"
        },
        {
          "internalType": "address",
          "name": "newRecoveryOwner",
          "type": "address"
        },
        {
          "internalType": "address",
          "name": "oldRecoveryOwner",
          "type": "address"
        }
      ],
      "name": "swapRecoveryOwner",
      "outputs": [],
      "stateMutability": "nonpayable",
      "type": "function"
    },
    {
      "inputs": [
        {
          "internalType": "address",
          "name": "wallet",
          "type": "address"
        },
        {
          "internalType": "bytes",
          "name": "callData",
          "type": "bytes"
        },
        {
          "internalType": "uint256",
          "name": "maxFeePerGas",
          "type": "uint256"
        },
        {
          "internalType": "uint256",
          "name": "maxPriorityFeePerGas",
          "type": "uint256"
        },
        {
          "internalType": "uint256",
          "name": "gasLimit",
          "type": "uint256"
        },
        {
          "internalType": "address",
          "name": "relayer",
          "type": "address"
        },
        {
          "internalType": "bytes",
          "name": "signatures",
          "type": "bytes"
        }
      ],
      "name": "unlock",
      "outputs": [],
      "stateMutability": "nonpayable",
      "type": "function"
    }
  ],
  "transactionHash": "0x1b350b161b3456e59106ee5c7e7c61ad2dbf35592b0c940c788d9f72c40e2595",
  "args": [],
  "numDeployments": 1,
  "solcInputHash": "fb9d9338dda6211142149bcbe0a83008",
  "bytecode": "0x608060405234801561001057600080fd5b50611a47806100206000396000f3fe608060405234801561001057600080fd5b50600436106100ea5760003560e01c8063c68452101161008c578063f612c55411610066578063f612c554146101be578063f698da25146101d1578063fc1933681461022b578063ffa1ad741461023e57600080fd5b8063c684521014610178578063e5017d7c1461018b578063f18858ab146101ab57600080fd5b806353185ea3116100c857806353185ea31461012c5780635ceb579b1461013f578063670d046e14610152578063a60bd6491461016557600080fd5b8063201573be146100ef5780633408e470146101045780633c9735ca14610119575b600080fd5b6101026100fd366004611418565b610287565b005b465b6040519081526020015b60405180910390f35b6101026101273660046114d3565b610395565b61010261013a366004611637565b61059a565b61010261014d3660046116a3565b6105b8565b6101066101603660046116ee565b6106f3565b610102610173366004611418565b61071a565b61010261018636600461176d565b610828565b61019e6101993660046117a6565b6108d6565b60405161011091906117ca565b61019e6101b93660046117a6565b6109d4565b6101026101cc36600461176d565b610ac9565b61010660007f47e79534a245952e8b16893a336b85a3d9ea9fa8c573f3d803afb92a794692184660408051602081019390935282015230606082015260800160405160208183030381529060405280519060200120905090565b6101026102393660046116a3565b610b62565b61027a6040518060400160405280600581526020017f312e302e3000000000000000000000000000000000000000000000000000000081525081565b6040516101109190611864565b83336001600160a01b038216146102b157604051632507a10360e21b815260040160405180910390fd5b6102bb8584610c9e565b6001600160a01b038581166000908152600260209081526040808320888516845290915290205481169083161461030557604051632e3f629360e01b815260040160405180910390fd5b6000196001600160a01b0383160161033057604051631e07136760e11b815260040160405180910390fd5b506001600160a01b03938416600090815260026020908152604080832093871680845293909152808220805494871680845282842080549689166001600160a01b03199788161790559590961682528120805484169094179093559091528154169055565b336001600160a01b038916146103aa57600080fd5b6000886001600160a01b031663affed0e06040518163ffffffff1660e01b8152600401602060405180830381865afa1580156103ea573d6000803e3d6000fd5b505050506040513d601f19601f8201168201806040525081019061040e9190611877565b9050600061042c8a828b8b6104248760016118a6565b8c8c8c610e4c565b80519060200120905060008a6001600160a01b0316638da5cb5b6040518163ffffffff1660e01b8152600401602060405180830381865afa158015610475573d6000803e3d6000fd5b505050506040513d601f19601f8201168201806040525081019061049991906118be565b90506001600160a01b0381166104ae57600080fd5b60006104bc83866000610fb5565b9050816001600160a01b0316816001600160a01b0316146104dc57600080fd5b60006104ea84876000610fb5565b6001600160a01b038e8116600090815260036020908152604080832084861684529091529020549192501661051e57600080fd5b8c6001600160a01b03166323d43c168e60008f8f8f8f8f8f6040518963ffffffff1660e01b81526004016105599897969594939291906118db565b600060405180830381600087803b15801561057357600080fd5b505af1158015610587573d6000803e3d6000fd5b5050505050505050505050505050505050565b336105a681868661120d565b6105b1818484611307565b5050505050565b82336001600160a01b038216146105e257604051632507a10360e21b815260040160405180910390fd5b6001600160a01b0384166000908152602081905260409020546002111561061c5760405163dfc8891760e01b815260040160405180910390fd5b6000196001600160a01b038316016106475760405163213cf76760e21b815260040160405180910390fd5b6001600160a01b03848116600090815260026020908152604080832087851684529091529020548116908316146106915760405163763de2e960e11b815260040160405180910390fd5b506001600160a01b0392831660008181526002602090815260408083209487168352938152838220805495871683528483208054969097166001600160a01b031996871617909655855490941690945583529082905290208054600019019055565b60006107058989898989898989610e4c565b80519060200120905098975050505050505050565b83336001600160a01b0382161461074457604051632507a10360e21b815260040160405180910390fd5b61074e8584610c9e565b6001600160a01b0385811660009081526003602090815260408083208885168452909152902054811690831614610798576040516371331bbf60e11b815260040160405180910390fd5b6000196001600160a01b038316016107c3576040516337d7d27160e11b815260040160405180910390fd5b506001600160a01b03938416600090815260036020908152604080832093871680845293909152808220805494871680845282842080549689166001600160a01b03199788161790559590961682528120805484169094179093559091528154169055565b81336001600160a01b0382161461085257604051632507a10360e21b815260040160405180910390fd5b6001600160a01b038316331461086757600080fd5b6108718383610c9e565b506001600160a01b039182166000818152600360209081526040808320600180855290835281842080549688168086528386208054989099166001600160a01b0319988916179098558054909616909617909455918152908390522080549091019055565b6001600160a01b0381166000908152602081905260408120546060919067ffffffffffffffff81111561090b5761090b6114bd565b604051908082528060200260200182016040528015610934578160200160208202803683370190505b506001600160a01b038085166000908152600260209081526040808320600184529091528120549293509116905b6001600160a01b0382166001146109cb578183828151811061098657610986611943565b6001600160a01b039283166020918202929092018101919091528682166000908152600282526040808220958416825294909152929092205490911690600101610962565b50909392505050565b6001600160a01b0381166000908152600160205260408120546060919067ffffffffffffffff811115610a0957610a096114bd565b604051908082528060200260200182016040528015610a32578160200160208202803683370190505b506001600160a01b038085166000908152600360209081526040808320600184529091528120549293509116905b6001600160a01b0382166001146109cb5781838281518110610a8457610a84611943565b6001600160a01b039283166020918202929092018101919091528682166000908152600382526040808220958416825294909152929092205490911690600101610a60565b81336001600160a01b03821614610af357604051632507a10360e21b815260040160405180910390fd5b610afd8383610c9e565b506001600160a01b039182166000818152600260209081526040808320600180855290835281842080549688168086528386208054989099166001600160a01b0319988916179098558054909616909617909455918152908190522080549091019055565b82336001600160a01b03821614610b8c57604051632507a10360e21b815260040160405180910390fd5b6001600160a01b03841660009081526001602052604090205460021115610bc65760405163342a2dc560e21b815260040160405180910390fd5b6000196001600160a01b03831601610bf1576040516302f412b360e21b815260040160405180910390fd5b6001600160a01b0384811660009081526003602090815260408083208785168452909152902054811690831614610c3b5760405163475347b160e11b815260040160405180910390fd5b506001600160a01b0392831660008181526003602090815260408083209487168352938152838220805495871683528483208054969097166001600160a01b03199687161790965585549094169094558352600190915290208054600019019055565b6000826001600160a01b0316638da5cb5b6040518163ffffffff1660e01b8152600401602060405180830381865afa158015610cde573d6000803e3d6000fd5b505050506040513d601f19601f82011682018060405250810190610d0291906118be565b90506001600160a01b0382163b15610da0576040516301ffc9a760e01b8152630b135d3f60e11b60048201526001600160a01b038316906301ffc9a790602401602060405180830381865afa158015610d5f573d6000803e3d6000fd5b505050506040513d601f19601f82011682018060405250810190610d839190611959565b610da057604051633da224f960e11b815260040160405180910390fd5b6001600160a01b0382161580610dc75750806001600160a01b0316826001600160a01b0316145b80610df857506001600160a01b03838116600090815260036020908152604080832086851684529091529020541615155b80610e2957506001600160a01b03838116600090815260026020908152604080832086851684529091529020541615155b15610e4757604051633da224f960e11b815260040160405180910390fd5b505050565b606060007f4c23aa2497696888af245e4eb8d524e7d4cc862b760e1c988678274066ffff8b8a8a8a8a604051610e8392919061197b565b6040805191829003822060208301959095526001600160a01b03909316928101929092526060820152608081019190915260a0810187905260c0810186905260e0810185905261010081018490526101200160408051601f1981840301815291905280516020909101209050601960f81b600160f81b610f5360007f47e79534a245952e8b16893a336b85a3d9ea9fa8c573f3d803afb92a794692184660408051602081019390935282015230606082015260800160405160208183030381529060405280519060200120905090565b6040517fff00000000000000000000000000000000000000000000000000000000000000938416602082015292909116602183015260228201526042810182905260620160405160208183030381529060405291505098975050505050505050565b600080600080610fdf86866041020160208101516040820151606090920151909260009190911a90565b9194509250905060ff81166000036110b757604051630b135d3f60e11b81529293508392868301602001906001600160a01b03851690631626ba7e9061102b908b90859060040161198b565b602060405180830381865afa158015611048573d6000803e3d6000fd5b505050506040513d601f19601f8201168201806040525081019061106c91906119ac565b7bffffffffffffffffffffffffffffffffffffffffffffffffffffffff1916631626ba7e60e01b146110b1576040516340aec60f60e11b815260040160405180910390fd5b506111dc565b601e8160ff16111561117c576040517f19457468657265756d205369676e6564204d6573736167653a0a3332000000006020820152603c8101889052600190605c016040516020818303038152906040528051906020012060048361111c91906119ee565b6040805160008152602081018083529390935260ff90911690820152606081018590526080810184905260a0016020604051602081039080840390855afa15801561116b573d6000803e3d6000fd5b5050506020604051035193506111dc565b60408051600081526020810180835289905260ff831691810191909152606081018490526080810183905260019060a0016020604051602081039080840390855afa1580156111cf573d6000803e3d6000fd5b5050506020604051035193505b6001600160a01b0384166112035760405163b9bf1d7d60e01b815260040160405180910390fd5b5050509392505050565b80600181101561123057604051630d2aa0bf60e11b815260040160405180910390fd5b600160005b828110156112b957600085858381811061125157611251611943565b905060200201602081019061126691906117a6565b6001600160a01b03888116600090815260036020908152604080832097841683529690529490942080546001600160a01b0319169482169490941790935550816112b08782610c9e565b50600101611235565b506001600160a01b03948516600081815260036020908152604080832094909816825292835286812080546001600160a01b0319166001908117909155918152915293909320929092555050565b80600181101561132a576040516354f4eccd60e11b815260040160405180910390fd5b600160005b828110156113b357600085858381811061134b5761134b611943565b905060200201602081019061136091906117a6565b6001600160a01b03888116600090815260026020908152604080832097841683529690529490942080546001600160a01b0319169482169490941790935550816113aa8782610c9e565b5060010161132f565b506001600160a01b03948516600081815260026020908152604080832094909816825292835286812080546001600160a01b03191660011790559081529081905293909320929092555050565b6001600160a01b038116811461141557600080fd5b50565b6000806000806080858703121561142e57600080fd5b843561143981611400565b9350602085013561144981611400565b9250604085013561145981611400565b9150606085013561146981611400565b939692955090935050565b60008083601f84011261148657600080fd5b50813567ffffffffffffffff81111561149e57600080fd5b6020830191508360208285010111156114b657600080fd5b9250929050565b634e487b7160e01b600052604160045260246000fd5b60008060008060008060008060e0898b0312156114ef57600080fd5b88356114fa81611400565b9750602089013567ffffffffffffffff8082111561151757600080fd5b6115238c838d01611474565b909950975060408b0135965060608b0135955060808b0135945060a08b0135915061154d82611400565b90925060c08a0135908082111561156357600080fd5b818b0191508b601f83011261157757600080fd5b813581811115611589576115896114bd565b604051601f8201601f19908116603f011681019083821181831017156115b1576115b16114bd565b816040528281528e60208487010111156115ca57600080fd5b8260208601602083013760006020848301015280955050505050509295985092959890939650565b60008083601f84011261160457600080fd5b50813567ffffffffffffffff81111561161c57600080fd5b6020830191508360208260051b85010111156114b657600080fd5b6000806000806040858703121561164d57600080fd5b843567ffffffffffffffff8082111561166557600080fd5b611671888389016115f2565b9096509450602087013591508082111561168a57600080fd5b50611697878288016115f2565b95989497509550505050565b6000806000606084860312156116b857600080fd5b83356116c381611400565b925060208401356116d381611400565b915060408401356116e381611400565b809150509250925092565b60008060008060008060008060e0898b03121561170a57600080fd5b883561171581611400565b975060208901359650604089013567ffffffffffffffff81111561173857600080fd5b6117448b828c01611474565b999c989b50996060810135986080820135985060a0820135975060c09091013595509350505050565b6000806040838503121561178057600080fd5b823561178b81611400565b9150602083013561179b81611400565b809150509250929050565b6000602082840312156117b857600080fd5b81356117c381611400565b9392505050565b6020808252825182820181905260009190848201906040850190845b8181101561180b5783516001600160a01b0316835292840192918401916001016117e6565b50909695505050505050565b6000815180845260005b8181101561183d57602081850181015186830182015201611821565b8181111561184f576000602083870101525b50601f01601f19169290920160200192915050565b6020815260006117c36020830184611817565b60006020828403121561188957600080fd5b5051919050565b634e487b7160e01b600052601160045260246000fd5b600082198211156118b9576118b9611890565b500190565b6000602082840312156118d057600080fd5b81516117c381611400565b60006001600160a01b03808b16835289602084015260e060408401528760e0840152610100888a828601376000848a01820152606084019790975260808301959095525060a081019290925290911660c0820152601f909201601f1916909101019392505050565b634e487b7160e01b600052603260045260246000fd5b60006020828403121561196b57600080fd5b815180151581146117c357600080fd5b8183823760009101908152919050565b8281526040602082015260006119a46040830184611817565b949350505050565b6000602082840312156119be57600080fd5b81517fffffffff00000000000000000000000000000000000000000000000000000000811681146117c357600080fd5b600060ff821660ff841680821015611a0857611a08611890565b9003939250505056fea26469706673582212202fc770dadd61711765271cd784baa273a056ff232c4de1650ae1ca27e230ff1e64736f6c634300080f0033",
  "devdoc": {
    "details": "Implementation of Smart Social Recovery.",
    "errors": {
      "SSR__removeGuardian__underflow()": [
        {
          "details": "removeGuardian() custom errors."
        }
      ],
      "SSR__removeRecoveryOwner__underflow()": [
        {
          "details": "removeRecoveryOwner() custom errors."
        }
      ],
      "SSR__swapGuardian__invalidPrevGuardian()": [
        {
          "details": "swapGuardian() custom errors."
        }
      ],
      "SSR__swapRecoveryOwner__invalidPrevRecoveryOwner()": [
        {
          "details": "swapRecoveryOwner() custom errors."
        }
      ]
    },
    "kind": "dev",
    "methods": {
      "getChainId()": {
        "returns": {
          "chainId": "The chain id of this."
        }
      },
      "initSSR(address[],address[])": {
        "details": "Inits the module."
      },
      "unlock(address,bytes,uint256,uint256,uint256,address,bytes)": {
        "details": "Unlocks the target wallet."
      }
    },
    "version": 1
  },
  "userdoc": {
    "kind": "user",
    "methods": {
      "unlock(address,bytes,uint256,uint256,uint256,address,bytes)": {
        "notice": "Can only be called with the signature of the wallet's owner + a guardian."
      }
    },
    "version": 1
  },
  "storageLayout": {
    "storage": [
      {
        "astId": 1243,
        "contract": "contracts/modules/laser-modules/LaserModuleSSR.sol:LaserModuleSSR",
        "label": "recoveryOwnerCount",
        "offset": 0,
        "slot": "0",
        "type": "t_mapping(t_address,t_uint256)"
      },
      {
        "astId": 1247,
        "contract": "contracts/modules/laser-modules/LaserModuleSSR.sol:LaserModuleSSR",
        "label": "guardianCount",
        "offset": 0,
        "slot": "1",
        "type": "t_mapping(t_address,t_uint256)"
      },
      {
        "astId": 1253,
        "contract": "contracts/modules/laser-modules/LaserModuleSSR.sol:LaserModuleSSR",
        "label": "recoveryOwners",
        "offset": 0,
        "slot": "2",
        "type": "t_mapping(t_address,t_mapping(t_address,t_address))"
      },
      {
        "astId": 1259,
        "contract": "contracts/modules/laser-modules/LaserModuleSSR.sol:LaserModuleSSR",
        "label": "guardians",
        "offset": 0,
        "slot": "3",
        "type": "t_mapping(t_address,t_mapping(t_address,t_address))"
      }
    ],
    "types": {
      "t_address": {
        "encoding": "inplace",
        "label": "address",
        "numberOfBytes": "20"
      },
      "t_mapping(t_address,t_address)": {
        "encoding": "mapping",
        "key": "t_address",
        "label": "mapping(address => address)",
        "numberOfBytes": "32",
        "value": "t_address"
      },
      "t_mapping(t_address,t_mapping(t_address,t_address))": {
        "encoding": "mapping",
        "key": "t_address",
        "label": "mapping(address => mapping(address => address))",
        "numberOfBytes": "32",
        "value": "t_mapping(t_address,t_address)"
      },
      "t_mapping(t_address,t_uint256)": {
        "encoding": "mapping",
        "key": "t_address",
        "label": "mapping(address => uint256)",
        "numberOfBytes": "32",
        "value": "t_uint256"
      },
      "t_uint256": {
        "encoding": "inplace",
        "label": "uint256",
        "numberOfBytes": "32"
      }
    }
  }
}