{
  "address": "0xe7f1725E7734CE288F8367e1Bb143E90bb3F0512",
  "abi": [
    {
      "inputs": [],
      "stateMutability": "nonpayable",
      "type": "constructor"
    },
    {
      "inputs": [],
      "name": "Access__notAllowed",
      "type": "error"
    },
    {
      "inputs": [],
      "name": "LW__exec__invalidNonce",
      "type": "error"
    },
    {
      "inputs": [],
      "name": "LW__exec__notOwner",
      "type": "error"
    },
    {
      "inputs": [],
      "name": "LW__exec__refundFailure",
      "type": "error"
    },
    {
      "inputs": [],
      "name": "LW__exec__walletLocked",
      "type": "error"
    },
    {
      "inputs": [],
      "name": "LW__init__notOwner",
      "type": "error"
    },
    {
      "inputs": [],
      "name": "LW__init__refundFailure",
      "type": "error"
    },
    {
      "inputs": [],
      "name": "LaserState__initOwner__addressWithCode",
      "type": "error"
    },
    {
      "inputs": [],
      "name": "LaserState__initOwner__walletInitialized",
      "type": "error"
    },
    {
      "inputs": [],
      "name": "LaserState__upgradeSingleton__notLaser",
      "type": "error"
    },
    {
      "inputs": [],
      "name": "LaserWallet__invalidSignature",
      "type": "error"
    },
    {
      "inputs": [],
      "name": "Utils__returnSigner__invalidContractSignature",
      "type": "error"
    },
    {
      "inputs": [],
      "name": "Utils__returnSigner__invalidSignature",
      "type": "error"
    },
    {
      "anonymous": false,
      "inputs": [
        {
          "indexed": false,
          "internalType": "address",
          "name": "to",
          "type": "address"
        },
        {
          "indexed": false,
          "internalType": "uint256",
          "name": "value",
          "type": "uint256"
        },
        {
          "indexed": false,
          "internalType": "uint256",
          "name": "nonce",
          "type": "uint256"
        }
      ],
      "name": "ExecFailure",
      "type": "event"
    },
    {
      "anonymous": false,
      "inputs": [
        {
          "indexed": false,
          "internalType": "address",
          "name": "to",
          "type": "address"
        },
        {
          "indexed": false,
          "internalType": "uint256",
          "name": "value",
          "type": "uint256"
        },
        {
          "indexed": false,
          "internalType": "uint256",
          "name": "nonce",
          "type": "uint256"
        }
      ],
      "name": "ExecSuccess",
      "type": "event"
    },
    {
      "anonymous": false,
      "inputs": [
        {
          "indexed": true,
          "internalType": "address",
          "name": "sender",
          "type": "address"
        },
        {
          "indexed": false,
          "internalType": "uint256",
          "name": "amount",
          "type": "uint256"
        }
      ],
      "name": "Received",
      "type": "event"
    },
    {
      "anonymous": false,
      "inputs": [
        {
          "indexed": false,
          "internalType": "address",
          "name": "owner",
          "type": "address"
        },
        {
          "indexed": false,
          "internalType": "address",
          "name": "laserModule",
          "type": "address"
        }
      ],
      "name": "Setup",
      "type": "event"
    },
    {
      "inputs": [],
      "name": "VERSION",
      "outputs": [
        {
          "internalType": "string",
          "name": "",
          "type": "string"
        }
      ],
      "stateMutability": "view",
      "type": "function"
    },
    {
      "inputs": [
        {
          "internalType": "address",
          "name": "newModule",
          "type": "address"
        }
      ],
      "name": "addLaserModule",
      "outputs": [],
      "stateMutability": "nonpayable",
      "type": "function"
    },
    {
      "inputs": [
        {
          "internalType": "address",
          "name": "newLaserGuard",
          "type": "address"
        }
      ],
      "name": "changeLaserGuard",
      "outputs": [],
      "stateMutability": "nonpayable",
      "type": "function"
    },
    {
      "inputs": [
        {
          "internalType": "address",
          "name": "newOwner",
          "type": "address"
        }
      ],
      "name": "changeOwner",
      "outputs": [],
      "stateMutability": "nonpayable",
      "type": "function"
    },
    {
      "inputs": [],
      "name": "domainSeparator",
      "outputs": [
        {
          "internalType": "bytes32",
          "name": "",
          "type": "bytes32"
        }
      ],
      "stateMutability": "view",
      "type": "function"
    },
    {
      "inputs": [
        {
          "internalType": "address",
          "name": "to",
          "type": "address"
        },
        {
          "internalType": "uint256",
          "name": "value",
          "type": "uint256"
        },
        {
          "internalType": "bytes",
          "name": "callData",
          "type": "bytes"
        },
        {
          "internalType": "uint256",
          "name": "_nonce",
          "type": "uint256"
        },
        {
          "internalType": "uint256",
          "name": "maxFeePerGas",
          "type": "uint256"
        },
        {
          "internalType": "uint256",
          "name": "maxPriorityFeePerGas",
          "type": "uint256"
        },
        {
          "internalType": "uint256",
          "name": "gasLimit",
          "type": "uint256"
        },
        {
          "internalType": "address",
          "name": "relayer",
          "type": "address"
        },
        {
          "internalType": "bytes",
          "name": "ownerSignature",
          "type": "bytes"
        }
      ],
      "name": "exec",
      "outputs": [],
      "stateMutability": "nonpayable",
      "type": "function"
    },
    {
      "inputs": [
        {
          "internalType": "address",
          "name": "to",
          "type": "address"
        },
        {
          "internalType": "uint256",
          "name": "value",
          "type": "uint256"
        },
        {
          "internalType": "bytes",
          "name": "callData",
          "type": "bytes"
        },
        {
          "internalType": "uint256",
          "name": "maxFeePerGas",
          "type": "uint256"
        },
        {
          "internalType": "uint256",
          "name": "maxPriorityFeePerGas",
          "type": "uint256"
        },
        {
          "internalType": "uint256",
          "name": "gasLimit",
          "type": "uint256"
        },
        {
          "internalType": "address",
          "name": "relayer",
          "type": "address"
        }
      ],
      "name": "execFromModule",
      "outputs": [],
      "stateMutability": "nonpayable",
      "type": "function"
    },
    {
      "inputs": [],
      "name": "getChainId",
      "outputs": [
        {
          "internalType": "uint256",
          "name": "chainId",
          "type": "uint256"
        }
      ],
      "stateMutability": "view",
      "type": "function"
    },
    {
      "inputs": [
        {
          "internalType": "address",
          "name": "_owner",
          "type": "address"
        },
        {
          "internalType": "uint256",
          "name": "maxFeePerGas",
          "type": "uint256"
        },
        {
          "internalType": "uint256",
          "name": "maxPriorityFeePerGas",
          "type": "uint256"
        },
        {
          "internalType": "uint256",
          "name": "gasLimit",
          "type": "uint256"
        },
        {
          "internalType": "address",
          "name": "relayer",
          "type": "address"
        },
        {
          "internalType": "address",
          "name": "laserModule",
          "type": "address"
        },
        {
          "internalType": "bytes",
          "name": "laserModuleData",
          "type": "bytes"
        },
        {
          "internalType": "bytes",
          "name": "ownerSignature",
          "type": "bytes"
        }
      ],
      "name": "init",
      "outputs": [],
      "stateMutability": "nonpayable",
      "type": "function"
    },
    {
      "inputs": [],
      "name": "isLocked",
      "outputs": [
        {
          "internalType": "bool",
          "name": "",
          "type": "bool"
        }
      ],
      "stateMutability": "view",
      "type": "function"
    },
    {
      "inputs": [
        {
          "internalType": "bytes32",
          "name": "hash",
          "type": "bytes32"
        },
        {
          "internalType": "bytes",
          "name": "signature",
          "type": "bytes"
        }
      ],
      "name": "isValidSignature",
      "outputs": [
        {
          "internalType": "bytes4",
          "name": "",
          "type": "bytes4"
        }
      ],
      "stateMutability": "view",
      "type": "function"
    },
    {
      "inputs": [],
      "name": "laserGuard",
      "outputs": [
        {
          "internalType": "address",
          "name": "",
          "type": "address"
        }
      ],
      "stateMutability": "view",
      "type": "function"
    },
    {
      "inputs": [],
      "name": "lock",
      "outputs": [],
      "stateMutability": "nonpayable",
      "type": "function"
    },
    {
      "inputs": [],
      "name": "nonce",
      "outputs": [
        {
          "internalType": "uint256",
          "name": "",
          "type": "uint256"
        }
      ],
      "stateMutability": "view",
      "type": "function"
    },
    {
      "inputs": [
        {
          "internalType": "address",
          "name": "",
          "type": "address"
        },
        {
          "internalType": "address",
          "name": "",
          "type": "address"
        },
        {
          "internalType": "uint256[]",
          "name": "",
          "type": "uint256[]"
        },
        {
          "internalType": "uint256[]",
          "name": "",
          "type": "uint256[]"
        },
        {
          "internalType": "bytes",
          "name": "",
          "type": "bytes"
        }
      ],
      "name": "onERC1155BatchReceived",
      "outputs": [
        {
          "internalType": "bytes4",
          "name": "result",
          "type": "bytes4"
        }
      ],
      "stateMutability": "pure",
      "type": "function"
    },
    {
      "inputs": [
        {
          "internalType": "address",
          "name": "",
          "type": "address"
        },
        {
          "internalType": "address",
          "name": "",
          "type": "address"
        },
        {
          "internalType": "uint256",
          "name": "",
          "type": "uint256"
        },
        {
          "internalType": "uint256",
          "name": "",
          "type": "uint256"
        },
        {
          "internalType": "bytes",
          "name": "",
          "type": "bytes"
        }
      ],
      "name": "onERC1155Received",
      "outputs": [
        {
          "internalType": "bytes4",
          "name": "",
          "type": "bytes4"
        }
      ],
      "stateMutability": "pure",
      "type": "function"
    },
    {
      "inputs": [
        {
          "internalType": "address",
          "name": "",
          "type": "address"
        },
        {
          "internalType": "address",
          "name": "",
          "type": "address"
        },
        {
          "internalType": "uint256",
          "name": "",
          "type": "uint256"
        },
        {
          "internalType": "bytes",
          "name": "",
          "type": "bytes"
        }
      ],
      "name": "onERC721Received",
      "outputs": [
        {
          "internalType": "bytes4",
          "name": "",
          "type": "bytes4"
        }
      ],
      "stateMutability": "pure",
      "type": "function"
    },
    {
      "inputs": [
        {
          "internalType": "address",
          "name": "to",
          "type": "address"
        },
        {
          "internalType": "uint256",
          "name": "value",
          "type": "uint256"
        },
        {
          "internalType": "bytes",
          "name": "callData",
          "type": "bytes"
        },
        {
          "internalType": "uint256",
          "name": "_nonce",
          "type": "uint256"
        },
        {
          "internalType": "uint256",
          "name": "maxFeePerGas",
          "type": "uint256"
        },
        {
          "internalType": "uint256",
          "name": "maxPriorityFeePerGas",
          "type": "uint256"
        },
        {
          "internalType": "uint256",
          "name": "gasLimit",
          "type": "uint256"
        }
      ],
      "name": "operationHash",
      "outputs": [
        {
          "internalType": "bytes32",
          "name": "",
          "type": "bytes32"
        }
      ],
      "stateMutability": "view",
      "type": "function"
    },
    {
      "inputs": [],
      "name": "owner",
      "outputs": [
        {
          "internalType": "address",
          "name": "",
          "type": "address"
        }
      ],
      "stateMutability": "view",
      "type": "function"
    },
    {
      "inputs": [],
      "name": "singleton",
      "outputs": [
        {
          "internalType": "address",
          "name": "",
          "type": "address"
        }
      ],
      "stateMutability": "view",
      "type": "function"
    },
    {
      "inputs": [
        {
          "internalType": "bytes4",
          "name": "_interfaceId",
          "type": "bytes4"
        }
      ],
      "name": "supportsInterface",
      "outputs": [
        {
          "internalType": "bool",
          "name": "",
          "type": "bool"
        }
      ],
      "stateMutability": "pure",
      "type": "function"
    },
    {
      "inputs": [
        {
          "internalType": "address",
          "name": "",
          "type": "address"
        },
        {
          "internalType": "address",
          "name": "",
          "type": "address"
        },
        {
          "internalType": "address",
          "name": "",
          "type": "address"
        },
        {
          "internalType": "uint256",
          "name": "",
          "type": "uint256"
        },
        {
          "internalType": "bytes",
          "name": "",
          "type": "bytes"
        },
        {
          "internalType": "bytes",
          "name": "",
          "type": "bytes"
        }
      ],
      "name": "tokensReceived",
      "outputs": [],
      "stateMutability": "pure",
      "type": "function"
    },
    {
      "inputs": [],
      "name": "unlock",
      "outputs": [],
      "stateMutability": "nonpayable",
      "type": "function"
    },
    {
      "inputs": [
        {
          "internalType": "address",
          "name": "_singleton",
          "type": "address"
        }
      ],
      "name": "upgradeSingleton",
      "outputs": [],
      "stateMutability": "nonpayable",
      "type": "function"
    },
    {
      "stateMutability": "payable",
      "type": "receive"
    }
  ],
  "transactionHash": "0x0a52cc4691656aa4bca45c36dc202f349b91e5a16ff15d435b06442022642242",
  "args": [],
  "numDeployments": 1,
  "solcInputHash": "fb9d9338dda6211142149bcbe0a83008",
  "bytecode": "0x608060405234801561001057600080fd5b50600180546001600160a01b03191630179055611bbb806100326000396000f3fe60806040526004361061018e5760003560e01c8063a4e2d634116100d6578063cf6dd3261161007f578063f698da2511610059578063f698da2514610498578063f83d08ba146104ff578063ffa1ad741461051457600080fd5b8063cf6dd3261461042b578063ec8876101461044b578063f23a6e611461046b57600080fd5b8063affed0e0116100b0578063affed0e0146103c6578063b62654fb146103dc578063bc197c81146103fc57600080fd5b8063a4e2d63414610370578063a69df4b514610391578063a6f9dae1146103a657600080fd5b80631626ba7e11610138578063670d046e11610112578063670d046e14610310578063816e1067146103305780638da5cb5b1461035057600080fd5b80631626ba7e146102b357806323d43c16146102d35780633408e470146102f357600080fd5b80630f76e264116101695780630f76e2641461021657806310e888921461024e578063150b7a021461026e57600080fd5b806223de291461019a57806301ffc9a7146101c1578063022ba302146101f657600080fd5b3661019557005b600080fd5b3480156101a657600080fd5b506101bf6101b53660046113e7565b5050505050505050565b005b3480156101cd57600080fd5b506101e16101dc3660046114ab565b61056a565b60405190151581526020015b60405180910390f35b34801561020257600080fd5b506101bf6102113660046114c8565b61060d565b34801561022257600080fd5b50600254610236906001600160a01b031681565b6040516001600160a01b0390911681526020016101ed565b34801561025a57600080fd5b506101bf6102693660046114c8565b610690565b34801561027a57600080fd5b5061029a6102893660046114e3565b630a85bd0160e11b95945050505050565b6040516001600160e01b031990911681526020016101ed565b3480156102bf57600080fd5b5061029a6102ce366004611568565b61075e565b3480156102df57600080fd5b506101bf6102ee366004611623565b6107dd565b3480156102ff57600080fd5b50465b6040519081526020016101ed565b34801561031c57600080fd5b5061030261032b3660046116ad565b6108b9565b34801561033c57600080fd5b506101bf61034b36600461172a565b6108e0565b34801561035c57600080fd5b50600154610236906001600160a01b031681565b34801561037c57600080fd5b506002546101e190600160a01b900460ff1681565b34801561039d57600080fd5b506101bf610c1c565b3480156103b257600080fd5b506101bf6103c13660046114c8565b610c4b565b3480156103d257600080fd5b5061030260035481565b3480156103e857600080fd5b50600054610236906001600160a01b031681565b34801561040857600080fd5b5061029a610417366004611838565b63bc197c8160e01b98975050505050505050565b34801561043757600080fd5b506101bf6104463660046114c8565b610c8d565b34801561045757600080fd5b506101bf6104663660046118d2565b610ccf565b34801561047757600080fd5b5061029a610486366004611994565b63f23a6e6160e01b9695505050505050565b3480156104a457600080fd5b5061030260007f47e79534a245952e8b16893a336b85a3d9ea9fa8c573f3d803afb92a794692184660408051602081019390935282015230606082015260800160405160208183030381529060405280519060200120905090565b34801561050b57600080fd5b506101bf610e3c565b34801561052057600080fd5b5061055d6040518060400160405280600581526020017f312e302e3000000000000000000000000000000000000000000000000000000081525081565b6040516101ed9190611a59565b60006301ffc9a760e01b6001600160e01b03198316148061059b5750630b135d3f60e11b6001600160e01b03198316145b806105b65750636cdb3d1360e11b6001600160e01b03198316145b806105d15750630271189760e51b6001600160e01b03198316145b806105ec575063ae029e0b60e01b6001600160e01b03198316145b806106075750630a85bd0160e11b6001600160e01b03198316145b92915050565b33301461062d5760405163bc8bd71160e01b815260040160405180910390fd5b60046020527fabd6e7cb50984ff9c2f3e18a2660c3353dadf4e3291deeb275dae2cd1e44fe0580546001600160a01b039283166000818152604081208054959093166001600160a01b031995861617909255600190915281549092169091179055565b3330146106b05760405163bc8bd71160e01b815260040160405180910390fd5b6040516301ffc9a760e01b815263ae029e0b60e01b60048201526001600160a01b038216906301ffc9a790602401602060405180830381865afa1580156106fb573d6000803e3d6000fd5b505050506040513d601f19601f8201168201806040525081019061071f9190611a6c565b61073c57604051631f66d5cf60e31b815260040160405180910390fd5b600080546001600160a01b0319166001600160a01b0392909216919091179055565b60008061076d84846000610e71565b6001549091506001600160a01b0380831691161415806107965750600254600160a01b900460ff165b156107b4576040516325dc3e7760e21b815260040160405180910390fd5b507f1626ba7e356f5979dd355a3d2bfb43e80420a480c3b854edce286a82d74968699392505050565b336000908152600460205260409020546001600160a01b03166108465760405162461bcd60e51b815260206004820152600a60248201527f6e6f70206d6f64756c6500000000000000000000000000000000000000000000604482015260640160405180910390fd5b600380546001019055604080516020601f88018190048102820181019092528681526000916108a2918b918b91908b908b9081908401838280828437600092019190915250612710925050505a61089d9190611aa4565b6110c9565b9050806108ae57600080fd5b505050505050505050565b60006108cb89898989898989896110e1565b80519060200120905098975050505050505050565b6003805460018101909155871461090a57604051636f4f3db760e11b815260040160405180910390fd5b600254600160a01b900460ff161561093557604051632e28c77b60e21b815260040160405180910390fd5b60006109478c8c8c8c8c8c8c8c6110e1565b80519060200120905060006109928285858080601f01602080910402602001604051908101604052809392919081815260200183838082843760009201829052509250610e71915050565b6001549091506001600160a01b038083169116146109c357604051630168785160e01b815260040160405180910390fd5b6000610a0f8e8e8e8e8080601f016020809104026020016040519081016040528093929190818152602001838380828437600092019190915250612710925050505a61089d9190611aa4565b90508015610a75577f1575d4076918636381fe626ba9076459080815fb43c05c127c6e6b0370d62f4a8e8e600354604051610a68939291906001600160a01b039390931683526020830191909152604082015260600190565b60405180910390a1610acf565b7f84a65ac305e8f45f7974e75262e5da051587352d6dcb4719702dd02a8b5038308e8e600354604051610ac6939291906001600160a01b039390931683526020830191909152604082015260600190565b60405180910390a15b6002546001600160a01b031615610b6357600260009054906101000a90046001600160a01b03166001600160a01b031663d96b22088f6040518263ffffffff1660e01b8152600401610b3091906001600160a01b0391909116815260200190565b600060405180830381600087803b158015610b4a57600080fd5b505af1158015610b5e573d6000803e3d6000fd5b505050505b6000610b6f8a3a61124a565b905060005a610b7e908a611aa4565b610b8a90611b58611abb565b90506000610b988383611ad3565b9050610be96001600160a01b038a1615610bb25789610bb4565b325b8260005b6040519080825280601f01601f191660200182016040528015610be2576020820181803683370190505b505a6110c9565b935083610c09576040516303c62d8160e41b815260040160405180910390fd5b5050505050505050505050505050505050565b333014610c3c5760405163bc8bd71160e01b815260040160405180910390fd5b6002805460ff60a01b19169055565b333014610c6b5760405163bc8bd71160e01b815260040160405180910390fd5b600180546001600160a01b0319166001600160a01b0392909216919091179055565b333014610cad5760405163bc8bd71160e01b815260040160405180910390fd5b600280546001600160a01b0319166001600160a01b0392909216919091179055565b610cdb8a86868661125d565b60408051602081018b90529081018990526060810188905246608082015260009060a0016040516020818303038152906040528051906020012090506000610d598285858080601f01602080910402602001604051908101604052809392919081815260200183838082843760009201829052509250610e71915050565b90508b6001600160a01b0316816001600160a01b031614610d8d57604051637b0dd98160e01b815260040160405180910390fd5b8815610e2e576000610d9f8c3a61124a565b9050610c80610db08b610c4e611ad3565b610dba9190611af2565b995060005a610dc9908c611aa4565b610dd590611f40611abb565b90506000610de38383611ad3565b90506000610e096001600160a01b038d1615610dff578c610e01565b325b836000610bb8565b905080610e295760405163230f54c560e01b815260040160405180910390fd5b505050505b505050505050505050505050565b333014610e5c5760405163bc8bd71160e01b815260040160405180910390fd5b6002805460ff60a01b1916600160a01b179055565b600080600080610e9b86866041020160208101516040820151606090920151909260009190911a90565b9194509250905060ff8116600003610f7357604051630b135d3f60e11b81529293508392868301602001906001600160a01b03851690631626ba7e90610ee7908b908590600401611b14565b602060405180830381865afa158015610f04573d6000803e3d6000fd5b505050506040513d601f19601f82011682018060405250810190610f289190611b35565b7bffffffffffffffffffffffffffffffffffffffffffffffffffffffff1916631626ba7e60e01b14610f6d576040516340aec60f60e11b815260040160405180910390fd5b50611098565b601e8160ff161115611038576040517f19457468657265756d205369676e6564204d6573736167653a0a3332000000006020820152603c8101889052600190605c0160405160208183030381529060405280519060200120600483610fd89190611b52565b6040805160008152602081018083529390935260ff90911690820152606081018590526080810184905260a0016020604051602081039080840390855afa158015611027573d6000803e3d6000fd5b505050602060405103519350611098565b60408051600081526020810180835289905260ff831691810191909152606081018490526080810183905260019060a0016020604051602081039080840390855afa15801561108b573d6000803e3d6000fd5b5050506020604051035193505b6001600160a01b0384166110bf5760405163b9bf1d7d60e01b815260040160405180910390fd5b5050509392505050565b6000806000845160208601878987f195945050505050565b606060007f4c23aa2497696888af245e4eb8d524e7d4cc862b760e1c988678274066ffff8b8a8a8a8a604051611118929190611b75565b6040805191829003822060208301959095526001600160a01b03909316928101929092526060820152608081019190915260a0810187905260c0810186905260e0810185905261010081018490526101200160408051601f1981840301815291905280516020909101209050601960f81b600160f81b6111e860007f47e79534a245952e8b16893a336b85a3d9ea9fa8c573f3d803afb92a794692184660408051602081019390935282015230606082015260800160405160208183030381529060405280519060200120905090565b6040517fff00000000000000000000000000000000000000000000000000000000000000938416602082015292909116602183015260228201526042810182905260620160405160208183030381529060405291505098975050505050505050565b6000611256838361136c565b9392505050565b6001546001600160a01b03161561128757604051638b151fc760e01b815260040160405180910390fd5b6001600160a01b0384163b1515806112a657506001600160a01b038416155b156112c45760405163100d9e6d60e21b815260040160405180910390fd5b600180546001600160a01b0319166001600160a01b038681169190911790915583161561136657600061132f84600085858080601f0160208091040260200160405190810160405280939291908181526020018383808284376000920191909152505050505a6110c9565b90508061133b57600080fd5b506001600160a01b038316600090815260046020526040902080546001600160a01b03191660011790555b50505050565b600081831061137b5781611256565b5090919050565b80356001600160a01b038116811461139957600080fd5b919050565b60008083601f8401126113b057600080fd5b50813567ffffffffffffffff8111156113c857600080fd5b6020830191508360208285010111156113e057600080fd5b9250929050565b60008060008060008060008060c0898b03121561140357600080fd5b61140c89611382565b975061141a60208a01611382565b965061142860408a01611382565b955060608901359450608089013567ffffffffffffffff8082111561144c57600080fd5b6114588c838d0161139e565b909650945060a08b013591508082111561147157600080fd5b5061147e8b828c0161139e565b999c989b5096995094979396929594505050565b6001600160e01b0319811681146114a857600080fd5b50565b6000602082840312156114bd57600080fd5b813561125681611492565b6000602082840312156114da57600080fd5b61125682611382565b6000806000806000608086880312156114fb57600080fd5b61150486611382565b945061151260208701611382565b935060408601359250606086013567ffffffffffffffff81111561153557600080fd5b6115418882890161139e565b969995985093965092949392505050565b634e487b7160e01b600052604160045260246000fd5b6000806040838503121561157b57600080fd5b82359150602083013567ffffffffffffffff8082111561159a57600080fd5b818501915085601f8301126115ae57600080fd5b8135818111156115c0576115c0611552565b604051601f8201601f19908116603f011681019083821181831017156115e8576115e8611552565b8160405282815288602084870101111561160157600080fd5b8260208601602083013760006020848301015280955050505050509250929050565b60008060008060008060008060e0898b03121561163f57600080fd5b61164889611382565b975060208901359650604089013567ffffffffffffffff81111561166b57600080fd5b6116778b828c0161139e565b909750955050606089013593506080890135925060a0890135915061169e60c08a01611382565b90509295985092959890939650565b60008060008060008060008060e0898b0312156116c957600080fd5b6116d289611382565b975060208901359650604089013567ffffffffffffffff8111156116f557600080fd5b6117018b828c0161139e565b999c989b50996060810135986080820135985060a0820135975060c09091013595509350505050565b60008060008060008060008060008060006101208c8e03121561174c57600080fd5b6117558c611382565b9a5060208c0135995067ffffffffffffffff8060408e0135111561177857600080fd5b6117888e60408f01358f0161139e565b909a50985060608d0135975060808d0135965060a08d0135955060c08d013594506117b560e08e01611382565b9350806101008e013511156117c957600080fd5b506117db8d6101008e01358e0161139e565b81935080925050509295989b509295989b9093969950565b60008083601f84011261180557600080fd5b50813567ffffffffffffffff81111561181d57600080fd5b6020830191508360208260051b85010111156113e057600080fd5b60008060008060008060008060a0898b03121561185457600080fd5b61185d89611382565b975061186b60208a01611382565b9650604089013567ffffffffffffffff8082111561188857600080fd5b6118948c838d016117f3565b909850965060608b01359150808211156118ad57600080fd5b6118b98c838d016117f3565b909650945060808b013591508082111561147157600080fd5b6000806000806000806000806000806101008b8d0312156118f257600080fd5b6118fb8b611382565b995060208b0135985060408b0135975060608b0135965061191e60808c01611382565b955061192c60a08c01611382565b945060c08b013567ffffffffffffffff8082111561194957600080fd5b6119558e838f0161139e565b909650945060e08d013591508082111561196e57600080fd5b5061197b8d828e0161139e565b915080935050809150509295989b9194979a5092959850565b60008060008060008060a087890312156119ad57600080fd5b6119b687611382565b95506119c460208801611382565b94506040870135935060608701359250608087013567ffffffffffffffff8111156119ee57600080fd5b6119fa89828a0161139e565b979a9699509497509295939492505050565b6000815180845260005b81811015611a3257602081850181015186830182015201611a16565b81811115611a44576000602083870101525b50601f01601f19169290920160200192915050565b6020815260006112566020830184611a0c565b600060208284031215611a7e57600080fd5b8151801515811461125657600080fd5b634e487b7160e01b600052601160045260246000fd5b600082821015611ab657611ab6611a8e565b500390565b60008219821115611ace57611ace611a8e565b500190565b6000816000190483118215151615611aed57611aed611a8e565b500290565b600082611b0f57634e487b7160e01b600052601260045260246000fd5b500490565b828152604060208201526000611b2d6040830184611a0c565b949350505050565b600060208284031215611b4757600080fd5b815161125681611492565b600060ff821660ff841680821015611b6c57611b6c611a8e565b90039392505050565b818382376000910190815291905056fea26469706673582212204932f65f7d85a97cf86ca93047f59e5bc7bf9e29706b644f2f6071323791093b64736f6c634300080f0033",
  "devdoc": {
    "author": "Rodrigo Herrera I.",
    "errors": {
      "LW__exec__invalidNonce()": [
        {
          "details": "exec() custom errors."
        }
      ],
      "LW__init__notOwner()": [
        {
          "details": "init() custom error."
        }
      ],
      "LaserState__initOwner__walletInitialized()": [
        {
          "details": "initOwner() custom error."
        }
      ],
      "LaserState__upgradeSingleton__notLaser()": [
        {
          "details": "upgradeSingleton() custom error."
        }
      ],
      "LaserWallet__invalidSignature()": [
        {
          "details": "isValidSignature() Laser custom error."
        }
      ]
    },
    "kind": "dev",
    "methods": {
      "exec(address,uint256,bytes,uint256,uint256,uint256,uint256,address,bytes)": {
        "details": "Executes a generic transaction. It does not support 'delegatecall' for security reasons.",
        "params": {
          "callData": "Data payload for the transaction.",
          "ownerSignature": "The signatures of the transaction.",
          "to": "Destination address.",
          "value": "Amount to send."
        }
      },
      "execFromModule(address,uint256,bytes,uint256,uint256,uint256,address)": {
        "details": "Allows to execute a transaction from an authorized module."
      },
      "getChainId()": {
        "returns": {
          "chainId": "The chain id of this."
        }
      },
      "init(address,uint256,uint256,uint256,address,address,bytes,bytes)": {
        "details": "Setup function, sets initial storage of the wallet.",
        "params": {
          "_owner": "The owner of the wallet.",
          "gasLimit": "Maximum units of gas the user is willing to use for the transaction.",
          "laserModule": "Authorized Laser modules that can execute transactions for this wallet.",
          "maxFeePerGas": "The maximum amount of WEI the user is willing to pay per unit of gas.",
          "maxPriorityFeePerGas": "Miner's tip.",
          "ownerSignature": "The signature of the owner to make sure that it approved the transaction.",
          "relayer": "Address of the relayer to pay back for the transaction inclusion."
        }
      },
      "isValidSignature(bytes32,bytes)": {
        "details": "Implementation of EIP 1271: https://eips.ethereum.org/EIPS/eip-1271.",
        "params": {
          "hash": "Hash of a message signed on behalf of address(this).",
          "signature": "Signature byte array associated with _msgHash."
        },
        "returns": {
          "_0": "Magic value  or reverts with an error message."
        }
      }
    },
    "title": "LaserWallet - EVM based smart contract wallet. Implementes smart social recovery mechanism.",
    "version": 1
  },
  "userdoc": {
    "kind": "user",
    "methods": {
      "exec(address,uint256,bytes,uint256,uint256,uint256,uint256,address,bytes)": {
        "notice": "If 'gasLimit' does not match the actual gas limit of the transaction, the relayer can incur losses. It is the relayer's responsability to make sure that they are the same, the user does not get affected if a mistake is made. We prefer to prioritize the user's safety (not overpay) over the relayer."
      },
      "init(address,uint256,uint256,uint256,address,address,bytes,bytes)": {
        "notice": "It can't be called after initialization."
      }
    },
    "version": 1
  },
  "storageLayout": {
    "storage": [
      {
        "astId": 2452,
        "contract": "contracts/LaserWallet.sol:LaserWallet",
        "label": "singleton",
        "offset": 0,
        "slot": "0",
        "type": "t_address"
      },
      {
        "astId": 2454,
        "contract": "contracts/LaserWallet.sol:LaserWallet",
        "label": "owner",
        "offset": 0,
        "slot": "1",
        "type": "t_address"
      },
      {
        "astId": 2456,
        "contract": "contracts/LaserWallet.sol:LaserWallet",
        "label": "laserGuard",
        "offset": 0,
        "slot": "2",
        "type": "t_address"
      },
      {
        "astId": 2458,
        "contract": "contracts/LaserWallet.sol:LaserWallet",
        "label": "isLocked",
        "offset": 20,
        "slot": "2",
        "type": "t_bool"
      },
      {
        "astId": 2460,
        "contract": "contracts/LaserWallet.sol:LaserWallet",
        "label": "nonce",
        "offset": 0,
        "slot": "3",
        "type": "t_uint256"
      },
      {
        "astId": 2464,
        "contract": "contracts/LaserWallet.sol:LaserWallet",
        "label": "laserModules",
        "offset": 0,
        "slot": "4",
        "type": "t_mapping(t_address,t_address)"
      }
    ],
    "types": {
      "t_address": {
        "encoding": "inplace",
        "label": "address",
        "numberOfBytes": "20"
      },
      "t_bool": {
        "encoding": "inplace",
        "label": "bool",
        "numberOfBytes": "1"
      },
      "t_mapping(t_address,t_address)": {
        "encoding": "mapping",
        "key": "t_address",
        "label": "mapping(address => address)",
        "numberOfBytes": "32",
        "value": "t_address"
      },
      "t_uint256": {
        "encoding": "inplace",
        "label": "uint256",
        "numberOfBytes": "32"
      }
    }
  }
}