{
  "address": "0xCf7Ed3AccA5a467e9e704C703E8D87F634fB0Fc9",
  "abi": [
    {
      "inputs": [
        {
          "internalType": "address",
          "name": "_laser",
          "type": "address"
        },
        {
          "internalType": "address",
          "name": "firstSingleton",
          "type": "address"
        },
        {
          "internalType": "address[]",
          "name": "modules",
          "type": "address[]"
        }
      ],
      "stateMutability": "nonpayable",
      "type": "constructor"
    },
    {
      "inputs": [
        {
          "internalType": "address",
          "name": "module",
          "type": "address"
        }
      ],
      "name": "approveModule",
      "outputs": [],
      "stateMutability": "nonpayable",
      "type": "function"
    },
    {
      "inputs": [
        {
          "internalType": "address",
          "name": "singleton",
          "type": "address"
        }
      ],
      "name": "approveSingleton",
      "outputs": [],
      "stateMutability": "nonpayable",
      "type": "function"
    },
    {
      "inputs": [],
      "name": "getModules",
      "outputs": [
        {
          "internalType": "address[]",
          "name": "",
          "type": "address[]"
        }
      ],
      "stateMutability": "view",
      "type": "function"
    },
    {
      "inputs": [
        {
          "internalType": "address",
          "name": "module",
          "type": "address"
        }
      ],
      "name": "isModule",
      "outputs": [
        {
          "internalType": "bool",
          "name": "",
          "type": "bool"
        }
      ],
      "stateMutability": "view",
      "type": "function"
    },
    {
      "inputs": [
        {
          "internalType": "address",
          "name": "singleton",
          "type": "address"
        }
      ],
      "name": "isSingleton",
      "outputs": [
        {
          "internalType": "bool",
          "name": "",
          "type": "bool"
        }
      ],
      "stateMutability": "view",
      "type": "function"
    },
    {
      "inputs": [],
      "name": "laser",
      "outputs": [
        {
          "internalType": "address",
          "name": "",
          "type": "address"
        }
      ],
      "stateMutability": "view",
      "type": "function"
    },
    {
      "inputs": [
        {
          "internalType": "address",
          "name": "prevModule",
          "type": "address"
        },
        {
          "internalType": "address",
          "name": "module",
          "type": "address"
        }
      ],
      "name": "removeModule",
      "outputs": [],
      "stateMutability": "nonpayable",
      "type": "function"
    }
  ],
  "transactionHash": "0xb6d2c5b10a1514fb1d345e6be8c4fd23bec3d669c8acabfbb8dfc8f297775291",
  "args": [
    "0xf39Fd6e51aad88F6F4ce6aB8827279cffFb92266",
    "0x5FbDB2315678afecb367f032d93F642f64180aa3",
    [
      "0xe7f1725E7734CE288F8367e1Bb143E90bb3F0512"
    ]
  ],
  "numDeployments": 1,
  "solcInputHash": "fe1817edc2834b1ca7145448ea942c23",
  "bytecode": "0x608060405234801561001057600080fd5b5060405161093b38038061093b83398101604081905261002f9161013e565b600080546001600160a01b038086166001600160a01b03199283161783556003602052841680835260408320805490921617905581516001915b818110156100d457600084828151811061008557610085610226565b6020908102919091018101516001600160a01b0395861660009081526002909252604090912080546001600160a01b0319169582169590951790945550806100cc8161023c565b915050610069565b506001600160a01b03909116600090815260026020526040902080546001600160a01b03191660019081179091555550610263915050565b80516001600160a01b038116811461012357600080fd5b919050565b634e487b7160e01b600052604160045260246000fd5b60008060006060848603121561015357600080fd5b61015c8461010c565b9250602061016b81860161010c565b60408601519093506001600160401b038082111561018857600080fd5b818701915087601f83011261019c57600080fd5b8151818111156101ae576101ae610128565b8060051b604051601f19603f830116810181811085821117156101d3576101d3610128565b60405291825284820192508381018501918a8311156101f157600080fd5b938501935b82851015610216576102078561010c565b845293850193928501926101f6565b8096505050505050509250925092565b634e487b7160e01b600052603260045260246000fd5b60006001820161025c57634e487b7160e01b600052601160045260246000fd5b5060010190565b6106c9806102726000396000f3fe608060405234801561001057600080fd5b506004361061007d5760003560e01c806342f6e3891161005b57806342f6e389146100da5780636a36e3a2146100fd578063b2494df314610110578063de2e64331461012557600080fd5b806317825ef3146100825780631c1e82c81461009757806322dc1a38146100c7575b600080fd5b6100956100903660046105c5565b610138565b005b6000546100aa906001600160a01b031681565b6040516001600160a01b0390911681526020015b60405180910390f35b6100956100d53660046105c5565b6101fb565b6100ed6100e83660046105c5565b610279565b60405190151581526020016100be565b61009561010b3660046105e7565b6102b4565b610118610483565b6040516100be919061061a565b6100ed6101333660046105c5565b61056f565b6000546001600160a01b031633146101845760405162461bcd60e51b815260206004820152600a60248201526927b7363c902630b9b2b960b11b60448201526064015b60405180910390fd5b60026020527fe90b7bceb6e7df5418fb78d8ee546e97c83a08bbccc01a0644d599ccd2a7c2e080546001600160a01b0392831660008181526040812080549590931673ffffffffffffffffffffffffffffffffffffffff199586161790925560019182905282549093169092179055805481019055565b6000546001600160a01b031633146102425760405162461bcd60e51b815260206004820152600a60248201526927b7363c902630b9b2b960b11b604482015260640161017b565b60036020526001600160a01b0316600081815260409020805473ffffffffffffffffffffffffffffffffffffffff19169091179055565b6001600160a01b03818116600090815260026020526040812054909116158015906102ae57506001600160a01b038216600114155b92915050565b6000546001600160a01b031633146102fb5760405162461bcd60e51b815260206004820152600a60248201526927b7363c902630b9b2b960b11b604482015260640161017b565b6001600160a01b03818116600090815260026020526040902054166103625760405162461bcd60e51b815260206004820152601060248201527f4d6f64756c65206e6f7420666f756e6400000000000000000000000000000000604482015260640161017b565b6000196001600160a01b038216016103bc5760405162461bcd60e51b815260206004820152600960248201527f696e636f72726563740000000000000000000000000000000000000000000000604482015260640161017b565b6001600160a01b038281166000908152600260205260409020548116908216146104285760405162461bcd60e51b815260206004820152601560248201527f696e636f72726563742070726576206d6f64756c650000000000000000000000604482015260640161017b565b6001600160a01b039081166000818152600260205260408082208054958516835290822080549590941673ffffffffffffffffffffffffffffffffffffffff1995861617909355528054909116905560018054600019019055565b6060600060015467ffffffffffffffff8111156104a2576104a2610667565b6040519080825280602002602001820160405280156104cb578160200160208202803683370190505b506001600090815260026020527fe90b7bceb6e7df5418fb78d8ee546e97c83a08bbccc01a0644d599ccd2a7c2e0549192506001600160a01b03909116905b6001600160a01b038216600114610567578183828151811061052e5761052e61067d565b6001600160a01b03928316602091820292909201810191909152928116600090815260029093526040909220549091169060010161050a565b509092915050565b6001600160a01b03818116600090815260036020526040812054909116158015906102ae57506001600160a01b0382166001141592915050565b80356001600160a01b03811681146105c057600080fd5b919050565b6000602082840312156105d757600080fd5b6105e0826105a9565b9392505050565b600080604083850312156105fa57600080fd5b610603836105a9565b9150610611602084016105a9565b90509250929050565b6020808252825182820181905260009190848201906040850190845b8181101561065b5783516001600160a01b031683529284019291840191600101610636565b50909695505050505050565b634e487b7160e01b600052604160045260246000fd5b634e487b7160e01b600052603260045260246000fdfea2646970667358221220778f25476fa63c4e81a46be69aab0b7e059983cb640ef44d35a522fcd9ff96da64736f6c634300080f0033",
  "devdoc": {
    "kind": "dev",
    "methods": {},
    "version": 1
  },
  "userdoc": {
    "kind": "user",
    "methods": {},
    "version": 1
  },
  "storageLayout": {
    "storage": [
      {
        "astId": 9,
        "contract": "contracts/modules/LaserRegistry.sol:LaserRegistry",
        "label": "laser",
        "offset": 0,
        "slot": "0",
        "type": "t_address"
      },
      {
        "astId": 11,
        "contract": "contracts/modules/LaserRegistry.sol:LaserRegistry",
        "label": "moduleCount",
        "offset": 0,
        "slot": "1",
        "type": "t_uint256"
      },
      {
        "astId": 15,
        "contract": "contracts/modules/LaserRegistry.sol:LaserRegistry",
        "label": "approvedModules",
        "offset": 0,
        "slot": "2",
        "type": "t_mapping(t_address,t_address)"
      },
      {
        "astId": 19,
        "contract": "contracts/modules/LaserRegistry.sol:LaserRegistry",
        "label": "approvedSingletons",
        "offset": 0,
        "slot": "3",
        "type": "t_mapping(t_address,t_address)"
      }
    ],
    "types": {
      "t_address": {
        "encoding": "inplace",
        "label": "address",
        "numberOfBytes": "20"
      },
      "t_mapping(t_address,t_address)": {
        "encoding": "mapping",
        "key": "t_address",
        "label": "mapping(address => address)",
        "numberOfBytes": "32",
        "value": "t_address"
      },
      "t_uint256": {
        "encoding": "inplace",
        "label": "uint256",
        "numberOfBytes": "32"
      }
    }
  }
}