{
  "address": "0x5FbDB2315678afecb367f032d93F642f64180aa3",
  "abi": [
    {
      "inputs": [],
      "stateMutability": "nonpayable",
      "type": "constructor"
    },
    {
      "inputs": [],
      "name": "Access__notAllowed",
      "type": "error"
    },
    {
      "inputs": [],
      "name": "LS__activateWallet__invalidOwnerAddress",
      "type": "error"
    },
    {
      "inputs": [],
      "name": "LS__activateWallet__walletInitialized",
      "type": "error"
    },
    {
      "inputs": [],
      "name": "LS__addGuardian__invalidAddress",
      "type": "error"
    },
    {
      "inputs": [],
      "name": "LS__addRecoveryOwner__invalidAddress",
      "type": "error"
    },
    {
      "inputs": [],
      "name": "LS__changeOwner__invalidAddress",
      "type": "error"
    },
    {
      "inputs": [],
      "name": "LS__changeSingleton__invalidAddress",
      "type": "error"
    },
    {
      "inputs": [],
      "name": "LS__initGuardians__invalidAddress",
      "type": "error"
    },
    {
      "inputs": [],
      "name": "LS__initGuardians__underflow",
      "type": "error"
    },
    {
      "inputs": [],
      "name": "LS__initRecoveryOwners__invalidAddress",
      "type": "error"
    },
    {
      "inputs": [],
      "name": "LS__initRecoveryOwners__underflow",
      "type": "error"
    },
    {
      "inputs": [],
      "name": "LS__recover__invalidAddress",
      "type": "error"
    },
    {
      "inputs": [],
      "name": "LS__removeGuardian__incorrectPreviousGuardian",
      "type": "error"
    },
    {
      "inputs": [],
      "name": "LS__removeGuardian__invalidAddress",
      "type": "error"
    },
    {
      "inputs": [],
      "name": "LS__removeGuardian__underflow",
      "type": "error"
    },
    {
      "inputs": [],
      "name": "LS__removeRecoveryOwner__incorrectPreviousGuardian",
      "type": "error"
    },
    {
      "inputs": [],
      "name": "LS__removeRecoveryOwner__invalidAddress",
      "type": "error"
    },
    {
      "inputs": [],
      "name": "LS__removeRecoveryOwner__underflow",
      "type": "error"
    },
    {
      "inputs": [],
      "name": "LS__verifyTimeLock__timeLock",
      "type": "error"
    },
    {
      "inputs": [],
      "name": "LW__exec__callFailed",
      "type": "error"
    },
    {
      "inputs": [],
      "name": "LW__exec__invalidNonce",
      "type": "error"
    },
    {
      "inputs": [],
      "name": "LW__exec__invalidSignature",
      "type": "error"
    },
    {
      "inputs": [],
      "name": "LW__exec__invalidSignatureLength",
      "type": "error"
    },
    {
      "inputs": [],
      "name": "LW__exec__walletLocked",
      "type": "error"
    },
    {
      "inputs": [],
      "name": "LW__init__notOwner",
      "type": "error"
    },
    {
      "inputs": [],
      "name": "LW__recoveryLock__invalidSignature",
      "type": "error"
    },
    {
      "inputs": [],
      "name": "LW__recoveryRecover__invalidSignature",
      "type": "error"
    },
    {
      "inputs": [],
      "name": "LW__recoveryUnlock__invalidSignature",
      "type": "error"
    },
    {
      "inputs": [],
      "name": "LW__recovery__callFailed",
      "type": "error"
    },
    {
      "inputs": [],
      "name": "LW__recovery__duplicateSigner",
      "type": "error"
    },
    {
      "inputs": [],
      "name": "LW__recovery__invalidNonce",
      "type": "error"
    },
    {
      "inputs": [],
      "name": "LW__recovery__invalidOperation",
      "type": "error"
    },
    {
      "inputs": [],
      "name": "LW__recovery__invalidSignatureLength",
      "type": "error"
    },
    {
      "inputs": [],
      "name": "LaserWallet__invalidSignature",
      "type": "error"
    },
    {
      "inputs": [],
      "name": "Utils__returnSigner__invalidContractSignature",
      "type": "error"
    },
    {
      "inputs": [],
      "name": "Utils__returnSigner__invalidSignature",
      "type": "error"
    },
    {
      "anonymous": false,
      "inputs": [
        {
          "indexed": false,
          "internalType": "address",
          "name": "to",
          "type": "address"
        },
        {
          "indexed": false,
          "internalType": "uint256",
          "name": "value",
          "type": "uint256"
        },
        {
          "indexed": false,
          "internalType": "uint256",
          "name": "nonce",
          "type": "uint256"
        },
        {
          "indexed": false,
          "internalType": "bytes4",
          "name": "funcSig",
          "type": "bytes4"
        }
      ],
      "name": "ExecSuccess",
      "type": "event"
    },
    {
      "anonymous": false,
      "inputs": [
        {
          "indexed": false,
          "internalType": "address",
          "name": "removedGuardian",
          "type": "address"
        }
      ],
      "name": "GuardianRemoved",
      "type": "event"
    },
    {
      "anonymous": false,
      "inputs": [
        {
          "indexed": false,
          "internalType": "address",
          "name": "newGuardian",
          "type": "address"
        }
      ],
      "name": "NewGuardian",
      "type": "event"
    },
    {
      "anonymous": false,
      "inputs": [
        {
          "indexed": false,
          "internalType": "address",
          "name": "NewRecoveryOwner",
          "type": "address"
        }
      ],
      "name": "NewRecoveryOwner",
      "type": "event"
    },
    {
      "anonymous": false,
      "inputs": [
        {
          "indexed": false,
          "internalType": "address",
          "name": "newOwner",
          "type": "address"
        }
      ],
      "name": "OwnerChanged",
      "type": "event"
    },
    {
      "anonymous": false,
      "inputs": [
        {
          "indexed": false,
          "internalType": "address",
          "name": "newOwner",
          "type": "address"
        }
      ],
      "name": "RecoverActivated",
      "type": "event"
    },
    {
      "anonymous": false,
      "inputs": [
        {
          "indexed": false,
          "internalType": "address",
          "name": "removedRecoveryOwner",
          "type": "address"
        }
      ],
      "name": "RecoveryOwnerRemoved",
      "type": "event"
    },
    {
      "anonymous": false,
      "inputs": [
        {
          "indexed": false,
          "internalType": "address",
          "name": "newSingleton",
          "type": "address"
        }
      ],
      "name": "SingletonChanged",
      "type": "event"
    },
    {
      "anonymous": false,
      "inputs": [],
      "name": "WalletUnlocked",
      "type": "event"
    },
    {
      "inputs": [],
      "name": "NAME",
      "outputs": [
        {
          "internalType": "string",
          "name": "",
          "type": "string"
        }
      ],
      "stateMutability": "view",
      "type": "function"
    },
    {
      "inputs": [],
      "name": "VERSION",
      "outputs": [
        {
          "internalType": "string",
          "name": "",
          "type": "string"
        }
      ],
      "stateMutability": "view",
      "type": "function"
    },
    {
      "inputs": [
        {
          "internalType": "address",
          "name": "newGuardian",
          "type": "address"
        }
      ],
      "name": "addGuardian",
      "outputs": [],
      "stateMutability": "nonpayable",
      "type": "function"
    },
    {
      "inputs": [
        {
          "internalType": "address",
          "name": "newRecoveryOwner",
          "type": "address"
        }
      ],
      "name": "addRecoveryOwner",
      "outputs": [],
      "stateMutability": "nonpayable",
      "type": "function"
    },
    {
      "inputs": [
        {
          "internalType": "address",
          "name": "newOwner",
          "type": "address"
        }
      ],
      "name": "changeOwner",
      "outputs": [],
      "stateMutability": "nonpayable",
      "type": "function"
    },
    {
      "inputs": [
        {
          "internalType": "address",
          "name": "newSingleton",
          "type": "address"
        }
      ],
      "name": "changeSingleton",
      "outputs": [],
      "stateMutability": "nonpayable",
      "type": "function"
    },
    {
      "inputs": [],
      "name": "domainSeparator",
      "outputs": [
        {
          "internalType": "bytes32",
          "name": "",
          "type": "bytes32"
        }
      ],
      "stateMutability": "view",
      "type": "function"
    },
    {
      "inputs": [
        {
          "internalType": "address",
          "name": "to",
          "type": "address"
        },
        {
          "internalType": "uint256",
          "name": "value",
          "type": "uint256"
        },
        {
          "internalType": "bytes",
          "name": "callData",
          "type": "bytes"
        },
        {
          "internalType": "uint256",
          "name": "_nonce",
          "type": "uint256"
        },
        {
          "internalType": "bytes",
          "name": "signatures",
          "type": "bytes"
        }
      ],
      "name": "exec",
      "outputs": [
        {
          "internalType": "bool",
          "name": "success",
          "type": "bool"
        }
      ],
      "stateMutability": "nonpayable",
      "type": "function"
    },
    {
      "inputs": [],
      "name": "getChainId",
      "outputs": [
        {
          "internalType": "uint256",
          "name": "chainId",
          "type": "uint256"
        }
      ],
      "stateMutability": "view",
      "type": "function"
    },
    {
      "inputs": [],
      "name": "getConfig",
      "outputs": [
        {
          "internalType": "uint256",
          "name": "configTimestamp",
          "type": "uint256"
        },
        {
          "internalType": "bool",
          "name": "_isLocked",
          "type": "bool"
        },
        {
          "internalType": "address",
          "name": "oldOwner",
          "type": "address"
        }
      ],
      "stateMutability": "view",
      "type": "function"
    },
    {
      "inputs": [],
      "name": "getGuardians",
      "outputs": [
        {
          "internalType": "address[]",
          "name": "",
          "type": "address[]"
        }
      ],
      "stateMutability": "view",
      "type": "function"
    },
    {
      "inputs": [],
      "name": "getRecoveryOwners",
      "outputs": [
        {
          "internalType": "address[]",
          "name": "",
          "type": "address[]"
        }
      ],
      "stateMutability": "view",
      "type": "function"
    },
    {
      "inputs": [
        {
          "internalType": "address",
          "name": "",
          "type": "address"
        }
      ],
      "name": "guardians",
      "outputs": [
        {
          "internalType": "address",
          "name": "",
          "type": "address"
        }
      ],
      "stateMutability": "view",
      "type": "function"
    },
    {
      "inputs": [
        {
          "internalType": "address",
          "name": "_owner",
          "type": "address"
        },
        {
          "internalType": "address[]",
          "name": "_guardians",
          "type": "address[]"
        },
        {
          "internalType": "address[]",
          "name": "_recoveryOwners",
          "type": "address[]"
        },
        {
          "internalType": "bytes",
          "name": "ownerSignature",
          "type": "bytes"
        }
      ],
      "name": "init",
      "outputs": [],
      "stateMutability": "nonpayable",
      "type": "function"
    },
    {
      "inputs": [
        {
          "internalType": "bytes32",
          "name": "hash",
          "type": "bytes32"
        },
        {
          "internalType": "bytes",
          "name": "signature",
          "type": "bytes"
        }
      ],
      "name": "isValidSignature",
      "outputs": [
        {
          "internalType": "bytes4",
          "name": "",
          "type": "bytes4"
        }
      ],
      "stateMutability": "view",
      "type": "function"
    },
    {
      "inputs": [
        {
          "components": [
            {
              "internalType": "address",
              "name": "to",
              "type": "address"
            },
            {
              "internalType": "uint256",
              "name": "value",
              "type": "uint256"
            },
            {
              "internalType": "bytes",
              "name": "callData",
              "type": "bytes"
            },
            {
              "internalType": "uint256",
              "name": "nonce",
              "type": "uint256"
            },
            {
              "internalType": "bytes",
              "name": "signatures",
              "type": "bytes"
            }
          ],
          "internalType": "struct Transaction[]",
          "name": "transactions",
          "type": "tuple[]"
        }
      ],
      "name": "multiCall",
      "outputs": [],
      "stateMutability": "nonpayable",
      "type": "function"
    },
    {
      "inputs": [],
      "name": "nonce",
      "outputs": [
        {
          "internalType": "uint256",
          "name": "",
          "type": "uint256"
        }
      ],
      "stateMutability": "view",
      "type": "function"
    },
    {
      "inputs": [
        {
          "internalType": "address",
          "name": "",
          "type": "address"
        },
        {
          "internalType": "address",
          "name": "",
          "type": "address"
        },
        {
          "internalType": "uint256[]",
          "name": "",
          "type": "uint256[]"
        },
        {
          "internalType": "uint256[]",
          "name": "",
          "type": "uint256[]"
        },
        {
          "internalType": "bytes",
          "name": "",
          "type": "bytes"
        }
      ],
      "name": "onERC1155BatchReceived",
      "outputs": [
        {
          "internalType": "bytes4",
          "name": "result",
          "type": "bytes4"
        }
      ],
      "stateMutability": "pure",
      "type": "function"
    },
    {
      "inputs": [
        {
          "internalType": "address",
          "name": "",
          "type": "address"
        },
        {
          "internalType": "address",
          "name": "",
          "type": "address"
        },
        {
          "internalType": "uint256",
          "name": "",
          "type": "uint256"
        },
        {
          "internalType": "uint256",
          "name": "",
          "type": "uint256"
        },
        {
          "internalType": "bytes",
          "name": "",
          "type": "bytes"
        }
      ],
      "name": "onERC1155Received",
      "outputs": [
        {
          "internalType": "bytes4",
          "name": "",
          "type": "bytes4"
        }
      ],
      "stateMutability": "pure",
      "type": "function"
    },
    {
      "inputs": [
        {
          "internalType": "address",
          "name": "",
          "type": "address"
        },
        {
          "internalType": "address",
          "name": "",
          "type": "address"
        },
        {
          "internalType": "uint256",
          "name": "",
          "type": "uint256"
        },
        {
          "internalType": "bytes",
          "name": "",
          "type": "bytes"
        }
      ],
      "name": "onERC721Received",
      "outputs": [
        {
          "internalType": "bytes4",
          "name": "",
          "type": "bytes4"
        }
      ],
      "stateMutability": "pure",
      "type": "function"
    },
    {
      "inputs": [
        {
          "internalType": "address",
          "name": "to",
          "type": "address"
        },
        {
          "internalType": "uint256",
          "name": "value",
          "type": "uint256"
        },
        {
          "internalType": "bytes",
          "name": "callData",
          "type": "bytes"
        },
        {
          "internalType": "uint256",
          "name": "_nonce",
          "type": "uint256"
        }
      ],
      "name": "operationHash",
      "outputs": [
        {
          "internalType": "bytes32",
          "name": "",
          "type": "bytes32"
        }
      ],
      "stateMutability": "view",
      "type": "function"
    },
    {
      "inputs": [],
      "name": "owner",
      "outputs": [
        {
          "internalType": "address",
          "name": "",
          "type": "address"
        }
      ],
      "stateMutability": "view",
      "type": "function"
    },
    {
      "inputs": [
        {
          "internalType": "address",
          "name": "newOwner",
          "type": "address"
        }
      ],
      "name": "recover",
      "outputs": [],
      "stateMutability": "nonpayable",
      "type": "function"
    },
    {
      "inputs": [
        {
          "internalType": "uint256",
          "name": "_nonce",
          "type": "uint256"
        },
        {
          "internalType": "bytes",
          "name": "callData",
          "type": "bytes"
        },
        {
          "internalType": "bytes",
          "name": "signatures",
          "type": "bytes"
        }
      ],
      "name": "recovery",
      "outputs": [],
      "stateMutability": "nonpayable",
      "type": "function"
    },
    {
      "inputs": [
        {
          "internalType": "address",
          "name": "",
          "type": "address"
        }
      ],
      "name": "recoveryOwners",
      "outputs": [
        {
          "internalType": "address",
          "name": "",
          "type": "address"
        }
      ],
      "stateMutability": "view",
      "type": "function"
    },
    {
      "inputs": [
        {
          "internalType": "address",
          "name": "prevGuardian",
          "type": "address"
        },
        {
          "internalType": "address",
          "name": "guardianToRemove",
          "type": "address"
        }
      ],
      "name": "removeGuardian",
      "outputs": [],
      "stateMutability": "nonpayable",
      "type": "function"
    },
    {
      "inputs": [
        {
          "internalType": "address",
          "name": "prevRecoveryOwner",
          "type": "address"
        },
        {
          "internalType": "address",
          "name": "recoveryOwnerToRemove",
          "type": "address"
        }
      ],
      "name": "removeRecoveryOwner",
      "outputs": [],
      "stateMutability": "nonpayable",
      "type": "function"
    },
    {
      "inputs": [],
      "name": "singleton",
      "outputs": [
        {
          "internalType": "address",
          "name": "",
          "type": "address"
        }
      ],
      "stateMutability": "view",
      "type": "function"
    },
    {
      "inputs": [
        {
          "internalType": "bytes4",
          "name": "_interfaceId",
          "type": "bytes4"
        }
      ],
      "name": "supportsInterface",
      "outputs": [
        {
          "internalType": "bool",
          "name": "",
          "type": "bool"
        }
      ],
      "stateMutability": "pure",
      "type": "function"
    },
    {
      "inputs": [
        {
          "internalType": "address",
          "name": "",
          "type": "address"
        },
        {
          "internalType": "address",
          "name": "",
          "type": "address"
        },
        {
          "internalType": "address",
          "name": "",
          "type": "address"
        },
        {
          "internalType": "uint256",
          "name": "",
          "type": "uint256"
        },
        {
          "internalType": "bytes",
          "name": "",
          "type": "bytes"
        },
        {
          "internalType": "bytes",
          "name": "",
          "type": "bytes"
        }
      ],
      "name": "tokensReceived",
      "outputs": [],
      "stateMutability": "pure",
      "type": "function"
    },
    {
      "inputs": [],
      "name": "unlock",
      "outputs": [],
      "stateMutability": "nonpayable",
      "type": "function"
    },
    {
      "stateMutability": "payable",
      "type": "receive"
    }
  ],
  "transactionHash": "0x51892f0144db2a64d0a6c59bc5b493f831c513cbf4c6ec8561f33964ca53726c",
  "args": [],
  "numDeployments": 1,
  "solcInputHash": "2fdf116d24c44e978c05c994eee07f1c",
  "bytecode": "0x608060405234801561001057600080fd5b50600180546001600160a01b03191630179055612cd4806100326000396000f3fe6080604052600436106101db5760003560e01c80638da5cb5b11610102578063bc197c8111610095578063f23a6e6111610064578063f23a6e61146105f8578063f698da2514610625578063fa43cec51461068c578063ffa1ad74146106c257600080fd5b8063bc197c8114610556578063c194a04614610585578063c3f909d41461059a578063d2477f03146105d857600080fd5b8063a69df4b5116100d1578063a69df4b5146104eb578063a6f9dae114610500578063affed0e014610520578063b62654fb1461053657600080fd5b80638da5cb5b146104355780639b27a90e14610455578063a3f4df7e14610475578063a526d83b146104cb57600080fd5b80631626ba7e1161017a57806353b8b52b1161014957806353b8b52b146103b55780636f757f38146103d557806377e8165d146103f557806384ec720c1461041557600080fd5b80631626ba7e146103385780632909f9a21461035857806333c48119146103785780633408e4701461039857600080fd5b80630665f04b116101b65780630665f04b146102915780630cd865ec146102b35780630f721c46146102d3578063150b7a02146102f357600080fd5b806223de29146101e757806301ffc9a71461020e5780630633b14a1461024357600080fd5b366101e257005b600080fd5b3480156101f357600080fd5b5061020c610202366004612421565b5050505050505050565b005b34801561021a57600080fd5b5061022e6102293660046124e5565b61070b565b60405190151581526020015b60405180910390f35b34801561024f57600080fd5b5061027961025e366004612509565b6005602052600090815260409020546001600160a01b031681565b6040516001600160a01b03909116815260200161023a565b34801561029d57600080fd5b506102a66107ae565b60405161023a9190612524565b3480156102bf57600080fd5b5061020c6102ce366004612509565b6108a4565b3480156102df57600080fd5b5061020c6102ee3660046125b6565b610992565b3480156102ff57600080fd5b5061031f61030e3660046125f8565b630a85bd0160e11b95945050505050565b6040516001600160e01b0319909116815260200161023a565b34801561034457600080fd5b5061031f61035336600461267d565b610a09565b34801561036457600080fd5b5061020c610373366004612738565b610ab2565b34801561038457600080fd5b5061022e61039336600461276b565b610bf0565b3480156103a457600080fd5b50465b60405190815260200161023a565b3480156103c157600080fd5b5061020c6103d0366004612509565b610e46565b3480156103e157600080fd5b5061020c6103f03660046127ff565b610f6d565b34801561040157600080fd5b5061020c610410366004612868565b6112a5565b34801561042157600080fd5b5061020c610430366004612509565b611366565b34801561044157600080fd5b50600154610279906001600160a01b031681565b34801561046157600080fd5b5061020c610470366004612738565b611559565b34801561048157600080fd5b506104be6040518060400160405280600c81526020017f4c617365722057616c6c6574000000000000000000000000000000000000000081525081565b60405161023a9190612939565b3480156104d757600080fd5b5061020c6104e6366004612509565b61168f565b3480156104f757600080fd5b5061020c611882565b34801561050c57600080fd5b5061020c61051b366004612509565b61193b565b34801561052c57600080fd5b506103a760025481565b34801561054257600080fd5b50600054610279906001600160a01b031681565b34801561056257600080fd5b5061031f61057136600461294c565b63bc197c8160e01b98975050505050505050565b34801561059157600080fd5b506102a66119fe565b3480156105a657600080fd5b506008546007546009546040805193845260ff909216151560208401526001600160a01b03169082015260600161023a565b3480156105e457600080fd5b506103a76105f33660046129e6565b611aec565b34801561060457600080fd5b5061031f610613366004612a48565b63f23a6e6160e01b9695505050505050565b34801561063157600080fd5b506103a760007f47e79534a245952e8b16893a336b85a3d9ea9fa8c573f3d803afb92a794692184660408051602081019390935282015230606082015260800160405160208183030381529060405280519060200120905090565b34801561069857600080fd5b506102796106a7366004612509565b6006602052600090815260409020546001600160a01b031681565b3480156106ce57600080fd5b506104be6040518060400160405280600581526020017f312e302e3000000000000000000000000000000000000000000000000000000081525081565b60006301ffc9a760e01b6001600160e01b03198316148061073c5750630b135d3f60e11b6001600160e01b03198316145b806107575750636cdb3d1360e11b6001600160e01b03198316145b806107725750630271189760e51b6001600160e01b03198316145b8061078d575063ae029e0b60e01b6001600160e01b03198316145b806107a85750630a85bd0160e11b6001600160e01b03198316145b92915050565b6060600060035467ffffffffffffffff8111156107cd576107cd612667565b6040519080825280602002602001820160405280156107f6578160200160208202803683370190505b506001600090815260056020527f1471eb6eb2c5e789fc3de43f8ce62938c7d1836ec861730447e2ada8fd81017b549192506001600160a01b03909116905b6001600160a01b03821660011461089c578183828151811061085957610859612ac0565b6001600160a01b0392831660209182029290920181019190915292811660009081526005909352604090922054909116908061089481612aec565b915050610835565b509092915050565b3330146108c45760405163bc8bd71160e01b815260040160405180910390fd5b6001600160a01b0381163b1515806108e957506001546001600160a01b038281169116145b806108fb57506001600160a01b038116155b1561091957604051630e3e8aa560e21b815260040160405180910390fd5b60078054600160ff199091168117909155426008558054600980546001600160a01b038084166001600160a01b0319928316179092559091169083169081179091556040519081527fa2ea9883a321a3e97b8266c2b078bfeec6d50c711ed71f874a90d500ae2eaf36906020015b60405180910390a150565b8060005b81811015610a0357368484838181106109b1576109b1612ac0565b90506020028101906109c39190612b05565b90506109f96109d56020830183612509565b60208301356109e76040850185612b25565b60608601356103936080880188612b25565b5050600101610996565b50505050565b600080610a1884846000611b0d565b90506000610a2885856001611b0d565b6001549091506001600160a01b038381169116141580610a8357506001600160a01b0381811660009081526006602052604090205416158015610a8357506001600160a01b0381811660009081526005602052604090205416155b15610aa1576040516325dc3e7760e21b815260040160405180910390fd5b50630b135d3f60e11b949350505050565b333014610ad25760405163bc8bd71160e01b815260040160405180910390fd5b6000196001600160a01b03821601610afd57604051631e233d7b60e11b815260040160405180910390fd5b6001600160a01b03828116600090815260066020526040902054811690821614610b3a57604051638a7fd42360e01b815260040160405180910390fd5b600180600454610b4a9190612b6c565b1015610b69576040516358dd61f360e11b815260040160405180910390fd5b6001600160a01b038181166000818152600660209081526040808320805488871685528285208054919097166001600160a01b0319918216179096559284905282549094169091556004805460001901905591519081527f7a2a8d37ed276dc71feb15ae98c847c3e205e6a424eec35d2c2ac66500b85ad091015b60405180910390a15050565b60028054600181019091556000908414610c1d57604051636f4f3db760e11b815260040160405180910390fd5b60075460ff1615610c3057610c30611d62565b6000610c3f8989898989611dba565b805160209091012090506082831015610c6b5760405163fd7281c160e01b815260040160405180910390fd5b6000610cad8286868080601f01602080910402602001604051908101604052809392919081815260200183838082843760009201829052509250611b0d915050565b90506000610cf48387878080601f01602080910402602001604051908101604052809392919081815260200183838082843760009201919091525060019250611b0d915050565b6001549091506001600160a01b038381169116141580610d4f57506001600160a01b0381811660009081526006602052604090205416158015610d4f57506001600160a01b0381811660009081526005602052604090205416155b15610d6d57604051633714b8cf60e11b815260040160405180910390fd5b610dae8b8b8b8b8080601f0160208091040260200160405190810160405280939291908181526020018383808284376000920191909152505050505a611f0f565b935083610dce576040516309c5ac8560e01b815260040160405180910390fd5b7fcbea538632bfc5a90a427e4804d9782a1ba295db6ad11500c4ff7bcbf39d17c38b8b6002548c8c90610e019190612b7f565b604080516001600160a01b0390951685526020850193909352918301526001600160e01b031916606082015260800160405180910390a1505050979650505050505050565b333014610e665760405163bc8bd71160e01b815260040160405180910390fd5b6000546001600160a01b0382811691161480610e8a57506001600160a01b03811630145b80610f0157506040516301ffc9a760e01b815263ae029e0b60e01b60048201526001600160a01b038216906301ffc9a790602401602060405180830381865afa158015610edb573d6000803e3d6000fd5b505050506040513d601f19601f82011682018060405250810190610eff9190612baf565b155b15610f1f5760405163d3493b0360e01b815260040160405180910390fd5b600080546001600160a01b0319166001600160a01b0383169081179091556040519081527fad04cda32d7774350bace4bdca605ed7431195e8c78235e484626b2785de816d90602001610987565b60028054600181019091558514610f9757604051630aba494d60e21b815260040160405180910390fd5b6000610fa38486612b7f565b90506082821015610fc757604051632f19059960e01b815260040160405180910390fd5b6000868686604051610fda929190612bd1565b60405190819003812061101c929130904690602001938452602084019290925260601b6bffffffffffffffffffffffff19166040830152605482015260740190565b60405160208183030381529060405280519060200120905060006110768286868080601f01602080910402602001604051908101604052809392919081815260200183838082843760009201829052509250611b0d915050565b905060006110bd8387878080601f01602080910402602001604051908101604052809392919081815260200183838082843760009201919091525060019250611b0d915050565b9050806001600160a01b0316826001600160a01b0316036110f157604051630840038960e11b815260040160405180910390fd5b6001600160e01b0319841663a69df4b560e01b03611184576009546001600160a01b03838116911614158061116157506001600160a01b038181166000908152600660205260409020541615801561116157506001600160a01b0381811660009081526005602052604090205416155b1561117f576040516317dce57360e31b815260040160405180910390fd5b611235565b6001600160e01b03198416630336197b60e21b0361121c576001600160a01b038281166000908152600660205260409020541615806111fe57506001600160a01b03818116600090815260066020526040902054161580156111fe57506001600160a01b0381811660009081526005602052604090205416155b1561117f57604051631f7fcc0960e11b815260040160405180910390fd5b60405163f37914d560e01b815260040160405180910390fd5b60006112793060008b8b8080601f0160208091040260200160405190810160405280939291908181526020018383808284376000920191909152505050505a611f0f565b9050806112995760405163365b2d8d60e01b815260040160405180910390fd5b50505050505050505050565b6112b28787878787611f27565b600086868686466040516020016112cd959493929190612c20565b60405160208183030381529060405280519060200120905060006113278285858080601f01602080910402602001604051908101604052809392919081815260200183838082843760009201829052509250611b0d915050565b9050886001600160a01b0316816001600160a01b03161461135b57604051637b0dd98160e01b815260040160405180910390fd5b505050505050505050565b3330146113865760405163bc8bd71160e01b815260040160405180910390fd5b6001600160a01b03811615806113a957506001546001600160a01b038281169116145b806113cd57506001600160a01b038181166000908152600660205260409020541615155b806113f157506001600160a01b038181166000908152600560205260409020541615155b8061140557506001600160a01b0381166001145b1561142357604051632dc76b7760e01b815260040160405180910390fd5b6001600160a01b0381163b156114bf576040516301ffc9a760e01b8152630b135d3f60e11b60048201526001600160a01b038216906301ffc9a790602401602060405180830381865afa15801561147e573d6000803e3d6000fd5b505050506040513d601f19601f820116820180604052508101906114a29190612baf565b6114bf57604051632dc76b7760e01b815260040160405180910390fd5b600660209081527f3e5fec24aa4dc4e5aee2e025e51e1392c72a2500577559fae9665c6d52bd6a3180546001600160a01b03848116600081815260408082208054949095166001600160a01b03199485161790945560019081905284549092168117909355600480549091019055519081527f24b755696b711f89e9f520613bc428ad6a76ea9e0ea8ce1bcbc4a49d7117e7d49101610987565b3330146115795760405163bc8bd71160e01b815260040160405180910390fd5b6000196001600160a01b038216016115a457604051632ca0364760e01b815260040160405180910390fd5b6001600160a01b038281166000908152600560205260409020548116908216146115e157604051636a4665bd60e11b815260040160405180910390fd5b6001806003546115f19190612b6c565b10156116105760405163367975bf60e21b815260040160405180910390fd5b6001600160a01b038181166000818152600560209081526040808320805488871685528285208054919097166001600160a01b0319918216179096559284905282549094169091556003805460001901905591519081527fb8107d0c6b40be480ce3172ee66ba6d64b71f6b1685a851340036e6e2e3e3c529101610be4565b3330146116af5760405163bc8bd71160e01b815260040160405180910390fd5b6001600160a01b03811615806116d257506001546001600160a01b038281169116145b806116f657506001600160a01b038181166000908152600560205260409020541615155b8061171a57506001600160a01b038181166000908152600660205260409020541615155b8061172e57506001600160a01b0381166001145b1561174c5760405163126bd81960e31b815260040160405180910390fd5b6001600160a01b0381163b156117e8576040516301ffc9a760e01b8152630b135d3f60e11b60048201526001600160a01b038216906301ffc9a790602401602060405180830381865afa1580156117a7573d6000803e3d6000fd5b505050506040513d601f19601f820116820180604052508101906117cb9190612baf565b6117e85760405163126bd81960e31b815260040160405180910390fd5b600560209081527f1471eb6eb2c5e789fc3de43f8ce62938c7d1836ec861730447e2ada8fd81017b80546001600160a01b03848116600081815260408082208054949095166001600160a01b03199485161790945560019081905284549092168117909355600380549091019055519081527fb6182387b7ea948602a7e04e662a27ce251dc3dd014eacaed10dce36b41bf1a59101610987565b3330146118a25760405163bc8bd71160e01b815260040160405180910390fd5b60098054600180546001600160a01b0383166001600160a01b031991821681179092556007805460ff191690556000600881905592169092556040517f63fc9aecb05834d2330c4dad03b320242fa9e8a10eb80cd31518efa9ed781b869190a16040516001600160a01b03821681527fa2ea9883a321a3e97b8266c2b078bfeec6d50c711ed71f874a90d500ae2eaf3690602001610987565b33301461195b5760405163bc8bd71160e01b815260040160405180910390fd5b6001600160a01b0381163b15158061198057506001546001600160a01b038281169116145b8061199257506001600160a01b038116155b156119b057604051637eda7fe360e11b815260040160405180910390fd5b600180546001600160a01b0319166001600160a01b0383169081179091556040519081527fa2ea9883a321a3e97b8266c2b078bfeec6d50c711ed71f874a90d500ae2eaf3690602001610987565b6060600060045467ffffffffffffffff811115611a1d57611a1d612667565b604051908082528060200260200182016040528015611a46578160200160208202803683370190505b506001600090815260066020527f3e5fec24aa4dc4e5aee2e025e51e1392c72a2500577559fae9665c6d52bd6a31549192506001600160a01b03909116905b6001600160a01b03821660011461089c5781838281518110611aa957611aa9612ac0565b6001600160a01b03928316602091820292909201810191909152928116600090815260069093526040909220549091169080611ae481612aec565b915050611a85565b6000611afb8686868686611dba565b80519060200120905095945050505050565b600080600080611b3786866041020160208101516040820151606090920151909260009190911a90565b9194509250905060ff8116600003611c0c57604051630b135d3f60e11b81529293508392868301906001600160a01b03851690631626ba7e90611b80908b908590600401612c47565b602060405180830381865afa158015611b9d573d6000803e3d6000fd5b505050506040513d601f19601f82011682018060405250810190611bc19190612c68565b7bffffffffffffffffffffffffffffffffffffffffffffffffffffffff1916631626ba7e60e01b14611c06576040516340aec60f60e11b815260040160405180910390fd5b50611d31565b601e8160ff161115611cd1576040517f19457468657265756d205369676e6564204d6573736167653a0a3332000000006020820152603c8101889052600190605c0160405160208183030381529060405280519060200120600483611c719190612c85565b6040805160008152602081018083529390935260ff90911690820152606081018590526080810184905260a0016020604051602081039080840390855afa158015611cc0573d6000803e3d6000fd5b505050602060405103519350611d31565b60408051600081526020810180835289905260ff831691810191909152606081018490526080810183905260019060a0016020604051602081039080840390855afa158015611d24573d6000803e3d6000fd5b5050506020604051035193505b6001600160a01b038416611d585760405163b9bf1d7d60e01b815260040160405180910390fd5b5050509392505050565b600854600090611d729042612b6c565b9050806202a3001115611d985760405163614ed0e360e11b815260040160405180910390fd5b506007805460ff191690556000600855600980546001600160a01b0319169055565b606060007f2ddf7281949289d8274013979a0525c9530850a6c72fa016e275c4c80bc3652087878787604051611df1929190612bd1565b604051908190038120611e329493929188906020019485526001600160a01b0393909316602085015260408401919091526060830152608082015260a00190565b60408051601f1981840301815291905280516020909101209050601960f81b600160f81b611eb060007f47e79534a245952e8b16893a336b85a3d9ea9fa8c573f3d803afb92a794692184660408051602081019390935282015230606082015260800160405160208183030381529060405280519060200120905090565b6040517fff00000000000000000000000000000000000000000000000000000000000000938416602082015292909116602183015260228201526042810182905260620160405160208183030381529060405291505095945050505050565b6000806000845160208601878987f195945050505050565b6001546001600160a01b031615611f5157604051636cf9adbb60e11b815260040160405180910390fd5b6001600160a01b0385163b15611f7a57604051630bf1bcdf60e01b815260040160405180910390fd5b600180546001600160a01b0319166001600160a01b038716179055611f9f8484611fb0565b611fa982826121a4565b5050505050565b806001811015611fd35760405163024f5be560e41b815260040160405180910390fd5b600160005b82811015612174576000858583818110611ff457611ff4612ac0565b90506020020160208101906120099190612509565b6001549091506001600160a01b038083169116148061202f57506001600160a01b038116155b8061204357506001600160a01b0381166001145b8061205f5750826001600160a01b0316816001600160a01b0316145b8061208357506001600160a01b038181166000908152600560205260409020541615155b156120a157604051636e20250f60e01b815260040160405180910390fd5b6001600160a01b0381163b1561213d576040516301ffc9a760e01b8152630b135d3f60e11b60048201526001600160a01b038216906301ffc9a790602401602060405180830381865afa1580156120fc573d6000803e3d6000fd5b505050506040513d601f19601f820116820180604052508101906121209190612baf565b61213d57604051636e20250f60e01b815260040160405180910390fd5b6001600160a01b03928316600090815260056020526040902080546001600160a01b03191693821693909317909255600101611fd8565b506001600160a01b0316600090815260056020526040902080546001600160a01b03191660011790556003555050565b8060018110156121c757604051630bebdb8b60e01b815260040160405180910390fd5b600160005b8281101561238c5760008585838181106121e8576121e8612ac0565b90506020020160208101906121fd9190612509565b6001549091506001600160a01b038083169116148061222357506001600160a01b038116155b8061223757506001600160a01b0381166001145b806122535750826001600160a01b0316816001600160a01b0316145b8061227757506001600160a01b038181166000908152600660205260409020541615155b8061229b57506001600160a01b038181166000908152600560205260409020541615155b156122b957604051633a4723cb60e01b815260040160405180910390fd5b6001600160a01b0381163b15612355576040516301ffc9a760e01b8152630b135d3f60e11b60048201526001600160a01b038216906301ffc9a790602401602060405180830381865afa158015612314573d6000803e3d6000fd5b505050506040513d601f19601f820116820180604052508101906123389190612baf565b61235557604051633a4723cb60e01b815260040160405180910390fd5b6001600160a01b03928316600090815260066020526040902080546001600160a01b031916938216939093179092556001016121cc565b506001600160a01b0316600090815260066020526040902080546001600160a01b03191660011790556004555050565b80356001600160a01b03811681146123d357600080fd5b919050565b60008083601f8401126123ea57600080fd5b50813567ffffffffffffffff81111561240257600080fd5b60208301915083602082850101111561241a57600080fd5b9250929050565b60008060008060008060008060c0898b03121561243d57600080fd5b612446896123bc565b975061245460208a016123bc565b965061246260408a016123bc565b955060608901359450608089013567ffffffffffffffff8082111561248657600080fd5b6124928c838d016123d8565b909650945060a08b01359150808211156124ab57600080fd5b506124b88b828c016123d8565b999c989b5096995094979396929594505050565b6001600160e01b0319811681146124e257600080fd5b50565b6000602082840312156124f757600080fd5b8135612502816124cc565b9392505050565b60006020828403121561251b57600080fd5b612502826123bc565b6020808252825182820181905260009190848201906040850190845b818110156125655783516001600160a01b031683529284019291840191600101612540565b50909695505050505050565b60008083601f84011261258357600080fd5b50813567ffffffffffffffff81111561259b57600080fd5b6020830191508360208260051b850101111561241a57600080fd5b600080602083850312156125c957600080fd5b823567ffffffffffffffff8111156125e057600080fd5b6125ec85828601612571565b90969095509350505050565b60008060008060006080868803121561261057600080fd5b612619866123bc565b9450612627602087016123bc565b935060408601359250606086013567ffffffffffffffff81111561264a57600080fd5b612656888289016123d8565b969995985093965092949392505050565b634e487b7160e01b600052604160045260246000fd5b6000806040838503121561269057600080fd5b82359150602083013567ffffffffffffffff808211156126af57600080fd5b818501915085601f8301126126c357600080fd5b8135818111156126d5576126d5612667565b604051601f8201601f19908116603f011681019083821181831017156126fd576126fd612667565b8160405282815288602084870101111561271657600080fd5b8260208601602083013760006020848301015280955050505050509250929050565b6000806040838503121561274b57600080fd5b612754836123bc565b9150612762602084016123bc565b90509250929050565b600080600080600080600060a0888a03121561278657600080fd5b61278f886123bc565b965060208801359550604088013567ffffffffffffffff808211156127b357600080fd5b6127bf8b838c016123d8565b909750955060608a0135945060808a01359150808211156127df57600080fd5b506127ec8a828b016123d8565b989b979a50959850939692959293505050565b60008060008060006060868803121561281757600080fd5b85359450602086013567ffffffffffffffff8082111561283657600080fd5b61284289838a016123d8565b9096509450604088013591508082111561285b57600080fd5b50612656888289016123d8565b60008060008060008060006080888a03121561288357600080fd5b61288c886123bc565b9650602088013567ffffffffffffffff808211156128a957600080fd5b6128b58b838c01612571565b909850965060408a01359150808211156128ce57600080fd5b6128da8b838c01612571565b909650945060608a01359150808211156127df57600080fd5b6000815180845260005b81811015612919576020818501810151868301820152016128fd565b506000602082860101526020601f19601f83011685010191505092915050565b60208152600061250260208301846128f3565b60008060008060008060008060a0898b03121561296857600080fd5b612971896123bc565b975061297f60208a016123bc565b9650604089013567ffffffffffffffff8082111561299c57600080fd5b6129a88c838d01612571565b909850965060608b01359150808211156129c157600080fd5b6129cd8c838d01612571565b909650945060808b01359150808211156124ab57600080fd5b6000806000806000608086880312156129fe57600080fd5b612a07866123bc565b945060208601359350604086013567ffffffffffffffff811115612a2a57600080fd5b612a36888289016123d8565b96999598509660600135949350505050565b60008060008060008060a08789031215612a6157600080fd5b612a6a876123bc565b9550612a78602088016123bc565b94506040870135935060608701359250608087013567ffffffffffffffff811115612aa257600080fd5b612aae89828a016123d8565b979a9699509497509295939492505050565b634e487b7160e01b600052603260045260246000fd5b634e487b7160e01b600052601160045260246000fd5b600060018201612afe57612afe612ad6565b5060010190565b60008235609e19833603018112612b1b57600080fd5b9190910192915050565b6000808335601e19843603018112612b3c57600080fd5b83018035915067ffffffffffffffff821115612b5757600080fd5b60200191503681900382131561241a57600080fd5b818103818111156107a8576107a8612ad6565b6001600160e01b03198135818116916004851015612ba75780818660040360031b1b83161692505b505092915050565b600060208284031215612bc157600080fd5b8151801515811461250257600080fd5b8183823760009101908152919050565b60008160005b84811015612c16576001600160a01b03612c00836123bc565b1686526020958601959190910190600101612be7565b5093949350505050565b6000612c37612c3083888a612be1565b8587612be1565b9283525050602001949350505050565b828152604060208201526000612c6060408301846128f3565b949350505050565b600060208284031215612c7a57600080fd5b8151612502816124cc565b60ff82811682821603908111156107a8576107a8612ad656fea2646970667358221220c3a1557c552aa7a322935c46300de409d34df814b121b141d9a3ea4eeff9223f64736f6c63430008100033",
  "devdoc": {
    "author": "Rodrigo Herrera I.",
    "kind": "dev",
    "methods": {
      "addGuardian(address)": {
        "details": "Restricted, can only be called by address(this).",
        "params": {
          "newGuardian": "Address of the new guardian."
        }
      },
      "addRecoveryOwner(address)": {
        "details": "Restricted, can only be called by address(this).",
        "params": {
          "newRecoveryOwner": "Address of the new recovery owner."
        }
      },
      "changeOwner(address)": {
        "details": "Restricted, can only be called by address(this).",
        "params": {
          "newOwner": "Address of the new owner."
        }
      },
      "changeSingleton(address)": {
        "details": "Restricted, can only be called by address(this).",
        "params": {
          "newSingleton": "Address of the new singleton."
        }
      },
      "constructor": {
        "details": "Sets the owner of the implementation address (singleton) to 'this'.      This will make the base contract unusable, even though it does not have 'delegatecall'."
      },
      "exec(address,uint256,bytes,uint256,bytes)": {
        "params": {
          "_nonce": "Anti-replay number.",
          "callData": "Data payload to send.",
          "signatures": "Signatures of the hash of the transaction.",
          "to": "Destination address.",
          "value": "Amount in WEI to transfer."
        }
      },
      "getChainId()": {
        "returns": {
          "chainId": "The chain id of this."
        }
      },
      "getConfig()": {
        "returns": {
          "configTimestamp": " Time when the recover was triggered. _isLocked        Boolean if the wallet is currently locked."
        }
      },
      "getGuardians()": {
        "returns": {
          "_0": "Array of guardians for this wallet."
        }
      },
      "getRecoveryOwners()": {
        "returns": {
          "_0": "Array of recovery owners for this wallet."
        }
      },
      "init(address,address[],address[],bytes)": {
        "params": {
          "_guardians": "Array of guardians.",
          "_owner": "The owner of the wallet.",
          "_recoveryOwners": "Array of recovery owners.",
          "ownerSignature": "Signature of the owner that validates the correctness of the address."
        }
      },
      "isValidSignature(bytes32,bytes)": {
        "params": {
          "hash": "Hash of the data to be signed.",
          "signature": "Signature byte array associated with hash. MUST return the bytes4 magic value 0x1626ba7e when function passes. MUST NOT modify state (using STATICCALL for solc < 0.5, view modifier for solc > 0.5) MUST allow external calls"
        },
        "returns": {
          "_0": "Magic value."
        }
      },
      "multiCall((address,uint256,bytes,uint256,bytes)[])": {
        "params": {
          "transactions": "An array of Laser transactions."
        }
      },
      "recover(address)": {
        "details": "Restricted, can only be called by address(this).",
        "params": {
          "newOwner": "Address of the new owner."
        }
      },
      "recovery(uint256,bytes,bytes)": {
        "params": {
          "callData": "Data payload, can only be either lock(), unlock() or recover(address).",
          "signatures": "Signatures of the hash of the transaction."
        }
      },
      "removeGuardian(address,address)": {
        "details": "Restricted, can only be called by address(this).",
        "params": {
          "guardianToRemove": "Address of the guardian to be removed.",
          "prevGuardian": "Address of the previous guardian in the linked list."
        }
      },
      "removeRecoveryOwner(address,address)": {
        "details": "Restricted, can only be called by address(this).",
        "params": {
          "prevRecoveryOwner": "Address of the previous recovery owner in the linked list.",
          "recoveryOwnerToRemove": "Address of the recovery owner to be removed."
        }
      },
      "unlock()": {
        "details": "Restricted, can only be called by address(this)."
      }
    },
    "title": "LaserWallet",
    "version": 1
  },
  "userdoc": {
    "kind": "user",
    "methods": {
      "addGuardian(address)": {
        "notice": "Adds a new guardian. Can only be called by the owner + recovery owner         or owner + guardian."
      },
      "addRecoveryOwner(address)": {
        "notice": "Adds a new recovery owner. Can only be called by the owner + recovery owner         or owner + guardian."
      },
      "changeOwner(address)": {
        "notice": "Changes the owner of the wallet. Can only be called by the owner + recovery owner         or owner + guardian."
      },
      "changeSingleton(address)": {
        "notice": "Changes the singleton. Can only be called by the owner + recovery owner         or owner + guardian."
      },
      "domainSeparator()": {
        "notice": "Domain separator for this wallet."
      },
      "exec(address,uint256,bytes,uint256,bytes)": {
        "notice": "Executes a generic transaction.         The transaction is required to be signed by the owner + recovery owner or owner + guardian         while the wallet is not locked."
      },
      "init(address,address[],address[],bytes)": {
        "notice": "Setup function, sets initial storage of the wallet.         It can't be called after initialization."
      },
      "isValidSignature(bytes32,bytes)": {
        "notice": "Should return whether the signature provided is valid for the provided hash."
      },
      "multiCall((address,uint256,bytes,uint256,bytes)[])": {
        "notice": "Executes a batch of transactions."
      },
      "operationHash(address,uint256,bytes,uint256)": {
        "notice": "Returns the hash to be signed to execute a transaction."
      },
      "recover(address)": {
        "notice": "Recovers the wallet. Can only be called by the recovery owner + recovery owner         or recovery owner + guardian."
      },
      "recovery(uint256,bytes,bytes)": {
        "notice": "Triggers the recovery mechanism."
      },
      "removeGuardian(address,address)": {
        "notice": "Removes a guardian. Can only be called by the owner + recovery owner         or owner + guardian."
      },
      "removeRecoveryOwner(address,address)": {
        "notice": "Removes a recovery owner. Can only be called by the owner + recovery owner         or owner + guardian."
      },
      "unlock()": {
        "notice": "Unlocks the wallet. Can only be called by the owner + recovery owner         or owner + guardian."
      }
    },
    "notice": "Laser is a secure smart contract wallet (vault) made for the Ethereum Virtual Machine.",
    "version": 1
  },
  "storageLayout": {
    "storage": [
      {
        "astId": 1808,
        "contract": "contracts/LaserWallet.sol:LaserWallet",
        "label": "singleton",
        "offset": 0,
        "slot": "0",
        "type": "t_address"
      },
      {
        "astId": 1810,
        "contract": "contracts/LaserWallet.sol:LaserWallet",
        "label": "owner",
        "offset": 0,
        "slot": "1",
        "type": "t_address"
      },
      {
        "astId": 1812,
        "contract": "contracts/LaserWallet.sol:LaserWallet",
        "label": "nonce",
        "offset": 0,
        "slot": "2",
        "type": "t_uint256"
      },
      {
        "astId": 1814,
        "contract": "contracts/LaserWallet.sol:LaserWallet",
        "label": "guardianCount",
        "offset": 0,
        "slot": "3",
        "type": "t_uint256"
      },
      {
        "astId": 1816,
        "contract": "contracts/LaserWallet.sol:LaserWallet",
        "label": "recoveryOwnerCount",
        "offset": 0,
        "slot": "4",
        "type": "t_uint256"
      },
      {
        "astId": 1820,
        "contract": "contracts/LaserWallet.sol:LaserWallet",
        "label": "guardians",
        "offset": 0,
        "slot": "5",
        "type": "t_mapping(t_address,t_address)"
      },
      {
        "astId": 1824,
        "contract": "contracts/LaserWallet.sol:LaserWallet",
        "label": "recoveryOwners",
        "offset": 0,
        "slot": "6",
        "type": "t_mapping(t_address,t_address)"
      },
      {
        "astId": 1827,
        "contract": "contracts/LaserWallet.sol:LaserWallet",
        "label": "walletConfig",
        "offset": 0,
        "slot": "7",
        "type": "t_struct(WalletConfig)1244_storage"
      }
    ],
    "types": {
      "t_address": {
        "encoding": "inplace",
        "label": "address",
        "numberOfBytes": "20"
      },
      "t_bool": {
        "encoding": "inplace",
        "label": "bool",
        "numberOfBytes": "1"
      },
      "t_mapping(t_address,t_address)": {
        "encoding": "mapping",
        "key": "t_address",
        "label": "mapping(address => address)",
        "numberOfBytes": "32",
        "value": "t_address"
      },
      "t_struct(WalletConfig)1244_storage": {
        "encoding": "inplace",
        "label": "struct WalletConfig",
        "members": [
          {
            "astId": 1239,
            "contract": "contracts/LaserWallet.sol:LaserWallet",
            "label": "isLocked",
            "offset": 0,
            "slot": "0",
            "type": "t_bool"
          },
          {
            "astId": 1241,
            "contract": "contracts/LaserWallet.sol:LaserWallet",
            "label": "timestamp",
            "offset": 0,
            "slot": "1",
            "type": "t_uint256"
          },
          {
            "astId": 1243,
            "contract": "contracts/LaserWallet.sol:LaserWallet",
            "label": "oldOwner",
            "offset": 0,
            "slot": "2",
            "type": "t_address"
          }
        ],
        "numberOfBytes": "96"
      },
      "t_uint256": {
        "encoding": "inplace",
        "label": "uint256",
        "numberOfBytes": "32"
      }
    }
  }
}