{
  "address": "0x5FbDB2315678afecb367f032d93F642f64180aa3",
  "abi": [
    {
      "inputs": [
        {
          "internalType": "address",
          "name": "laserWallet",
          "type": "address"
        },
        {
          "internalType": "address",
          "name": "SSRModule",
          "type": "address"
        }
      ],
      "name": "getWalletState",
      "outputs": [
        {
          "internalType": "address",
          "name": "owner",
          "type": "address"
        },
        {
          "internalType": "address",
          "name": "singleton",
          "type": "address"
        },
        {
          "internalType": "bool",
          "name": "isLocked",
          "type": "bool"
        },
        {
          "internalType": "address[]",
          "name": "guardians",
          "type": "address[]"
        },
        {
          "internalType": "address[]",
          "name": "recoveryOwners",
          "type": "address[]"
        },
        {
          "internalType": "uint256",
          "name": "nonce",
          "type": "uint256"
        },
        {
          "internalType": "uint256",
          "name": "balance",
          "type": "uint256"
        }
      ],
      "stateMutability": "view",
      "type": "function"
    },
    {
      "inputs": [
        {
          "internalType": "address",
          "name": "wallet",
          "type": "address"
        },
        {
          "internalType": "address",
          "name": "to",
          "type": "address"
        },
        {
          "internalType": "uint256",
          "name": "value",
          "type": "uint256"
        },
        {
          "internalType": "bytes",
          "name": "callData",
          "type": "bytes"
        },
        {
          "internalType": "uint256",
          "name": "_nonce",
          "type": "uint256"
        },
        {
          "internalType": "uint256",
          "name": "maxFeePerGas",
          "type": "uint256"
        },
        {
          "internalType": "uint256",
          "name": "maxPriorityFeePerGas",
          "type": "uint256"
        },
        {
          "internalType": "uint256",
          "name": "gasLimit",
          "type": "uint256"
        },
        {
          "internalType": "address",
          "name": "relayer",
          "type": "address"
        },
        {
          "internalType": "bytes",
          "name": "signatures",
          "type": "bytes"
        }
      ],
      "name": "simulateTransaction",
      "outputs": [
        {
          "internalType": "uint256",
          "name": "totalGas",
          "type": "uint256"
        }
      ],
      "stateMutability": "nonpayable",
      "type": "function"
    }
  ],
  "transactionHash": "0x077b96a9153b1b44ad2cb8500ed05288715b4f74fc881cdf368b7cfb2bc61a32",
  "args": [],
  "numDeployments": 1,
  "solcInputHash": "afa65ccc745496bd02681fab59e6689e",
  "bytecode": "0x608060405234801561001057600080fd5b506108ad806100206000396000f3fe608060405234801561001057600080fd5b50600436106100365760003560e01c80631ca1f41b1461003b5780635e24d27c1461006a575b600080fd5b61004e61004936600461046e565b61008b565b60405161006197969594939291906104eb565b60405180910390f35b61007d610078366004610591565b61032f565b604051908152602001610061565b600080600060608060008060008990506000899050816001600160a01b0316638da5cb5b6040518163ffffffff1660e01b8152600401602060405180830381865afa1580156100de573d6000803e3d6000fd5b505050506040513d601f19601f82011682018060405250810190610102919061067b565b9850816001600160a01b031663b62654fb6040518163ffffffff1660e01b8152600401602060405180830381865afa158015610142573d6000803e3d6000fd5b505050506040513d601f19601f82011682018060405250810190610166919061067b565b9750816001600160a01b031663a4e2d6346040518163ffffffff1660e01b8152600401602060405180830381865afa1580156101a6573d6000803e3d6000fd5b505050506040513d601f19601f820116820180604052508101906101ca919061069f565b60405163f18858ab60e01b81526001600160a01b038d811660048301529198509082169063f18858ab90602401600060405180830381865afa158015610214573d6000803e3d6000fd5b505050506040513d6000823e601f3d908101601f1916820160405261023c91908101906106d7565b6040516339405f5f60e21b81526001600160a01b038d811660048301529197509082169063e5017d7c90602401600060405180830381865afa158015610286573d6000803e3d6000fd5b505050506040513d6000823e601f3d908101601f191682016040526102ae91908101906106d7565b9450816001600160a01b031663affed0e06040518163ffffffff1660e01b8152600401602060405180830381865afa1580156102ee573d6000803e3d6000fd5b505050506040513d601f19601f82011682018060405250810190610312919061079c565b93508a6001600160a01b0316319250505092959891949750929550565b60005a61033c90866107b5565b60405163816e106760e01b81529091506001600160a01b038e169063816e10679061037f908f908f908f908f908f908f908f908f908f908f908f90600401610803565b600060405180830381600087803b15801561039957600080fd5b505af11580156103ad573d6000803e3d6000fd5b505050505a6103bc90826107b5565b905033156104365760405162461bcd60e51b815260206004820152602b60248201527f4d7573742062652063616c6c6564206f66662d636861696e2066726f6d20616460448201527f6472657373207a65726f2e000000000000000000000000000000000000000000606482015260840160405180910390fd5b9c9b505050505050505050505050565b6001600160a01b038116811461045b57600080fd5b50565b803561046981610446565b919050565b6000806040838503121561048157600080fd5b823561048c81610446565b9150602083013561049c81610446565b809150509250929050565b600081518084526020808501945080840160005b838110156104e05781516001600160a01b0316875295820195908201906001016104bb565b509495945050505050565b60006001600160a01b03808a168352808916602084015250861515604083015260e0606083015261051f60e08301876104a7565b828103608084015261053181876104a7565b60a0840195909552505060c0015295945050505050565b60008083601f84011261055a57600080fd5b50813567ffffffffffffffff81111561057257600080fd5b60208301915083602082850101111561058a57600080fd5b9250929050565b6000806000806000806000806000806000806101408d8f0312156105b457600080fd5b6105bd8d61045e565b9b506105cb60208e0161045e565b9a5060408d0135995067ffffffffffffffff60608e013511156105ed57600080fd5b6105fd8e60608f01358f01610548565b909950975060808d0135965060a08d0135955060c08d0135945060e08d0135935061062b6101008e0161045e565b925067ffffffffffffffff6101208e0135111561064757600080fd5b6106588e6101208f01358f01610548565b81935080925050509295989b509295989b509295989b565b805161046981610446565b60006020828403121561068d57600080fd5b815161069881610446565b9392505050565b6000602082840312156106b157600080fd5b8151801515811461069857600080fd5b634e487b7160e01b600052604160045260246000fd5b600060208083850312156106ea57600080fd5b825167ffffffffffffffff8082111561070257600080fd5b818501915085601f83011261071657600080fd5b815181811115610728576107286106c1565b8060051b604051601f19603f8301168101818110858211171561074d5761074d6106c1565b60405291825284820192508381018501918883111561076b57600080fd5b938501935b828510156107905761078185610670565b84529385019392850192610770565b98975050505050505050565b6000602082840312156107ae57600080fd5b5051919050565b6000828210156107d557634e487b7160e01b600052601160045260246000fd5b500390565b81835281816020850137506000828201602090810191909152601f909101601f19169091010190565b60006101206001600160a01b03808f1684528d602085015281604085015261082e8285018d8f6107da565b91508a60608501528960808501528860a08501528760c085015280871660e0850152508281036101008401526108658185876107da565b9e9d505050505050505050505050505056fea26469706673582212201c9ad361fd92b6f1435edc6b3903e12fd3c8dc4e199d49f30daa5594b358065864736f6c634300080f0033",
  "devdoc": {
    "kind": "dev",
    "methods": {
      "getWalletState(address,address)": {
        "details": "Returns the wallet state + SSR module."
      }
    },
    "title": "LaserHelper - Helper contract that outputs multiple results in a single call.",
    "version": 1
  },
  "userdoc": {
    "kind": "user",
    "methods": {},
    "version": 1
  },
  "storageLayout": {
    "storage": [],
    "types": null
  }
}