{
  "address": "0x0165878A594ca255338adfa4d48449f69242Eb8F",
  "abi": [
    {
      "inputs": [
        {
          "internalType": "address",
          "name": "_singleton",
          "type": "address"
        },
        {
          "internalType": "address",
          "name": "_laserRegistry",
          "type": "address"
        },
        {
          "internalType": "address",
          "name": "_laserMasterGuard",
          "type": "address"
        }
      ],
      "stateMutability": "nonpayable",
      "type": "constructor"
    },
    {
      "inputs": [],
      "name": "LaserFactory__constructor__invalidSingleton",
      "type": "error"
    },
    {
      "inputs": [],
      "name": "LaserFactory__create2Failed",
      "type": "error"
    },
    {
      "anonymous": false,
      "inputs": [
        {
          "indexed": false,
          "internalType": "address",
          "name": "proxy",
          "type": "address"
        }
      ],
      "name": "ProxyCreation",
      "type": "event"
    },
    {
      "inputs": [
        {
          "internalType": "address",
          "name": "owner",
          "type": "address"
        },
        {
          "internalType": "uint256",
          "name": "maxFeePerGas",
          "type": "uint256"
        },
        {
          "internalType": "uint256",
          "name": "maxPriorityFeePerGas",
          "type": "uint256"
        },
        {
          "internalType": "uint256",
          "name": "gasLimit",
          "type": "uint256"
        },
        {
          "internalType": "address",
          "name": "relayer",
          "type": "address"
        },
        {
          "internalType": "address",
          "name": "smartSocialRecoveryModule",
          "type": "address"
        },
        {
          "internalType": "address",
          "name": "laserVault",
          "type": "address"
        },
        {
          "internalType": "bytes",
          "name": "smartSocialRecoveryInitData",
          "type": "bytes"
        },
        {
          "internalType": "uint256",
          "name": "saltNumber",
          "type": "uint256"
        },
        {
          "internalType": "bytes",
          "name": "ownerSignature",
          "type": "bytes"
        }
      ],
      "name": "deployProxyAndRefund",
      "outputs": [
        {
          "internalType": "contract LaserProxy",
          "name": "proxy",
          "type": "address"
        }
      ],
      "stateMutability": "nonpayable",
      "type": "function"
    },
    {
      "inputs": [],
      "name": "laserMasterGuard",
      "outputs": [
        {
          "internalType": "address",
          "name": "",
          "type": "address"
        }
      ],
      "stateMutability": "view",
      "type": "function"
    },
    {
      "inputs": [],
      "name": "laserRegistry",
      "outputs": [
        {
          "internalType": "address",
          "name": "",
          "type": "address"
        }
      ],
      "stateMutability": "view",
      "type": "function"
    },
    {
      "inputs": [
        {
          "internalType": "address",
          "name": "owner",
          "type": "address"
        },
        {
          "internalType": "address",
          "name": "laserModule",
          "type": "address"
        },
        {
          "internalType": "bytes",
          "name": "laserModuleData",
          "type": "bytes"
        },
        {
          "internalType": "uint256",
          "name": "saltNumber",
          "type": "uint256"
        }
      ],
      "name": "preComputeAddress",
      "outputs": [
        {
          "internalType": "address",
          "name": "",
          "type": "address"
        }
      ],
      "stateMutability": "view",
      "type": "function"
    },
    {
      "inputs": [],
      "name": "proxyCreationCode",
      "outputs": [
        {
          "internalType": "bytes",
          "name": "",
          "type": "bytes"
        }
      ],
      "stateMutability": "pure",
      "type": "function"
    },
    {
      "inputs": [],
      "name": "proxyRuntimeCode",
      "outputs": [
        {
          "internalType": "bytes",
          "name": "",
          "type": "bytes"
        }
      ],
      "stateMutability": "pure",
      "type": "function"
    },
    {
      "inputs": [],
      "name": "singleton",
      "outputs": [
        {
          "internalType": "address",
          "name": "",
          "type": "address"
        }
      ],
      "stateMutability": "view",
      "type": "function"
    }
  ],
  "transactionHash": "0x79a2241fb33eda46e4dcd51df7fe20c71b2ba1b5c53c2fafca9045fd7e36dd72",
  "args": [
    "0x5FbDB2315678afecb367f032d93F642f64180aa3",
    "0xCf7Ed3AccA5a467e9e704C703E8D87F634fB0Fc9",
    "0x5FC8d32690cc91D4c39d9d3abcBD16989F875707"
  ],
  "numDeployments": 1,
  "solcInputHash": "de78a7bd8420c51032966958e96a675c",
  "bytecode": "0x60e060405234801561001057600080fd5b50604051610bc1380380610bc183398101604081905261002f916100f4565b6040516301ffc9a760e01b815263ae029e0b60e01b60048201526001600160a01b038416906301ffc9a790602401602060405180830381865afa15801561007a573d6000803e3d6000fd5b505050506040513d601f19601f8201168201806040525081019061009e9190610137565b6100bb5760405163019126e960e41b815260040160405180910390fd5b6001600160a01b0392831660805290821660a0521660c052610160565b80516001600160a01b03811681146100ef57600080fd5b919050565b60008060006060848603121561010957600080fd5b610112846100d8565b9250610120602085016100d8565b915061012e604085016100d8565b90509250925092565b60006020828403121561014957600080fd5b8151801515811461015957600080fd5b9392505050565b60805160a05160c051610a176101aa60003960008181610106015261018a015260008181608701526101ac015260008181610135015281816102ad01526104390152610a176000f3fe608060405234801561001057600080fd5b506004361061007d5760003560e01c806363b8ee321161005b57806363b8ee32146100ee57806399e1bebb14610101578063addacc0f14610128578063b62654fb1461013057600080fd5b80632e17899214610082578063396adf2a146100c657806353e5d935146100d9575b600080fd5b6100a97f000000000000000000000000000000000000000000000000000000000000000081565b6040516001600160a01b0390911681526020015b60405180910390f35b6100a96100d4366004610584565b610157565b6100e1610271565b6040516100bd91906106af565b6100a96100fc3660046106c9565b61029b565b6100a97f000000000000000000000000000000000000000000000000000000000000000081565b6100e16103b7565b6100a97f000000000000000000000000000000000000000000000000000000000000000081565b6000806101668c8887876103c9565b905061017181610402565b9150816001600160a01b0316635e8ec0198d8d8d8d8d8d7f00000000000000000000000000000000000000000000000000000000000000008e7f00000000000000000000000000000000000000000000000000000000000000008f8e6040518c63ffffffff1660e01b81526004016101f39b9a9998979695949392919061075f565b600060405180830381600087803b15801561020d57600080fd5b505af1158015610221573d6000803e3d6000fd5b50506040516001600160a01b03851681527fa38789425dbeee0239e16ff2d2567e31720127fbc6430758c1a4efc6aef29f809250602001905060405180910390a1509a9950505050505050505050565b606060405180602001610283906104ac565b601f1982820381018352601f90910116604052919050565b6000806102a6610271565b90506000817f00000000000000000000000000000000000000000000000000000000000000006001600160a01b03166040516020016102e69291906107f4565b60408051601f198184030181526020601f89018190048102840181019092528783529250600091610337918b918b918b908b90819084018382808284376000920191909152508b92506103c9915050565b8251602093840120604080517fff00000000000000000000000000000000000000000000000000000000000000818701523060601b6bffffffffffffffffffffffff191660218201526035810193909352605580840192909252805180840390920182526075909201909152805192019190912098975050505050505050565b606060405180602001610283906104b9565b6000848484846040516020016103e29493929190610816565b604051602081830303815290604052805190602001209050949350505050565b60008060405180602001610415906104ac565b601f1982820381018352601f90910116604081905261046291906001600160a01b037f000000000000000000000000000000000000000000000000000000000000000016906020016107f4565b6040516020818303038152906040529050828151826020016000f591506001600160a01b0382166104a657604051634f8528bf60e01b815260040160405180910390fd5b50919050565b6101088061086483390190565b60768061096c83390190565b80356001600160a01b03811681146104dc57600080fd5b919050565b634e487b7160e01b600052604160045260246000fd5b600082601f83011261050857600080fd5b813567ffffffffffffffff80821115610523576105236104e1565b604051601f8301601f19908116603f0116810190828211818310171561054b5761054b6104e1565b8160405283815286602085880101111561056457600080fd5b836020870160208301376000602085830101528094505050505092915050565b6000806000806000806000806000806101408b8d0312156105a457600080fd5b6105ad8b6104c5565b995060208b0135985060408b0135975060608b013596506105d060808c016104c5565b95506105de60a08c016104c5565b94506105ec60c08c016104c5565b935060e08b013567ffffffffffffffff8082111561060957600080fd5b6106158e838f016104f7565b94506101008d013593506101208d013591508082111561063457600080fd5b506106418d828e016104f7565b9150509295989b9194979a5092959850565b60005b8381101561066e578181015183820152602001610656565b8381111561067d576000848401525b50505050565b6000815180845261069b816020860160208601610653565b601f01601f19169290920160200192915050565b6020815260006106c26020830184610683565b9392505050565b6000806000806000608086880312156106e157600080fd5b6106ea866104c5565b94506106f8602087016104c5565b9350604086013567ffffffffffffffff8082111561071557600080fd5b818801915088601f83011261072957600080fd5b81358181111561073857600080fd5b89602082850101111561074a57600080fd5b96999598505060200195606001359392505050565b60006101606001600160a01b03808f1684528d60208501528c60408501528b6060850152808b166080850152808a1660a085015280891660c085015280881660e0850152506107ba6101008401876001600160a01b03169052565b806101208401526107cd81840186610683565b90508281036101408401526107e28185610683565b9e9d5050505050505050505050505050565b60008351610806818460208801610653565b9190910191825250602001919050565b60006bffffffffffffffffffffffff19808760601b168352808660601b16601484015250835161084d816028850160208801610653565b602892019182019290925260480194935050505056fe608060405234801561001057600080fd5b5060405161010838038061010883398101604081905261002f91610054565b600080546001600160a01b0319166001600160a01b0392909216919091179055610084565b60006020828403121561006657600080fd5b81516001600160a01b038116811461007d57600080fd5b9392505050565b6076806100926000396000f3fe60806040526000805473ffffffffffffffffffffffffffffffffffffffff169036908037600080366000845af43d6000803e80603a573d6000fd5b503d6000f3fea26469706673582212208413e618ed8222507cc86672a8d66e3617af344e953c701a12812242f58e271464736f6c634300080f003360806040526000805473ffffffffffffffffffffffffffffffffffffffff169036908037600080366000845af43d6000803e80603a573d6000fd5b503d6000f3fea26469706673582212208413e618ed8222507cc86672a8d66e3617af344e953c701a12812242f58e271464736f6c634300080f0033a2646970667358221220b1d5003374769866987556e25592898952125584c0b187c7cbdbffda4ba1bd7f64736f6c634300080f0033",
  "devdoc": {
    "errors": {
      "LaserFactory__constructor__invalidSingleton()": [
        {
          "details": "constructor() custom error."
        }
      ],
      "LaserFactory__create2Failed()": [
        {
          "details": "createProxyWithCreate2() custom error."
        }
      ]
    },
    "kind": "dev",
    "methods": {
      "constructor": {
        "params": {
          "_singleton": "Master copy of the proxy."
        }
      },
      "deployProxyAndRefund(address,uint256,uint256,uint256,address,address,address,bytes,uint256,bytes)": {
        "details": "Creates a new proxy with create 2, initializes the wallet and refunds the relayer."
      },
      "preComputeAddress(address,address,bytes,uint256)": {
        "details": "Precomputes the address of a proxy that is created through 'create2'."
      },
      "proxyCreationCode()": {
        "details": "Allows to retrieve the creation code used for the Proxy deployment. With this it is easily possible to calculate predicted address."
      },
      "proxyRuntimeCode()": {
        "details": "Allows to retrieve the runtime code of a deployed Proxy. This can be used to check that the expected Proxy was deployed."
      }
    },
    "title": "LaserFactory",
    "version": 1
  },
  "userdoc": {
    "kind": "user",
    "methods": {},
    "notice": "Factory that creates new Laser proxies, and has helper methods.",
    "version": 1
  },
  "storageLayout": {
    "storage": [],
    "types": null
  }
}