{
  "address": "0x5FbDB2315678afecb367f032d93F642f64180aa3",
  "abi": [
    {
      "inputs": [
        {
          "internalType": "address",
          "name": "laserWallet",
          "type": "address"
        }
      ],
      "name": "getWalletState",
      "outputs": [
        {
          "internalType": "address",
          "name": "owner",
          "type": "address"
        },
        {
          "internalType": "address",
          "name": "singleton",
          "type": "address"
        },
        {
          "internalType": "uint256",
          "name": "timeLock",
          "type": "uint256"
        },
        {
          "internalType": "bool",
          "name": "isLocked",
          "type": "bool"
        },
        {
          "internalType": "bool",
          "name": "guardiansLocked",
          "type": "bool"
        },
        {
          "internalType": "address[]",
          "name": "guardians",
          "type": "address[]"
        },
        {
          "internalType": "address[]",
          "name": "recoveryOwners",
          "type": "address[]"
        },
        {
          "internalType": "uint256",
          "name": "nonce",
          "type": "uint256"
        }
      ],
      "stateMutability": "view",
      "type": "function"
    }
  ],
  "transactionHash": "0x9605e776b0ba893b49d360e13a95b9ebd4daebada1b81799465edd6a94804fe8",
  "args": [],
  "numDeployments": 1,
  "solcInputHash": "2f1973d6fd9bc4ab1ed20e5a3d4a9ef5",
  "bytecode": "0x608060405234801561001057600080fd5b5061060b806100206000396000f3fe608060405234801561001057600080fd5b506004361061002b5760003560e01c8063955189c814610030575b600080fd5b61004361003e3660046103bd565b610060565b604051610057989796959493929190610425565b60405180910390f35b6000806000806000606080600080899050806001600160a01b0316638da5cb5b6040518163ffffffff1660e01b8152600401602060405180830381865afa1580156100af573d6000803e3d6000fd5b505050506040513d601f19601f820116820180604052508101906100d391906104a2565b9850806001600160a01b031663b62654fb6040518163ffffffff1660e01b8152600401602060405180830381865afa158015610113573d6000803e3d6000fd5b505050506040513d601f19601f8201168201806040525081019061013791906104a2565b9750806001600160a01b031663d085835a6040518163ffffffff1660e01b8152600401602060405180830381865afa158015610177573d6000803e3d6000fd5b505050506040513d601f19601f8201168201806040525081019061019b91906104bf565b9650806001600160a01b031663a4e2d6346040518163ffffffff1660e01b8152600401602060405180830381865afa1580156101db573d6000803e3d6000fd5b505050506040513d601f19601f820116820180604052508101906101ff91906104d8565b9550806001600160a01b031663e98a801d6040518163ffffffff1660e01b8152600401602060405180830381865afa15801561023f573d6000803e3d6000fd5b505050506040513d601f19601f8201168201806040525081019061026391906104d8565b9450806001600160a01b0316630665f04b6040518163ffffffff1660e01b8152600401600060405180830381865afa1580156102a3573d6000803e3d6000fd5b505050506040513d6000823e601f3d908101601f191682016040526102cb9190810190610510565b9350806001600160a01b031663c194a0466040518163ffffffff1660e01b8152600401600060405180830381865afa15801561030b573d6000803e3d6000fd5b505050506040513d6000823e601f3d908101601f191682016040526103339190810190610510565b9250806001600160a01b031663affed0e06040518163ffffffff1660e01b8152600401602060405180830381865afa158015610373573d6000803e3d6000fd5b505050506040513d601f19601f8201168201806040525081019061039791906104bf565b915050919395975091939597565b6001600160a01b03811681146103ba57600080fd5b50565b6000602082840312156103cf57600080fd5b81356103da816103a5565b9392505050565b600081518084526020808501945080840160005b8381101561041a5781516001600160a01b0316875295820195908201906001016103f5565b509495945050505050565b60006101006001600160a01b03808c168452808b16602085015250886040840152871515606084015286151560808401528060a0840152610468818401876103e1565b905082810360c084015261047c81866103e1565b9150508260e08301529998505050505050505050565b805161049d816103a5565b919050565b6000602082840312156104b457600080fd5b81516103da816103a5565b6000602082840312156104d157600080fd5b5051919050565b6000602082840312156104ea57600080fd5b815180151581146103da57600080fd5b634e487b7160e01b600052604160045260246000fd5b6000602080838503121561052357600080fd5b825167ffffffffffffffff8082111561053b57600080fd5b818501915085601f83011261054f57600080fd5b815181811115610561576105616104fa565b8060051b604051601f19603f83011681018181108582111715610586576105866104fa565b6040529182528482019250838101850191888311156105a457600080fd5b938501935b828510156105c9576105ba85610492565b845293850193928501926105a9565b9897505050505050505056fea2646970667358221220d30ce6e219f8a599b7bb1ad5794245373322c3bcd1467cd5c37873cc43027cd364736f6c634300080f0033",
  "devdoc": {
    "kind": "dev",
    "methods": {},
    "title": "LaserHelper - Helper contract that outputs multiple results in a single call.",
    "version": 1
  },
  "userdoc": {
    "kind": "user",
    "methods": {},
    "version": 1
  },
  "storageLayout": {
    "storage": [],
    "types": null
  }
}