{
  "address": "0xDc64a140Aa3E981100a9becA4E685f962f0cF6C9",
  "abi": [
    {
      "inputs": [
        {
          "internalType": "address",
          "name": "smartSocialRecovery",
          "type": "address"
        }
      ],
      "stateMutability": "nonpayable",
      "type": "constructor"
    },
    {
      "inputs": [],
      "name": "LaserVault__verifyCommonApprove__erc20InVault",
      "type": "error"
    },
    {
      "inputs": [],
      "name": "LaserVault__verifyERC20Transfer__erc20InVault",
      "type": "error"
    },
    {
      "inputs": [],
      "name": "LaserVault__verifyEth__ethInVault",
      "type": "error"
    },
    {
      "inputs": [],
      "name": "Utils__returnSigner__invalidContractSignature",
      "type": "error"
    },
    {
      "inputs": [],
      "name": "Utils__returnSigner__invalidSignature",
      "type": "error"
    },
    {
      "anonymous": false,
      "inputs": [
        {
          "indexed": true,
          "internalType": "address",
          "name": "",
          "type": "address"
        },
        {
          "indexed": true,
          "internalType": "uint256",
          "name": "",
          "type": "uint256"
        }
      ],
      "name": "TokensAdded",
      "type": "event"
    },
    {
      "anonymous": false,
      "inputs": [
        {
          "indexed": true,
          "internalType": "address",
          "name": "",
          "type": "address"
        },
        {
          "indexed": true,
          "internalType": "uint256",
          "name": "",
          "type": "uint256"
        }
      ],
      "name": "TokensRemoved",
      "type": "event"
    },
    {
      "inputs": [],
      "name": "LASER_SMART_SOCIAL_RECOVERY",
      "outputs": [
        {
          "internalType": "address",
          "name": "",
          "type": "address"
        }
      ],
      "stateMutability": "view",
      "type": "function"
    },
    {
      "inputs": [
        {
          "internalType": "address",
          "name": "token",
          "type": "address"
        },
        {
          "internalType": "uint256",
          "name": "amount",
          "type": "uint256"
        }
      ],
      "name": "addTokensToVault",
      "outputs": [],
      "stateMutability": "nonpayable",
      "type": "function"
    },
    {
      "inputs": [
        {
          "internalType": "address",
          "name": "wallet",
          "type": "address"
        },
        {
          "internalType": "address",
          "name": "token",
          "type": "address"
        }
      ],
      "name": "getTokensInVault",
      "outputs": [
        {
          "internalType": "uint256",
          "name": "",
          "type": "uint256"
        }
      ],
      "stateMutability": "view",
      "type": "function"
    },
    {
      "inputs": [
        {
          "internalType": "address",
          "name": "token",
          "type": "address"
        },
        {
          "internalType": "uint256",
          "name": "amount",
          "type": "uint256"
        },
        {
          "internalType": "bytes",
          "name": "guardianSignature",
          "type": "bytes"
        }
      ],
      "name": "removeTokensFromVault",
      "outputs": [],
      "stateMutability": "nonpayable",
      "type": "function"
    },
    {
      "inputs": [
        {
          "internalType": "address",
          "name": "wallet",
          "type": "address"
        },
        {
          "internalType": "address",
          "name": "to",
          "type": "address"
        },
        {
          "internalType": "uint256",
          "name": "value",
          "type": "uint256"
        },
        {
          "internalType": "bytes",
          "name": "callData",
          "type": "bytes"
        },
        {
          "internalType": "uint256",
          "name": "",
          "type": "uint256"
        },
        {
          "internalType": "uint256",
          "name": "",
          "type": "uint256"
        },
        {
          "internalType": "uint256",
          "name": "",
          "type": "uint256"
        },
        {
          "internalType": "uint256",
          "name": "",
          "type": "uint256"
        },
        {
          "internalType": "bytes",
          "name": "",
          "type": "bytes"
        }
      ],
      "name": "verifyTransaction",
      "outputs": [],
      "stateMutability": "view",
      "type": "function"
    }
  ],
  "transactionHash": "0xe4f15507a22db5a17c1a94270b2170d4019d1fc2831576bb591549b7d9258d43",
  "args": [
    "0xe7f1725E7734CE288F8367e1Bb143E90bb3F0512"
  ],
  "numDeployments": 1,
  "solcInputHash": "de78a7bd8420c51032966958e96a675c",
  "bytecode": "0x60a060405234801561001057600080fd5b50604051610f99380380610f9983398101604081905261002f91610040565b6001600160a01b0316608052610070565b60006020828403121561005257600080fd5b81516001600160a01b038116811461006957600080fd5b9392505050565b608051610f0861009160003960008181608601526103750152610f086000f3fe608060405234801561001057600080fd5b50600436106100675760003560e01c80635b3458aa116100505780635b3458aa146100c55780635f7049dd1461010a5780638e9c326d1461011d57600080fd5b8063167cd1821461006c5780631f68b4bd14610081575b600080fd5b61007f61007a366004610bb4565b610130565b005b6100a87f000000000000000000000000000000000000000000000000000000000000000081565b6040516001600160a01b0390911681526020015b60405180910390f35b6100fc6100d3366004610c86565b6001600160a01b0391821660009081526020818152604080832093909416825291909152205490565b6040519081526020016100bc565b61007f610118366004610cbf565b6101c8565b61007f61012b366004610ceb565b610239565b600061013c888a610d47565b9050891561014e5761014e8c8b6104ad565b6356fa634560e01b6001600160e01b0319821601610172576101728c8c8b8b610516565b63f6a1584d60e01b6001600160e01b0319821601610196576101968c8c8b8b6105f3565b63c6af6caf60e01b6001600160e01b03198216016101ba576101ba8c8c8b8b610766565b505050505050505050505050565b336000818152602081815260408083206001600160a01b0387168452909152812080548492906101f9908490610d8d565b909155505060405182906001600160a01b038516907f0eaac1064ee8d13f83091f388597ffb5ff2d2e59f6a16aae2a74ba7f2d13c8d990600090a3505050565b600033905060006001826001600160a01b031663affed0e06040518163ffffffff1660e01b8152600401602060405180830381865afa158015610280573d6000803e3d6000fd5b505050506040513d601f19601f820116820180604052508101906102a49190610da5565b6102ae9190610dbe565b6040516bffffffffffffffffffffffff19606089811b821660208401526034830189905246605484015285901b1660748201526088810182905290915060009060a801604051602081830303815290604052805190602001209050600061034b8287878080601f016020809104026020016040519081016040528093929190818152602001838380828437600092018290525092506108fb915050565b60405163353ba5cd60e21b81526001600160a01b03868116600483015280831660248301529192507f00000000000000000000000000000000000000000000000000000000000000009091169063d4ee973490604401602060405180830381865afa1580156103be573d6000803e3d6000fd5b505050506040513d601f19601f820116820180604052508101906103e29190610dd5565b6104335760405162461bcd60e51b815260206004820152601a60248201527f496e76616c696420677561726469616e207369676e617475726500000000000060448201526064015b60405180910390fd5b6001600160a01b03808516600090815260208181526040808320938c1683529290529081208054899290610468908490610dbe565b909155505060405187906001600160a01b038a16907f079bee7f865179f632bcb69702978d375656a5decc8ca5fc5c3acc636412e35d90600090a35050505050505050565b6001600160a01b03821660008181526020818152604080832073c9e6c67284a1cefbad549c4af8200e564a75ca4c8452909152902054903190806104f18484610dbe565b101561051057604051632c3ba9a560e21b815260040160405180910390fd5b50505050565b60006105258260048186610dfe565b8101906105329190610cbf565b6001600160a01b03878116600081815260208181526040808320948b16808452949091528082205490516370a0823160e01b815260048101939093529395509293506370a0823190602401602060405180830381865afa15801561059a573d6000803e3d6000fd5b505050506040513d601f19601f820116820180604052508101906105be9190610da5565b9050816105cb8483610dbe565b10156105ea576040516355b9210760e01b815260040160405180910390fd5b50505050505050565b6000806106038360048187610dfe565b8101906106109190610cbf565b6001600160a01b03808916600090815260208181526040808320938b1683529290522054919350915080156105ea576040516370a0823160e01b81526001600160a01b038881166004830152600091908816906370a0823190602401602060405180830381865afa158015610689573d6000803e3d6000fd5b505050506040513d601f19601f820116820180604052508101906106ad9190610da5565b604051636eb1769f60e11b81526001600160a01b038a81166004830152868116602483015291925060009189169063dd62ed3e90604401602060405180830381865afa158015610701573d6000803e3d6000fd5b505050506040513d601f19601f820116820180604052508101906107259190610da5565b9050826107328286610d8d565b61073c9084610dbe565b101561075b5760405163d24e5c4760e01b815260040160405180910390fd5b505050505050505050565b6000806107768360048187610dfe565b8101906107839190610cbf565b6001600160a01b03888116600081815260208181526040808320948c16808452949091528082205490516370a0823160e01b815260048101939093529496509294506370a0823190602401602060405180830381865afa1580156107eb573d6000803e3d6000fd5b505050506040513d601f19601f8201168201806040525081019061080f9190610da5565b604051636eb1769f60e11b81526001600160a01b0386811660048301528a8116602483015291925060009189169063dd62ed3e90604401602060405180830381865afa158015610863573d6000803e3d6000fd5b505050506040513d601f19601f820116820180604052508101906108879190610da5565b905060006108958583610d8d565b9050836108a28285610dbe565b116108ef5760405162461bcd60e51b815260206004820152601860248201527f416c6c6f77616e63652065786365656473207661756c742e0000000000000000604482015260640161042a565b50505050505050505050565b60008060008061092586866041020160208101516040820151606090920151909260009190911a90565b9194509250905060ff81166000036109fd57604051630b135d3f60e11b81529293508392868301602001906001600160a01b03851690631626ba7e90610971908b908590600401610e28565b602060405180830381865afa15801561098e573d6000803e3d6000fd5b505050506040513d601f19601f820116820180604052508101906109b29190610e85565b7bffffffffffffffffffffffffffffffffffffffffffffffffffffffff1916631626ba7e60e01b146109f7576040516340aec60f60e11b815260040160405180910390fd5b50610b22565b601e8160ff161115610ac2576040517f19457468657265756d205369676e6564204d6573736167653a0a3332000000006020820152603c8101889052600190605c0160405160208183030381529060405280519060200120600483610a629190610eaf565b6040805160008152602081018083529390935260ff90911690820152606081018590526080810184905260a0016020604051602081039080840390855afa158015610ab1573d6000803e3d6000fd5b505050602060405103519350610b22565b60408051600081526020810180835289905260ff831691810191909152606081018490526080810183905260019060a0016020604051602081039080840390855afa158015610b15573d6000803e3d6000fd5b5050506020604051035193505b6001600160a01b038416610b495760405163b9bf1d7d60e01b815260040160405180910390fd5b5050509392505050565b6001600160a01b0381168114610b6857600080fd5b50565b60008083601f840112610b7d57600080fd5b50813567ffffffffffffffff811115610b9557600080fd5b602083019150836020828501011115610bad57600080fd5b9250929050565b60008060008060008060008060008060006101208c8e031215610bd657600080fd5b610be08c35610b53565b8b359a50610bf160208d0135610b53565b60208c0135995060408c0135985067ffffffffffffffff8060608e01351115610c1957600080fd5b610c298e60608f01358f01610b6b565b909950975060808d0135965060a08d0135955060c08d0135945060e08d013593506101008d0135811015610c5c57600080fd5b50610c6e8d6101008e01358e01610b6b565b81935080925050509295989b509295989b9093969950565b60008060408385031215610c9957600080fd5b8235610ca481610b53565b91506020830135610cb481610b53565b809150509250929050565b60008060408385031215610cd257600080fd5b8235610cdd81610b53565b946020939093013593505050565b60008060008060608587031215610d0157600080fd5b8435610d0c81610b53565b935060208501359250604085013567ffffffffffffffff811115610d2f57600080fd5b610d3b87828801610b6b565b95989497509550505050565b6001600160e01b03198135818116916004851015610d6f5780818660040360031b1b83161692505b505092915050565b634e487b7160e01b600052601160045260246000fd5b60008219821115610da057610da0610d77565b500190565b600060208284031215610db757600080fd5b5051919050565b600082821015610dd057610dd0610d77565b500390565b600060208284031215610de757600080fd5b81518015158114610df757600080fd5b9392505050565b60008085851115610e0e57600080fd5b83861115610e1b57600080fd5b5050820193919092039150565b82815260006020604081840152835180604085015260005b81811015610e5c57858101830151858201606001528201610e40565b81811115610e6e576000606083870101525b50601f01601f191692909201606001949350505050565b600060208284031215610e9757600080fd5b81516001600160e01b031981168114610df757600080fd5b600060ff821660ff841680821015610ec957610ec9610d77565b9003939250505056fea2646970667358221220e0ccb27ef56b530fa7e3abca75ebc008443fcb1d468bf1964557d8891678c24764736f6c634300080f0033",
  "devdoc": {
    "author": "Rodrigo Herrera I.",
    "kind": "dev",
    "methods": {
      "addTokensToVault(address,uint256)": {
        "params": {
          "amount": "Amount of tokens to add to the vault.",
          "token": "The address of the token."
        }
      },
      "getTokensInVault(address,address)": {
        "params": {
          "token": "The address of the token.",
          "wallet": "The address of the wallet."
        },
        "returns": {
          "_0": "The amount of tokens that are in the vault from the provided token and wallet."
        }
      },
      "removeTokensFromVault(address,uint256,bytes)": {
        "params": {
          "amount": "Amount of tokens to remove to the vault.",
          "guardianSignature": "Signature of one of the wallet's guardians.                           In order to take tokens out of the vault, it needs to be                           signed by the owner + a guardian.",
          "token": "The address of the token."
        }
      },
      "verifyTransaction(address,address,uint256,bytes,uint256,uint256,uint256,uint256,bytes)": {
        "params": {
          "callData": "Data payload for the transaction.",
          "to": "Destination address.",
          "value": "Amount in WEI to transfer.",
          "wallet": "The address of the wallet."
        }
      }
    },
    "title": "LaserVault",
    "version": 1
  },
  "userdoc": {
    "kind": "user",
    "methods": {
      "addTokensToVault(address,uint256)": {
        "notice": "Adds tokens to vault."
      },
      "removeTokensFromVault(address,uint256,bytes)": {
        "notice": "Removes tokens from vault."
      },
      "verifyTransaction(address,address,uint256,bytes,uint256,uint256,uint256,uint256,bytes)": {
        "notice": "Verifies that the transaction doesn't spend assets from the vault."
      }
    },
    "notice": "Laser guard module that locks assets of a Laser wallet for extra security.         It acts as a vault in the sense that the locked assets cannot be use unless the wallet's         owner (or authorized module) orders otherwise.",
    "version": 1
  },
  "storageLayout": {
    "storage": [
      {
        "astId": 2643,
        "contract": "contracts/modules/laser-guard/LaserVault.sol:LaserVault",
        "label": "tokensInVault",
        "offset": 0,
        "slot": "0",
        "type": "t_mapping(t_address,t_mapping(t_address,t_uint256))"
      },
      {
        "astId": 2651,
        "contract": "contracts/modules/laser-guard/LaserVault.sol:LaserVault",
        "label": "nftsInVault",
        "offset": 0,
        "slot": "1",
        "type": "t_mapping(t_address,t_mapping(t_address,t_mapping(t_uint256,t_bool)))"
      }
    ],
    "types": {
      "t_address": {
        "encoding": "inplace",
        "label": "address",
        "numberOfBytes": "20"
      },
      "t_bool": {
        "encoding": "inplace",
        "label": "bool",
        "numberOfBytes": "1"
      },
      "t_mapping(t_address,t_mapping(t_address,t_mapping(t_uint256,t_bool)))": {
        "encoding": "mapping",
        "key": "t_address",
        "label": "mapping(address => mapping(address => mapping(uint256 => bool)))",
        "numberOfBytes": "32",
        "value": "t_mapping(t_address,t_mapping(t_uint256,t_bool))"
      },
      "t_mapping(t_address,t_mapping(t_address,t_uint256))": {
        "encoding": "mapping",
        "key": "t_address",
        "label": "mapping(address => mapping(address => uint256))",
        "numberOfBytes": "32",
        "value": "t_mapping(t_address,t_uint256)"
      },
      "t_mapping(t_address,t_mapping(t_uint256,t_bool))": {
        "encoding": "mapping",
        "key": "t_address",
        "label": "mapping(address => mapping(uint256 => bool))",
        "numberOfBytes": "32",
        "value": "t_mapping(t_uint256,t_bool)"
      },
      "t_mapping(t_address,t_uint256)": {
        "encoding": "mapping",
        "key": "t_address",
        "label": "mapping(address => uint256)",
        "numberOfBytes": "32",
        "value": "t_uint256"
      },
      "t_mapping(t_uint256,t_bool)": {
        "encoding": "mapping",
        "key": "t_uint256",
        "label": "mapping(uint256 => bool)",
        "numberOfBytes": "32",
        "value": "t_bool"
      },
      "t_uint256": {
        "encoding": "inplace",
        "label": "uint256",
        "numberOfBytes": "32"
      }
    }
  }
}