{
  "address": "0x719A53c8e6033f86f47F847f5425E52f6E0Eea44",
  "abi": [
    {
      "inputs": [
        {
          "internalType": "address",
          "name": "laserWallet",
          "type": "address"
        }
      ],
      "name": "getLaserState",
      "outputs": [
        {
          "internalType": "address",
          "name": "owner",
          "type": "address"
        },
        {
          "internalType": "address[]",
          "name": "guardians",
          "type": "address[]"
        },
        {
          "internalType": "address[]",
          "name": "recoveryOwners",
          "type": "address[]"
        },
        {
          "internalType": "address",
          "name": "singleton",
          "type": "address"
        },
        {
          "internalType": "bool",
          "name": "isLocked",
          "type": "bool"
        },
        {
          "internalType": "uint256",
          "name": "configTimestamp",
          "type": "uint256"
        },
        {
          "internalType": "uint256",
          "name": "nonce",
          "type": "uint256"
        },
        {
          "internalType": "uint256",
          "name": "balance",
          "type": "uint256"
        }
      ],
      "stateMutability": "view",
      "type": "function"
    }
  ],
  "transactionHash": "0x99d8e58f219bef940d65a43ff31f523e09f84fcdbf5f73bc29fac0ff4bf2179e",
  "args": [],
  "numDeployments": 1,
  "solcInputHash": "3bbe8828e77593962f3caea905038670",
  "bytecode": "0x608060405234801561001057600080fd5b506105aa806100206000396000f3fe608060405234801561001057600080fd5b506004361061002b5760003560e01c8063deb5530f14610030575b600080fd5b61004361003e366004610366565b610060565b6040516100579897969594939291906103ce565b60405180910390f35b6000606080600080600080600080899050806001600160a01b0316638da5cb5b6040518163ffffffff1660e01b8152600401602060405180830381865afa1580156100af573d6000803e3d6000fd5b505050506040513d601f19601f820116820180604052508101906100d39190610441565b9850806001600160a01b0316630665f04b6040518163ffffffff1660e01b8152600401600060405180830381865afa158015610113573d6000803e3d6000fd5b505050506040513d6000823e601f3d908101601f1916820160405261013b9190810190610474565b9750806001600160a01b031663c194a0466040518163ffffffff1660e01b8152600401600060405180830381865afa15801561017b573d6000803e3d6000fd5b505050506040513d6000823e601f3d908101601f191682016040526101a39190810190610474565b9650806001600160a01b031663b62654fb6040518163ffffffff1660e01b8152600401602060405180830381865afa1580156101e3573d6000803e3d6000fd5b505050506040513d601f19601f820116820180604052508101906102079190610441565b9550806001600160a01b031663a4e2d6346040518163ffffffff1660e01b8152600401602060405180830381865afa158015610247573d6000803e3d6000fd5b505050506040513d601f19601f8201168201806040525081019061026b9190610539565b9450806001600160a01b031663238504536040518163ffffffff1660e01b8152600401602060405180830381865afa1580156102ab573d6000803e3d6000fd5b505050506040513d601f19601f820116820180604052508101906102cf919061055b565b9350806001600160a01b031663affed0e06040518163ffffffff1660e01b8152600401602060405180830381865afa15801561030f573d6000803e3d6000fd5b505050506040513d601f19601f82011682018060405250810190610333919061055b565b9250896001600160a01b031631915050919395975091939597565b6001600160a01b038116811461036357600080fd5b50565b60006020828403121561037857600080fd5b81356103838161034e565b9392505050565b600081518084526020808501945080840160005b838110156103c35781516001600160a01b03168752958201959082019060010161039e565b509495945050505050565b60006101006001600160a01b03808c1684528160208501526103f28285018c61038a565b91508382036040850152610406828b61038a565b981660608401525050931515608085015260a084019290925260c083015260e0909101529392505050565b805161043c8161034e565b919050565b60006020828403121561045357600080fd5b81516103838161034e565b634e487b7160e01b600052604160045260246000fd5b6000602080838503121561048757600080fd5b825167ffffffffffffffff8082111561049f57600080fd5b818501915085601f8301126104b357600080fd5b8151818111156104c5576104c561045e565b8060051b604051601f19603f830116810181811085821117156104ea576104ea61045e565b60405291825284820192508381018501918883111561050857600080fd5b938501935b8285101561052d5761051e85610431565b8452938501939285019261050d565b98975050505050505050565b60006020828403121561054b57600080fd5b8151801515811461038357600080fd5b60006020828403121561056d57600080fd5b505191905056fea264697066735822122084376a6273b009729b5f2b8e0066373281513e1cf6a3caaaf89d5a4ff4a5cf6464736f6c63430008100033",
  "devdoc": {
    "kind": "dev",
    "methods": {},
    "title": "LaserHelper",
    "version": 1
  },
  "userdoc": {
    "kind": "user",
    "methods": {},
    "notice": "Allows to batch multiple requests in a single rpc call.",
    "version": 1
  },
  "storageLayout": {
    "storage": [],
    "types": null
  }
}